{"abi":[{"inputs":[],"stateMutability":"nonpayable","type":"constructor"},{"anonymous":false,"inputs":[{"indexed":false,"internalType":"uint8","name":"deviceId","type":"uint8"},{"indexed":false,"internalType":"uint256","name":"identity","type":"uint256"}],"name":"AddDevice","type":"event"},{"anonymous":false,"inputs":[{"indexed":false,"internalType":"uint256","name":"res","type":"uint256"},{"indexed":false,"internalType":"uint256","name":"identity","type":"uint256"}],"name":"AddEventType","type":"event"},{"anonymous":false,"inputs":[{"indexed":false,"internalType":"bool","name":"res","type":"bool"},{"indexed":false,"internalType":"uint256","name":"identity","type":"uint256"}],"name":"ReduceDevice","type":"event"},{"anonymous":false,"inputs":[{"indexed":false,"internalType":"bool","name":"res","type":"bool"},{"indexed":false,"internalType":"uint256","name":"identity","type":"uint256"}],"name":"SetDeviceInfo","type":"event"},{"anonymous":false,"inputs":[{"indexed":false,"internalType":"uint256","name":"identity","type":"uint256"}],"name":"SetDeviceName","type":"event"},{"anonymous":false,"inputs":[{"indexed":false,"internalType":"uint256","name":"res","type":"uint256"},{"indexed":false,"internalType":"uint256","name":"identity","type":"uint256"}],"name":"SetEvent","type":"event"},{"anonymous":false,"inputs":[{"indexed":false,"internalType":"bool","name":"res","type":"bool"},{"indexed":false,"internalType":"uint256","name":"identity","type":"uint256"}],"name":"SetEventTypeName","type":"event"},{"anonymous":false,"inputs":[{"indexed":false,"internalType":"bool","name":"res","type":"bool"},{"indexed":false,"internalType":"uint256","name":"identity","type":"uint256"}],"name":"SetEventTypePlan","type":"event"},{"anonymous":false,"inputs":[{"indexed":false,"internalType":"bool","name":"res","type":"bool"},{"indexed":false,"internalType":"uint256","name":"identity","type":"uint256"}],"name":"SetPassword","type":"event"},{"anonymous":false,"inputs":[{"indexed":false,"internalType":"bool","name":"res","type":"bool"},{"indexed":false,"internalType":"uint256","name":"identity","type":"uint256"}],"name":"ToDoListDo","type":"event"},{"inputs":[{"internalType":"address","name":"_account","type":"address"},{"internalType":"string","name":"_password","type":"string"},{"internalType":"string","name":"_name","type":"string"},{"internalType":"string","name":"_detail","type":"string"},{"internalType":"uint256","name":"identity","type":"uint256"}],"name":"addDevice","outputs":[],"stateMutability":"nonpayable","type":"function"},{"inputs":[{"internalType":"uint8","name":"eventClass","type":"uint8"},{"internalType":"string","name":"eventName","type":"string"},{"internalType":"uint256","name":"identity","type":"uint256"}],"name":"addEventType","outputs":[],"stateMutability":"nonpayable","type":"function"},{"inputs":[{"internalType":"string","name":"_password","type":"string"}],"name":"auth","outputs":[{"internalType":"bool","name":"","type":"bool"}],"stateMutability":"view","type":"function"},{"inputs":[{"internalType":"address","name":"_account","type":"address"},{"internalType":"string","name":"_password","type":"string"},{"internalType":"uint256","name":"index","type":"uint256"}],"name":"authDevice","outputs":[{"internalType":"bool","name":"","type":"bool"}],"stateMutability":"view","type":"function"},{"inputs":[{"internalType":"uint8","name":"id","type":"uint8"}],"name":"authEvent","outputs":[{"internalType":"bool","name":"","type":"bool"}],"stateMutability":"view","type":"function"},{"inputs":[{"internalType":"string","name":"_str1","type":"string"},{"internalType":"string","name":"_str2","type":"string"}],"name":"compareStr","outputs":[{"internalType":"bool","name":"","type":"bool"}],"stateMutability":"pure","type":"function"},{"inputs":[{"internalType":"uint256","name":"","type":"uint256"}],"name":"devices","outputs":[{"internalType":"address","name":"account","type":"address"},{"internalType":"string","name":"password","type":"string"},{"internalType":"string","name":"name","type":"string"},{"internalType":"string","name":"detail","type":"string"}],"stateMutability":"view","type":"function"},{"inputs":[],"name":"devicesNum","outputs":[{"internalType":"uint256","name":"","type":"uint256"}],"stateMutability":"view","type":"function"},{"inputs":[{"internalType":"uint8","name":"","type":"uint8"},{"internalType":"uint256","name":"","type":"uint256"}],"name":"eventsById","outputs":[{"internalType":"uint8","name":"id","type":"uint8"},{"internalType":"uint256","name":"time","type":"uint256"},{"internalType":"bool","name":"state1","type":"bool"},{"internalType":"bool","name":"state2","type":"bool"}],"stateMutability":"view","type":"function"},{"inputs":[{"internalType":"uint256","name":"","type":"uint256"}],"name":"eventsClass","outputs":[{"internalType":"uint8","name":"class","type":"uint8"},{"internalType":"uint8","name":"id","type":"uint8"},{"internalType":"string","name":"name","type":"string"}],"stateMutability":"view","type":"function"},{"inputs":[{"internalType":"uint8","name":"","type":"uint8"}],"name":"eventsClassCountById","outputs":[{"internalType":"uint256","name":"","type":"uint256"}],"stateMutability":"view","type":"function"},{"inputs":[{"internalType":"uint8","name":"index","type":"uint8"}],"name":"getDeviceInfo","outputs":[{"internalType":"uint8","name":"id","type":"uint8"},{"internalType":"string","name":"","type":"string"},{"internalType":"string","name":"","type":"string"}],"stateMutability":"view","type":"function"},{"inputs":[],"name":"getDeviceLength","outputs":[{"internalType":"uint256","name":"","type":"uint256"}],"stateMutability":"view","type":"function"},{"inputs":[],"name":"getDeviceNum","outputs":[{"internalType":"uint256","name":"","type":"uint256"}],"stateMutability":"view","type":"function"},{"inputs":[{"internalType":"uint8","name":"deviceId","type":"uint8"},{"internalType":"uint8","name":"index","type":"uint8"}],"name":"getEvent","outputs":[{"internalType":"uint8","name":"","type":"uint8"},{"internalType":"uint256","name":"","type":"uint256"},{"internalType":"bool","name":"","type":"bool"},{"internalType":"bool","name":"","type":"bool"}],"stateMutability":"view","type":"function"},{"inputs":[{"internalType":"uint8","name":"deviceId","type":"uint8"}],"name":"getEventLength","outputs":[{"internalType":"uint256","name":"","type":"uint256"}],"stateMutability":"view","type":"function"},{"inputs":[{"internalType":"uint8","name":"id","type":"uint8"}],"name":"getEventsClassCount","outputs":[{"internalType":"uint256","name":"","type":"uint256"}],"stateMutability":"view","type":"function"},{"inputs":[{"internalType":"uint8","name":"id","type":"uint8"}],"name":"getEventsClassInfo","outputs":[{"internalType":"uint8","name":"","type":"uint8"},{"internalType":"uint8","name":"","type":"uint8"},{"internalType":"string","name":"","type":"string"}],"stateMutability":"view","type":"function"},{"inputs":[],"name":"getEventsClassLength","outputs":[{"internalType":"uint256","name":"","type":"uint256"}],"stateMutability":"view","type":"function"},{"inputs":[{"internalType":"uint256","name":"i","type":"uint256"}],"name":"getToDoListInfo","outputs":[{"internalType":"uint8","name":"","type":"uint8"},{"internalType":"uint8","name":"","type":"uint8"},{"internalType":"uint8","name":"","type":"uint8"},{"internalType":"uint256","name":"","type":"uint256"}],"stateMutability":"view","type":"function"},{"inputs":[],"name":"getToDoListLength","outputs":[{"internalType":"uint256","name":"","type":"uint256"}],"stateMutability":"view","type":"function"},{"inputs":[{"internalType":"uint8","name":"index","type":"uint8"},{"internalType":"uint256","name":"identity","type":"uint256"}],"name":"reduceDevice","outputs":[],"stateMutability":"nonpayable","type":"function"},{"inputs":[{"internalType":"uint256","name":"index","type":"uint256"},{"internalType":"string","name":"_name","type":"string"},{"internalType":"string","name":"_detail","type":"string"},{"internalType":"uint256","name":"identity","type":"uint256"}],"name":"setDeviceInfo","outputs":[],"stateMutability":"nonpayable","type":"function"},{"inputs":[{"internalType":"uint256","name":"index","type":"uint256"},{"internalType":"string","name":"_name","type":"string"},{"internalType":"uint256","name":"identity","type":"uint256"}],"name":"setDeviceName","outputs":[],"stateMutability":"nonpayable","type":"function"},{"inputs":[{"internalType":"address","name":"_account","type":"address"},{"internalType":"string","name":"_password","type":"string"},{"internalType":"uint8","name":"deviceId","type":"uint8"},{"internalType":"uint8","name":"eventId","type":"uint8"},{"internalType":"uint256","name":"identity","type":"uint256"}],"name":"setEvent","outputs":[],"stateMutability":"nonpayable","type":"function"},{"inputs":[{"internalType":"uint8","name":"eventId","type":"uint8"},{"internalType":"string","name":"eventName","type":"string"},{"internalType":"uint256","name":"identity","type":"uint256"}],"name":"setEventTypeName","outputs":[],"stateMutability":"nonpayable","type":"function"},{"inputs":[{"internalType":"uint8","name":"eventId","type":"uint8"},{"internalType":"uint8","name":"newClass","type":"uint8"},{"internalType":"uint256","name":"identity","type":"uint256"}],"name":"setEventTypePlan","outputs":[],"stateMutability":"nonpayable","type":"function"},{"inputs":[{"internalType":"string","name":"oldPassword","type":"string"},{"internalType":"string","name":"newPassword","type":"string"},{"internalType":"uint256","name":"identity","type":"uint256"}],"name":"setPassword","outputs":[],"stateMutability":"nonpayable","type":"function"},{"inputs":[{"internalType":"uint256","name":"","type":"uint256"}],"name":"toDoList","outputs":[{"internalType":"uint8","name":"device","type":"uint8"},{"internalType":"uint8","name":"eventType","type":"uint8"},{"internalType":"uint8","name":"refer","type":"uint8"}],"stateMutability":"view","type":"function"},{"inputs":[{"internalType":"uint8","name":"index","type":"uint8"},{"internalType":"bool","name":"approve","type":"bool"},{"internalType":"uint256","name":"identity","type":"uint256"}],"name":"toDoListDo","outputs":[],"stateMutability":"nonpayable","type":"function"}],"devdoc":{"kind":"dev","methods":{},"version":1},"evm":{"assembly":"    /* \"Connect.sol\":63:12114  contract Connect{... */\n  mstore(0x40, 0x80)\n    /* \"Connect.sol\":277:279  12 */\n  0x0c\n    /* \"Connect.sol\":267:280  new bytes(12) */\n  0xffffffffffffffff\n  dup2\n  gt\n  iszero\n  tag_1\n  jumpi\n  tag_2\n  tag_3\n  jump\t// in\ntag_2:\ntag_1:\n  mload(0x40)\n  swap1\n  dup1\n  dup3\n  mstore\n  dup1\n  0x1f\n  add\n  not(0x1f)\n  and\n  0x20\n  add\n  dup3\n  add\n  0x40\n  mstore\n  dup1\n  iszero\n  tag_4\n  jumpi\n  dup2\n  0x20\n  add\n  0x01\n  dup3\n  mul\n  dup1\n  calldatasize\n  dup4\n  calldatacopy\n  dup1\n  dup3\n  add\n  swap2\n  pop\n  pop\n  swap1\n  pop\ntag_4:\n  pop\n    /* \"Connect.sol\":252:280  bytes password=new bytes(12) */\n  0x00\n  swap1\n  dup1\n  mload\n  swap1\n  0x20\n  add\n  swap1\n  tag_5\n  swap3\n  swap2\n  swap1\n  tag_6\n  jump\t// in\ntag_5:\n  pop\n    /* \"Connect.sol\":1186:1187  0 */\n  0x00\n    /* \"Connect.sol\":1163:1187  uint public devicesNum=0 */\n  0x02\n  sstore\n    /* \"Connect.sol\":10747:11598  constructor(){... */\n  callvalue\n  dup1\n  iszero\n  tag_7\n  jumpi\n  0x00\n  dup1\n  revert\ntag_7:\n  pop\n    /* \"Connect.sol\":10803:10814  password=\"\" */\n  mload(0x40)\n  dup1\n  0x20\n  add\n  0x40\n  mstore\n  dup1\n  0x00\n  dup2\n  mstore\n  pop\n    /* \"Connect.sol\":10803:10811  password */\n  0x00\n    /* \"Connect.sol\":10803:10814  password=\"\" */\n  swap1\n  dup1\n  mload\n  swap1\n  0x20\n  add\n  swap1\n  tag_10\n  swap3\n  swap2\n  swap1\n  tag_11\n  jump\t// in\ntag_10:\n  pop\n    /* \"Connect.sol\":10858:10869  eventsClass */\n  0x03\n    /* \"Connect.sol\":10875:11028  EventsClass({... */\n  mload(0x40)\n  dup1\n  0x60\n  add\n  0x40\n  mstore\n  dup1\n    /* \"Connect.sol\":10907:10908  0 */\n  0x00\n    /* \"Connect.sol\":10875:11028  EventsClass({... */\n  0xff\n  and\n  dup2\n  mstore\n  0x20\n  add\n    /* \"Connect.sol\":10925:10926  0 */\n  0x00\n    /* \"Connect.sol\":10875:11028  EventsClass({... */\n  0xff\n  and\n  dup2\n  mstore\n  0x20\n  add\n  mload(0x40)\n  dup1\n  0x40\n  add\n  0x40\n  mstore\n  dup1\n  0x05\n  dup2\n  mstore\n  0x20\n  add\n  0x506c61696e000000000000000000000000000000000000000000000000000000\n  dup2\n  mstore\n  pop\n  dup2\n  mstore\n  pop\n    /* \"Connect.sol\":10858:11029  eventsClass.push(EventsClass({... */\n  swap1\n  dup1\n  0x01\n  dup2\n  sload\n  add\n  dup1\n  dup3\n  sstore\n  dup1\n  swap2\n  pop\n  pop\n  0x01\n  swap1\n  sub\n  swap1\n  0x00\n  mstore\n  keccak256(0x00, 0x20)\n  swap1\n  0x02\n  mul\n  add\n  0x00\n  swap1\n  swap2\n  swap1\n  swap2\n  swap1\n  swap2\n  pop\n  0x00\n  dup3\n  add\n  mload\n  dup2\n  0x00\n  add\n  exp(0x0100, 0x00)\n  dup2\n  sload\n  dup2\n  0xff\n  mul\n  not\n  and\n  swap1\n  dup4\n  0xff\n  and\n  mul\n  or\n  swap1\n  sstore\n  pop\n  0x20\n  dup3\n  add\n  mload\n  dup2\n  0x00\n  add\n  exp(0x0100, 0x01)\n  dup2\n  sload\n  dup2\n  0xff\n  mul\n  not\n  and\n  swap1\n  dup4\n  0xff\n  and\n  mul\n  or\n  swap1\n  sstore\n  pop\n  0x40\n  dup3\n  add\n  mload\n  dup2\n  0x01\n  add\n  swap1\n  dup1\n  mload\n  swap1\n  0x20\n  add\n  swap1\n  tag_13\n  swap3\n  swap2\n  swap1\n  tag_14\n  jump\t// in\ntag_13:\n  pop\n  pop\n  pop\n    /* \"Connect.sol\":11039:11050  eventsClass */\n  0x03\n    /* \"Connect.sol\":11056:11207  EventsClass({... */\n  mload(0x40)\n  dup1\n  0x60\n  add\n  0x40\n  mstore\n  dup1\n    /* \"Connect.sol\":11088:11089  1 */\n  0x01\n    /* \"Connect.sol\":11056:11207  EventsClass({... */\n  0xff\n  and\n  dup2\n  mstore\n  0x20\n  add\n    /* \"Connect.sol\":11106:11107  1 */\n  0x01\n    /* \"Connect.sol\":11056:11207  EventsClass({... */\n  0xff\n  and\n  dup2\n  mstore\n  0x20\n  add\n  mload(0x40)\n  dup1\n  0x40\n  add\n  0x40\n  mstore\n  dup1\n  0x06\n  dup2\n  mstore\n  0x20\n  add\n  0x4e6f726d616c0000000000000000000000000000000000000000000000000000\n  dup2\n  mstore\n  pop\n  dup2\n  mstore\n  pop\n    /* \"Connect.sol\":11039:11208  eventsClass.push(EventsClass({... */\n  swap1\n  dup1\n  0x01\n  dup2\n  sload\n  add\n  dup1\n  dup3\n  sstore\n  dup1\n  swap2\n  pop\n  pop\n  0x01\n  swap1\n  sub\n  swap1\n  0x00\n  mstore\n  keccak256(0x00, 0x20)\n  swap1\n  0x02\n  mul\n  add\n  0x00\n  swap1\n  swap2\n  swap1\n  swap2\n  swap1\n  swap2\n  pop\n  0x00\n  dup3\n  add\n  mload\n  dup2\n  0x00\n  add\n  exp(0x0100, 0x00)\n  dup2\n  sload\n  dup2\n  0xff\n  mul\n  not\n  and\n  swap1\n  dup4\n  0xff\n  and\n  mul\n  or\n  swap1\n  sstore\n  pop\n  0x20\n  dup3\n  add\n  mload\n  dup2\n  0x00\n  add\n  exp(0x0100, 0x01)\n  dup2\n  sload\n  dup2\n  0xff\n  mul\n  not\n  and\n  swap1\n  dup4\n  0xff\n  and\n  mul\n  or\n  swap1\n  sstore\n  pop\n  0x40\n  dup3\n  add\n  mload\n  dup2\n  0x01\n  add\n  swap1\n  dup1\n  mload\n  swap1\n  0x20\n  add\n  swap1\n  tag_16\n  swap3\n  swap2\n  swap1\n  tag_14\n  jump\t// in\ntag_16:\n  pop\n  pop\n  pop\n    /* \"Connect.sol\":11218:11229  eventsClass */\n  0x03\n    /* \"Connect.sol\":11235:11405  EventsClass({... */\n  mload(0x40)\n  dup1\n  0x60\n  add\n  0x40\n  mstore\n  dup1\n    /* \"Connect.sol\":11267:11268  2 */\n  0x02\n    /* \"Connect.sol\":11235:11405  EventsClass({... */\n  0xff\n  and\n  dup2\n  mstore\n  0x20\n  add\n    /* \"Connect.sol\":11285:11286  2 */\n  0x02\n    /* \"Connect.sol\":11235:11405  EventsClass({... */\n  0xff\n  and\n  dup2\n  mstore\n  0x20\n  add\n  mload(0x40)\n  dup1\n  0x40\n  add\n  0x40\n  mstore\n  dup1\n  0x07\n  dup2\n  mstore\n  0x20\n  add\n  0x5761726e696e6700000000000000000000000000000000000000000000000000\n  dup2\n  mstore\n  pop\n  dup2\n  mstore\n  pop\n    /* \"Connect.sol\":11218:11406  eventsClass.push(EventsClass({... */\n  swap1\n  dup1\n  0x01\n  dup2\n  sload\n  add\n  dup1\n  dup3\n  sstore\n  dup1\n  swap2\n  pop\n  pop\n  0x01\n  swap1\n  sub\n  swap1\n  0x00\n  mstore\n  keccak256(0x00, 0x20)\n  swap1\n  0x02\n  mul\n  add\n  0x00\n  swap1\n  swap2\n  swap1\n  swap2\n  swap1\n  swap2\n  pop\n  0x00\n  dup3\n  add\n  mload\n  dup2\n  0x00\n  add\n  exp(0x0100, 0x00)\n  dup2\n  sload\n  dup2\n  0xff\n  mul\n  not\n  and\n  swap1\n  dup4\n  0xff\n  and\n  mul\n  or\n  swap1\n  sstore\n  pop\n  0x20\n  dup3\n  add\n  mload\n  dup2\n  0x00\n  add\n  exp(0x0100, 0x01)\n  dup2\n  sload\n  dup2\n  0xff\n  mul\n  not\n  and\n  swap1\n  dup4\n  0xff\n  and\n  mul\n  or\n  swap1\n  sstore\n  pop\n  0x40\n  dup3\n  add\n  mload\n  dup2\n  0x01\n  add\n  swap1\n  dup1\n  mload\n  swap1\n  0x20\n  add\n  swap1\n  tag_18\n  swap3\n  swap2\n  swap1\n  tag_14\n  jump\t// in\ntag_18:\n  pop\n  pop\n  pop\n    /* \"Connect.sol\":11416:11427  eventsClass */\n  0x03\n    /* \"Connect.sol\":11433:11590  EventsClass({... */\n  mload(0x40)\n  dup1\n  0x60\n  add\n  0x40\n  mstore\n  dup1\n    /* \"Connect.sol\":11465:11466  3 */\n  0x03\n    /* \"Connect.sol\":11433:11590  EventsClass({... */\n  0xff\n  and\n  dup2\n  mstore\n  0x20\n  add\n    /* \"Connect.sol\":11483:11484  3 */\n  0x03\n    /* \"Connect.sol\":11433:11590  EventsClass({... */\n  0xff\n  and\n  dup2\n  mstore\n  0x20\n  add\n  mload(0x40)\n  dup1\n  0x40\n  add\n  0x40\n  mstore\n  dup1\n  0x06\n  dup2\n  mstore\n  0x20\n  add\n  0x52656a6563740000000000000000000000000000000000000000000000000000\n  dup2\n  mstore\n  pop\n  dup2\n  mstore\n  pop\n    /* \"Connect.sol\":11416:11591  eventsClass.push(EventsClass({... */\n  swap1\n  dup1\n  0x01\n  dup2\n  sload\n  add\n  dup1\n  dup3\n  sstore\n  dup1\n  swap2\n  pop\n  pop\n  0x01\n  swap1\n  sub\n  swap1\n  0x00\n  mstore\n  keccak256(0x00, 0x20)\n  swap1\n  0x02\n  mul\n  add\n  0x00\n  swap1\n  swap2\n  swap1\n  swap2\n  swap1\n  swap2\n  pop\n  0x00\n  dup3\n  add\n  mload\n  dup2\n  0x00\n  add\n  exp(0x0100, 0x00)\n  dup2\n  sload\n  dup2\n  0xff\n  mul\n  not\n  and\n  swap1\n  dup4\n  0xff\n  and\n  mul\n  or\n  swap1\n  sstore\n  pop\n  0x20\n  dup3\n  add\n  mload\n  dup2\n  0x00\n  add\n  exp(0x0100, 0x01)\n  dup2\n  sload\n  dup2\n  0xff\n  mul\n  not\n  and\n  swap1\n  dup4\n  0xff\n  and\n  mul\n  or\n  swap1\n  sstore\n  pop\n  0x40\n  dup3\n  add\n  mload\n  dup2\n  0x01\n  add\n  swap1\n  dup1\n  mload\n  swap1\n  0x20\n  add\n  swap1\n  tag_20\n  swap3\n  swap2\n  swap1\n  tag_14\n  jump\t// in\ntag_20:\n  pop\n  pop\n  pop\n    /* \"Connect.sol\":63:12114  contract Connect{... */\n  jump(tag_21)\ntag_6:\n  dup3\n  dup1\n  sload\n  tag_22\n  swap1\n  tag_23\n  jump\t// in\ntag_22:\n  swap1\n  0x00\n  mstore\n  keccak256(0x00, 0x20)\n  swap1\n  0x1f\n  add\n  0x20\n  swap1\n  div\n  dup2\n  add\n  swap3\n  dup3\n  tag_25\n  jumpi\n  0x00\n  dup6\n  sstore\n  jump(tag_24)\ntag_25:\n  dup3\n  0x1f\n  lt\n  tag_26\n  jumpi\n  dup1\n  mload\n  not(0xff)\n  and\n  dup4\n  dup1\n  add\n  or\n  dup6\n  sstore\n  jump(tag_24)\ntag_26:\n  dup3\n  dup1\n  add\n  0x01\n  add\n  dup6\n  sstore\n  dup3\n  iszero\n  tag_24\n  jumpi\n  swap2\n  dup3\n  add\ntag_27:\n  dup3\n  dup2\n  gt\n  iszero\n  tag_28\n  jumpi\n  dup3\n  mload\n  dup3\n  sstore\n  swap2\n  0x20\n  add\n  swap2\n  swap1\n  0x01\n  add\n  swap1\n  jump(tag_27)\ntag_28:\ntag_24:\n  pop\n  swap1\n  pop\n  tag_29\n  swap2\n  swap1\n  tag_30\n  jump\t// in\ntag_29:\n  pop\n  swap1\n  jump\t// out\ntag_11:\n  dup3\n  dup1\n  sload\n  tag_31\n  swap1\n  tag_23\n  jump\t// in\ntag_31:\n  swap1\n  0x00\n  mstore\n  keccak256(0x00, 0x20)\n  swap1\n  0x1f\n  add\n  0x20\n  swap1\n  div\n  dup2\n  add\n  swap3\n  dup3\n  tag_33\n  jumpi\n  0x00\n  dup6\n  sstore\n  jump(tag_32)\ntag_33:\n  dup3\n  0x1f\n  lt\n  tag_34\n  jumpi\n  dup1\n  mload\n  not(0xff)\n  and\n  dup4\n  dup1\n  add\n  or\n  dup6\n  sstore\n  jump(tag_32)\ntag_34:\n  dup3\n  dup1\n  add\n  0x01\n  add\n  dup6\n  sstore\n  dup3\n  iszero\n  tag_32\n  jumpi\n  swap2\n  dup3\n  add\ntag_35:\n  dup3\n  dup2\n  gt\n  iszero\n  tag_36\n  jumpi\n  dup3\n  mload\n  dup3\n  sstore\n  swap2\n  0x20\n  add\n  swap2\n  swap1\n  0x01\n  add\n  swap1\n  jump(tag_35)\ntag_36:\ntag_32:\n  pop\n  swap1\n  pop\n  tag_37\n  swap2\n  swap1\n  tag_30\n  jump\t// in\ntag_37:\n  pop\n  swap1\n  jump\t// out\ntag_14:\n  dup3\n  dup1\n  sload\n  tag_38\n  swap1\n  tag_23\n  jump\t// in\ntag_38:\n  swap1\n  0x00\n  mstore\n  keccak256(0x00, 0x20)\n  swap1\n  0x1f\n  add\n  0x20\n  swap1\n  div\n  dup2\n  add\n  swap3\n  dup3\n  tag_40\n  jumpi\n  0x00\n  dup6\n  sstore\n  jump(tag_39)\ntag_40:\n  dup3\n  0x1f\n  lt\n  tag_41\n  jumpi\n  dup1\n  mload\n  not(0xff)\n  and\n  dup4\n  dup1\n  add\n  or\n  dup6\n  sstore\n  jump(tag_39)\ntag_41:\n  dup3\n  dup1\n  add\n  0x01\n  add\n  dup6\n  sstore\n  dup3\n  iszero\n  tag_39\n  jumpi\n  swap2\n  dup3\n  add\ntag_42:\n  dup3\n  dup2\n  gt\n  iszero\n  tag_43\n  jumpi\n  dup3\n  mload\n  dup3\n  sstore\n  swap2\n  0x20\n  add\n  swap2\n  swap1\n  0x01\n  add\n  swap1\n  jump(tag_42)\ntag_43:\ntag_39:\n  pop\n  swap1\n  pop\n  tag_44\n  swap2\n  swap1\n  tag_30\n  jump\t// in\ntag_44:\n  pop\n  swap1\n  jump\t// out\ntag_30:\ntag_45:\n  dup1\n  dup3\n  gt\n  iszero\n  tag_46\n  jumpi\n  0x00\n  dup2\n  0x00\n  swap1\n  sstore\n  pop\n  0x01\n  add\n  jump(tag_45)\ntag_46:\n  pop\n  swap1\n  jump\t// out\n    /* \"#utility.yul\":7:187   */\ntag_3:\n    /* \"#utility.yul\":55:132   */\n  0x4e487b7100000000000000000000000000000000000000000000000000000000\n    /* \"#utility.yul\":52:53   */\n  0x00\n    /* \"#utility.yul\":45:133   */\n  mstore\n    /* \"#utility.yul\":152:156   */\n  0x41\n    /* \"#utility.yul\":149:150   */\n  0x04\n    /* \"#utility.yul\":142:157   */\n  mstore\n    /* \"#utility.yul\":176:180   */\n  0x24\n    /* \"#utility.yul\":173:174   */\n  0x00\n    /* \"#utility.yul\":166:181   */\n  revert\n    /* \"#utility.yul\":193:373   */\ntag_47:\n    /* \"#utility.yul\":241:318   */\n  0x4e487b7100000000000000000000000000000000000000000000000000000000\n    /* \"#utility.yul\":238:239   */\n  0x00\n    /* \"#utility.yul\":231:319   */\n  mstore\n    /* \"#utility.yul\":338:342   */\n  0x22\n    /* \"#utility.yul\":335:336   */\n  0x04\n    /* \"#utility.yul\":328:343   */\n  mstore\n    /* \"#utility.yul\":362:366   */\n  0x24\n    /* \"#utility.yul\":359:360   */\n  0x00\n    /* \"#utility.yul\":352:367   */\n  revert\n    /* \"#utility.yul\":379:699   */\ntag_23:\n    /* \"#utility.yul\":423:429   */\n  0x00\n    /* \"#utility.yul\":460:461   */\n  0x02\n    /* \"#utility.yul\":454:458   */\n  dup3\n    /* \"#utility.yul\":450:462   */\n  div\n    /* \"#utility.yul\":440:462   */\n  swap1\n  pop\n    /* \"#utility.yul\":507:508   */\n  0x01\n    /* \"#utility.yul\":501:505   */\n  dup3\n    /* \"#utility.yul\":497:509   */\n  and\n    /* \"#utility.yul\":528:546   */\n  dup1\n    /* \"#utility.yul\":518:599   */\n  tag_52\n  jumpi\n    /* \"#utility.yul\":584:588   */\n  0x7f\n    /* \"#utility.yul\":576:582   */\n  dup3\n    /* \"#utility.yul\":572:589   */\n  and\n    /* \"#utility.yul\":562:589   */\n  swap2\n  pop\n    /* \"#utility.yul\":518:599   */\ntag_52:\n    /* \"#utility.yul\":646:648   */\n  0x20\n    /* \"#utility.yul\":638:644   */\n  dup3\n    /* \"#utility.yul\":635:649   */\n  lt\n    /* \"#utility.yul\":615:633   */\n  dup2\n    /* \"#utility.yul\":612:650   */\n  eq\n    /* \"#utility.yul\":609:693   */\n  iszero\n  tag_53\n  jumpi\n    /* \"#utility.yul\":665:683   */\n  tag_54\n  tag_47\n  jump\t// in\ntag_54:\n    /* \"#utility.yul\":609:693   */\ntag_53:\n    /* \"#utility.yul\":430:699   */\n  pop\n    /* \"#utility.yul\":379:699   */\n  swap2\n  swap1\n  pop\n  jump\t// out\n    /* \"Connect.sol\":63:12114  contract Connect{... */\ntag_21:\n  dataSize(sub_0)\n  dup1\n  dataOffset(sub_0)\n  0x00\n  codecopy\n  0x00\n  return\nstop\n\nsub_0: assembly {\n        /* \"Connect.sol\":63:12114  contract Connect{... */\n      mstore(0x40, 0x80)\n      callvalue\n      dup1\n      iszero\n      tag_1\n      jumpi\n      0x00\n      dup1\n      revert\n    tag_1:\n      pop\n      jumpi(tag_2, lt(calldatasize, 0x04))\n      shr(0xe0, calldataload(0x00))\n      dup1\n      0xa185aa32\n      gt\n      tag_33\n      jumpi\n      dup1\n      0xc88806eb\n      gt\n      tag_34\n      jumpi\n      dup1\n      0xe4db2ceb\n      gt\n      tag_35\n      jumpi\n      dup1\n      0xe4db2ceb\n      eq\n      tag_29\n      jumpi\n      dup1\n      0xf38f959b\n      eq\n      tag_30\n      jumpi\n      dup1\n      0xf586c695\n      eq\n      tag_31\n      jumpi\n      dup1\n      0xf5d75ff9\n      eq\n      tag_32\n      jumpi\n      jump(tag_2)\n    tag_35:\n      dup1\n      0xc88806eb\n      eq\n      tag_25\n      jumpi\n      dup1\n      0xc982a2bb\n      eq\n      tag_26\n      jumpi\n      dup1\n      0xcf9253ef\n      eq\n      tag_27\n      jumpi\n      dup1\n      0xd938b594\n      eq\n      tag_28\n      jumpi\n      jump(tag_2)\n    tag_34:\n      dup1\n      0xa65a2e19\n      gt\n      tag_36\n      jumpi\n      dup1\n      0xa65a2e19\n      eq\n      tag_21\n      jumpi\n      dup1\n      0xbc08bfac\n      eq\n      tag_22\n      jumpi\n      dup1\n      0xc1260e66\n      eq\n      tag_23\n      jumpi\n      dup1\n      0xc4f48625\n      eq\n      tag_24\n      jumpi\n      jump(tag_2)\n    tag_36:\n      dup1\n      0xa185aa32\n      eq\n      tag_18\n      jumpi\n      dup1\n      0xa2be951c\n      eq\n      tag_19\n      jumpi\n      dup1\n      0xa43d20ed\n      eq\n      tag_20\n      jumpi\n      jump(tag_2)\n    tag_33:\n      dup1\n      0x50e3f3d4\n      gt\n      tag_37\n      jumpi\n      dup1\n      0x87c5d5cc\n      gt\n      tag_38\n      jumpi\n      dup1\n      0x87c5d5cc\n      eq\n      tag_14\n      jumpi\n      dup1\n      0x9cdb785d\n      eq\n      tag_15\n      jumpi\n      dup1\n      0x9f91a7f8\n      eq\n      tag_16\n      jumpi\n      dup1\n      0xa1691374\n      eq\n      tag_17\n      jumpi\n      jump(tag_2)\n    tag_38:\n      dup1\n      0x50e3f3d4\n      eq\n      tag_10\n      jumpi\n      dup1\n      0x55df0ac4\n      eq\n      tag_11\n      jumpi\n      dup1\n      0x6521d408\n      eq\n      tag_12\n      jumpi\n      dup1\n      0x736f7826\n      eq\n      tag_13\n      jumpi\n      jump(tag_2)\n    tag_37:\n      dup1\n      0x25608ee0\n      gt\n      tag_39\n      jumpi\n      dup1\n      0x25608ee0\n      eq\n      tag_6\n      jumpi\n      dup1\n      0x269c969b\n      eq\n      tag_7\n      jumpi\n      dup1\n      0x3ee92a08\n      eq\n      tag_8\n      jumpi\n      dup1\n      0x40bf1328\n      eq\n      tag_9\n      jumpi\n      jump(tag_2)\n    tag_39:\n      dup1\n      0x0db638f5\n      eq\n      tag_3\n      jumpi\n      dup1\n      0x0e4df87f\n      eq\n      tag_4\n      jumpi\n      dup1\n      0x10ff8e31\n      eq\n      tag_5\n      jumpi\n    tag_2:\n      0x00\n      dup1\n      revert\n        /* \"Connect.sol\":3304:3698  function authDevice(address _account, string memory _password, uint index) view public returns(bool){... */\n    tag_3:\n      tag_40\n      0x04\n      dup1\n      calldatasize\n      sub\n      dup2\n      add\n      swap1\n      tag_41\n      swap2\n      swap1\n      tag_42\n      jump\t// in\n    tag_41:\n      tag_43\n      jump\t// in\n    tag_40:\n      mload(0x40)\n      tag_44\n      swap2\n      swap1\n      tag_45\n      jump\t// in\n    tag_44:\n      mload(0x40)\n      dup1\n      swap2\n      sub\n      swap1\n      return\n        /* \"Connect.sol\":1309:1399  function getDeviceLength() view public returns(uint){... */\n    tag_4:\n      tag_46\n      tag_47\n      jump\t// in\n    tag_46:\n      mload(0x40)\n      tag_48\n      swap2\n      swap1\n      tag_49\n      jump\t// in\n    tag_48:\n      mload(0x40)\n      dup1\n      swap2\n      sub\n      swap1\n      return\n        /* \"Connect.sol\":1134:1157  Device[] public devices */\n    tag_5:\n      tag_50\n      0x04\n      dup1\n      calldatasize\n      sub\n      dup2\n      add\n      swap1\n      tag_51\n      swap2\n      swap1\n      tag_52\n      jump\t// in\n    tag_51:\n      tag_53\n      jump\t// in\n    tag_50:\n      mload(0x40)\n      tag_54\n      swap5\n      swap4\n      swap3\n      swap2\n      swap1\n      tag_55\n      jump\t// in\n    tag_54:\n      mload(0x40)\n      dup1\n      swap2\n      sub\n      swap1\n      return\n        /* \"Connect.sol\":2916:3278  function reduceDevice(uint8 index,uint identity) public{... */\n    tag_6:\n      tag_56\n      0x04\n      dup1\n      calldatasize\n      sub\n      dup2\n      add\n      swap1\n      tag_57\n      swap2\n      swap1\n      tag_58\n      jump\t// in\n    tag_57:\n      tag_59\n      jump\t// in\n    tag_56:\n      stop\n        /* \"Connect.sol\":4959:5266  function setEventTypeName(uint8 eventId, string memory eventName,uint identity)public{... */\n    tag_7:\n      tag_60\n      0x04\n      dup1\n      calldatasize\n      sub\n      dup2\n      add\n      swap1\n      tag_61\n      swap2\n      swap1\n      tag_62\n      jump\t// in\n    tag_61:\n      tag_63\n      jump\t// in\n    tag_60:\n      stop\n        /* \"Connect.sol\":1220:1303  function getDeviceNum() view public returns(uint){... */\n    tag_8:\n      tag_64\n      tag_65\n      jump\t// in\n    tag_64:\n      mload(0x40)\n      tag_66\n      swap2\n      swap1\n      tag_49\n      jump\t// in\n    tag_66:\n      mload(0x40)\n      dup1\n      swap2\n      sub\n      swap1\n      return\n        /* \"Connect.sol\":4088:4120  EventsClass[] public eventsClass */\n    tag_9:\n      tag_67\n      0x04\n      dup1\n      calldatasize\n      sub\n      dup2\n      add\n      swap1\n      tag_68\n      swap2\n      swap1\n      tag_52\n      jump\t// in\n    tag_68:\n      tag_69\n      jump\t// in\n    tag_67:\n      mload(0x40)\n      tag_70\n      swap4\n      swap3\n      swap2\n      swap1\n      tag_71\n      jump\t// in\n    tag_70:\n      mload(0x40)\n      dup1\n      swap2\n      sub\n      swap1\n      return\n        /* \"Connect.sol\":501:819  function setPassword(string memory oldPassword,string memory newPassword,uint identity) public{... */\n    tag_10:\n      tag_72\n      0x04\n      dup1\n      calldatasize\n      sub\n      dup2\n      add\n      swap1\n      tag_73\n      swap2\n      swap1\n      tag_74\n      jump\t// in\n    tag_73:\n      tag_75\n      jump\t// in\n    tag_72:\n      stop\n        /* \"Connect.sol\":8201:8553  function getEvent(uint8 deviceId,uint8 index) view public returns(uint8,uint,bool,bool){... */\n    tag_11:\n      tag_76\n      0x04\n      dup1\n      calldatasize\n      sub\n      dup2\n      add\n      swap1\n      tag_77\n      swap2\n      swap1\n      tag_78\n      jump\t// in\n    tag_77:\n      tag_79\n      jump\t// in\n    tag_76:\n      mload(0x40)\n      tag_80\n      swap5\n      swap4\n      swap3\n      swap2\n      swap1\n      tag_81\n      jump\t// in\n    tag_80:\n      mload(0x40)\n      dup1\n      swap2\n      sub\n      swap1\n      return\n        /* \"Connect.sol\":4551:4863  function setEventTypePlan(uint8 eventId, uint8 newClass,uint identity)public{... */\n    tag_12:\n      tag_82\n      0x04\n      dup1\n      calldatasize\n      sub\n      dup2\n      add\n      swap1\n      tag_83\n      swap2\n      swap1\n      tag_84\n      jump\t// in\n    tag_83:\n      tag_85\n      jump\t// in\n    tag_82:\n      stop\n        /* \"Connect.sol\":7235:7930  function toDoListDo(uint8 index,bool approve,uint identity)public {... */\n    tag_13:\n      tag_86\n      0x04\n      dup1\n      calldatasize\n      sub\n      dup2\n      add\n      swap1\n      tag_87\n      swap2\n      swap1\n      tag_88\n      jump\t// in\n    tag_87:\n      tag_89\n      jump\t// in\n    tag_86:\n      stop\n        /* \"Connect.sol\":11796:12112  function compareStr(string memory _str1, string memory _str2) pure public returns(bool) {... */\n    tag_14:\n      tag_90\n      0x04\n      dup1\n      calldatasize\n      sub\n      dup2\n      add\n      swap1\n      tag_91\n      swap2\n      swap1\n      tag_92\n      jump\t// in\n    tag_91:\n      tag_93\n      jump\t// in\n    tag_90:\n      mload(0x40)\n      tag_94\n      swap2\n      swap1\n      tag_45\n      jump\t// in\n    tag_94:\n      mload(0x40)\n      dup1\n      swap2\n      sub\n      swap1\n      return\n        /* \"Connect.sol\":6466:6510  mapping(uint8 => Events[]) public eventsById */\n    tag_15:\n      tag_95\n      0x04\n      dup1\n      calldatasize\n      sub\n      dup2\n      add\n      swap1\n      tag_96\n      swap2\n      swap1\n      tag_58\n      jump\t// in\n    tag_96:\n      tag_97\n      jump\t// in\n    tag_95:\n      mload(0x40)\n      tag_98\n      swap5\n      swap4\n      swap3\n      swap2\n      swap1\n      tag_81\n      jump\t// in\n    tag_98:\n      mload(0x40)\n      dup1\n      swap2\n      sub\n      swap1\n      return\n        /* \"Connect.sol\":2475:2842  function addDevice(address _account, string memory _password, string memory _name, string memory _detail,uint identity) public{... */\n    tag_16:\n      tag_99\n      0x04\n      dup1\n      calldatasize\n      sub\n      dup2\n      add\n      swap1\n      tag_100\n      swap2\n      swap1\n      tag_101\n      jump\t// in\n    tag_100:\n      tag_102\n      jump\t// in\n    tag_99:\n      stop\n        /* \"Connect.sol\":5355:5743  function addEventType(uint8 eventClass,string memory eventName,uint identity)public{... */\n    tag_17:\n      tag_103\n      0x04\n      dup1\n      calldatasize\n      sub\n      dup2\n      add\n      swap1\n      tag_104\n      swap2\n      swap1\n      tag_62\n      jump\t// in\n    tag_104:\n      tag_105\n      jump\t// in\n    tag_103:\n      stop\n        /* \"Connect.sol\":7001:7162  function getToDoListInfo(uint i)public view returns(uint8,uint8,uint8,uint){... */\n    tag_18:\n      tag_106\n      0x04\n      dup1\n      calldatasize\n      sub\n      dup2\n      add\n      swap1\n      tag_107\n      swap2\n      swap1\n      tag_52\n      jump\t// in\n    tag_107:\n      tag_108\n      jump\t// in\n    tag_106:\n      mload(0x40)\n      tag_109\n      swap5\n      swap4\n      swap3\n      swap2\n      swap1\n      tag_110\n      jump\t// in\n    tag_109:\n      mload(0x40)\n      dup1\n      swap2\n      sub\n      swap1\n      return\n        /* \"Connect.sol\":1471:1625  function setDeviceName(uint index,string memory _name,uint identity)public{... */\n    tag_19:\n      tag_111\n      0x04\n      dup1\n      calldatasize\n      sub\n      dup2\n      add\n      swap1\n      tag_112\n      swap2\n      swap1\n      tag_113\n      jump\t// in\n    tag_112:\n      tag_114\n      jump\t// in\n    tag_111:\n      stop\n        /* \"Connect.sol\":4301:4455  function getEventsClassInfo(uint8 id)public view returns(uint8,uint8,string memory){... */\n    tag_20:\n      tag_115\n      0x04\n      dup1\n      calldatasize\n      sub\n      dup2\n      add\n      swap1\n      tag_116\n      swap2\n      swap1\n      tag_117\n      jump\t// in\n    tag_116:\n      tag_118\n      jump\t// in\n    tag_115:\n      mload(0x40)\n      tag_119\n      swap4\n      swap3\n      swap2\n      swap1\n      tag_71\n      jump\t// in\n    tag_119:\n      mload(0x40)\n      dup1\n      swap2\n      sub\n      swap1\n      return\n        /* \"Connect.sol\":7975:8160  function getEventLength(uint8 deviceId) view public returns(uint){... */\n    tag_21:\n      tag_120\n      0x04\n      dup1\n      calldatasize\n      sub\n      dup2\n      add\n      swap1\n      tag_121\n      swap2\n      swap1\n      tag_117\n      jump\t// in\n    tag_121:\n      tag_122\n      jump\t// in\n    tag_120:\n      mload(0x40)\n      tag_123\n      swap2\n      swap1\n      tag_49\n      jump\t// in\n    tag_123:\n      mload(0x40)\n      dup1\n      swap2\n      sub\n      swap1\n      return\n        /* \"Connect.sol\":8673:10411  function setEvent(address _account, string memory _password, uint8 deviceId, uint8 eventId,uint identity) public{... */\n    tag_22:\n      tag_124\n      0x04\n      dup1\n      calldatasize\n      sub\n      dup2\n      add\n      swap1\n      tag_125\n      swap2\n      swap1\n      tag_126\n      jump\t// in\n    tag_125:\n      tag_127\n      jump\t// in\n    tag_124:\n      stop\n        /* \"Connect.sol\":10445:10543  function authEvent(uint8 id)view public returns(bool){... */\n    tag_23:\n      tag_128\n      0x04\n      dup1\n      calldatasize\n      sub\n      dup2\n      add\n      swap1\n      tag_129\n      swap2\n      swap1\n      tag_117\n      jump\t// in\n    tag_129:\n      tag_130\n      jump\t// in\n    tag_128:\n      mload(0x40)\n      tag_131\n      swap2\n      swap1\n      tag_45\n      jump\t// in\n    tag_131:\n      mload(0x40)\n      dup1\n      swap2\n      sub\n      swap1\n      return\n        /* \"Connect.sol\":6747:6773  ToDoList[] public toDoList */\n    tag_24:\n      tag_132\n      0x04\n      dup1\n      calldatasize\n      sub\n      dup2\n      add\n      swap1\n      tag_133\n      swap2\n      swap1\n      tag_52\n      jump\t// in\n    tag_133:\n      tag_134\n      jump\t// in\n    tag_132:\n      mload(0x40)\n      tag_135\n      swap4\n      swap3\n      swap2\n      swap1\n      tag_136\n      jump\t// in\n    tag_135:\n      mload(0x40)\n      dup1\n      swap2\n      sub\n      swap1\n      return\n        /* \"Connect.sol\":4165:4263  function getEventsClassLength()public view returns(uint){... */\n    tag_25:\n      tag_137\n      tag_138\n      jump\t// in\n    tag_137:\n      mload(0x40)\n      tag_139\n      swap2\n      swap1\n      tag_49\n      jump\t// in\n    tag_139:\n      mload(0x40)\n      dup1\n      swap2\n      sub\n      swap1\n      return\n        /* \"Connect.sol\":1163:1187  uint public devicesNum=0 */\n    tag_26:\n      tag_140\n      tag_141\n      jump\t// in\n    tag_140:\n      mload(0x40)\n      tag_142\n      swap2\n      swap1\n      tag_49\n      jump\t// in\n    tag_142:\n      mload(0x40)\n      dup1\n      swap2\n      sub\n      swap1\n      return\n        /* \"Connect.sol\":1657:1928  function getDeviceInfo(uint8 index) view public returns(uint8 id, string memory, string memory){... */\n    tag_27:\n      tag_143\n      0x04\n      dup1\n      calldatasize\n      sub\n      dup2\n      add\n      swap1\n      tag_144\n      swap2\n      swap1\n      tag_117\n      jump\t// in\n    tag_144:\n      tag_145\n      jump\t// in\n    tag_143:\n      mload(0x40)\n      tag_146\n      swap4\n      swap3\n      swap2\n      swap1\n      tag_147\n      jump\t// in\n    tag_146:\n      mload(0x40)\n      dup1\n      swap2\n      sub\n      swap1\n      return\n        /* \"Connect.sol\":2010:2398  function setDeviceInfo(uint index,string memory _name,string memory _detail,uint identity)public{... */\n    tag_28:\n      tag_148\n      0x04\n      dup1\n      calldatasize\n      sub\n      dup2\n      add\n      swap1\n      tag_149\n      swap2\n      swap1\n      tag_150\n      jump\t// in\n    tag_149:\n      tag_151\n      jump\t// in\n    tag_148:\n      stop\n        /* \"Connect.sol\":301:428  function auth(string memory _password) public view returns(bool) {... */\n    tag_29:\n      tag_152\n      0x04\n      dup1\n      calldatasize\n      sub\n      dup2\n      add\n      swap1\n      tag_153\n      swap2\n      swap1\n      tag_154\n      jump\t// in\n    tag_153:\n      tag_155\n      jump\t// in\n    tag_152:\n      mload(0x40)\n      tag_156\n      swap2\n      swap1\n      tag_45\n      jump\t// in\n    tag_156:\n      mload(0x40)\n      dup1\n      swap2\n      sub\n      swap1\n      return\n        /* \"Connect.sol\":5870:5981  function getEventsClassCount(uint8 id)view public returns(uint){... */\n    tag_30:\n      tag_157\n      0x04\n      dup1\n      calldatasize\n      sub\n      dup2\n      add\n      swap1\n      tag_158\n      swap2\n      swap1\n      tag_117\n      jump\t// in\n    tag_158:\n      tag_159\n      jump\t// in\n    tag_157:\n      mload(0x40)\n      tag_160\n      swap2\n      swap1\n      tag_49\n      jump\t// in\n    tag_160:\n      mload(0x40)\n      dup1\n      swap2\n      sub\n      swap1\n      return\n        /* \"Connect.sol\":6812:6904  function getToDoListLength()public view returns(uint){... */\n    tag_31:\n      tag_161\n      tag_162\n      jump\t// in\n    tag_161:\n      mload(0x40)\n      tag_163\n      swap2\n      swap1\n      tag_49\n      jump\t// in\n    tag_163:\n      mload(0x40)\n      dup1\n      swap2\n      sub\n      swap1\n      return\n        /* \"Connect.sol\":5781:5831  mapping(uint8 => uint) public eventsClassCountById */\n    tag_32:\n      tag_164\n      0x04\n      dup1\n      calldatasize\n      sub\n      dup2\n      add\n      swap1\n      tag_165\n      swap2\n      swap1\n      tag_117\n      jump\t// in\n    tag_165:\n      tag_166\n      jump\t// in\n    tag_164:\n      mload(0x40)\n      tag_167\n      swap2\n      swap1\n      tag_49\n      jump\t// in\n    tag_167:\n      mload(0x40)\n      dup1\n      swap2\n      sub\n      swap1\n      return\n        /* \"Connect.sol\":3304:3698  function authDevice(address _account, string memory _password, uint index) view public returns(bool){... */\n    tag_43:\n        /* \"Connect.sol\":3399:3403  bool */\n      0x00\n        /* \"Connect.sol\":3425:3432  devices */\n      0x01\n        /* \"Connect.sol\":3425:3439  devices.length */\n      dup1\n      sload\n      swap1\n      pop\n        /* \"Connect.sol\":3423:3424  1 */\n      0x01\n        /* \"Connect.sol\":3417:3422  index */\n      dup4\n        /* \"Connect.sol\":3417:3424  index+1 */\n      tag_169\n      swap2\n      swap1\n      tag_170\n      jump\t// in\n    tag_169:\n        /* \"Connect.sol\":3417:3439  index+1>devices.length */\n      gt\n        /* \"Connect.sol\":3414:3692  if(index+1>devices.length){... */\n      iszero\n      tag_171\n      jumpi\n        /* \"Connect.sol\":3461:3466  false */\n      0x00\n        /* \"Connect.sol\":3454:3466  return false */\n      swap1\n      pop\n      jump(tag_168)\n        /* \"Connect.sol\":3414:3692  if(index+1>devices.length){... */\n    tag_171:\n        /* \"Connect.sol\":3525:3529  true */\n      0x01\n        /* \"Connect.sol\":3485:3529  compareStr(\"\",devices[index].password)==true */\n      iszero\n      iszero\n        /* \"Connect.sol\":3485:3523  compareStr(\"\",devices[index].password) */\n      tag_173\n      mload(0x40)\n      dup1\n      0x20\n      add\n      0x40\n      mstore\n      dup1\n      0x00\n      dup2\n      mstore\n      pop\n        /* \"Connect.sol\":3499:3506  devices */\n      0x01\n        /* \"Connect.sol\":3507:3512  index */\n      dup6\n        /* \"Connect.sol\":3499:3513  devices[index] */\n      dup2\n      sload\n      dup2\n      lt\n      tag_174\n      jumpi\n      tag_175\n      tag_176\n      jump\t// in\n    tag_175:\n    tag_174:\n      swap1\n      0x00\n      mstore\n      keccak256(0x00, 0x20)\n      swap1\n      0x04\n      mul\n      add\n        /* \"Connect.sol\":3499:3522  devices[index].password */\n      0x01\n      add\n        /* \"Connect.sol\":3485:3523  compareStr(\"\",devices[index].password) */\n      dup1\n      sload\n      tag_178\n      swap1\n      tag_179\n      jump\t// in\n    tag_178:\n      dup1\n      0x1f\n      add\n      0x20\n      dup1\n      swap2\n      div\n      mul\n      0x20\n      add\n      mload(0x40)\n      swap1\n      dup2\n      add\n      0x40\n      mstore\n      dup1\n      swap3\n      swap2\n      swap1\n      dup2\n      dup2\n      mstore\n      0x20\n      add\n      dup3\n      dup1\n      sload\n      tag_180\n      swap1\n      tag_179\n      jump\t// in\n    tag_180:\n      dup1\n      iszero\n      tag_181\n      jumpi\n      dup1\n      0x1f\n      lt\n      tag_182\n      jumpi\n      0x0100\n      dup1\n      dup4\n      sload\n      div\n      mul\n      dup4\n      mstore\n      swap2\n      0x20\n      add\n      swap2\n      jump(tag_181)\n    tag_182:\n      dup3\n      add\n      swap2\n      swap1\n      0x00\n      mstore\n      keccak256(0x00, 0x20)\n      swap1\n    tag_183:\n      dup2\n      sload\n      dup2\n      mstore\n      swap1\n      0x01\n      add\n      swap1\n      0x20\n      add\n      dup1\n      dup4\n      gt\n      tag_183\n      jumpi\n      dup3\n      swap1\n      sub\n      0x1f\n      and\n      dup3\n      add\n      swap2\n    tag_181:\n      pop\n      pop\n      pop\n      pop\n      pop\n        /* \"Connect.sol\":3485:3495  compareStr */\n      tag_93\n        /* \"Connect.sol\":3485:3523  compareStr(\"\",devices[index].password) */\n      jump\t// in\n    tag_173:\n        /* \"Connect.sol\":3485:3529  compareStr(\"\",devices[index].password)==true */\n      iszero\n      iszero\n      eq\n        /* \"Connect.sol\":3482:3692  if(compareStr(\"\",devices[index].password)==true){... */\n      iszero\n      tag_184\n      jumpi\n        /* \"Connect.sol\":3551:3556  false */\n      0x00\n        /* \"Connect.sol\":3544:3556  return false */\n      swap1\n      pop\n      jump(tag_168)\n        /* \"Connect.sol\":3482:3692  if(compareStr(\"\",devices[index].password)==true){... */\n    tag_184:\n        /* \"Connect.sol\":3617:3625  _account */\n      dup4\n        /* \"Connect.sol\":3593:3625  devices[index].account==_account */\n      0xffffffffffffffffffffffffffffffffffffffff\n      and\n        /* \"Connect.sol\":3593:3600  devices */\n      0x01\n        /* \"Connect.sol\":3601:3606  index */\n      dup4\n        /* \"Connect.sol\":3593:3607  devices[index] */\n      dup2\n      sload\n      dup2\n      lt\n      tag_186\n      jumpi\n      tag_187\n      tag_176\n      jump\t// in\n    tag_187:\n    tag_186:\n      swap1\n      0x00\n      mstore\n      keccak256(0x00, 0x20)\n      swap1\n      0x04\n      mul\n      add\n        /* \"Connect.sol\":3593:3615  devices[index].account */\n      0x00\n      add\n      0x00\n      swap1\n      sload\n      swap1\n      0x0100\n      exp\n      swap1\n      div\n      0xffffffffffffffffffffffffffffffffffffffff\n      and\n        /* \"Connect.sol\":3593:3625  devices[index].account==_account */\n      0xffffffffffffffffffffffffffffffffffffffff\n      and\n      eq\n        /* \"Connect.sol\":3593:3680  devices[index].account==_account && compareStr(_password,devices[index].password)==true */\n      dup1\n      iszero\n      tag_189\n      jumpi\n      pop\n        /* \"Connect.sol\":3676:3680  true */\n      0x01\n        /* \"Connect.sol\":3629:3680  compareStr(_password,devices[index].password)==true */\n      iszero\n      iszero\n        /* \"Connect.sol\":3629:3674  compareStr(_password,devices[index].password) */\n      tag_190\n        /* \"Connect.sol\":3640:3649  _password */\n      dup5\n        /* \"Connect.sol\":3650:3657  devices */\n      0x01\n        /* \"Connect.sol\":3658:3663  index */\n      dup6\n        /* \"Connect.sol\":3650:3664  devices[index] */\n      dup2\n      sload\n      dup2\n      lt\n      tag_191\n      jumpi\n      tag_192\n      tag_176\n      jump\t// in\n    tag_192:\n    tag_191:\n      swap1\n      0x00\n      mstore\n      keccak256(0x00, 0x20)\n      swap1\n      0x04\n      mul\n      add\n        /* \"Connect.sol\":3650:3673  devices[index].password */\n      0x01\n      add\n        /* \"Connect.sol\":3629:3674  compareStr(_password,devices[index].password) */\n      dup1\n      sload\n      tag_194\n      swap1\n      tag_179\n      jump\t// in\n    tag_194:\n      dup1\n      0x1f\n      add\n      0x20\n      dup1\n      swap2\n      div\n      mul\n      0x20\n      add\n      mload(0x40)\n      swap1\n      dup2\n      add\n      0x40\n      mstore\n      dup1\n      swap3\n      swap2\n      swap1\n      dup2\n      dup2\n      mstore\n      0x20\n      add\n      dup3\n      dup1\n      sload\n      tag_195\n      swap1\n      tag_179\n      jump\t// in\n    tag_195:\n      dup1\n      iszero\n      tag_196\n      jumpi\n      dup1\n      0x1f\n      lt\n      tag_197\n      jumpi\n      0x0100\n      dup1\n      dup4\n      sload\n      div\n      mul\n      dup4\n      mstore\n      swap2\n      0x20\n      add\n      swap2\n      jump(tag_196)\n    tag_197:\n      dup3\n      add\n      swap2\n      swap1\n      0x00\n      mstore\n      keccak256(0x00, 0x20)\n      swap1\n    tag_198:\n      dup2\n      sload\n      dup2\n      mstore\n      swap1\n      0x01\n      add\n      swap1\n      0x20\n      add\n      dup1\n      dup4\n      gt\n      tag_198\n      jumpi\n      dup3\n      swap1\n      sub\n      0x1f\n      and\n      dup3\n      add\n      swap2\n    tag_196:\n      pop\n      pop\n      pop\n      pop\n      pop\n        /* \"Connect.sol\":3629:3639  compareStr */\n      tag_93\n        /* \"Connect.sol\":3629:3674  compareStr(_password,devices[index].password) */\n      jump\t// in\n    tag_190:\n        /* \"Connect.sol\":3629:3680  compareStr(_password,devices[index].password)==true */\n      iszero\n      iszero\n      eq\n        /* \"Connect.sol\":3593:3680  devices[index].account==_account && compareStr(_password,devices[index].password)==true */\n    tag_189:\n        /* \"Connect.sol\":3585:3681  return (devices[index].account==_account && compareStr(_password,devices[index].password)==true) */\n      swap1\n      pop\n        /* \"Connect.sol\":3304:3698  function authDevice(address _account, string memory _password, uint index) view public returns(bool){... */\n    tag_168:\n      swap4\n      swap3\n      pop\n      pop\n      pop\n      jump\t// out\n        /* \"Connect.sol\":1309:1399  function getDeviceLength() view public returns(uint){... */\n    tag_47:\n        /* \"Connect.sol\":1356:1360  uint */\n      0x00\n        /* \"Connect.sol\":1378:1385  devices */\n      0x01\n        /* \"Connect.sol\":1378:1392  devices.length */\n      dup1\n      sload\n      swap1\n      pop\n        /* \"Connect.sol\":1371:1392  return devices.length */\n      swap1\n      pop\n        /* \"Connect.sol\":1309:1399  function getDeviceLength() view public returns(uint){... */\n      swap1\n      jump\t// out\n        /* \"Connect.sol\":1134:1157  Device[] public devices */\n    tag_53:\n      0x01\n      dup2\n      dup2\n      sload\n      dup2\n      lt\n      tag_200\n      jumpi\n      0x00\n      dup1\n      revert\n    tag_200:\n      swap1\n      0x00\n      mstore\n      keccak256(0x00, 0x20)\n      swap1\n      0x04\n      mul\n      add\n      0x00\n      swap2\n      pop\n      swap1\n      pop\n      dup1\n      0x00\n      add\n      0x00\n      swap1\n      sload\n      swap1\n      0x0100\n      exp\n      swap1\n      div\n      0xffffffffffffffffffffffffffffffffffffffff\n      and\n      swap1\n      dup1\n      0x01\n      add\n      dup1\n      sload\n      tag_202\n      swap1\n      tag_179\n      jump\t// in\n    tag_202:\n      dup1\n      0x1f\n      add\n      0x20\n      dup1\n      swap2\n      div\n      mul\n      0x20\n      add\n      mload(0x40)\n      swap1\n      dup2\n      add\n      0x40\n      mstore\n      dup1\n      swap3\n      swap2\n      swap1\n      dup2\n      dup2\n      mstore\n      0x20\n      add\n      dup3\n      dup1\n      sload\n      tag_203\n      swap1\n      tag_179\n      jump\t// in\n    tag_203:\n      dup1\n      iszero\n      tag_204\n      jumpi\n      dup1\n      0x1f\n      lt\n      tag_205\n      jumpi\n      0x0100\n      dup1\n      dup4\n      sload\n      div\n      mul\n      dup4\n      mstore\n      swap2\n      0x20\n      add\n      swap2\n      jump(tag_204)\n    tag_205:\n      dup3\n      add\n      swap2\n      swap1\n      0x00\n      mstore\n      keccak256(0x00, 0x20)\n      swap1\n    tag_206:\n      dup2\n      sload\n      dup2\n      mstore\n      swap1\n      0x01\n      add\n      swap1\n      0x20\n      add\n      dup1\n      dup4\n      gt\n      tag_206\n      jumpi\n      dup3\n      swap1\n      sub\n      0x1f\n      and\n      dup3\n      add\n      swap2\n    tag_204:\n      pop\n      pop\n      pop\n      pop\n      pop\n      swap1\n      dup1\n      0x02\n      add\n      dup1\n      sload\n      tag_207\n      swap1\n      tag_179\n      jump\t// in\n    tag_207:\n      dup1\n      0x1f\n      add\n      0x20\n      dup1\n      swap2\n      div\n      mul\n      0x20\n      add\n      mload(0x40)\n      swap1\n      dup2\n      add\n      0x40\n      mstore\n      dup1\n      swap3\n      swap2\n      swap1\n      dup2\n      dup2\n      mstore\n      0x20\n      add\n      dup3\n      dup1\n      sload\n      tag_208\n      swap1\n      tag_179\n      jump\t// in\n    tag_208:\n      dup1\n      iszero\n      tag_209\n      jumpi\n      dup1\n      0x1f\n      lt\n      tag_210\n      jumpi\n      0x0100\n      dup1\n      dup4\n      sload\n      div\n      mul\n      dup4\n      mstore\n      swap2\n      0x20\n      add\n      swap2\n      jump(tag_209)\n    tag_210:\n      dup3\n      add\n      swap2\n      swap1\n      0x00\n      mstore\n      keccak256(0x00, 0x20)\n      swap1\n    tag_211:\n      dup2\n      sload\n      dup2\n      mstore\n      swap1\n      0x01\n      add\n      swap1\n      0x20\n      add\n      dup1\n      dup4\n      gt\n      tag_211\n      jumpi\n      dup3\n      swap1\n      sub\n      0x1f\n      and\n      dup3\n      add\n      swap2\n    tag_209:\n      pop\n      pop\n      pop\n      pop\n      pop\n      swap1\n      dup1\n      0x03\n      add\n      dup1\n      sload\n      tag_212\n      swap1\n      tag_179\n      jump\t// in\n    tag_212:\n      dup1\n      0x1f\n      add\n      0x20\n      dup1\n      swap2\n      div\n      mul\n      0x20\n      add\n      mload(0x40)\n      swap1\n      dup2\n      add\n      0x40\n      mstore\n      dup1\n      swap3\n      swap2\n      swap1\n      dup2\n      dup2\n      mstore\n      0x20\n      add\n      dup3\n      dup1\n      sload\n      tag_213\n      swap1\n      tag_179\n      jump\t// in\n    tag_213:\n      dup1\n      iszero\n      tag_214\n      jumpi\n      dup1\n      0x1f\n      lt\n      tag_215\n      jumpi\n      0x0100\n      dup1\n      dup4\n      sload\n      div\n      mul\n      dup4\n      mstore\n      swap2\n      0x20\n      add\n      swap2\n      jump(tag_214)\n    tag_215:\n      dup3\n      add\n      swap2\n      swap1\n      0x00\n      mstore\n      keccak256(0x00, 0x20)\n      swap1\n    tag_216:\n      dup2\n      sload\n      dup2\n      mstore\n      swap1\n      0x01\n      add\n      swap1\n      0x20\n      add\n      dup1\n      dup4\n      gt\n      tag_216\n      jumpi\n      dup3\n      swap1\n      sub\n      0x1f\n      and\n      dup3\n      add\n      swap2\n    tag_214:\n      pop\n      pop\n      pop\n      pop\n      pop\n      swap1\n      pop\n      dup5\n      jump\t// out\n        /* \"Connect.sol\":2916:3278  function reduceDevice(uint8 index,uint identity) public{... */\n    tag_59:\n        /* \"Connect.sol\":2990:2997  devices */\n      0x01\n        /* \"Connect.sol\":2990:3004  devices.length */\n      dup1\n      sload\n      swap1\n      pop\n        /* \"Connect.sol\":2984:2989  index */\n      dup3\n        /* \"Connect.sol\":2984:3004  index<devices.length */\n      0xff\n      and\n      lt\n        /* \"Connect.sol\":2984:3053  index<devices.length && compareStr(\"\",devices[index].password)==false */\n      dup1\n      iszero\n      tag_218\n      jumpi\n      pop\n        /* \"Connect.sol\":3048:3053  false */\n      0x00\n        /* \"Connect.sol\":3008:3053  compareStr(\"\",devices[index].password)==false */\n      iszero\n      iszero\n        /* \"Connect.sol\":3008:3046  compareStr(\"\",devices[index].password) */\n      tag_219\n      mload(0x40)\n      dup1\n      0x20\n      add\n      0x40\n      mstore\n      dup1\n      0x00\n      dup2\n      mstore\n      pop\n        /* \"Connect.sol\":3022:3029  devices */\n      0x01\n        /* \"Connect.sol\":3030:3035  index */\n      dup6\n        /* \"Connect.sol\":3022:3036  devices[index] */\n      0xff\n      and\n      dup2\n      sload\n      dup2\n      lt\n      tag_220\n      jumpi\n      tag_221\n      tag_176\n      jump\t// in\n    tag_221:\n    tag_220:\n      swap1\n      0x00\n      mstore\n      keccak256(0x00, 0x20)\n      swap1\n      0x04\n      mul\n      add\n        /* \"Connect.sol\":3022:3045  devices[index].password */\n      0x01\n      add\n        /* \"Connect.sol\":3008:3046  compareStr(\"\",devices[index].password) */\n      dup1\n      sload\n      tag_223\n      swap1\n      tag_179\n      jump\t// in\n    tag_223:\n      dup1\n      0x1f\n      add\n      0x20\n      dup1\n      swap2\n      div\n      mul\n      0x20\n      add\n      mload(0x40)\n      swap1\n      dup2\n      add\n      0x40\n      mstore\n      dup1\n      swap3\n      swap2\n      swap1\n      dup2\n      dup2\n      mstore\n      0x20\n      add\n      dup3\n      dup1\n      sload\n      tag_224\n      swap1\n      tag_179\n      jump\t// in\n    tag_224:\n      dup1\n      iszero\n      tag_225\n      jumpi\n      dup1\n      0x1f\n      lt\n      tag_226\n      jumpi\n      0x0100\n      dup1\n      dup4\n      sload\n      div\n      mul\n      dup4\n      mstore\n      swap2\n      0x20\n      add\n      swap2\n      jump(tag_225)\n    tag_226:\n      dup3\n      add\n      swap2\n      swap1\n      0x00\n      mstore\n      keccak256(0x00, 0x20)\n      swap1\n    tag_227:\n      dup2\n      sload\n      dup2\n      mstore\n      swap1\n      0x01\n      add\n      swap1\n      0x20\n      add\n      dup1\n      dup4\n      gt\n      tag_227\n      jumpi\n      dup3\n      swap1\n      sub\n      0x1f\n      and\n      dup3\n      add\n      swap2\n    tag_225:\n      pop\n      pop\n      pop\n      pop\n      pop\n        /* \"Connect.sol\":3008:3018  compareStr */\n      tag_93\n        /* \"Connect.sol\":3008:3046  compareStr(\"\",devices[index].password) */\n      jump\t// in\n    tag_219:\n        /* \"Connect.sol\":3008:3053  compareStr(\"\",devices[index].password)==false */\n      iszero\n      iszero\n      eq\n        /* \"Connect.sol\":2984:3053  index<devices.length && compareStr(\"\",devices[index].password)==false */\n    tag_218:\n        /* \"Connect.sol\":2981:3272  if(index<devices.length && compareStr(\"\",devices[index].password)==false){... */\n      iszero\n      tag_228\n      jumpi\n        /* \"Connect.sol\":3075:3082  devices */\n      0x01\n        /* \"Connect.sol\":3083:3088  index */\n      dup3\n        /* \"Connect.sol\":3075:3089  devices[index] */\n      0xff\n      and\n      dup2\n      sload\n      dup2\n      lt\n      tag_229\n      jumpi\n      tag_230\n      tag_176\n      jump\t// in\n    tag_230:\n    tag_229:\n      swap1\n      0x00\n      mstore\n      keccak256(0x00, 0x20)\n      swap1\n      0x04\n      mul\n      add\n      0x00\n        /* \"Connect.sol\":3068:3089  delete devices[index] */\n      dup1\n      dup3\n      add\n      exp(0x0100, 0x00)\n      dup2\n      sload\n      swap1\n      0xffffffffffffffffffffffffffffffffffffffff\n      mul\n      not\n      and\n      swap1\n      sstore\n      0x01\n      dup3\n      add\n      0x00\n      tag_232\n      swap2\n      swap1\n      tag_233\n      jump\t// in\n    tag_232:\n      0x02\n      dup3\n      add\n      0x00\n      tag_234\n      swap2\n      swap1\n      tag_233\n      jump\t// in\n    tag_234:\n      0x03\n      dup3\n      add\n      0x00\n      tag_235\n      swap2\n      swap1\n      tag_233\n      jump\t// in\n    tag_235:\n      pop\n      pop\n        /* \"Connect.sol\":3110:3120  eventsById */\n      0x05\n        /* \"Connect.sol\":3110:3127  eventsById[index] */\n      0x00\n        /* \"Connect.sol\":3121:3126  index */\n      dup4\n        /* \"Connect.sol\":3110:3127  eventsById[index] */\n      0xff\n      and\n      0xff\n      and\n      dup2\n      mstore\n      0x20\n      add\n      swap1\n      dup2\n      mstore\n      0x20\n      add\n      0x00\n      keccak256\n      0x00\n        /* \"Connect.sol\":3103:3127  delete eventsById[index] */\n      tag_236\n      swap2\n      swap1\n      tag_237\n      jump\t// in\n    tag_236:\n        /* \"Connect.sol\":3141:3151  devicesNum */\n      0x02\n      0x00\n        /* \"Connect.sol\":3141:3153  devicesNum-- */\n      dup2\n      sload\n      dup1\n      swap3\n      swap2\n      swap1\n      tag_238\n      swap1\n      tag_239\n      jump\t// in\n    tag_238:\n      swap2\n      swap1\n      pop\n      sstore\n      pop\n        /* \"Connect.sol\":3172:3199  ReduceDevice(true,identity) */\n      0x9e74b914dfbe01b3835827ee9b9b6077b095593c9ef667d3a5d5b539744bb51a\n        /* \"Connect.sol\":3185:3189  true */\n      0x01\n        /* \"Connect.sol\":3190:3198  identity */\n      dup3\n        /* \"Connect.sol\":3172:3199  ReduceDevice(true,identity) */\n      mload(0x40)\n      tag_240\n      swap3\n      swap2\n      swap1\n      tag_241\n      jump\t// in\n    tag_240:\n      mload(0x40)\n      dup1\n      swap2\n      sub\n      swap1\n      log1\n        /* \"Connect.sol\":2981:3272  if(index<devices.length && compareStr(\"\",devices[index].password)==false){... */\n      jump(tag_242)\n    tag_228:\n        /* \"Connect.sol\":3233:3261  ReduceDevice(false,identity) */\n      0x9e74b914dfbe01b3835827ee9b9b6077b095593c9ef667d3a5d5b539744bb51a\n        /* \"Connect.sol\":3246:3251  false */\n      0x00\n        /* \"Connect.sol\":3252:3260  identity */\n      dup3\n        /* \"Connect.sol\":3233:3261  ReduceDevice(false,identity) */\n      mload(0x40)\n      tag_243\n      swap3\n      swap2\n      swap1\n      tag_241\n      jump\t// in\n    tag_243:\n      mload(0x40)\n      dup1\n      swap2\n      sub\n      swap1\n      log1\n        /* \"Connect.sol\":2981:3272  if(index<devices.length && compareStr(\"\",devices[index].password)==false){... */\n    tag_242:\n        /* \"Connect.sol\":2916:3278  function reduceDevice(uint8 index,uint identity) public{... */\n      pop\n      pop\n      jump\t// out\n        /* \"Connect.sol\":4959:5266  function setEventTypeName(uint8 eventId, string memory eventName,uint identity)public{... */\n    tag_63:\n        /* \"Connect.sol\":5077:5081  true */\n      0x01\n        /* \"Connect.sol\":5057:5081  authEvent(eventId)==true */\n      iszero\n      iszero\n        /* \"Connect.sol\":5057:5075  authEvent(eventId) */\n      tag_245\n        /* \"Connect.sol\":5067:5074  eventId */\n      dup5\n        /* \"Connect.sol\":5057:5066  authEvent */\n      tag_130\n        /* \"Connect.sol\":5057:5075  authEvent(eventId) */\n      jump\t// in\n    tag_245:\n        /* \"Connect.sol\":5057:5081  authEvent(eventId)==true */\n      iszero\n      iszero\n      eq\n        /* \"Connect.sol\":5054:5260  if(authEvent(eventId)==true){... */\n      iszero\n      tag_246\n      jumpi\n        /* \"Connect.sol\":5124:5133  eventName */\n      dup2\n        /* \"Connect.sol\":5096:5107  eventsClass */\n      0x03\n        /* \"Connect.sol\":5108:5115  eventId */\n      dup5\n        /* \"Connect.sol\":5096:5116  eventsClass[eventId] */\n      0xff\n      and\n      dup2\n      sload\n      dup2\n      lt\n      tag_247\n      jumpi\n      tag_248\n      tag_176\n      jump\t// in\n    tag_248:\n    tag_247:\n      swap1\n      0x00\n      mstore\n      keccak256(0x00, 0x20)\n      swap1\n      0x02\n      mul\n      add\n        /* \"Connect.sol\":5096:5121  eventsClass[eventId].name */\n      0x01\n      add\n        /* \"Connect.sol\":5096:5133  eventsClass[eventId].name = eventName */\n      swap1\n      dup1\n      mload\n      swap1\n      0x20\n      add\n      swap1\n      tag_250\n      swap3\n      swap2\n      swap1\n      tag_251\n      jump\t// in\n    tag_250:\n      pop\n        /* \"Connect.sol\":5152:5183  SetEventTypeName(true,identity) */\n      0x134a3cbc6e64b71b428c47a91271192190fa59489a4c978e0ebbc8f8e4cf86c6\n        /* \"Connect.sol\":5169:5173  true */\n      0x01\n        /* \"Connect.sol\":5174:5182  identity */\n      dup3\n        /* \"Connect.sol\":5152:5183  SetEventTypeName(true,identity) */\n      mload(0x40)\n      tag_252\n      swap3\n      swap2\n      swap1\n      tag_241\n      jump\t// in\n    tag_252:\n      mload(0x40)\n      dup1\n      swap2\n      sub\n      swap1\n      log1\n        /* \"Connect.sol\":5054:5260  if(authEvent(eventId)==true){... */\n      jump(tag_253)\n    tag_246:\n        /* \"Connect.sol\":5217:5249  SetEventTypeName(false,identity) */\n      0x134a3cbc6e64b71b428c47a91271192190fa59489a4c978e0ebbc8f8e4cf86c6\n        /* \"Connect.sol\":5234:5239  false */\n      0x00\n        /* \"Connect.sol\":5240:5248  identity */\n      dup3\n        /* \"Connect.sol\":5217:5249  SetEventTypeName(false,identity) */\n      mload(0x40)\n      tag_254\n      swap3\n      swap2\n      swap1\n      tag_241\n      jump\t// in\n    tag_254:\n      mload(0x40)\n      dup1\n      swap2\n      sub\n      swap1\n      log1\n        /* \"Connect.sol\":5054:5260  if(authEvent(eventId)==true){... */\n    tag_253:\n        /* \"Connect.sol\":4959:5266  function setEventTypeName(uint8 eventId, string memory eventName,uint identity)public{... */\n      pop\n      pop\n      pop\n      jump\t// out\n        /* \"Connect.sol\":1220:1303  function getDeviceNum() view public returns(uint){... */\n    tag_65:\n        /* \"Connect.sol\":1264:1268  uint */\n      0x00\n        /* \"Connect.sol\":1286:1296  devicesNum */\n      sload(0x02)\n        /* \"Connect.sol\":1279:1296  return devicesNum */\n      swap1\n      pop\n        /* \"Connect.sol\":1220:1303  function getDeviceNum() view public returns(uint){... */\n      swap1\n      jump\t// out\n        /* \"Connect.sol\":4088:4120  EventsClass[] public eventsClass */\n    tag_69:\n      0x03\n      dup2\n      dup2\n      sload\n      dup2\n      lt\n      tag_256\n      jumpi\n      0x00\n      dup1\n      revert\n    tag_256:\n      swap1\n      0x00\n      mstore\n      keccak256(0x00, 0x20)\n      swap1\n      0x02\n      mul\n      add\n      0x00\n      swap2\n      pop\n      swap1\n      pop\n      dup1\n      0x00\n      add\n      0x00\n      swap1\n      sload\n      swap1\n      0x0100\n      exp\n      swap1\n      div\n      0xff\n      and\n      swap1\n      dup1\n      0x00\n      add\n      0x01\n      swap1\n      sload\n      swap1\n      0x0100\n      exp\n      swap1\n      div\n      0xff\n      and\n      swap1\n      dup1\n      0x01\n      add\n      dup1\n      sload\n      tag_258\n      swap1\n      tag_179\n      jump\t// in\n    tag_258:\n      dup1\n      0x1f\n      add\n      0x20\n      dup1\n      swap2\n      div\n      mul\n      0x20\n      add\n      mload(0x40)\n      swap1\n      dup2\n      add\n      0x40\n      mstore\n      dup1\n      swap3\n      swap2\n      swap1\n      dup2\n      dup2\n      mstore\n      0x20\n      add\n      dup3\n      dup1\n      sload\n      tag_259\n      swap1\n      tag_179\n      jump\t// in\n    tag_259:\n      dup1\n      iszero\n      tag_260\n      jumpi\n      dup1\n      0x1f\n      lt\n      tag_261\n      jumpi\n      0x0100\n      dup1\n      dup4\n      sload\n      div\n      mul\n      dup4\n      mstore\n      swap2\n      0x20\n      add\n      swap2\n      jump(tag_260)\n    tag_261:\n      dup3\n      add\n      swap2\n      swap1\n      0x00\n      mstore\n      keccak256(0x00, 0x20)\n      swap1\n    tag_262:\n      dup2\n      sload\n      dup2\n      mstore\n      swap1\n      0x01\n      add\n      swap1\n      0x20\n      add\n      dup1\n      dup4\n      gt\n      tag_262\n      jumpi\n      dup3\n      swap1\n      sub\n      0x1f\n      and\n      dup3\n      add\n      swap2\n    tag_260:\n      pop\n      pop\n      pop\n      pop\n      pop\n      swap1\n      pop\n      dup4\n      jump\t// out\n        /* \"Connect.sol\":501:819  function setPassword(string memory oldPassword,string memory newPassword,uint identity) public{... */\n    tag_75:\n        /* \"Connect.sol\":650:654  true */\n      0x01\n        /* \"Connect.sol\":608:654  compareStr(oldPassword,string(password))==true */\n      iszero\n      iszero\n        /* \"Connect.sol\":608:648  compareStr(oldPassword,string(password)) */\n      tag_264\n        /* \"Connect.sol\":619:630  oldPassword */\n      dup5\n        /* \"Connect.sol\":638:646  password */\n      0x00\n        /* \"Connect.sol\":608:648  compareStr(oldPassword,string(password)) */\n      dup1\n      sload\n      tag_265\n      swap1\n      tag_179\n      jump\t// in\n    tag_265:\n      dup1\n      0x1f\n      add\n      0x20\n      dup1\n      swap2\n      div\n      mul\n      0x20\n      add\n      mload(0x40)\n      swap1\n      dup2\n      add\n      0x40\n      mstore\n      dup1\n      swap3\n      swap2\n      swap1\n      dup2\n      dup2\n      mstore\n      0x20\n      add\n      dup3\n      dup1\n      sload\n      tag_266\n      swap1\n      tag_179\n      jump\t// in\n    tag_266:\n      dup1\n      iszero\n      tag_267\n      jumpi\n      dup1\n      0x1f\n      lt\n      tag_268\n      jumpi\n      0x0100\n      dup1\n      dup4\n      sload\n      div\n      mul\n      dup4\n      mstore\n      swap2\n      0x20\n      add\n      swap2\n      jump(tag_267)\n    tag_268:\n      dup3\n      add\n      swap2\n      swap1\n      0x00\n      mstore\n      keccak256(0x00, 0x20)\n      swap1\n    tag_269:\n      dup2\n      sload\n      dup2\n      mstore\n      swap1\n      0x01\n      add\n      swap1\n      0x20\n      add\n      dup1\n      dup4\n      gt\n      tag_269\n      jumpi\n      dup3\n      swap1\n      sub\n      0x1f\n      and\n      dup3\n      add\n      swap2\n    tag_267:\n      pop\n      pop\n      pop\n      pop\n      pop\n        /* \"Connect.sol\":608:618  compareStr */\n      tag_93\n        /* \"Connect.sol\":608:648  compareStr(oldPassword,string(password)) */\n      jump\t// in\n    tag_264:\n        /* \"Connect.sol\":608:654  compareStr(oldPassword,string(password))==true */\n      iszero\n      iszero\n      eq\n        /* \"Connect.sol\":605:813  if(compareStr(oldPassword,string(password))==true){... */\n      iszero\n      tag_270\n      jumpi\n        /* \"Connect.sol\":684:695  newPassword */\n      dup2\n        /* \"Connect.sol\":669:677  password */\n      0x00\n        /* \"Connect.sol\":669:696  password=bytes(newPassword) */\n      swap1\n      dup1\n      mload\n      swap1\n      0x20\n      add\n      swap1\n      tag_271\n      swap3\n      swap2\n      swap1\n      tag_272\n      jump\t// in\n    tag_271:\n      pop\n        /* \"Connect.sol\":715:741  SetPassword(true,identity) */\n      0x99abd86fb20173e73124cf0bb2a122d4b49456bcb2e8ab4aefb53846b96da3c3\n        /* \"Connect.sol\":727:731  true */\n      0x01\n        /* \"Connect.sol\":732:740  identity */\n      dup3\n        /* \"Connect.sol\":715:741  SetPassword(true,identity) */\n      mload(0x40)\n      tag_273\n      swap3\n      swap2\n      swap1\n      tag_241\n      jump\t// in\n    tag_273:\n      mload(0x40)\n      dup1\n      swap2\n      sub\n      swap1\n      log1\n        /* \"Connect.sol\":605:813  if(compareStr(oldPassword,string(password))==true){... */\n      jump(tag_274)\n    tag_270:\n        /* \"Connect.sol\":775:802  SetPassword(false,identity) */\n      0x99abd86fb20173e73124cf0bb2a122d4b49456bcb2e8ab4aefb53846b96da3c3\n        /* \"Connect.sol\":787:792  false */\n      0x00\n        /* \"Connect.sol\":793:801  identity */\n      dup3\n        /* \"Connect.sol\":775:802  SetPassword(false,identity) */\n      mload(0x40)\n      tag_275\n      swap3\n      swap2\n      swap1\n      tag_241\n      jump\t// in\n    tag_275:\n      mload(0x40)\n      dup1\n      swap2\n      sub\n      swap1\n      log1\n        /* \"Connect.sol\":605:813  if(compareStr(oldPassword,string(password))==true){... */\n    tag_274:\n        /* \"Connect.sol\":501:819  function setPassword(string memory oldPassword,string memory newPassword,uint identity) public{... */\n      pop\n      pop\n      pop\n      jump\t// out\n        /* \"Connect.sol\":8201:8553  function getEvent(uint8 deviceId,uint8 index) view public returns(uint8,uint,bool,bool){... */\n    tag_79:\n        /* \"Connect.sol\":8267:8272  uint8 */\n      0x00\n        /* \"Connect.sol\":8273:8277  uint */\n      dup1\n        /* \"Connect.sol\":8278:8282  bool */\n      0x00\n        /* \"Connect.sol\":8283:8287  bool */\n      dup1\n        /* \"Connect.sol\":8349:8354  false */\n      0x00\n        /* \"Connect.sol\":8306:8354  compareStr(\"\",devices[deviceId].password)==false */\n      iszero\n      iszero\n        /* \"Connect.sol\":8306:8347  compareStr(\"\",devices[deviceId].password) */\n      tag_277\n      mload(0x40)\n      dup1\n      0x20\n      add\n      0x40\n      mstore\n      dup1\n      0x00\n      dup2\n      mstore\n      pop\n        /* \"Connect.sol\":8320:8327  devices */\n      0x01\n        /* \"Connect.sol\":8328:8336  deviceId */\n      dup10\n        /* \"Connect.sol\":8320:8337  devices[deviceId] */\n      0xff\n      and\n      dup2\n      sload\n      dup2\n      lt\n      tag_278\n      jumpi\n      tag_279\n      tag_176\n      jump\t// in\n    tag_279:\n    tag_278:\n      swap1\n      0x00\n      mstore\n      keccak256(0x00, 0x20)\n      swap1\n      0x04\n      mul\n      add\n        /* \"Connect.sol\":8320:8346  devices[deviceId].password */\n      0x01\n      add\n        /* \"Connect.sol\":8306:8347  compareStr(\"\",devices[deviceId].password) */\n      dup1\n      sload\n      tag_281\n      swap1\n      tag_179\n      jump\t// in\n    tag_281:\n      dup1\n      0x1f\n      add\n      0x20\n      dup1\n      swap2\n      div\n      mul\n      0x20\n      add\n      mload(0x40)\n      swap1\n      dup2\n      add\n      0x40\n      mstore\n      dup1\n      swap3\n      swap2\n      swap1\n      dup2\n      dup2\n      mstore\n      0x20\n      add\n      dup3\n      dup1\n      sload\n      tag_282\n      swap1\n      tag_179\n      jump\t// in\n    tag_282:\n      dup1\n      iszero\n      tag_283\n      jumpi\n      dup1\n      0x1f\n      lt\n      tag_284\n      jumpi\n      0x0100\n      dup1\n      dup4\n      sload\n      div\n      mul\n      dup4\n      mstore\n      swap2\n      0x20\n      add\n      swap2\n      jump(tag_283)\n    tag_284:\n      dup3\n      add\n      swap2\n      swap1\n      0x00\n      mstore\n      keccak256(0x00, 0x20)\n      swap1\n    tag_285:\n      dup2\n      sload\n      dup2\n      mstore\n      swap1\n      0x01\n      add\n      swap1\n      0x20\n      add\n      dup1\n      dup4\n      gt\n      tag_285\n      jumpi\n      dup3\n      swap1\n      sub\n      0x1f\n      and\n      dup3\n      add\n      swap2\n    tag_283:\n      pop\n      pop\n      pop\n      pop\n      pop\n        /* \"Connect.sol\":8306:8316  compareStr */\n      tag_93\n        /* \"Connect.sol\":8306:8347  compareStr(\"\",devices[deviceId].password) */\n      jump\t// in\n    tag_277:\n        /* \"Connect.sol\":8306:8354  compareStr(\"\",devices[deviceId].password)==false */\n      iszero\n      iszero\n      eq\n        /* \"Connect.sol\":8298:8355  require(compareStr(\"\",devices[deviceId].password)==false) */\n      tag_286\n      jumpi\n      0x00\n      dup1\n      revert\n    tag_286:\n        /* \"Connect.sol\":8373:8383  eventsById */\n      0x05\n        /* \"Connect.sol\":8373:8393  eventsById[deviceId] */\n      0x00\n        /* \"Connect.sol\":8384:8392  deviceId */\n      dup8\n        /* \"Connect.sol\":8373:8393  eventsById[deviceId] */\n      0xff\n      and\n      0xff\n      and\n      dup2\n      mstore\n      0x20\n      add\n      swap1\n      dup2\n      mstore\n      0x20\n      add\n      0x00\n      keccak256\n        /* \"Connect.sol\":8394:8399  index */\n      dup6\n        /* \"Connect.sol\":8373:8400  eventsById[deviceId][index] */\n      0xff\n      and\n      dup2\n      sload\n      dup2\n      lt\n      tag_287\n      jumpi\n      tag_288\n      tag_176\n      jump\t// in\n    tag_288:\n    tag_287:\n      swap1\n      0x00\n      mstore\n      keccak256(0x00, 0x20)\n      swap1\n      0x03\n      mul\n      add\n        /* \"Connect.sol\":8373:8403  eventsById[deviceId][index].id */\n      0x00\n      add\n      0x00\n      swap1\n      sload\n      swap1\n      0x0100\n      exp\n      swap1\n      div\n      0xff\n      and\n        /* \"Connect.sol\":8417:8427  eventsById */\n      0x05\n        /* \"Connect.sol\":8417:8437  eventsById[deviceId] */\n      0x00\n        /* \"Connect.sol\":8428:8436  deviceId */\n      dup9\n        /* \"Connect.sol\":8417:8437  eventsById[deviceId] */\n      0xff\n      and\n      0xff\n      and\n      dup2\n      mstore\n      0x20\n      add\n      swap1\n      dup2\n      mstore\n      0x20\n      add\n      0x00\n      keccak256\n        /* \"Connect.sol\":8438:8443  index */\n      dup7\n        /* \"Connect.sol\":8417:8444  eventsById[deviceId][index] */\n      0xff\n      and\n      dup2\n      sload\n      dup2\n      lt\n      tag_290\n      jumpi\n      tag_291\n      tag_176\n      jump\t// in\n    tag_291:\n    tag_290:\n      swap1\n      0x00\n      mstore\n      keccak256(0x00, 0x20)\n      swap1\n      0x03\n      mul\n      add\n        /* \"Connect.sol\":8417:8449  eventsById[deviceId][index].time */\n      0x01\n      add\n      sload\n        /* \"Connect.sol\":8463:8473  eventsById */\n      0x05\n        /* \"Connect.sol\":8463:8483  eventsById[deviceId] */\n      0x00\n        /* \"Connect.sol\":8474:8482  deviceId */\n      dup10\n        /* \"Connect.sol\":8463:8483  eventsById[deviceId] */\n      0xff\n      and\n      0xff\n      and\n      dup2\n      mstore\n      0x20\n      add\n      swap1\n      dup2\n      mstore\n      0x20\n      add\n      0x00\n      keccak256\n        /* \"Connect.sol\":8484:8489  index */\n      dup8\n        /* \"Connect.sol\":8463:8490  eventsById[deviceId][index] */\n      0xff\n      and\n      dup2\n      sload\n      dup2\n      lt\n      tag_293\n      jumpi\n      tag_294\n      tag_176\n      jump\t// in\n    tag_294:\n    tag_293:\n      swap1\n      0x00\n      mstore\n      keccak256(0x00, 0x20)\n      swap1\n      0x03\n      mul\n      add\n        /* \"Connect.sol\":8463:8497  eventsById[deviceId][index].state1 */\n      0x02\n      add\n      0x00\n      swap1\n      sload\n      swap1\n      0x0100\n      exp\n      swap1\n      div\n      0xff\n      and\n        /* \"Connect.sol\":8511:8521  eventsById */\n      0x05\n        /* \"Connect.sol\":8511:8531  eventsById[deviceId] */\n      0x00\n        /* \"Connect.sol\":8522:8530  deviceId */\n      dup11\n        /* \"Connect.sol\":8511:8531  eventsById[deviceId] */\n      0xff\n      and\n      0xff\n      and\n      dup2\n      mstore\n      0x20\n      add\n      swap1\n      dup2\n      mstore\n      0x20\n      add\n      0x00\n      keccak256\n        /* \"Connect.sol\":8532:8537  index */\n      dup9\n        /* \"Connect.sol\":8511:8538  eventsById[deviceId][index] */\n      0xff\n      and\n      dup2\n      sload\n      dup2\n      lt\n      tag_296\n      jumpi\n      tag_297\n      tag_176\n      jump\t// in\n    tag_297:\n    tag_296:\n      swap1\n      0x00\n      mstore\n      keccak256(0x00, 0x20)\n      swap1\n      0x03\n      mul\n      add\n        /* \"Connect.sol\":8511:8545  eventsById[deviceId][index].state2 */\n      0x02\n      add\n      0x01\n      swap1\n      sload\n      swap1\n      0x0100\n      exp\n      swap1\n      div\n      0xff\n      and\n        /* \"Connect.sol\":8365:8546  return (eventsById[deviceId][index].id,... */\n      swap4\n      pop\n      swap4\n      pop\n      swap4\n      pop\n      swap4\n      pop\n        /* \"Connect.sol\":8201:8553  function getEvent(uint8 deviceId,uint8 index) view public returns(uint8,uint,bool,bool){... */\n      swap3\n      swap6\n      swap2\n      swap5\n      pop\n      swap3\n      pop\n      jump\t// out\n        /* \"Connect.sol\":4551:4863  function setEventTypePlan(uint8 eventId, uint8 newClass,uint identity)public{... */\n    tag_85:\n        /* \"Connect.sol\":4660:4664  true */\n      0x01\n        /* \"Connect.sol\":4640:4664  authEvent(eventId)==true */\n      iszero\n      iszero\n        /* \"Connect.sol\":4640:4658  authEvent(eventId) */\n      tag_300\n        /* \"Connect.sol\":4650:4657  eventId */\n      dup5\n        /* \"Connect.sol\":4640:4649  authEvent */\n      tag_130\n        /* \"Connect.sol\":4640:4658  authEvent(eventId) */\n      jump\t// in\n    tag_300:\n        /* \"Connect.sol\":4640:4664  authEvent(eventId)==true */\n      iszero\n      iszero\n      eq\n        /* \"Connect.sol\":4640:4678  authEvent(eventId)==true && newClass<4 */\n      dup1\n      iszero\n      tag_301\n      jumpi\n      pop\n        /* \"Connect.sol\":4677:4678  4 */\n      0x04\n        /* \"Connect.sol\":4668:4676  newClass */\n      dup3\n        /* \"Connect.sol\":4668:4678  newClass<4 */\n      0xff\n      and\n      lt\n        /* \"Connect.sol\":4640:4678  authEvent(eventId)==true && newClass<4 */\n    tag_301:\n        /* \"Connect.sol\":4637:4857  if(authEvent(eventId)==true && newClass<4){... */\n      iszero\n      tag_302\n      jumpi\n        /* \"Connect.sol\":4722:4730  newClass */\n      dup2\n        /* \"Connect.sol\":4693:4704  eventsClass */\n      0x03\n        /* \"Connect.sol\":4705:4712  eventId */\n      dup5\n        /* \"Connect.sol\":4693:4713  eventsClass[eventId] */\n      0xff\n      and\n      dup2\n      sload\n      dup2\n      lt\n      tag_303\n      jumpi\n      tag_304\n      tag_176\n      jump\t// in\n    tag_304:\n    tag_303:\n      swap1\n      0x00\n      mstore\n      keccak256(0x00, 0x20)\n      swap1\n      0x02\n      mul\n      add\n        /* \"Connect.sol\":4693:4719  eventsClass[eventId].class */\n      0x00\n      add\n      0x00\n        /* \"Connect.sol\":4693:4730  eventsClass[eventId].class = newClass */\n      0x0100\n      exp\n      dup2\n      sload\n      dup2\n      0xff\n      mul\n      not\n      and\n      swap1\n      dup4\n      0xff\n      and\n      mul\n      or\n      swap1\n      sstore\n      pop\n        /* \"Connect.sol\":4749:4780  SetEventTypePlan(true,identity) */\n      0xceaa5427acfcb4a33f02d32aef23b9adda338dd9f161e14bb7a745001acb1cb1\n        /* \"Connect.sol\":4766:4770  true */\n      0x01\n        /* \"Connect.sol\":4771:4779  identity */\n      dup3\n        /* \"Connect.sol\":4749:4780  SetEventTypePlan(true,identity) */\n      mload(0x40)\n      tag_306\n      swap3\n      swap2\n      swap1\n      tag_241\n      jump\t// in\n    tag_306:\n      mload(0x40)\n      dup1\n      swap2\n      sub\n      swap1\n      log1\n        /* \"Connect.sol\":4637:4857  if(authEvent(eventId)==true && newClass<4){... */\n      jump(tag_307)\n    tag_302:\n        /* \"Connect.sol\":4814:4846  SetEventTypePlan(false,identity) */\n      0xceaa5427acfcb4a33f02d32aef23b9adda338dd9f161e14bb7a745001acb1cb1\n        /* \"Connect.sol\":4831:4836  false */\n      0x00\n        /* \"Connect.sol\":4837:4845  identity */\n      dup3\n        /* \"Connect.sol\":4814:4846  SetEventTypePlan(false,identity) */\n      mload(0x40)\n      tag_308\n      swap3\n      swap2\n      swap1\n      tag_241\n      jump\t// in\n    tag_308:\n      mload(0x40)\n      dup1\n      swap2\n      sub\n      swap1\n      log1\n        /* \"Connect.sol\":4637:4857  if(authEvent(eventId)==true && newClass<4){... */\n    tag_307:\n        /* \"Connect.sol\":4551:4863  function setEventTypePlan(uint8 eventId, uint8 newClass,uint identity)public{... */\n      pop\n      pop\n      pop\n      jump\t// out\n        /* \"Connect.sol\":7235:7930  function toDoListDo(uint8 index,bool approve,uint identity)public {... */\n    tag_89:\n        /* \"Connect.sol\":7330:7335  index */\n      dup3\n        /* \"Connect.sol\":7314:7335  toDoList.length>index */\n      0xff\n      and\n        /* \"Connect.sol\":7314:7322  toDoList */\n      0x06\n        /* \"Connect.sol\":7314:7329  toDoList.length */\n      dup1\n      sload\n      swap1\n      pop\n        /* \"Connect.sol\":7314:7335  toDoList.length>index */\n      gt\n        /* \"Connect.sol\":7314:7409  toDoList.length>index && eventsById[toDoList[index].device][toDoList[index].refer].state1==true */\n      dup1\n      iszero\n      tag_310\n      jumpi\n      pop\n        /* \"Connect.sol\":7405:7409  true */\n      0x01\n        /* \"Connect.sol\":7339:7409  eventsById[toDoList[index].device][toDoList[index].refer].state1==true */\n      iszero\n      iszero\n        /* \"Connect.sol\":7339:7349  eventsById */\n      0x05\n        /* \"Connect.sol\":7339:7373  eventsById[toDoList[index].device] */\n      0x00\n        /* \"Connect.sol\":7350:7358  toDoList */\n      0x06\n        /* \"Connect.sol\":7359:7364  index */\n      dup7\n        /* \"Connect.sol\":7350:7365  toDoList[index] */\n      0xff\n      and\n      dup2\n      sload\n      dup2\n      lt\n      tag_311\n      jumpi\n      tag_312\n      tag_176\n      jump\t// in\n    tag_312:\n    tag_311:\n      swap1\n      0x00\n      mstore\n      keccak256(0x00, 0x20)\n      add\n        /* \"Connect.sol\":7350:7372  toDoList[index].device */\n      0x00\n      add\n      0x00\n      swap1\n      sload\n      swap1\n      0x0100\n      exp\n      swap1\n      div\n      0xff\n      and\n        /* \"Connect.sol\":7339:7373  eventsById[toDoList[index].device] */\n      0xff\n      and\n      0xff\n      and\n      dup2\n      mstore\n      0x20\n      add\n      swap1\n      dup2\n      mstore\n      0x20\n      add\n      0x00\n      keccak256\n        /* \"Connect.sol\":7374:7382  toDoList */\n      0x06\n        /* \"Connect.sol\":7383:7388  index */\n      dup6\n        /* \"Connect.sol\":7374:7389  toDoList[index] */\n      0xff\n      and\n      dup2\n      sload\n      dup2\n      lt\n      tag_314\n      jumpi\n      tag_315\n      tag_176\n      jump\t// in\n    tag_315:\n    tag_314:\n      swap1\n      0x00\n      mstore\n      keccak256(0x00, 0x20)\n      add\n        /* \"Connect.sol\":7374:7395  toDoList[index].refer */\n      0x00\n      add\n      0x02\n      swap1\n      sload\n      swap1\n      0x0100\n      exp\n      swap1\n      div\n      0xff\n      and\n        /* \"Connect.sol\":7339:7396  eventsById[toDoList[index].device][toDoList[index].refer] */\n      0xff\n      and\n      dup2\n      sload\n      dup2\n      lt\n      tag_317\n      jumpi\n      tag_318\n      tag_176\n      jump\t// in\n    tag_318:\n    tag_317:\n      swap1\n      0x00\n      mstore\n      keccak256(0x00, 0x20)\n      swap1\n      0x03\n      mul\n      add\n        /* \"Connect.sol\":7339:7403  eventsById[toDoList[index].device][toDoList[index].refer].state1 */\n      0x02\n      add\n      0x00\n      swap1\n      sload\n      swap1\n      0x0100\n      exp\n      swap1\n      div\n      0xff\n      and\n        /* \"Connect.sol\":7339:7409  eventsById[toDoList[index].device][toDoList[index].refer].state1==true */\n      iszero\n      iszero\n      eq\n        /* \"Connect.sol\":7314:7409  toDoList.length>index && eventsById[toDoList[index].device][toDoList[index].refer].state1==true */\n    tag_310:\n        /* \"Connect.sol\":7311:7924  if(toDoList.length>index && eventsById[toDoList[index].device][toDoList[index].refer].state1==true){... */\n      iszero\n      tag_320\n      jumpi\n        /* \"Connect.sol\":7489:7496  approve */\n      dup2\n        /* \"Connect.sol\":7424:7434  eventsById */\n      0x05\n        /* \"Connect.sol\":7424:7458  eventsById[toDoList[index].device] */\n      0x00\n        /* \"Connect.sol\":7435:7443  toDoList */\n      0x06\n        /* \"Connect.sol\":7444:7449  index */\n      dup7\n        /* \"Connect.sol\":7435:7450  toDoList[index] */\n      0xff\n      and\n      dup2\n      sload\n      dup2\n      lt\n      tag_321\n      jumpi\n      tag_322\n      tag_176\n      jump\t// in\n    tag_322:\n    tag_321:\n      swap1\n      0x00\n      mstore\n      keccak256(0x00, 0x20)\n      add\n        /* \"Connect.sol\":7435:7457  toDoList[index].device */\n      0x00\n      add\n      0x00\n      swap1\n      sload\n      swap1\n      0x0100\n      exp\n      swap1\n      div\n      0xff\n      and\n        /* \"Connect.sol\":7424:7458  eventsById[toDoList[index].device] */\n      0xff\n      and\n      0xff\n      and\n      dup2\n      mstore\n      0x20\n      add\n      swap1\n      dup2\n      mstore\n      0x20\n      add\n      0x00\n      keccak256\n        /* \"Connect.sol\":7459:7467  toDoList */\n      0x06\n        /* \"Connect.sol\":7468:7473  index */\n      dup6\n        /* \"Connect.sol\":7459:7474  toDoList[index] */\n      0xff\n      and\n      dup2\n      sload\n      dup2\n      lt\n      tag_324\n      jumpi\n      tag_325\n      tag_176\n      jump\t// in\n    tag_325:\n    tag_324:\n      swap1\n      0x00\n      mstore\n      keccak256(0x00, 0x20)\n      add\n        /* \"Connect.sol\":7459:7480  toDoList[index].refer */\n      0x00\n      add\n      0x02\n      swap1\n      sload\n      swap1\n      0x0100\n      exp\n      swap1\n      div\n      0xff\n      and\n        /* \"Connect.sol\":7424:7481  eventsById[toDoList[index].device][toDoList[index].refer] */\n      0xff\n      and\n      dup2\n      sload\n      dup2\n      lt\n      tag_327\n      jumpi\n      tag_328\n      tag_176\n      jump\t// in\n    tag_328:\n    tag_327:\n      swap1\n      0x00\n      mstore\n      keccak256(0x00, 0x20)\n      swap1\n      0x03\n      mul\n      add\n        /* \"Connect.sol\":7424:7488  eventsById[toDoList[index].device][toDoList[index].refer].state2 */\n      0x02\n      add\n      0x01\n        /* \"Connect.sol\":7424:7496  eventsById[toDoList[index].device][toDoList[index].refer].state2=approve */\n      0x0100\n      exp\n      dup2\n      sload\n      dup2\n      0xff\n      mul\n      not\n      and\n      swap1\n      dup4\n      iszero\n      iszero\n      mul\n      or\n      swap1\n      sstore\n      pop\n        /* \"Connect.sol\":7536:7537  1 */\n      0x01\n        /* \"Connect.sol\":7520:7528  toDoList */\n      0x06\n        /* \"Connect.sol\":7520:7535  toDoList.length */\n      dup1\n      sload\n      swap1\n      pop\n        /* \"Connect.sol\":7520:7537  toDoList.length-1 */\n      tag_330\n      swap2\n      swap1\n      tag_331\n      jump\t// in\n    tag_330:\n        /* \"Connect.sol\":7513:7518  index */\n      dup4\n        /* \"Connect.sol\":7513:7537  index!=toDoList.length-1 */\n      0xff\n      and\n      eq\n        /* \"Connect.sol\":7510:7782  if(index!=toDoList.length-1){... */\n      tag_332\n      jumpi\n        /* \"Connect.sol\":7579:7587  toDoList */\n      0x06\n        /* \"Connect.sol\":7604:7605  1 */\n      0x01\n        /* \"Connect.sol\":7588:7596  toDoList */\n      0x06\n        /* \"Connect.sol\":7588:7603  toDoList.length */\n      dup1\n      sload\n      swap1\n      pop\n        /* \"Connect.sol\":7588:7605  toDoList.length-1 */\n      tag_333\n      swap2\n      swap1\n      tag_331\n      jump\t// in\n    tag_333:\n        /* \"Connect.sol\":7579:7606  toDoList[toDoList.length-1] */\n      dup2\n      sload\n      dup2\n      lt\n      tag_334\n      jumpi\n      tag_335\n      tag_176\n      jump\t// in\n    tag_335:\n    tag_334:\n      swap1\n      0x00\n      mstore\n      keccak256(0x00, 0x20)\n      add\n        /* \"Connect.sol\":7579:7613  toDoList[toDoList.length-1].device */\n      0x00\n      add\n      0x00\n      swap1\n      sload\n      swap1\n      0x0100\n      exp\n      swap1\n      div\n      0xff\n      and\n        /* \"Connect.sol\":7556:7564  toDoList */\n      0x06\n        /* \"Connect.sol\":7565:7570  index */\n      dup5\n        /* \"Connect.sol\":7556:7571  toDoList[index] */\n      0xff\n      and\n      dup2\n      sload\n      dup2\n      lt\n      tag_337\n      jumpi\n      tag_338\n      tag_176\n      jump\t// in\n    tag_338:\n    tag_337:\n      swap1\n      0x00\n      mstore\n      keccak256(0x00, 0x20)\n      add\n        /* \"Connect.sol\":7556:7578  toDoList[index].device */\n      0x00\n      add\n      0x00\n        /* \"Connect.sol\":7556:7613  toDoList[index].device=toDoList[toDoList.length-1].device */\n      0x0100\n      exp\n      dup2\n      sload\n      dup2\n      0xff\n      mul\n      not\n      and\n      swap1\n      dup4\n      0xff\n      and\n      mul\n      or\n      swap1\n      sstore\n      pop\n        /* \"Connect.sol\":7657:7665  toDoList */\n      0x06\n        /* \"Connect.sol\":7682:7683  1 */\n      0x01\n        /* \"Connect.sol\":7666:7674  toDoList */\n      0x06\n        /* \"Connect.sol\":7666:7681  toDoList.length */\n      dup1\n      sload\n      swap1\n      pop\n        /* \"Connect.sol\":7666:7683  toDoList.length-1 */\n      tag_340\n      swap2\n      swap1\n      tag_331\n      jump\t// in\n    tag_340:\n        /* \"Connect.sol\":7657:7684  toDoList[toDoList.length-1] */\n      dup2\n      sload\n      dup2\n      lt\n      tag_341\n      jumpi\n      tag_342\n      tag_176\n      jump\t// in\n    tag_342:\n    tag_341:\n      swap1\n      0x00\n      mstore\n      keccak256(0x00, 0x20)\n      add\n        /* \"Connect.sol\":7657:7694  toDoList[toDoList.length-1].eventType */\n      0x00\n      add\n      0x01\n      swap1\n      sload\n      swap1\n      0x0100\n      exp\n      swap1\n      div\n      0xff\n      and\n        /* \"Connect.sol\":7631:7639  toDoList */\n      0x06\n        /* \"Connect.sol\":7640:7645  index */\n      dup5\n        /* \"Connect.sol\":7631:7646  toDoList[index] */\n      0xff\n      and\n      dup2\n      sload\n      dup2\n      lt\n      tag_344\n      jumpi\n      tag_345\n      tag_176\n      jump\t// in\n    tag_345:\n    tag_344:\n      swap1\n      0x00\n      mstore\n      keccak256(0x00, 0x20)\n      add\n        /* \"Connect.sol\":7631:7656  toDoList[index].eventType */\n      0x00\n      add\n      0x01\n        /* \"Connect.sol\":7631:7694  toDoList[index].eventType=toDoList[toDoList.length-1].eventType */\n      0x0100\n      exp\n      dup2\n      sload\n      dup2\n      0xff\n      mul\n      not\n      and\n      swap1\n      dup4\n      0xff\n      and\n      mul\n      or\n      swap1\n      sstore\n      pop\n        /* \"Connect.sol\":7734:7742  toDoList */\n      0x06\n        /* \"Connect.sol\":7759:7760  1 */\n      0x01\n        /* \"Connect.sol\":7743:7751  toDoList */\n      0x06\n        /* \"Connect.sol\":7743:7758  toDoList.length */\n      dup1\n      sload\n      swap1\n      pop\n        /* \"Connect.sol\":7743:7760  toDoList.length-1 */\n      tag_347\n      swap2\n      swap1\n      tag_331\n      jump\t// in\n    tag_347:\n        /* \"Connect.sol\":7734:7761  toDoList[toDoList.length-1] */\n      dup2\n      sload\n      dup2\n      lt\n      tag_348\n      jumpi\n      tag_349\n      tag_176\n      jump\t// in\n    tag_349:\n    tag_348:\n      swap1\n      0x00\n      mstore\n      keccak256(0x00, 0x20)\n      add\n        /* \"Connect.sol\":7734:7767  toDoList[toDoList.length-1].refer */\n      0x00\n      add\n      0x02\n      swap1\n      sload\n      swap1\n      0x0100\n      exp\n      swap1\n      div\n      0xff\n      and\n        /* \"Connect.sol\":7712:7720  toDoList */\n      0x06\n        /* \"Connect.sol\":7721:7726  index */\n      dup5\n        /* \"Connect.sol\":7712:7727  toDoList[index] */\n      0xff\n      and\n      dup2\n      sload\n      dup2\n      lt\n      tag_351\n      jumpi\n      tag_352\n      tag_176\n      jump\t// in\n    tag_352:\n    tag_351:\n      swap1\n      0x00\n      mstore\n      keccak256(0x00, 0x20)\n      add\n        /* \"Connect.sol\":7712:7733  toDoList[index].refer */\n      0x00\n      add\n      0x02\n        /* \"Connect.sol\":7712:7767  toDoList[index].refer=toDoList[toDoList.length-1].refer */\n      0x0100\n      exp\n      dup2\n      sload\n      dup2\n      0xff\n      mul\n      not\n      and\n      swap1\n      dup4\n      0xff\n      and\n      mul\n      or\n      swap1\n      sstore\n      pop\n        /* \"Connect.sol\":7510:7782  if(index!=toDoList.length-1){... */\n    tag_332:\n        /* \"Connect.sol\":7795:7803  toDoList */\n      0x06\n        /* \"Connect.sol\":7795:7809  toDoList.pop() */\n      dup1\n      sload\n      dup1\n      tag_354\n      jumpi\n      tag_355\n      tag_356\n      jump\t// in\n    tag_355:\n    tag_354:\n      0x01\n      swap1\n      sub\n      dup2\n      dup2\n      swap1\n      0x00\n      mstore\n      keccak256(0x00, 0x20)\n      add\n      0x00\n      dup1\n      dup3\n      add\n      exp(0x0100, 0x00)\n      dup2\n      sload\n      swap1\n      0xff\n      mul\n      not\n      and\n      swap1\n      sstore\n      0x00\n      dup3\n      add\n      exp(0x0100, 0x01)\n      dup2\n      sload\n      swap1\n      0xff\n      mul\n      not\n      and\n      swap1\n      sstore\n      0x00\n      dup3\n      add\n      exp(0x0100, 0x02)\n      dup2\n      sload\n      swap1\n      0xff\n      mul\n      not\n      and\n      swap1\n      sstore\n      pop\n      pop\n      swap1\n      sstore\n        /* \"Connect.sol\":7828:7853  ToDoListDo(true,identity) */\n      0x109180452712718656f65e5d308a9296a67dea5e1e812c0891e892b205051bef\n        /* \"Connect.sol\":7839:7843  true */\n      0x01\n        /* \"Connect.sol\":7844:7852  identity */\n      dup3\n        /* \"Connect.sol\":7828:7853  ToDoListDo(true,identity) */\n      mload(0x40)\n      tag_358\n      swap3\n      swap2\n      swap1\n      tag_241\n      jump\t// in\n    tag_358:\n      mload(0x40)\n      dup1\n      swap2\n      sub\n      swap1\n      log1\n        /* \"Connect.sol\":7311:7924  if(toDoList.length>index && eventsById[toDoList[index].device][toDoList[index].refer].state1==true){... */\n      jump(tag_359)\n    tag_320:\n        /* \"Connect.sol\":7887:7913  ToDoListDo(false,identity) */\n      0x109180452712718656f65e5d308a9296a67dea5e1e812c0891e892b205051bef\n        /* \"Connect.sol\":7898:7903  false */\n      0x00\n        /* \"Connect.sol\":7904:7912  identity */\n      dup3\n        /* \"Connect.sol\":7887:7913  ToDoListDo(false,identity) */\n      mload(0x40)\n      tag_360\n      swap3\n      swap2\n      swap1\n      tag_241\n      jump\t// in\n    tag_360:\n      mload(0x40)\n      dup1\n      swap2\n      sub\n      swap1\n      log1\n        /* \"Connect.sol\":7311:7924  if(toDoList.length>index && eventsById[toDoList[index].device][toDoList[index].refer].state1==true){... */\n    tag_359:\n        /* \"Connect.sol\":7235:7930  function toDoListDo(uint8 index,bool approve,uint identity)public {... */\n      pop\n      pop\n      pop\n      jump\t// out\n        /* \"Connect.sol\":11796:12112  function compareStr(string memory _str1, string memory _str2) pure public returns(bool) {... */\n    tag_93:\n        /* \"Connect.sol\":11878:11882  bool */\n      0x00\n        /* \"Connect.sol\":11926:11931  _str2 */\n      dup2\n        /* \"Connect.sol\":11920:11939  bytes(_str2).length */\n      mload\n        /* \"Connect.sol\":11903:11908  _str1 */\n      dup4\n        /* \"Connect.sol\":11897:11916  bytes(_str1).length */\n      mload\n        /* \"Connect.sol\":11897:11939  bytes(_str1).length == bytes(_str2).length */\n      eq\n        /* \"Connect.sol\":11894:12084  if(bytes(_str1).length == bytes(_str2).length){... */\n      iszero\n      tag_362\n      jumpi\n        /* \"Connect.sol\":12022:12027  _str2 */\n      dup2\n        /* \"Connect.sol\":12005:12028  abi.encodePacked(_str2) */\n      add(0x20, mload(0x40))\n      tag_363\n      swap2\n      swap1\n      tag_364\n      jump\t// in\n    tag_363:\n      mload(0x40)\n      0x20\n      dup2\n      dup4\n      sub\n      sub\n      dup2\n      mstore\n      swap1\n      0x40\n      mstore\n        /* \"Connect.sol\":11995:12029  keccak256(abi.encodePacked(_str2)) */\n      dup1\n      mload\n      swap1\n      0x20\n      add\n      keccak256\n        /* \"Connect.sol\":11984:11989  _str1 */\n      dup4\n        /* \"Connect.sol\":11967:11990  abi.encodePacked(_str1) */\n      add(0x20, mload(0x40))\n      tag_365\n      swap2\n      swap1\n      tag_364\n      jump\t// in\n    tag_365:\n      mload(0x40)\n      0x20\n      dup2\n      dup4\n      sub\n      sub\n      dup2\n      mstore\n      swap1\n      0x40\n      mstore\n        /* \"Connect.sol\":11957:11991  keccak256(abi.encodePacked(_str1)) */\n      dup1\n      mload\n      swap1\n      0x20\n      add\n      keccak256\n        /* \"Connect.sol\":11957:12029  keccak256(abi.encodePacked(_str1)) == keccak256(abi.encodePacked(_str2)) */\n      eq\n        /* \"Connect.sol\":11954:12074  if(keccak256(abi.encodePacked(_str1)) == keccak256(abi.encodePacked(_str2))){... */\n      iszero\n      tag_366\n      jumpi\n        /* \"Connect.sol\":12055:12059  true */\n      0x01\n        /* \"Connect.sol\":12048:12059  return true */\n      swap1\n      pop\n      jump(tag_361)\n        /* \"Connect.sol\":11954:12074  if(keccak256(abi.encodePacked(_str1)) == keccak256(abi.encodePacked(_str2))){... */\n    tag_366:\n        /* \"Connect.sol\":11894:12084  if(bytes(_str1).length == bytes(_str2).length){... */\n    tag_362:\n        /* \"Connect.sol\":12100:12105  false */\n      0x00\n        /* \"Connect.sol\":12093:12105  return false */\n      swap1\n      pop\n        /* \"Connect.sol\":11796:12112  function compareStr(string memory _str1, string memory _str2) pure public returns(bool) {... */\n    tag_361:\n      swap3\n      swap2\n      pop\n      pop\n      jump\t// out\n        /* \"Connect.sol\":6466:6510  mapping(uint8 => Events[]) public eventsById */\n    tag_97:\n      mstore(0x20, 0x05)\n      dup2\n      0x00\n      mstore\n      keccak256(0x00, 0x40)\n      dup2\n      dup2\n      sload\n      dup2\n      lt\n      tag_367\n      jumpi\n      0x00\n      dup1\n      revert\n    tag_367:\n      swap1\n      0x00\n      mstore\n      keccak256(0x00, 0x20)\n      swap1\n      0x03\n      mul\n      add\n      0x00\n      swap2\n      pop\n      swap2\n      pop\n      pop\n      dup1\n      0x00\n      add\n      0x00\n      swap1\n      sload\n      swap1\n      0x0100\n      exp\n      swap1\n      div\n      0xff\n      and\n      swap1\n      dup1\n      0x01\n      add\n      sload\n      swap1\n      dup1\n      0x02\n      add\n      0x00\n      swap1\n      sload\n      swap1\n      0x0100\n      exp\n      swap1\n      div\n      0xff\n      and\n      swap1\n      dup1\n      0x02\n      add\n      0x01\n      swap1\n      sload\n      swap1\n      0x0100\n      exp\n      swap1\n      div\n      0xff\n      and\n      swap1\n      pop\n      dup5\n      jump\t// out\n        /* \"Connect.sol\":2475:2842  function addDevice(address _account, string memory _password, string memory _name, string memory _detail,uint identity) public{... */\n    tag_102:\n        /* \"Connect.sol\":2611:2618  devices */\n      0x01\n        /* \"Connect.sol\":2624:2756  Device({... */\n      mload(0x40)\n      dup1\n      0x80\n      add\n      0x40\n      mstore\n      dup1\n        /* \"Connect.sol\":2653:2661  _account */\n      dup8\n        /* \"Connect.sol\":2624:2756  Device({... */\n      0xffffffffffffffffffffffffffffffffffffffff\n      and\n      dup2\n      mstore\n      0x20\n      add\n        /* \"Connect.sol\":2684:2693  _password */\n      dup7\n        /* \"Connect.sol\":2624:2756  Device({... */\n      dup2\n      mstore\n      0x20\n      add\n        /* \"Connect.sol\":2712:2717  _name */\n      dup6\n        /* \"Connect.sol\":2624:2756  Device({... */\n      dup2\n      mstore\n      0x20\n      add\n        /* \"Connect.sol\":2738:2745  _detail */\n      dup5\n        /* \"Connect.sol\":2624:2756  Device({... */\n      dup2\n      mstore\n      pop\n        /* \"Connect.sol\":2611:2757  devices.push(Device({... */\n      swap1\n      dup1\n      0x01\n      dup2\n      sload\n      add\n      dup1\n      dup3\n      sstore\n      dup1\n      swap2\n      pop\n      pop\n      0x01\n      swap1\n      sub\n      swap1\n      0x00\n      mstore\n      keccak256(0x00, 0x20)\n      swap1\n      0x04\n      mul\n      add\n      0x00\n      swap1\n      swap2\n      swap1\n      swap2\n      swap1\n      swap2\n      pop\n      0x00\n      dup3\n      add\n      mload\n      dup2\n      0x00\n      add\n      exp(0x0100, 0x00)\n      dup2\n      sload\n      dup2\n      0xffffffffffffffffffffffffffffffffffffffff\n      mul\n      not\n      and\n      swap1\n      dup4\n      0xffffffffffffffffffffffffffffffffffffffff\n      and\n      mul\n      or\n      swap1\n      sstore\n      pop\n      0x20\n      dup3\n      add\n      mload\n      dup2\n      0x01\n      add\n      swap1\n      dup1\n      mload\n      swap1\n      0x20\n      add\n      swap1\n      tag_371\n      swap3\n      swap2\n      swap1\n      tag_251\n      jump\t// in\n    tag_371:\n      pop\n      0x40\n      dup3\n      add\n      mload\n      dup2\n      0x02\n      add\n      swap1\n      dup1\n      mload\n      swap1\n      0x20\n      add\n      swap1\n      tag_372\n      swap3\n      swap2\n      swap1\n      tag_251\n      jump\t// in\n    tag_372:\n      pop\n      0x60\n      dup3\n      add\n      mload\n      dup2\n      0x03\n      add\n      swap1\n      dup1\n      mload\n      swap1\n      0x20\n      add\n      swap1\n      tag_373\n      swap3\n      swap2\n      swap1\n      tag_251\n      jump\t// in\n    tag_373:\n      pop\n      pop\n      pop\n        /* \"Connect.sol\":2767:2777  devicesNum */\n      0x02\n      0x00\n        /* \"Connect.sol\":2767:2779  devicesNum++ */\n      dup2\n      sload\n      dup1\n      swap3\n      swap2\n      swap1\n      tag_374\n      swap1\n      tag_375\n      jump\t// in\n    tag_374:\n      swap2\n      swap1\n      pop\n      sstore\n      pop\n        /* \"Connect.sol\":2794:2835  AddDevice(uint8(devices.length),identity) */\n      0xca97dfb5b0a71f7378f93b82cd2c6c17612f65145213249a9542cbd987398476\n        /* \"Connect.sol\":2810:2817  devices */\n      0x01\n        /* \"Connect.sol\":2810:2824  devices.length */\n      dup1\n      sload\n      swap1\n      pop\n        /* \"Connect.sol\":2826:2834  identity */\n      dup3\n        /* \"Connect.sol\":2794:2835  AddDevice(uint8(devices.length),identity) */\n      mload(0x40)\n      tag_376\n      swap3\n      swap2\n      swap1\n      tag_377\n      jump\t// in\n    tag_376:\n      mload(0x40)\n      dup1\n      swap2\n      sub\n      swap1\n      log1\n        /* \"Connect.sol\":2475:2842  function addDevice(address _account, string memory _password, string memory _name, string memory _detail,uint identity) public{... */\n      pop\n      pop\n      pop\n      pop\n      pop\n      jump\t// out\n        /* \"Connect.sol\":5355:5743  function addEventType(uint8 eventClass,string memory eventName,uint identity)public{... */\n    tag_105:\n        /* \"Connect.sol\":5462:5463  3 */\n      0x03\n        /* \"Connect.sol\":5451:5461  eventClass */\n      dup4\n        /* \"Connect.sol\":5451:5463  eventClass>3 */\n      0xff\n      and\n      gt\n        /* \"Connect.sol\":5448:5524  if(eventClass>3){... */\n      iszero\n      tag_379\n      jumpi\n        /* \"Connect.sol\":5483:5513  AddEventType(uint(0),identity) */\n      0x85b7a24bbfda547a4de90907032cd427a7580334841f5ac3772c90d7eb81ff9b\n        /* \"Connect.sol\":5501:5502  0 */\n      0x00\n        /* \"Connect.sol\":5504:5512  identity */\n      dup3\n        /* \"Connect.sol\":5483:5513  AddEventType(uint(0),identity) */\n      mload(0x40)\n      tag_380\n      swap3\n      swap2\n      swap1\n      tag_381\n      jump\t// in\n    tag_380:\n      mload(0x40)\n      dup1\n      swap2\n      sub\n      swap1\n      log1\n        /* \"Connect.sol\":5448:5524  if(eventClass>3){... */\n    tag_379:\n        /* \"Connect.sol\":5533:5544  eventsClass */\n      0x03\n        /* \"Connect.sol\":5550:5673  EventsClass({... */\n      mload(0x40)\n      dup1\n      0x60\n      add\n      0x40\n      mstore\n      dup1\n        /* \"Connect.sol\":5582:5592  eventClass */\n      dup6\n        /* \"Connect.sol\":5550:5673  EventsClass({... */\n      0xff\n      and\n      dup2\n      mstore\n      0x20\n      add\n        /* \"Connect.sol\":5615:5626  eventsClass */\n      0x03\n        /* \"Connect.sol\":5615:5633  eventsClass.length */\n      dup1\n      sload\n      swap1\n      pop\n        /* \"Connect.sol\":5550:5673  EventsClass({... */\n      0xff\n      and\n      dup2\n      mstore\n      0x20\n      add\n        /* \"Connect.sol\":5653:5662  eventName */\n      dup5\n        /* \"Connect.sol\":5550:5673  EventsClass({... */\n      dup2\n      mstore\n      pop\n        /* \"Connect.sol\":5533:5674  eventsClass.push(EventsClass({... */\n      swap1\n      dup1\n      0x01\n      dup2\n      sload\n      add\n      dup1\n      dup3\n      sstore\n      dup1\n      swap2\n      pop\n      pop\n      0x01\n      swap1\n      sub\n      swap1\n      0x00\n      mstore\n      keccak256(0x00, 0x20)\n      swap1\n      0x02\n      mul\n      add\n      0x00\n      swap1\n      swap2\n      swap1\n      swap2\n      swap1\n      swap2\n      pop\n      0x00\n      dup3\n      add\n      mload\n      dup2\n      0x00\n      add\n      exp(0x0100, 0x00)\n      dup2\n      sload\n      dup2\n      0xff\n      mul\n      not\n      and\n      swap1\n      dup4\n      0xff\n      and\n      mul\n      or\n      swap1\n      sstore\n      pop\n      0x20\n      dup3\n      add\n      mload\n      dup2\n      0x00\n      add\n      exp(0x0100, 0x01)\n      dup2\n      sload\n      dup2\n      0xff\n      mul\n      not\n      and\n      swap1\n      dup4\n      0xff\n      and\n      mul\n      or\n      swap1\n      sstore\n      pop\n      0x40\n      dup3\n      add\n      mload\n      dup2\n      0x01\n      add\n      swap1\n      dup1\n      mload\n      swap1\n      0x20\n      add\n      swap1\n      tag_383\n      swap3\n      swap2\n      swap1\n      tag_251\n      jump\t// in\n    tag_383:\n      pop\n      pop\n      pop\n        /* \"Connect.sol\":5689:5736  AddEventType(uint(eventsClass.length),identity) */\n      0x85b7a24bbfda547a4de90907032cd427a7580334841f5ac3772c90d7eb81ff9b\n        /* \"Connect.sol\":5707:5718  eventsClass */\n      0x03\n        /* \"Connect.sol\":5707:5725  eventsClass.length */\n      dup1\n      sload\n      swap1\n      pop\n        /* \"Connect.sol\":5727:5735  identity */\n      dup3\n        /* \"Connect.sol\":5689:5736  AddEventType(uint(eventsClass.length),identity) */\n      mload(0x40)\n      tag_384\n      swap3\n      swap2\n      swap1\n      tag_381\n      jump\t// in\n    tag_384:\n      mload(0x40)\n      dup1\n      swap2\n      sub\n      swap1\n      log1\n        /* \"Connect.sol\":5355:5743  function addEventType(uint8 eventClass,string memory eventName,uint identity)public{... */\n      pop\n      pop\n      pop\n      jump\t// out\n        /* \"Connect.sol\":7001:7162  function getToDoListInfo(uint i)public view returns(uint8,uint8,uint8,uint){... */\n    tag_108:\n        /* \"Connect.sol\":7053:7058  uint8 */\n      0x00\n        /* \"Connect.sol\":7059:7064  uint8 */\n      dup1\n        /* \"Connect.sol\":7065:7070  uint8 */\n      0x00\n        /* \"Connect.sol\":7071:7075  uint */\n      dup1\n        /* \"Connect.sol\":7094:7102  toDoList */\n      0x06\n        /* \"Connect.sol\":7103:7104  i */\n      dup6\n        /* \"Connect.sol\":7094:7105  toDoList[i] */\n      dup2\n      sload\n      dup2\n      lt\n      tag_386\n      jumpi\n      tag_387\n      tag_176\n      jump\t// in\n    tag_387:\n    tag_386:\n      swap1\n      0x00\n      mstore\n      keccak256(0x00, 0x20)\n      add\n        /* \"Connect.sol\":7094:7112  toDoList[i].device */\n      0x00\n      add\n      0x00\n      swap1\n      sload\n      swap1\n      0x0100\n      exp\n      swap1\n      div\n      0xff\n      and\n        /* \"Connect.sol\":7113:7121  toDoList */\n      0x06\n        /* \"Connect.sol\":7122:7123  i */\n      dup7\n        /* \"Connect.sol\":7113:7124  toDoList[i] */\n      dup2\n      sload\n      dup2\n      lt\n      tag_389\n      jumpi\n      tag_390\n      tag_176\n      jump\t// in\n    tag_390:\n    tag_389:\n      swap1\n      0x00\n      mstore\n      keccak256(0x00, 0x20)\n      add\n        /* \"Connect.sol\":7113:7134  toDoList[i].eventType */\n      0x00\n      add\n      0x01\n      swap1\n      sload\n      swap1\n      0x0100\n      exp\n      swap1\n      div\n      0xff\n      and\n        /* \"Connect.sol\":7135:7143  toDoList */\n      0x06\n        /* \"Connect.sol\":7144:7145  i */\n      dup8\n        /* \"Connect.sol\":7135:7146  toDoList[i] */\n      dup2\n      sload\n      dup2\n      lt\n      tag_392\n      jumpi\n      tag_393\n      tag_176\n      jump\t// in\n    tag_393:\n    tag_392:\n      swap1\n      0x00\n      mstore\n      keccak256(0x00, 0x20)\n      add\n        /* \"Connect.sol\":7135:7152  toDoList[i].refer */\n      0x00\n      add\n      0x02\n      swap1\n      sload\n      swap1\n      0x0100\n      exp\n      swap1\n      div\n      0xff\n      and\n        /* \"Connect.sol\":7153:7154  i */\n      dup8\n        /* \"Connect.sol\":7086:7155  return (toDoList[i].device,toDoList[i].eventType,toDoList[i].refer,i) */\n      swap4\n      pop\n      swap4\n      pop\n      swap4\n      pop\n      swap4\n      pop\n        /* \"Connect.sol\":7001:7162  function getToDoListInfo(uint i)public view returns(uint8,uint8,uint8,uint){... */\n      swap2\n      swap4\n      pop\n      swap2\n      swap4\n      jump\t// out\n        /* \"Connect.sol\":1471:1625  function setDeviceName(uint index,string memory _name,uint identity)public{... */\n    tag_114:\n        /* \"Connect.sol\":1575:1580  _name */\n      dup2\n        /* \"Connect.sol\":1555:1562  devices */\n      0x01\n        /* \"Connect.sol\":1563:1568  index */\n      dup5\n        /* \"Connect.sol\":1555:1569  devices[index] */\n      dup2\n      sload\n      dup2\n      lt\n      tag_396\n      jumpi\n      tag_397\n      tag_176\n      jump\t// in\n    tag_397:\n    tag_396:\n      swap1\n      0x00\n      mstore\n      keccak256(0x00, 0x20)\n      swap1\n      0x04\n      mul\n      add\n        /* \"Connect.sol\":1555:1574  devices[index].name */\n      0x02\n      add\n        /* \"Connect.sol\":1555:1580  devices[index].name=_name */\n      swap1\n      dup1\n      mload\n      swap1\n      0x20\n      add\n      swap1\n      tag_399\n      swap3\n      swap2\n      swap1\n      tag_251\n      jump\t// in\n    tag_399:\n      pop\n        /* \"Connect.sol\":1595:1618  SetDeviceName(identity) */\n      0xca72659fa153f272690b4d7725db784120beac96771e0b1e62b66d678b2f3f9f\n        /* \"Connect.sol\":1609:1617  identity */\n      dup2\n        /* \"Connect.sol\":1595:1618  SetDeviceName(identity) */\n      mload(0x40)\n      tag_400\n      swap2\n      swap1\n      tag_49\n      jump\t// in\n    tag_400:\n      mload(0x40)\n      dup1\n      swap2\n      sub\n      swap1\n      log1\n        /* \"Connect.sol\":1471:1625  function setDeviceName(uint index,string memory _name,uint identity)public{... */\n      pop\n      pop\n      pop\n      jump\t// out\n        /* \"Connect.sol\":4301:4455  function getEventsClassInfo(uint8 id)public view returns(uint8,uint8,string memory){... */\n    tag_118:\n        /* \"Connect.sol\":4358:4363  uint8 */\n      0x00\n        /* \"Connect.sol\":4364:4369  uint8 */\n      dup1\n        /* \"Connect.sol\":4370:4383  string memory */\n      0x60\n        /* \"Connect.sol\":4402:4413  eventsClass */\n      0x03\n        /* \"Connect.sol\":4414:4416  id */\n      dup5\n        /* \"Connect.sol\":4402:4417  eventsClass[id] */\n      0xff\n      and\n      dup2\n      sload\n      dup2\n      lt\n      tag_402\n      jumpi\n      tag_403\n      tag_176\n      jump\t// in\n    tag_403:\n    tag_402:\n      swap1\n      0x00\n      mstore\n      keccak256(0x00, 0x20)\n      swap1\n      0x02\n      mul\n      add\n        /* \"Connect.sol\":4402:4423  eventsClass[id].class */\n      0x00\n      add\n      0x00\n      swap1\n      sload\n      swap1\n      0x0100\n      exp\n      swap1\n      div\n      0xff\n      and\n        /* \"Connect.sol\":4424:4426  id */\n      dup5\n        /* \"Connect.sol\":4427:4438  eventsClass */\n      0x03\n        /* \"Connect.sol\":4439:4441  id */\n      dup7\n        /* \"Connect.sol\":4427:4442  eventsClass[id] */\n      0xff\n      and\n      dup2\n      sload\n      dup2\n      lt\n      tag_405\n      jumpi\n      tag_406\n      tag_176\n      jump\t// in\n    tag_406:\n    tag_405:\n      swap1\n      0x00\n      mstore\n      keccak256(0x00, 0x20)\n      swap1\n      0x02\n      mul\n      add\n        /* \"Connect.sol\":4427:4447  eventsClass[id].name */\n      0x01\n      add\n        /* \"Connect.sol\":4394:4448  return (eventsClass[id].class,id,eventsClass[id].name) */\n      dup1\n      dup1\n      sload\n      tag_408\n      swap1\n      tag_179\n      jump\t// in\n    tag_408:\n      dup1\n      0x1f\n      add\n      0x20\n      dup1\n      swap2\n      div\n      mul\n      0x20\n      add\n      mload(0x40)\n      swap1\n      dup2\n      add\n      0x40\n      mstore\n      dup1\n      swap3\n      swap2\n      swap1\n      dup2\n      dup2\n      mstore\n      0x20\n      add\n      dup3\n      dup1\n      sload\n      tag_409\n      swap1\n      tag_179\n      jump\t// in\n    tag_409:\n      dup1\n      iszero\n      tag_410\n      jumpi\n      dup1\n      0x1f\n      lt\n      tag_411\n      jumpi\n      0x0100\n      dup1\n      dup4\n      sload\n      div\n      mul\n      dup4\n      mstore\n      swap2\n      0x20\n      add\n      swap2\n      jump(tag_410)\n    tag_411:\n      dup3\n      add\n      swap2\n      swap1\n      0x00\n      mstore\n      keccak256(0x00, 0x20)\n      swap1\n    tag_412:\n      dup2\n      sload\n      dup2\n      mstore\n      swap1\n      0x01\n      add\n      swap1\n      0x20\n      add\n      dup1\n      dup4\n      gt\n      tag_412\n      jumpi\n      dup3\n      swap1\n      sub\n      0x1f\n      and\n      dup3\n      add\n      swap2\n    tag_410:\n      pop\n      pop\n      pop\n      pop\n      pop\n      swap1\n      pop\n      swap3\n      pop\n      swap3\n      pop\n      swap3\n      pop\n        /* \"Connect.sol\":4301:4455  function getEventsClassInfo(uint8 id)public view returns(uint8,uint8,string memory){... */\n      swap2\n      swap4\n      swap1\n      swap3\n      pop\n      jump\t// out\n        /* \"Connect.sol\":7975:8160  function getEventLength(uint8 deviceId) view public returns(uint){... */\n    tag_122:\n        /* \"Connect.sol\":8035:8039  uint */\n      0x00\n        /* \"Connect.sol\":8101:8106  false */\n      dup1\n        /* \"Connect.sol\":8058:8106  compareStr(\"\",devices[deviceId].password)==false */\n      iszero\n      iszero\n        /* \"Connect.sol\":8058:8099  compareStr(\"\",devices[deviceId].password) */\n      tag_414\n      mload(0x40)\n      dup1\n      0x20\n      add\n      0x40\n      mstore\n      dup1\n      0x00\n      dup2\n      mstore\n      pop\n        /* \"Connect.sol\":8072:8079  devices */\n      0x01\n        /* \"Connect.sol\":8080:8088  deviceId */\n      dup6\n        /* \"Connect.sol\":8072:8089  devices[deviceId] */\n      0xff\n      and\n      dup2\n      sload\n      dup2\n      lt\n      tag_415\n      jumpi\n      tag_416\n      tag_176\n      jump\t// in\n    tag_416:\n    tag_415:\n      swap1\n      0x00\n      mstore\n      keccak256(0x00, 0x20)\n      swap1\n      0x04\n      mul\n      add\n        /* \"Connect.sol\":8072:8098  devices[deviceId].password */\n      0x01\n      add\n        /* \"Connect.sol\":8058:8099  compareStr(\"\",devices[deviceId].password) */\n      dup1\n      sload\n      tag_418\n      swap1\n      tag_179\n      jump\t// in\n    tag_418:\n      dup1\n      0x1f\n      add\n      0x20\n      dup1\n      swap2\n      div\n      mul\n      0x20\n      add\n      mload(0x40)\n      swap1\n      dup2\n      add\n      0x40\n      mstore\n      dup1\n      swap3\n      swap2\n      swap1\n      dup2\n      dup2\n      mstore\n      0x20\n      add\n      dup3\n      dup1\n      sload\n      tag_419\n      swap1\n      tag_179\n      jump\t// in\n    tag_419:\n      dup1\n      iszero\n      tag_420\n      jumpi\n      dup1\n      0x1f\n      lt\n      tag_421\n      jumpi\n      0x0100\n      dup1\n      dup4\n      sload\n      div\n      mul\n      dup4\n      mstore\n      swap2\n      0x20\n      add\n      swap2\n      jump(tag_420)\n    tag_421:\n      dup3\n      add\n      swap2\n      swap1\n      0x00\n      mstore\n      keccak256(0x00, 0x20)\n      swap1\n    tag_422:\n      dup2\n      sload\n      dup2\n      mstore\n      swap1\n      0x01\n      add\n      swap1\n      0x20\n      add\n      dup1\n      dup4\n      gt\n      tag_422\n      jumpi\n      dup3\n      swap1\n      sub\n      0x1f\n      and\n      dup3\n      add\n      swap2\n    tag_420:\n      pop\n      pop\n      pop\n      pop\n      pop\n        /* \"Connect.sol\":8058:8068  compareStr */\n      tag_93\n        /* \"Connect.sol\":8058:8099  compareStr(\"\",devices[deviceId].password) */\n      jump\t// in\n    tag_414:\n        /* \"Connect.sol\":8058:8106  compareStr(\"\",devices[deviceId].password)==false */\n      iszero\n      iszero\n      eq\n        /* \"Connect.sol\":8050:8107  require(compareStr(\"\",devices[deviceId].password)==false) */\n      tag_423\n      jumpi\n      0x00\n      dup1\n      revert\n    tag_423:\n        /* \"Connect.sol\":8125:8135  eventsById */\n      0x05\n        /* \"Connect.sol\":8125:8145  eventsById[deviceId] */\n      0x00\n        /* \"Connect.sol\":8136:8144  deviceId */\n      dup4\n        /* \"Connect.sol\":8125:8145  eventsById[deviceId] */\n      0xff\n      and\n      0xff\n      and\n      dup2\n      mstore\n      0x20\n      add\n      swap1\n      dup2\n      mstore\n      0x20\n      add\n      0x00\n      keccak256\n        /* \"Connect.sol\":8125:8152  eventsById[deviceId].length */\n      dup1\n      sload\n      swap1\n      pop\n        /* \"Connect.sol\":8117:8153  return (eventsById[deviceId].length) */\n      swap1\n      pop\n        /* \"Connect.sol\":7975:8160  function getEventLength(uint8 deviceId) view public returns(uint){... */\n      swap2\n      swap1\n      pop\n      jump\t// out\n        /* \"Connect.sol\":8673:10411  function setEvent(address _account, string memory _password, uint8 deviceId, uint8 eventId,uint identity) public{... */\n    tag_127:\n        /* \"Connect.sol\":8869:8874  false */\n      0x00\n        /* \"Connect.sol\":8828:8874  authDevice(_account,_password,deviceId)==false */\n      iszero\n      iszero\n        /* \"Connect.sol\":8828:8867  authDevice(_account,_password,deviceId) */\n      tag_425\n        /* \"Connect.sol\":8839:8847  _account */\n      dup7\n        /* \"Connect.sol\":8848:8857  _password */\n      dup7\n        /* \"Connect.sol\":8858:8866  deviceId */\n      dup7\n        /* \"Connect.sol\":8828:8867  authDevice(_account,_password,deviceId) */\n      0xff\n      and\n        /* \"Connect.sol\":8828:8838  authDevice */\n      tag_43\n        /* \"Connect.sol\":8828:8867  authDevice(_account,_password,deviceId) */\n      jump\t// in\n    tag_425:\n        /* \"Connect.sol\":8828:8874  authDevice(_account,_password,deviceId)==false */\n      iszero\n      iszero\n      eq\n        /* \"Connect.sol\":8825:8925  if(authDevice(_account,_password,deviceId)==false){... */\n      iszero\n      tag_426\n      jumpi\n        /* \"Connect.sol\":8894:8914  SetEvent(2,identity) */\n      0x187d45cdcffadef7c066a1f9cc05d58c3ec1a3887390655dba7d64bb61c5a66b\n        /* \"Connect.sol\":8903:8904  2 */\n      0x02\n        /* \"Connect.sol\":8905:8913  identity */\n      dup3\n        /* \"Connect.sol\":8894:8914  SetEvent(2,identity) */\n      mload(0x40)\n      tag_427\n      swap3\n      swap2\n      swap1\n      tag_428\n      jump\t// in\n    tag_427:\n      mload(0x40)\n      dup1\n      swap2\n      sub\n      swap1\n      log1\n        /* \"Connect.sol\":8825:8925  if(authDevice(_account,_password,deviceId)==false){... */\n    tag_426:\n        /* \"Connect.sol\":8989:8994  false */\n      0x00\n        /* \"Connect.sol\":8969:8994  authEvent(eventId)==false */\n      iszero\n      iszero\n        /* \"Connect.sol\":8969:8987  authEvent(eventId) */\n      tag_429\n        /* \"Connect.sol\":8979:8986  eventId */\n      dup4\n        /* \"Connect.sol\":8969:8978  authEvent */\n      tag_130\n        /* \"Connect.sol\":8969:8987  authEvent(eventId) */\n      jump\t// in\n    tag_429:\n        /* \"Connect.sol\":8969:8994  authEvent(eventId)==false */\n      iszero\n      iszero\n      eq\n        /* \"Connect.sol\":8966:9045  if(authEvent(eventId)==false){... */\n      iszero\n      tag_430\n      jumpi\n        /* \"Connect.sol\":9014:9034  SetEvent(2,identity) */\n      0x187d45cdcffadef7c066a1f9cc05d58c3ec1a3887390655dba7d64bb61c5a66b\n        /* \"Connect.sol\":9023:9024  2 */\n      0x02\n        /* \"Connect.sol\":9025:9033  identity */\n      dup3\n        /* \"Connect.sol\":9014:9034  SetEvent(2,identity) */\n      mload(0x40)\n      tag_431\n      swap3\n      swap2\n      swap1\n      tag_428\n      jump\t// in\n    tag_431:\n      mload(0x40)\n      dup1\n      swap2\n      sub\n      swap1\n      log1\n        /* \"Connect.sol\":8966:9045  if(authEvent(eventId)==false){... */\n    tag_430:\n        /* \"Connect.sol\":9078:9098  eventsClassCountById */\n      0x04\n        /* \"Connect.sol\":9078:9107  eventsClassCountById[eventId] */\n      0x00\n        /* \"Connect.sol\":9099:9106  eventId */\n      dup4\n        /* \"Connect.sol\":9078:9107  eventsClassCountById[eventId] */\n      0xff\n      and\n      0xff\n      and\n      dup2\n      mstore\n      0x20\n      add\n      swap1\n      dup2\n      mstore\n      0x20\n      add\n      0x00\n      keccak256\n      0x00\n        /* \"Connect.sol\":9078:9109  eventsClassCountById[eventId]++ */\n      dup2\n      sload\n      dup1\n      swap3\n      swap2\n      swap1\n      tag_432\n      swap1\n      tag_375\n      jump\t// in\n    tag_432:\n      swap2\n      swap1\n      pop\n      sstore\n      pop\n        /* \"Connect.sol\":9186:9187  0 */\n      0x00\n        /* \"Connect.sol\":9158:9169  eventsClass */\n      0x03\n        /* \"Connect.sol\":9170:9177  eventId */\n      dup4\n        /* \"Connect.sol\":9158:9178  eventsClass[eventId] */\n      0xff\n      and\n      dup2\n      sload\n      dup2\n      lt\n      tag_433\n      jumpi\n      tag_434\n      tag_176\n      jump\t// in\n    tag_434:\n    tag_433:\n      swap1\n      0x00\n      mstore\n      keccak256(0x00, 0x20)\n      swap1\n      0x02\n      mul\n      add\n        /* \"Connect.sol\":9158:9184  eventsClass[eventId].class */\n      0x00\n      add\n      0x00\n      swap1\n      sload\n      swap1\n      0x0100\n      exp\n      swap1\n      div\n      0xff\n      and\n        /* \"Connect.sol\":9158:9187  eventsClass[eventId].class==0 */\n      0xff\n      and\n      eq\n        /* \"Connect.sol\":9155:10405  if(eventsClass[eventId].class==0){... */\n      iszero\n      tag_436\n      jumpi\n        /* \"Connect.sol\":9258:9278  SetEvent(0,identity) */\n      0x187d45cdcffadef7c066a1f9cc05d58c3ec1a3887390655dba7d64bb61c5a66b\n        /* \"Connect.sol\":9267:9268  0 */\n      0x00\n        /* \"Connect.sol\":9269:9277  identity */\n      dup3\n        /* \"Connect.sol\":9258:9278  SetEvent(0,identity) */\n      mload(0x40)\n      tag_437\n      swap3\n      swap2\n      swap1\n      tag_438\n      jump\t// in\n    tag_437:\n      mload(0x40)\n      dup1\n      swap2\n      sub\n      swap1\n      log1\n        /* \"Connect.sol\":9155:10405  if(eventsClass[eventId].class==0){... */\n      jump(tag_439)\n    tag_436:\n        /* \"Connect.sol\":9325:9326  1 */\n      0x01\n        /* \"Connect.sol\":9297:9308  eventsClass */\n      0x03\n        /* \"Connect.sol\":9309:9316  eventId */\n      dup4\n        /* \"Connect.sol\":9297:9317  eventsClass[eventId] */\n      0xff\n      and\n      dup2\n      sload\n      dup2\n      lt\n      tag_440\n      jumpi\n      tag_441\n      tag_176\n      jump\t// in\n    tag_441:\n    tag_440:\n      swap1\n      0x00\n      mstore\n      keccak256(0x00, 0x20)\n      swap1\n      0x02\n      mul\n      add\n        /* \"Connect.sol\":9297:9323  eventsClass[eventId].class */\n      0x00\n      add\n      0x00\n      swap1\n      sload\n      swap1\n      0x0100\n      exp\n      swap1\n      div\n      0xff\n      and\n        /* \"Connect.sol\":9297:9326  eventsClass[eventId].class==1 */\n      0xff\n      and\n      eq\n        /* \"Connect.sol\":9294:10405  if(eventsClass[eventId].class==1){... */\n      iszero\n      tag_443\n      jumpi\n        /* \"Connect.sol\":9378:9388  eventsById */\n      0x05\n        /* \"Connect.sol\":9378:9398  eventsById[deviceId] */\n      0x00\n        /* \"Connect.sol\":9389:9397  deviceId */\n      dup5\n        /* \"Connect.sol\":9378:9398  eventsById[deviceId] */\n      0xff\n      and\n      0xff\n      and\n      dup2\n      mstore\n      0x20\n      add\n      swap1\n      dup2\n      mstore\n      0x20\n      add\n      0x00\n      keccak256\n        /* \"Connect.sol\":9404:9553  Events({... */\n      mload(0x40)\n      dup1\n      0x80\n      add\n      0x40\n      mstore\n      dup1\n        /* \"Connect.sol\":9432:9439  eventId */\n      dup5\n        /* \"Connect.sol\":9404:9553  Events({... */\n      0xff\n      and\n      dup2\n      mstore\n      0x20\n      add\n        /* \"Connect.sol\":9463:9478  block.timestamp */\n      timestamp\n        /* \"Connect.sol\":9404:9553  Events({... */\n      dup2\n      mstore\n      0x20\n      add\n        /* \"Connect.sol\":9503:9508  false */\n      0x00\n        /* \"Connect.sol\":9404:9553  Events({... */\n      iszero\n      iszero\n      dup2\n      mstore\n      0x20\n      add\n        /* \"Connect.sol\":9533:9538  false */\n      0x00\n        /* \"Connect.sol\":9404:9553  Events({... */\n      iszero\n      iszero\n      dup2\n      mstore\n      pop\n        /* \"Connect.sol\":9378:9554  eventsById[deviceId].push(Events({... */\n      swap1\n      dup1\n      0x01\n      dup2\n      sload\n      add\n      dup1\n      dup3\n      sstore\n      dup1\n      swap2\n      pop\n      pop\n      0x01\n      swap1\n      sub\n      swap1\n      0x00\n      mstore\n      keccak256(0x00, 0x20)\n      swap1\n      0x03\n      mul\n      add\n      0x00\n      swap1\n      swap2\n      swap1\n      swap2\n      swap1\n      swap2\n      pop\n      0x00\n      dup3\n      add\n      mload\n      dup2\n      0x00\n      add\n      exp(0x0100, 0x00)\n      dup2\n      sload\n      dup2\n      0xff\n      mul\n      not\n      and\n      swap1\n      dup4\n      0xff\n      and\n      mul\n      or\n      swap1\n      sstore\n      pop\n      0x20\n      dup3\n      add\n      mload\n      dup2\n      0x01\n      add\n      sstore\n      0x40\n      dup3\n      add\n      mload\n      dup2\n      0x02\n      add\n      exp(0x0100, 0x00)\n      dup2\n      sload\n      dup2\n      0xff\n      mul\n      not\n      and\n      swap1\n      dup4\n      iszero\n      iszero\n      mul\n      or\n      swap1\n      sstore\n      pop\n      0x60\n      dup3\n      add\n      mload\n      dup2\n      0x02\n      add\n      exp(0x0100, 0x01)\n      dup2\n      sload\n      dup2\n      0xff\n      mul\n      not\n      and\n      swap1\n      dup4\n      iszero\n      iszero\n      mul\n      or\n      swap1\n      sstore\n      pop\n      pop\n      pop\n        /* \"Connect.sol\":9573:9593  SetEvent(0,identity) */\n      0x187d45cdcffadef7c066a1f9cc05d58c3ec1a3887390655dba7d64bb61c5a66b\n        /* \"Connect.sol\":9582:9583  0 */\n      0x00\n        /* \"Connect.sol\":9584:9592  identity */\n      dup3\n        /* \"Connect.sol\":9573:9593  SetEvent(0,identity) */\n      mload(0x40)\n      tag_445\n      swap3\n      swap2\n      swap1\n      tag_438\n      jump\t// in\n    tag_445:\n      mload(0x40)\n      dup1\n      swap2\n      sub\n      swap1\n      log1\n        /* \"Connect.sol\":9294:10405  if(eventsClass[eventId].class==1){... */\n      jump(tag_446)\n    tag_443:\n        /* \"Connect.sol\":9640:9641  2 */\n      0x02\n        /* \"Connect.sol\":9612:9623  eventsClass */\n      0x03\n        /* \"Connect.sol\":9624:9631  eventId */\n      dup4\n        /* \"Connect.sol\":9612:9632  eventsClass[eventId] */\n      0xff\n      and\n      dup2\n      sload\n      dup2\n      lt\n      tag_447\n      jumpi\n      tag_448\n      tag_176\n      jump\t// in\n    tag_448:\n    tag_447:\n      swap1\n      0x00\n      mstore\n      keccak256(0x00, 0x20)\n      swap1\n      0x02\n      mul\n      add\n        /* \"Connect.sol\":9612:9638  eventsClass[eventId].class */\n      0x00\n      add\n      0x00\n      swap1\n      sload\n      swap1\n      0x0100\n      exp\n      swap1\n      div\n      0xff\n      and\n        /* \"Connect.sol\":9612:9641  eventsClass[eventId].class==2 */\n      0xff\n      and\n      eq\n        /* \"Connect.sol\":9609:10405  if(eventsClass[eventId].class==2){... */\n      iszero\n      tag_450\n      jumpi\n        /* \"Connect.sol\":9684:9694  eventsById */\n      0x05\n        /* \"Connect.sol\":9684:9704  eventsById[deviceId] */\n      0x00\n        /* \"Connect.sol\":9695:9703  deviceId */\n      dup5\n        /* \"Connect.sol\":9684:9704  eventsById[deviceId] */\n      0xff\n      and\n      0xff\n      and\n      dup2\n      mstore\n      0x20\n      add\n      swap1\n      dup2\n      mstore\n      0x20\n      add\n      0x00\n      keccak256\n        /* \"Connect.sol\":9710:9858  Events({... */\n      mload(0x40)\n      dup1\n      0x80\n      add\n      0x40\n      mstore\n      dup1\n        /* \"Connect.sol\":9738:9745  eventId */\n      dup5\n        /* \"Connect.sol\":9710:9858  Events({... */\n      0xff\n      and\n      dup2\n      mstore\n      0x20\n      add\n        /* \"Connect.sol\":9769:9784  block.timestamp */\n      timestamp\n        /* \"Connect.sol\":9710:9858  Events({... */\n      dup2\n      mstore\n      0x20\n      add\n        /* \"Connect.sol\":9809:9813  true */\n      0x01\n        /* \"Connect.sol\":9710:9858  Events({... */\n      iszero\n      iszero\n      dup2\n      mstore\n      0x20\n      add\n        /* \"Connect.sol\":9838:9843  false */\n      0x00\n        /* \"Connect.sol\":9710:9858  Events({... */\n      iszero\n      iszero\n      dup2\n      mstore\n      pop\n        /* \"Connect.sol\":9684:9859  eventsById[deviceId].push(Events({... */\n      swap1\n      dup1\n      0x01\n      dup2\n      sload\n      add\n      dup1\n      dup3\n      sstore\n      dup1\n      swap2\n      pop\n      pop\n      0x01\n      swap1\n      sub\n      swap1\n      0x00\n      mstore\n      keccak256(0x00, 0x20)\n      swap1\n      0x03\n      mul\n      add\n      0x00\n      swap1\n      swap2\n      swap1\n      swap2\n      swap1\n      swap2\n      pop\n      0x00\n      dup3\n      add\n      mload\n      dup2\n      0x00\n      add\n      exp(0x0100, 0x00)\n      dup2\n      sload\n      dup2\n      0xff\n      mul\n      not\n      and\n      swap1\n      dup4\n      0xff\n      and\n      mul\n      or\n      swap1\n      sstore\n      pop\n      0x20\n      dup3\n      add\n      mload\n      dup2\n      0x01\n      add\n      sstore\n      0x40\n      dup3\n      add\n      mload\n      dup2\n      0x02\n      add\n      exp(0x0100, 0x00)\n      dup2\n      sload\n      dup2\n      0xff\n      mul\n      not\n      and\n      swap1\n      dup4\n      iszero\n      iszero\n      mul\n      or\n      swap1\n      sstore\n      pop\n      0x60\n      dup3\n      add\n      mload\n      dup2\n      0x02\n      add\n      exp(0x0100, 0x01)\n      dup2\n      sload\n      dup2\n      0xff\n      mul\n      not\n      and\n      swap1\n      dup4\n      iszero\n      iszero\n      mul\n      or\n      swap1\n      sstore\n      pop\n      pop\n      pop\n        /* \"Connect.sol\":9907:9915  toDoList */\n      0x06\n        /* \"Connect.sol\":9921:10074  ToDoList({... */\n      mload(0x40)\n      dup1\n      0x60\n      add\n      0x40\n      mstore\n      dup1\n        /* \"Connect.sol\":9956:9964  deviceId */\n      dup6\n        /* \"Connect.sol\":9921:10074  ToDoList({... */\n      0xff\n      and\n      dup2\n      mstore\n      0x20\n      add\n        /* \"Connect.sol\":9992:9999  eventId */\n      dup5\n        /* \"Connect.sol\":9921:10074  ToDoList({... */\n      0xff\n      and\n      dup2\n      mstore\n      0x20\n      add\n        /* \"Connect.sol\":10057:10058  1 */\n      0x01\n        /* \"Connect.sol\":10029:10039  eventsById */\n      0x05\n        /* \"Connect.sol\":10029:10049  eventsById[deviceId] */\n      0x00\n        /* \"Connect.sol\":10040:10048  deviceId */\n      dup9\n        /* \"Connect.sol\":10029:10049  eventsById[deviceId] */\n      0xff\n      and\n      0xff\n      and\n      dup2\n      mstore\n      0x20\n      add\n      swap1\n      dup2\n      mstore\n      0x20\n      add\n      0x00\n      keccak256\n        /* \"Connect.sol\":10029:10056  eventsById[deviceId].length */\n      dup1\n      sload\n      swap1\n      pop\n        /* \"Connect.sol\":10029:10058  eventsById[deviceId].length-1 */\n      tag_452\n      swap2\n      swap1\n      tag_331\n      jump\t// in\n    tag_452:\n        /* \"Connect.sol\":9921:10074  ToDoList({... */\n      0xff\n      and\n      dup2\n      mstore\n      pop\n        /* \"Connect.sol\":9907:10075  toDoList.push(ToDoList({... */\n      swap1\n      dup1\n      0x01\n      dup2\n      sload\n      add\n      dup1\n      dup3\n      sstore\n      dup1\n      swap2\n      pop\n      pop\n      0x01\n      swap1\n      sub\n      swap1\n      0x00\n      mstore\n      keccak256(0x00, 0x20)\n      add\n      0x00\n      swap1\n      swap2\n      swap1\n      swap2\n      swap1\n      swap2\n      pop\n      0x00\n      dup3\n      add\n      mload\n      dup2\n      0x00\n      add\n      exp(0x0100, 0x00)\n      dup2\n      sload\n      dup2\n      0xff\n      mul\n      not\n      and\n      swap1\n      dup4\n      0xff\n      and\n      mul\n      or\n      swap1\n      sstore\n      pop\n      0x20\n      dup3\n      add\n      mload\n      dup2\n      0x00\n      add\n      exp(0x0100, 0x01)\n      dup2\n      sload\n      dup2\n      0xff\n      mul\n      not\n      and\n      swap1\n      dup4\n      0xff\n      and\n      mul\n      or\n      swap1\n      sstore\n      pop\n      0x40\n      dup3\n      add\n      mload\n      dup2\n      0x00\n      add\n      exp(0x0100, 0x02)\n      dup2\n      sload\n      dup2\n      0xff\n      mul\n      not\n      and\n      swap1\n      dup4\n      0xff\n      and\n      mul\n      or\n      swap1\n      sstore\n      pop\n      pop\n      pop\n        /* \"Connect.sol\":10094:10114  SetEvent(1,identity) */\n      0x187d45cdcffadef7c066a1f9cc05d58c3ec1a3887390655dba7d64bb61c5a66b\n        /* \"Connect.sol\":10103:10104  1 */\n      0x01\n        /* \"Connect.sol\":10105:10113  identity */\n      dup3\n        /* \"Connect.sol\":10094:10114  SetEvent(1,identity) */\n      mload(0x40)\n      tag_454\n      swap3\n      swap2\n      swap1\n      tag_455\n      jump\t// in\n    tag_454:\n      mload(0x40)\n      dup1\n      swap2\n      sub\n      swap1\n      log1\n        /* \"Connect.sol\":9609:10405  if(eventsClass[eventId].class==2){... */\n      jump(tag_456)\n    tag_450:\n        /* \"Connect.sol\":10180:10190  eventsById */\n      0x05\n        /* \"Connect.sol\":10180:10200  eventsById[deviceId] */\n      0x00\n        /* \"Connect.sol\":10191:10199  deviceId */\n      dup5\n        /* \"Connect.sol\":10180:10200  eventsById[deviceId] */\n      0xff\n      and\n      0xff\n      and\n      dup2\n      mstore\n      0x20\n      add\n      swap1\n      dup2\n      mstore\n      0x20\n      add\n      0x00\n      keccak256\n        /* \"Connect.sol\":10206:10354  Events({... */\n      mload(0x40)\n      dup1\n      0x80\n      add\n      0x40\n      mstore\n      dup1\n        /* \"Connect.sol\":10234:10241  eventId */\n      dup5\n        /* \"Connect.sol\":10206:10354  Events({... */\n      0xff\n      and\n      dup2\n      mstore\n      0x20\n      add\n        /* \"Connect.sol\":10265:10280  block.timestamp */\n      timestamp\n        /* \"Connect.sol\":10206:10354  Events({... */\n      dup2\n      mstore\n      0x20\n      add\n        /* \"Connect.sol\":10305:10310  false */\n      0x00\n        /* \"Connect.sol\":10206:10354  Events({... */\n      iszero\n      iszero\n      dup2\n      mstore\n      0x20\n      add\n        /* \"Connect.sol\":10335:10339  true */\n      0x01\n        /* \"Connect.sol\":10206:10354  Events({... */\n      iszero\n      iszero\n      dup2\n      mstore\n      pop\n        /* \"Connect.sol\":10180:10355  eventsById[deviceId].push(Events({... */\n      swap1\n      dup1\n      0x01\n      dup2\n      sload\n      add\n      dup1\n      dup3\n      sstore\n      dup1\n      swap2\n      pop\n      pop\n      0x01\n      swap1\n      sub\n      swap1\n      0x00\n      mstore\n      keccak256(0x00, 0x20)\n      swap1\n      0x03\n      mul\n      add\n      0x00\n      swap1\n      swap2\n      swap1\n      swap2\n      swap1\n      swap2\n      pop\n      0x00\n      dup3\n      add\n      mload\n      dup2\n      0x00\n      add\n      exp(0x0100, 0x00)\n      dup2\n      sload\n      dup2\n      0xff\n      mul\n      not\n      and\n      swap1\n      dup4\n      0xff\n      and\n      mul\n      or\n      swap1\n      sstore\n      pop\n      0x20\n      dup3\n      add\n      mload\n      dup2\n      0x01\n      add\n      sstore\n      0x40\n      dup3\n      add\n      mload\n      dup2\n      0x02\n      add\n      exp(0x0100, 0x00)\n      dup2\n      sload\n      dup2\n      0xff\n      mul\n      not\n      and\n      swap1\n      dup4\n      iszero\n      iszero\n      mul\n      or\n      swap1\n      sstore\n      pop\n      0x60\n      dup3\n      add\n      mload\n      dup2\n      0x02\n      add\n      exp(0x0100, 0x01)\n      dup2\n      sload\n      dup2\n      0xff\n      mul\n      not\n      and\n      swap1\n      dup4\n      iszero\n      iszero\n      mul\n      or\n      swap1\n      sstore\n      pop\n      pop\n      pop\n        /* \"Connect.sol\":10374:10394  SetEvent(2,identity) */\n      0x187d45cdcffadef7c066a1f9cc05d58c3ec1a3887390655dba7d64bb61c5a66b\n        /* \"Connect.sol\":10383:10384  2 */\n      0x02\n        /* \"Connect.sol\":10385:10393  identity */\n      dup3\n        /* \"Connect.sol\":10374:10394  SetEvent(2,identity) */\n      mload(0x40)\n      tag_458\n      swap3\n      swap2\n      swap1\n      tag_428\n      jump\t// in\n    tag_458:\n      mload(0x40)\n      dup1\n      swap2\n      sub\n      swap1\n      log1\n        /* \"Connect.sol\":9609:10405  if(eventsClass[eventId].class==2){... */\n    tag_456:\n        /* \"Connect.sol\":9294:10405  if(eventsClass[eventId].class==1){... */\n    tag_446:\n        /* \"Connect.sol\":9155:10405  if(eventsClass[eventId].class==0){... */\n    tag_439:\n        /* \"Connect.sol\":8673:10411  function setEvent(address _account, string memory _password, uint8 deviceId, uint8 eventId,uint identity) public{... */\n      pop\n      pop\n      pop\n      pop\n      pop\n      jump\t// out\n        /* \"Connect.sol\":10445:10543  function authEvent(uint8 id)view public returns(bool){... */\n    tag_130:\n        /* \"Connect.sol\":10493:10497  bool */\n      0x00\n        /* \"Connect.sol\":10518:10529  eventsClass */\n      0x03\n        /* \"Connect.sol\":10518:10536  eventsClass.length */\n      dup1\n      sload\n      swap1\n      pop\n        /* \"Connect.sol\":10515:10517  id */\n      dup3\n        /* \"Connect.sol\":10515:10536  id<eventsClass.length */\n      0xff\n      and\n      lt\n        /* \"Connect.sol\":10508:10536  return id<eventsClass.length */\n      swap1\n      pop\n        /* \"Connect.sol\":10445:10543  function authEvent(uint8 id)view public returns(bool){... */\n      swap2\n      swap1\n      pop\n      jump\t// out\n        /* \"Connect.sol\":6747:6773  ToDoList[] public toDoList */\n    tag_134:\n      0x06\n      dup2\n      dup2\n      sload\n      dup2\n      lt\n      tag_460\n      jumpi\n      0x00\n      dup1\n      revert\n    tag_460:\n      swap1\n      0x00\n      mstore\n      keccak256(0x00, 0x20)\n      add\n      0x00\n      swap2\n      pop\n      swap1\n      pop\n      dup1\n      0x00\n      add\n      0x00\n      swap1\n      sload\n      swap1\n      0x0100\n      exp\n      swap1\n      div\n      0xff\n      and\n      swap1\n      dup1\n      0x00\n      add\n      0x01\n      swap1\n      sload\n      swap1\n      0x0100\n      exp\n      swap1\n      div\n      0xff\n      and\n      swap1\n      dup1\n      0x00\n      add\n      0x02\n      swap1\n      sload\n      swap1\n      0x0100\n      exp\n      swap1\n      div\n      0xff\n      and\n      swap1\n      pop\n      dup4\n      jump\t// out\n        /* \"Connect.sol\":4165:4263  function getEventsClassLength()public view returns(uint){... */\n    tag_138:\n        /* \"Connect.sol\":4216:4220  uint */\n      0x00\n        /* \"Connect.sol\":4238:4249  eventsClass */\n      0x03\n        /* \"Connect.sol\":4238:4256  eventsClass.length */\n      dup1\n      sload\n      swap1\n      pop\n        /* \"Connect.sol\":4231:4256  return eventsClass.length */\n      swap1\n      pop\n        /* \"Connect.sol\":4165:4263  function getEventsClassLength()public view returns(uint){... */\n      swap1\n      jump\t// out\n        /* \"Connect.sol\":1163:1187  uint public devicesNum=0 */\n    tag_141:\n      sload(0x02)\n      dup2\n      jump\t// out\n        /* \"Connect.sol\":1657:1928  function getDeviceInfo(uint8 index) view public returns(uint8 id, string memory, string memory){... */\n    tag_145:\n        /* \"Connect.sol\":1713:1721  uint8 id */\n      0x00\n        /* \"Connect.sol\":1723:1736  string memory */\n      0x60\n        /* \"Connect.sol\":1738:1751  string memory */\n      dup1\n        /* \"Connect.sol\":1776:1783  devices */\n      0x01\n        /* \"Connect.sol\":1776:1790  devices.length */\n      dup1\n      sload\n      swap1\n      pop\n        /* \"Connect.sol\":1770:1775  index */\n      dup5\n        /* \"Connect.sol\":1770:1790  index<devices.length */\n      0xff\n      and\n      lt\n        /* \"Connect.sol\":1762:1791  require(index<devices.length) */\n      tag_464\n      jumpi\n      0x00\n      dup1\n      revert\n    tag_464:\n        /* \"Connect.sol\":1849:1854  false */\n      0x00\n        /* \"Connect.sol\":1809:1854  compareStr(\"\",devices[index].password)==false */\n      iszero\n      iszero\n        /* \"Connect.sol\":1809:1847  compareStr(\"\",devices[index].password) */\n      tag_465\n      mload(0x40)\n      dup1\n      0x20\n      add\n      0x40\n      mstore\n      dup1\n      0x00\n      dup2\n      mstore\n      pop\n        /* \"Connect.sol\":1823:1830  devices */\n      0x01\n        /* \"Connect.sol\":1831:1836  index */\n      dup8\n        /* \"Connect.sol\":1823:1837  devices[index] */\n      0xff\n      and\n      dup2\n      sload\n      dup2\n      lt\n      tag_466\n      jumpi\n      tag_467\n      tag_176\n      jump\t// in\n    tag_467:\n    tag_466:\n      swap1\n      0x00\n      mstore\n      keccak256(0x00, 0x20)\n      swap1\n      0x04\n      mul\n      add\n        /* \"Connect.sol\":1823:1846  devices[index].password */\n      0x01\n      add\n        /* \"Connect.sol\":1809:1847  compareStr(\"\",devices[index].password) */\n      dup1\n      sload\n      tag_469\n      swap1\n      tag_179\n      jump\t// in\n    tag_469:\n      dup1\n      0x1f\n      add\n      0x20\n      dup1\n      swap2\n      div\n      mul\n      0x20\n      add\n      mload(0x40)\n      swap1\n      dup2\n      add\n      0x40\n      mstore\n      dup1\n      swap3\n      swap2\n      swap1\n      dup2\n      dup2\n      mstore\n      0x20\n      add\n      dup3\n      dup1\n      sload\n      tag_470\n      swap1\n      tag_179\n      jump\t// in\n    tag_470:\n      dup1\n      iszero\n      tag_471\n      jumpi\n      dup1\n      0x1f\n      lt\n      tag_472\n      jumpi\n      0x0100\n      dup1\n      dup4\n      sload\n      div\n      mul\n      dup4\n      mstore\n      swap2\n      0x20\n      add\n      swap2\n      jump(tag_471)\n    tag_472:\n      dup3\n      add\n      swap2\n      swap1\n      0x00\n      mstore\n      keccak256(0x00, 0x20)\n      swap1\n    tag_473:\n      dup2\n      sload\n      dup2\n      mstore\n      swap1\n      0x01\n      add\n      swap1\n      0x20\n      add\n      dup1\n      dup4\n      gt\n      tag_473\n      jumpi\n      dup3\n      swap1\n      sub\n      0x1f\n      and\n      dup3\n      add\n      swap2\n    tag_471:\n      pop\n      pop\n      pop\n      pop\n      pop\n        /* \"Connect.sol\":1809:1819  compareStr */\n      tag_93\n        /* \"Connect.sol\":1809:1847  compareStr(\"\",devices[index].password) */\n      jump\t// in\n    tag_465:\n        /* \"Connect.sol\":1809:1854  compareStr(\"\",devices[index].password)==false */\n      iszero\n      iszero\n      eq\n        /* \"Connect.sol\":1801:1855  require(compareStr(\"\",devices[index].password)==false) */\n      tag_474\n      jumpi\n      0x00\n      dup1\n      revert\n    tag_474:\n        /* \"Connect.sol\":1873:1878  index */\n      dup4\n        /* \"Connect.sol\":1879:1886  devices */\n      0x01\n        /* \"Connect.sol\":1887:1892  index */\n      dup6\n        /* \"Connect.sol\":1879:1893  devices[index] */\n      0xff\n      and\n      dup2\n      sload\n      dup2\n      lt\n      tag_475\n      jumpi\n      tag_476\n      tag_176\n      jump\t// in\n    tag_476:\n    tag_475:\n      swap1\n      0x00\n      mstore\n      keccak256(0x00, 0x20)\n      swap1\n      0x04\n      mul\n      add\n        /* \"Connect.sol\":1879:1898  devices[index].name */\n      0x02\n      add\n        /* \"Connect.sol\":1899:1906  devices */\n      0x01\n        /* \"Connect.sol\":1907:1912  index */\n      dup7\n        /* \"Connect.sol\":1899:1913  devices[index] */\n      0xff\n      and\n      dup2\n      sload\n      dup2\n      lt\n      tag_478\n      jumpi\n      tag_479\n      tag_176\n      jump\t// in\n    tag_479:\n    tag_478:\n      swap1\n      0x00\n      mstore\n      keccak256(0x00, 0x20)\n      swap1\n      0x04\n      mul\n      add\n        /* \"Connect.sol\":1899:1920  devices[index].detail */\n      0x03\n      add\n        /* \"Connect.sol\":1865:1921  return (index,devices[index].name,devices[index].detail) */\n      dup2\n      dup1\n      sload\n      tag_481\n      swap1\n      tag_179\n      jump\t// in\n    tag_481:\n      dup1\n      0x1f\n      add\n      0x20\n      dup1\n      swap2\n      div\n      mul\n      0x20\n      add\n      mload(0x40)\n      swap1\n      dup2\n      add\n      0x40\n      mstore\n      dup1\n      swap3\n      swap2\n      swap1\n      dup2\n      dup2\n      mstore\n      0x20\n      add\n      dup3\n      dup1\n      sload\n      tag_482\n      swap1\n      tag_179\n      jump\t// in\n    tag_482:\n      dup1\n      iszero\n      tag_483\n      jumpi\n      dup1\n      0x1f\n      lt\n      tag_484\n      jumpi\n      0x0100\n      dup1\n      dup4\n      sload\n      div\n      mul\n      dup4\n      mstore\n      swap2\n      0x20\n      add\n      swap2\n      jump(tag_483)\n    tag_484:\n      dup3\n      add\n      swap2\n      swap1\n      0x00\n      mstore\n      keccak256(0x00, 0x20)\n      swap1\n    tag_485:\n      dup2\n      sload\n      dup2\n      mstore\n      swap1\n      0x01\n      add\n      swap1\n      0x20\n      add\n      dup1\n      dup4\n      gt\n      tag_485\n      jumpi\n      dup3\n      swap1\n      sub\n      0x1f\n      and\n      dup3\n      add\n      swap2\n    tag_483:\n      pop\n      pop\n      pop\n      pop\n      pop\n      swap2\n      pop\n      dup1\n      dup1\n      sload\n      tag_486\n      swap1\n      tag_179\n      jump\t// in\n    tag_486:\n      dup1\n      0x1f\n      add\n      0x20\n      dup1\n      swap2\n      div\n      mul\n      0x20\n      add\n      mload(0x40)\n      swap1\n      dup2\n      add\n      0x40\n      mstore\n      dup1\n      swap3\n      swap2\n      swap1\n      dup2\n      dup2\n      mstore\n      0x20\n      add\n      dup3\n      dup1\n      sload\n      tag_487\n      swap1\n      tag_179\n      jump\t// in\n    tag_487:\n      dup1\n      iszero\n      tag_488\n      jumpi\n      dup1\n      0x1f\n      lt\n      tag_489\n      jumpi\n      0x0100\n      dup1\n      dup4\n      sload\n      div\n      mul\n      dup4\n      mstore\n      swap2\n      0x20\n      add\n      swap2\n      jump(tag_488)\n    tag_489:\n      dup3\n      add\n      swap2\n      swap1\n      0x00\n      mstore\n      keccak256(0x00, 0x20)\n      swap1\n    tag_490:\n      dup2\n      sload\n      dup2\n      mstore\n      swap1\n      0x01\n      add\n      swap1\n      0x20\n      add\n      dup1\n      dup4\n      gt\n      tag_490\n      jumpi\n      dup3\n      swap1\n      sub\n      0x1f\n      and\n      dup3\n      add\n      swap2\n    tag_488:\n      pop\n      pop\n      pop\n      pop\n      pop\n      swap1\n      pop\n      swap3\n      pop\n      swap3\n      pop\n      swap3\n      pop\n        /* \"Connect.sol\":1657:1928  function getDeviceInfo(uint8 index) view public returns(uint8 id, string memory, string memory){... */\n      swap2\n      swap4\n      swap1\n      swap3\n      pop\n      jump\t// out\n        /* \"Connect.sol\":2010:2398  function setDeviceInfo(uint index,string memory _name,string memory _detail,uint identity)public{... */\n    tag_151:\n        /* \"Connect.sol\":2125:2132  devices */\n      0x01\n        /* \"Connect.sol\":2125:2139  devices.length */\n      dup1\n      sload\n      swap1\n      pop\n        /* \"Connect.sol\":2119:2124  index */\n      dup5\n        /* \"Connect.sol\":2119:2139  index<devices.length */\n      lt\n        /* \"Connect.sol\":2119:2188  index<devices.length && compareStr(\"\",devices[index].password)==false */\n      dup1\n      iszero\n      tag_492\n      jumpi\n      pop\n        /* \"Connect.sol\":2183:2188  false */\n      0x00\n        /* \"Connect.sol\":2143:2188  compareStr(\"\",devices[index].password)==false */\n      iszero\n      iszero\n        /* \"Connect.sol\":2143:2181  compareStr(\"\",devices[index].password) */\n      tag_493\n      mload(0x40)\n      dup1\n      0x20\n      add\n      0x40\n      mstore\n      dup1\n      0x00\n      dup2\n      mstore\n      pop\n        /* \"Connect.sol\":2157:2164  devices */\n      0x01\n        /* \"Connect.sol\":2165:2170  index */\n      dup8\n        /* \"Connect.sol\":2157:2171  devices[index] */\n      dup2\n      sload\n      dup2\n      lt\n      tag_494\n      jumpi\n      tag_495\n      tag_176\n      jump\t// in\n    tag_495:\n    tag_494:\n      swap1\n      0x00\n      mstore\n      keccak256(0x00, 0x20)\n      swap1\n      0x04\n      mul\n      add\n        /* \"Connect.sol\":2157:2180  devices[index].password */\n      0x01\n      add\n        /* \"Connect.sol\":2143:2181  compareStr(\"\",devices[index].password) */\n      dup1\n      sload\n      tag_497\n      swap1\n      tag_179\n      jump\t// in\n    tag_497:\n      dup1\n      0x1f\n      add\n      0x20\n      dup1\n      swap2\n      div\n      mul\n      0x20\n      add\n      mload(0x40)\n      swap1\n      dup2\n      add\n      0x40\n      mstore\n      dup1\n      swap3\n      swap2\n      swap1\n      dup2\n      dup2\n      mstore\n      0x20\n      add\n      dup3\n      dup1\n      sload\n      tag_498\n      swap1\n      tag_179\n      jump\t// in\n    tag_498:\n      dup1\n      iszero\n      tag_499\n      jumpi\n      dup1\n      0x1f\n      lt\n      tag_500\n      jumpi\n      0x0100\n      dup1\n      dup4\n      sload\n      div\n      mul\n      dup4\n      mstore\n      swap2\n      0x20\n      add\n      swap2\n      jump(tag_499)\n    tag_500:\n      dup3\n      add\n      swap2\n      swap1\n      0x00\n      mstore\n      keccak256(0x00, 0x20)\n      swap1\n    tag_501:\n      dup2\n      sload\n      dup2\n      mstore\n      swap1\n      0x01\n      add\n      swap1\n      0x20\n      add\n      dup1\n      dup4\n      gt\n      tag_501\n      jumpi\n      dup3\n      swap1\n      sub\n      0x1f\n      and\n      dup3\n      add\n      swap2\n    tag_499:\n      pop\n      pop\n      pop\n      pop\n      pop\n        /* \"Connect.sol\":2143:2153  compareStr */\n      tag_93\n        /* \"Connect.sol\":2143:2181  compareStr(\"\",devices[index].password) */\n      jump\t// in\n    tag_493:\n        /* \"Connect.sol\":2143:2188  compareStr(\"\",devices[index].password)==false */\n      iszero\n      iszero\n      eq\n        /* \"Connect.sol\":2119:2188  index<devices.length && compareStr(\"\",devices[index].password)==false */\n    tag_492:\n        /* \"Connect.sol\":2116:2392  if(index<devices.length && compareStr(\"\",devices[index].password)==false){... */\n      iszero\n      tag_502\n      jumpi\n        /* \"Connect.sol\":2223:2228  _name */\n      dup3\n        /* \"Connect.sol\":2203:2210  devices */\n      0x01\n        /* \"Connect.sol\":2211:2216  index */\n      dup6\n        /* \"Connect.sol\":2203:2217  devices[index] */\n      dup2\n      sload\n      dup2\n      lt\n      tag_503\n      jumpi\n      tag_504\n      tag_176\n      jump\t// in\n    tag_504:\n    tag_503:\n      swap1\n      0x00\n      mstore\n      keccak256(0x00, 0x20)\n      swap1\n      0x04\n      mul\n      add\n        /* \"Connect.sol\":2203:2222  devices[index].name */\n      0x02\n      add\n        /* \"Connect.sol\":2203:2228  devices[index].name=_name */\n      swap1\n      dup1\n      mload\n      swap1\n      0x20\n      add\n      swap1\n      tag_506\n      swap3\n      swap2\n      swap1\n      tag_251\n      jump\t// in\n    tag_506:\n      pop\n        /* \"Connect.sol\":2264:2271  _detail */\n      dup2\n        /* \"Connect.sol\":2242:2249  devices */\n      0x01\n        /* \"Connect.sol\":2250:2255  index */\n      dup6\n        /* \"Connect.sol\":2242:2256  devices[index] */\n      dup2\n      sload\n      dup2\n      lt\n      tag_507\n      jumpi\n      tag_508\n      tag_176\n      jump\t// in\n    tag_508:\n    tag_507:\n      swap1\n      0x00\n      mstore\n      keccak256(0x00, 0x20)\n      swap1\n      0x04\n      mul\n      add\n        /* \"Connect.sol\":2242:2263  devices[index].detail */\n      0x03\n      add\n        /* \"Connect.sol\":2242:2271  devices[index].detail=_detail */\n      swap1\n      dup1\n      mload\n      swap1\n      0x20\n      add\n      swap1\n      tag_510\n      swap3\n      swap2\n      swap1\n      tag_251\n      jump\t// in\n    tag_510:\n      pop\n        /* \"Connect.sol\":2290:2318  SetDeviceInfo(true,identity) */\n      0xb011b0f97a46bdb71fb1d82dae0a2b0f9655400eed969769dc22e512e8f16bd2\n        /* \"Connect.sol\":2304:2308  true */\n      0x01\n        /* \"Connect.sol\":2309:2317  identity */\n      dup3\n        /* \"Connect.sol\":2290:2318  SetDeviceInfo(true,identity) */\n      mload(0x40)\n      tag_511\n      swap3\n      swap2\n      swap1\n      tag_241\n      jump\t// in\n    tag_511:\n      mload(0x40)\n      dup1\n      swap2\n      sub\n      swap1\n      log1\n        /* \"Connect.sol\":2116:2392  if(index<devices.length && compareStr(\"\",devices[index].password)==false){... */\n      jump(tag_512)\n    tag_502:\n        /* \"Connect.sol\":2352:2381  SetDeviceInfo(false,identity) */\n      0xb011b0f97a46bdb71fb1d82dae0a2b0f9655400eed969769dc22e512e8f16bd2\n        /* \"Connect.sol\":2366:2371  false */\n      0x00\n        /* \"Connect.sol\":2372:2380  identity */\n      dup3\n        /* \"Connect.sol\":2352:2381  SetDeviceInfo(false,identity) */\n      mload(0x40)\n      tag_513\n      swap3\n      swap2\n      swap1\n      tag_241\n      jump\t// in\n    tag_513:\n      mload(0x40)\n      dup1\n      swap2\n      sub\n      swap1\n      log1\n        /* \"Connect.sol\":2116:2392  if(index<devices.length && compareStr(\"\",devices[index].password)==false){... */\n    tag_512:\n        /* \"Connect.sol\":2010:2398  function setDeviceInfo(uint index,string memory _name,string memory _detail,uint identity)public{... */\n      pop\n      pop\n      pop\n      pop\n      jump\t// out\n        /* \"Connect.sol\":301:428  function auth(string memory _password) public view returns(bool) {... */\n    tag_155:\n        /* \"Connect.sol\":360:364  bool */\n      0x00\n        /* \"Connect.sol\":383:421  compareStr(_password,string(password)) */\n      tag_515\n        /* \"Connect.sol\":394:403  _password */\n      dup3\n        /* \"Connect.sol\":411:419  password */\n      0x00\n        /* \"Connect.sol\":383:421  compareStr(_password,string(password)) */\n      dup1\n      sload\n      tag_516\n      swap1\n      tag_179\n      jump\t// in\n    tag_516:\n      dup1\n      0x1f\n      add\n      0x20\n      dup1\n      swap2\n      div\n      mul\n      0x20\n      add\n      mload(0x40)\n      swap1\n      dup2\n      add\n      0x40\n      mstore\n      dup1\n      swap3\n      swap2\n      swap1\n      dup2\n      dup2\n      mstore\n      0x20\n      add\n      dup3\n      dup1\n      sload\n      tag_517\n      swap1\n      tag_179\n      jump\t// in\n    tag_517:\n      dup1\n      iszero\n      tag_518\n      jumpi\n      dup1\n      0x1f\n      lt\n      tag_519\n      jumpi\n      0x0100\n      dup1\n      dup4\n      sload\n      div\n      mul\n      dup4\n      mstore\n      swap2\n      0x20\n      add\n      swap2\n      jump(tag_518)\n    tag_519:\n      dup3\n      add\n      swap2\n      swap1\n      0x00\n      mstore\n      keccak256(0x00, 0x20)\n      swap1\n    tag_520:\n      dup2\n      sload\n      dup2\n      mstore\n      swap1\n      0x01\n      add\n      swap1\n      0x20\n      add\n      dup1\n      dup4\n      gt\n      tag_520\n      jumpi\n      dup3\n      swap1\n      sub\n      0x1f\n      and\n      dup3\n      add\n      swap2\n    tag_518:\n      pop\n      pop\n      pop\n      pop\n      pop\n        /* \"Connect.sol\":383:393  compareStr */\n      tag_93\n        /* \"Connect.sol\":383:421  compareStr(_password,string(password)) */\n      jump\t// in\n    tag_515:\n        /* \"Connect.sol\":376:421  return compareStr(_password,string(password)) */\n      swap1\n      pop\n        /* \"Connect.sol\":301:428  function auth(string memory _password) public view returns(bool) {... */\n      swap2\n      swap1\n      pop\n      jump\t// out\n        /* \"Connect.sol\":5870:5981  function getEventsClassCount(uint8 id)view public returns(uint){... */\n    tag_159:\n        /* \"Connect.sol\":5928:5932  uint */\n      0x00\n        /* \"Connect.sol\":5950:5970  eventsClassCountById */\n      0x04\n        /* \"Connect.sol\":5950:5974  eventsClassCountById[id] */\n      0x00\n        /* \"Connect.sol\":5971:5973  id */\n      dup4\n        /* \"Connect.sol\":5950:5974  eventsClassCountById[id] */\n      0xff\n      and\n      0xff\n      and\n      dup2\n      mstore\n      0x20\n      add\n      swap1\n      dup2\n      mstore\n      0x20\n      add\n      0x00\n      keccak256\n      sload\n        /* \"Connect.sol\":5943:5974  return eventsClassCountById[id] */\n      swap1\n      pop\n        /* \"Connect.sol\":5870:5981  function getEventsClassCount(uint8 id)view public returns(uint){... */\n      swap2\n      swap1\n      pop\n      jump\t// out\n        /* \"Connect.sol\":6812:6904  function getToDoListLength()public view returns(uint){... */\n    tag_162:\n        /* \"Connect.sol\":6860:6864  uint */\n      0x00\n        /* \"Connect.sol\":6882:6890  toDoList */\n      0x06\n        /* \"Connect.sol\":6882:6897  toDoList.length */\n      dup1\n      sload\n      swap1\n      pop\n        /* \"Connect.sol\":6875:6897  return toDoList.length */\n      swap1\n      pop\n        /* \"Connect.sol\":6812:6904  function getToDoListLength()public view returns(uint){... */\n      swap1\n      jump\t// out\n        /* \"Connect.sol\":5781:5831  mapping(uint8 => uint) public eventsClassCountById */\n    tag_166:\n      mstore(0x20, 0x04)\n      dup1\n      0x00\n      mstore\n      keccak256(0x00, 0x40)\n      0x00\n      swap2\n      pop\n      swap1\n      pop\n      sload\n      dup2\n      jump\t// out\n    tag_233:\n      pop\n      dup1\n      sload\n      tag_523\n      swap1\n      tag_179\n      jump\t// in\n    tag_523:\n      0x00\n      dup3\n      sstore\n      dup1\n      0x1f\n      lt\n      tag_525\n      jumpi\n      pop\n      jump(tag_524)\n    tag_525:\n      0x1f\n      add\n      0x20\n      swap1\n      div\n      swap1\n      0x00\n      mstore\n      keccak256(0x00, 0x20)\n      swap1\n      dup2\n      add\n      swap1\n      tag_526\n      swap2\n      swap1\n      tag_527\n      jump\t// in\n    tag_526:\n    tag_524:\n      pop\n      jump\t// out\n    tag_237:\n      pop\n      dup1\n      sload\n      0x00\n      dup3\n      sstore\n      0x03\n      mul\n      swap1\n      0x00\n      mstore\n      keccak256(0x00, 0x20)\n      swap1\n      dup2\n      add\n      swap1\n      tag_529\n      swap2\n      swap1\n      tag_530\n      jump\t// in\n    tag_529:\n      pop\n      jump\t// out\n    tag_251:\n      dup3\n      dup1\n      sload\n      tag_531\n      swap1\n      tag_179\n      jump\t// in\n    tag_531:\n      swap1\n      0x00\n      mstore\n      keccak256(0x00, 0x20)\n      swap1\n      0x1f\n      add\n      0x20\n      swap1\n      div\n      dup2\n      add\n      swap3\n      dup3\n      tag_533\n      jumpi\n      0x00\n      dup6\n      sstore\n      jump(tag_532)\n    tag_533:\n      dup3\n      0x1f\n      lt\n      tag_534\n      jumpi\n      dup1\n      mload\n      not(0xff)\n      and\n      dup4\n      dup1\n      add\n      or\n      dup6\n      sstore\n      jump(tag_532)\n    tag_534:\n      dup3\n      dup1\n      add\n      0x01\n      add\n      dup6\n      sstore\n      dup3\n      iszero\n      tag_532\n      jumpi\n      swap2\n      dup3\n      add\n    tag_535:\n      dup3\n      dup2\n      gt\n      iszero\n      tag_536\n      jumpi\n      dup3\n      mload\n      dup3\n      sstore\n      swap2\n      0x20\n      add\n      swap2\n      swap1\n      0x01\n      add\n      swap1\n      jump(tag_535)\n    tag_536:\n    tag_532:\n      pop\n      swap1\n      pop\n      tag_537\n      swap2\n      swap1\n      tag_527\n      jump\t// in\n    tag_537:\n      pop\n      swap1\n      jump\t// out\n    tag_272:\n      dup3\n      dup1\n      sload\n      tag_538\n      swap1\n      tag_179\n      jump\t// in\n    tag_538:\n      swap1\n      0x00\n      mstore\n      keccak256(0x00, 0x20)\n      swap1\n      0x1f\n      add\n      0x20\n      swap1\n      div\n      dup2\n      add\n      swap3\n      dup3\n      tag_540\n      jumpi\n      0x00\n      dup6\n      sstore\n      jump(tag_539)\n    tag_540:\n      dup3\n      0x1f\n      lt\n      tag_541\n      jumpi\n      dup1\n      mload\n      not(0xff)\n      and\n      dup4\n      dup1\n      add\n      or\n      dup6\n      sstore\n      jump(tag_539)\n    tag_541:\n      dup3\n      dup1\n      add\n      0x01\n      add\n      dup6\n      sstore\n      dup3\n      iszero\n      tag_539\n      jumpi\n      swap2\n      dup3\n      add\n    tag_542:\n      dup3\n      dup2\n      gt\n      iszero\n      tag_543\n      jumpi\n      dup3\n      mload\n      dup3\n      sstore\n      swap2\n      0x20\n      add\n      swap2\n      swap1\n      0x01\n      add\n      swap1\n      jump(tag_542)\n    tag_543:\n    tag_539:\n      pop\n      swap1\n      pop\n      tag_544\n      swap2\n      swap1\n      tag_527\n      jump\t// in\n    tag_544:\n      pop\n      swap1\n      jump\t// out\n    tag_527:\n    tag_545:\n      dup1\n      dup3\n      gt\n      iszero\n      tag_546\n      jumpi\n      0x00\n      dup2\n      0x00\n      swap1\n      sstore\n      pop\n      0x01\n      add\n      jump(tag_545)\n    tag_546:\n      pop\n      swap1\n      jump\t// out\n    tag_530:\n    tag_547:\n      dup1\n      dup3\n      gt\n      iszero\n      tag_548\n      jumpi\n      0x00\n      dup1\n      dup3\n      add\n      exp(0x0100, 0x00)\n      dup2\n      sload\n      swap1\n      0xff\n      mul\n      not\n      and\n      swap1\n      sstore\n      0x01\n      dup3\n      add\n      0x00\n      swap1\n      sstore\n      0x02\n      dup3\n      add\n      exp(0x0100, 0x00)\n      dup2\n      sload\n      swap1\n      0xff\n      mul\n      not\n      and\n      swap1\n      sstore\n      0x02\n      dup3\n      add\n      exp(0x0100, 0x01)\n      dup2\n      sload\n      swap1\n      0xff\n      mul\n      not\n      and\n      swap1\n      sstore\n      pop\n      0x03\n      add\n      jump(tag_547)\n    tag_548:\n      pop\n      swap1\n      jump\t// out\n        /* \"#utility.yul\":7:82   */\n    tag_549:\n        /* \"#utility.yul\":40:46   */\n      0x00\n        /* \"#utility.yul\":73:75   */\n      0x40\n        /* \"#utility.yul\":67:76   */\n      mload\n        /* \"#utility.yul\":57:76   */\n      swap1\n      pop\n        /* \"#utility.yul\":7:82   */\n      swap1\n      jump\t// out\n        /* \"#utility.yul\":88:205   */\n    tag_550:\n        /* \"#utility.yul\":197:198   */\n      0x00\n        /* \"#utility.yul\":194:195   */\n      dup1\n        /* \"#utility.yul\":187:199   */\n      revert\n        /* \"#utility.yul\":211:328   */\n    tag_551:\n        /* \"#utility.yul\":320:321   */\n      0x00\n        /* \"#utility.yul\":317:318   */\n      dup1\n        /* \"#utility.yul\":310:322   */\n      revert\n        /* \"#utility.yul\":334:460   */\n    tag_552:\n        /* \"#utility.yul\":371:378   */\n      0x00\n        /* \"#utility.yul\":411:453   */\n      0xffffffffffffffffffffffffffffffffffffffff\n        /* \"#utility.yul\":404:409   */\n      dup3\n        /* \"#utility.yul\":400:454   */\n      and\n        /* \"#utility.yul\":389:454   */\n      swap1\n      pop\n        /* \"#utility.yul\":334:460   */\n      swap2\n      swap1\n      pop\n      jump\t// out\n        /* \"#utility.yul\":466:562   */\n    tag_553:\n        /* \"#utility.yul\":503:510   */\n      0x00\n        /* \"#utility.yul\":532:556   */\n      tag_603\n        /* \"#utility.yul\":550:555   */\n      dup3\n        /* \"#utility.yul\":532:556   */\n      tag_552\n      jump\t// in\n    tag_603:\n        /* \"#utility.yul\":521:556   */\n      swap1\n      pop\n        /* \"#utility.yul\":466:562   */\n      swap2\n      swap1\n      pop\n      jump\t// out\n        /* \"#utility.yul\":568:690   */\n    tag_554:\n        /* \"#utility.yul\":641:665   */\n      tag_605\n        /* \"#utility.yul\":659:664   */\n      dup2\n        /* \"#utility.yul\":641:665   */\n      tag_553\n      jump\t// in\n    tag_605:\n        /* \"#utility.yul\":634:639   */\n      dup2\n        /* \"#utility.yul\":631:666   */\n      eq\n        /* \"#utility.yul\":621:684   */\n      tag_606\n      jumpi\n        /* \"#utility.yul\":680:681   */\n      0x00\n        /* \"#utility.yul\":677:678   */\n      dup1\n        /* \"#utility.yul\":670:682   */\n      revert\n        /* \"#utility.yul\":621:684   */\n    tag_606:\n        /* \"#utility.yul\":568:690   */\n      pop\n      jump\t// out\n        /* \"#utility.yul\":696:835   */\n    tag_555:\n        /* \"#utility.yul\":742:747   */\n      0x00\n        /* \"#utility.yul\":780:786   */\n      dup2\n        /* \"#utility.yul\":767:787   */\n      calldataload\n        /* \"#utility.yul\":758:787   */\n      swap1\n      pop\n        /* \"#utility.yul\":796:829   */\n      tag_608\n        /* \"#utility.yul\":823:828   */\n      dup2\n        /* \"#utility.yul\":796:829   */\n      tag_554\n      jump\t// in\n    tag_608:\n        /* \"#utility.yul\":696:835   */\n      swap3\n      swap2\n      pop\n      pop\n      jump\t// out\n        /* \"#utility.yul\":841:958   */\n    tag_556:\n        /* \"#utility.yul\":950:951   */\n      0x00\n        /* \"#utility.yul\":947:948   */\n      dup1\n        /* \"#utility.yul\":940:952   */\n      revert\n        /* \"#utility.yul\":964:1081   */\n    tag_557:\n        /* \"#utility.yul\":1073:1074   */\n      0x00\n        /* \"#utility.yul\":1070:1071   */\n      dup1\n        /* \"#utility.yul\":1063:1075   */\n      revert\n        /* \"#utility.yul\":1087:1189   */\n    tag_558:\n        /* \"#utility.yul\":1128:1134   */\n      0x00\n        /* \"#utility.yul\":1179:1181   */\n      0x1f\n        /* \"#utility.yul\":1175:1182   */\n      not\n        /* \"#utility.yul\":1170:1172   */\n      0x1f\n        /* \"#utility.yul\":1163:1168   */\n      dup4\n        /* \"#utility.yul\":1159:1173   */\n      add\n        /* \"#utility.yul\":1155:1183   */\n      and\n        /* \"#utility.yul\":1145:1183   */\n      swap1\n      pop\n        /* \"#utility.yul\":1087:1189   */\n      swap2\n      swap1\n      pop\n      jump\t// out\n        /* \"#utility.yul\":1195:1375   */\n    tag_559:\n        /* \"#utility.yul\":1243:1320   */\n      0x4e487b7100000000000000000000000000000000000000000000000000000000\n        /* \"#utility.yul\":1240:1241   */\n      0x00\n        /* \"#utility.yul\":1233:1321   */\n      mstore\n        /* \"#utility.yul\":1340:1344   */\n      0x41\n        /* \"#utility.yul\":1337:1338   */\n      0x04\n        /* \"#utility.yul\":1330:1345   */\n      mstore\n        /* \"#utility.yul\":1364:1368   */\n      0x24\n        /* \"#utility.yul\":1361:1362   */\n      0x00\n        /* \"#utility.yul\":1354:1369   */\n      revert\n        /* \"#utility.yul\":1381:1662   */\n    tag_560:\n        /* \"#utility.yul\":1464:1491   */\n      tag_614\n        /* \"#utility.yul\":1486:1490   */\n      dup3\n        /* \"#utility.yul\":1464:1491   */\n      tag_558\n      jump\t// in\n    tag_614:\n        /* \"#utility.yul\":1456:1462   */\n      dup2\n        /* \"#utility.yul\":1452:1492   */\n      add\n        /* \"#utility.yul\":1594:1600   */\n      dup2\n        /* \"#utility.yul\":1582:1592   */\n      dup2\n        /* \"#utility.yul\":1579:1601   */\n      lt\n        /* \"#utility.yul\":1558:1576   */\n      0xffffffffffffffff\n        /* \"#utility.yul\":1546:1556   */\n      dup3\n        /* \"#utility.yul\":1543:1577   */\n      gt\n        /* \"#utility.yul\":1540:1602   */\n      or\n        /* \"#utility.yul\":1537:1625   */\n      iszero\n      tag_615\n      jumpi\n        /* \"#utility.yul\":1605:1623   */\n      tag_616\n      tag_559\n      jump\t// in\n    tag_616:\n        /* \"#utility.yul\":1537:1625   */\n    tag_615:\n        /* \"#utility.yul\":1645:1655   */\n      dup1\n        /* \"#utility.yul\":1641:1643   */\n      0x40\n        /* \"#utility.yul\":1634:1656   */\n      mstore\n        /* \"#utility.yul\":1424:1662   */\n      pop\n        /* \"#utility.yul\":1381:1662   */\n      pop\n      pop\n      jump\t// out\n        /* \"#utility.yul\":1668:1797   */\n    tag_561:\n        /* \"#utility.yul\":1702:1708   */\n      0x00\n        /* \"#utility.yul\":1729:1749   */\n      tag_618\n      tag_549\n      jump\t// in\n    tag_618:\n        /* \"#utility.yul\":1719:1749   */\n      swap1\n      pop\n        /* \"#utility.yul\":1758:1791   */\n      tag_619\n        /* \"#utility.yul\":1786:1790   */\n      dup3\n        /* \"#utility.yul\":1778:1784   */\n      dup3\n        /* \"#utility.yul\":1758:1791   */\n      tag_560\n      jump\t// in\n    tag_619:\n        /* \"#utility.yul\":1668:1797   */\n      swap2\n      swap1\n      pop\n      jump\t// out\n        /* \"#utility.yul\":1803:2111   */\n    tag_562:\n        /* \"#utility.yul\":1865:1869   */\n      0x00\n        /* \"#utility.yul\":1955:1973   */\n      0xffffffffffffffff\n        /* \"#utility.yul\":1947:1953   */\n      dup3\n        /* \"#utility.yul\":1944:1974   */\n      gt\n        /* \"#utility.yul\":1941:1997   */\n      iszero\n      tag_621\n      jumpi\n        /* \"#utility.yul\":1977:1995   */\n      tag_622\n      tag_559\n      jump\t// in\n    tag_622:\n        /* \"#utility.yul\":1941:1997   */\n    tag_621:\n        /* \"#utility.yul\":2015:2044   */\n      tag_623\n        /* \"#utility.yul\":2037:2043   */\n      dup3\n        /* \"#utility.yul\":2015:2044   */\n      tag_558\n      jump\t// in\n    tag_623:\n        /* \"#utility.yul\":2007:2044   */\n      swap1\n      pop\n        /* \"#utility.yul\":2099:2103   */\n      0x20\n        /* \"#utility.yul\":2093:2097   */\n      dup2\n        /* \"#utility.yul\":2089:2104   */\n      add\n        /* \"#utility.yul\":2081:2104   */\n      swap1\n      pop\n        /* \"#utility.yul\":1803:2111   */\n      swap2\n      swap1\n      pop\n      jump\t// out\n        /* \"#utility.yul\":2117:2271   */\n    tag_563:\n        /* \"#utility.yul\":2201:2207   */\n      dup3\n        /* \"#utility.yul\":2196:2199   */\n      dup2\n        /* \"#utility.yul\":2191:2194   */\n      dup4\n        /* \"#utility.yul\":2178:2208   */\n      calldatacopy\n        /* \"#utility.yul\":2263:2264   */\n      0x00\n        /* \"#utility.yul\":2254:2260   */\n      dup4\n        /* \"#utility.yul\":2249:2252   */\n      dup4\n        /* \"#utility.yul\":2245:2261   */\n      add\n        /* \"#utility.yul\":2238:2265   */\n      mstore\n        /* \"#utility.yul\":2117:2271   */\n      pop\n      pop\n      pop\n      jump\t// out\n        /* \"#utility.yul\":2277:2689   */\n    tag_564:\n        /* \"#utility.yul\":2355:2360   */\n      0x00\n        /* \"#utility.yul\":2380:2446   */\n      tag_626\n        /* \"#utility.yul\":2396:2445   */\n      tag_627\n        /* \"#utility.yul\":2438:2444   */\n      dup5\n        /* \"#utility.yul\":2396:2445   */\n      tag_562\n      jump\t// in\n    tag_627:\n        /* \"#utility.yul\":2380:2446   */\n      tag_561\n      jump\t// in\n    tag_626:\n        /* \"#utility.yul\":2371:2446   */\n      swap1\n      pop\n        /* \"#utility.yul\":2469:2475   */\n      dup3\n        /* \"#utility.yul\":2462:2467   */\n      dup2\n        /* \"#utility.yul\":2455:2476   */\n      mstore\n        /* \"#utility.yul\":2507:2511   */\n      0x20\n        /* \"#utility.yul\":2500:2505   */\n      dup2\n        /* \"#utility.yul\":2496:2512   */\n      add\n        /* \"#utility.yul\":2545:2548   */\n      dup5\n        /* \"#utility.yul\":2536:2542   */\n      dup5\n        /* \"#utility.yul\":2531:2534   */\n      dup5\n        /* \"#utility.yul\":2527:2543   */\n      add\n        /* \"#utility.yul\":2524:2549   */\n      gt\n        /* \"#utility.yul\":2521:2633   */\n      iszero\n      tag_628\n      jumpi\n        /* \"#utility.yul\":2552:2631   */\n      tag_629\n      tag_557\n      jump\t// in\n    tag_629:\n        /* \"#utility.yul\":2521:2633   */\n    tag_628:\n        /* \"#utility.yul\":2642:2683   */\n      tag_630\n        /* \"#utility.yul\":2676:2682   */\n      dup5\n        /* \"#utility.yul\":2671:2674   */\n      dup3\n        /* \"#utility.yul\":2666:2669   */\n      dup6\n        /* \"#utility.yul\":2642:2683   */\n      tag_563\n      jump\t// in\n    tag_630:\n        /* \"#utility.yul\":2361:2689   */\n      pop\n        /* \"#utility.yul\":2277:2689   */\n      swap4\n      swap3\n      pop\n      pop\n      pop\n      jump\t// out\n        /* \"#utility.yul\":2709:3049   */\n    tag_565:\n        /* \"#utility.yul\":2765:2770   */\n      0x00\n        /* \"#utility.yul\":2814:2817   */\n      dup3\n        /* \"#utility.yul\":2807:2811   */\n      0x1f\n        /* \"#utility.yul\":2799:2805   */\n      dup4\n        /* \"#utility.yul\":2795:2812   */\n      add\n        /* \"#utility.yul\":2791:2818   */\n      slt\n        /* \"#utility.yul\":2781:2903   */\n      tag_632\n      jumpi\n        /* \"#utility.yul\":2822:2901   */\n      tag_633\n      tag_556\n      jump\t// in\n    tag_633:\n        /* \"#utility.yul\":2781:2903   */\n    tag_632:\n        /* \"#utility.yul\":2939:2945   */\n      dup2\n        /* \"#utility.yul\":2926:2946   */\n      calldataload\n        /* \"#utility.yul\":2964:3043   */\n      tag_634\n        /* \"#utility.yul\":3039:3042   */\n      dup5\n        /* \"#utility.yul\":3031:3037   */\n      dup3\n        /* \"#utility.yul\":3024:3028   */\n      0x20\n        /* \"#utility.yul\":3016:3022   */\n      dup7\n        /* \"#utility.yul\":3012:3029   */\n      add\n        /* \"#utility.yul\":2964:3043   */\n      tag_564\n      jump\t// in\n    tag_634:\n        /* \"#utility.yul\":2955:3043   */\n      swap2\n      pop\n        /* \"#utility.yul\":2771:3049   */\n      pop\n        /* \"#utility.yul\":2709:3049   */\n      swap3\n      swap2\n      pop\n      pop\n      jump\t// out\n        /* \"#utility.yul\":3055:3132   */\n    tag_566:\n        /* \"#utility.yul\":3092:3099   */\n      0x00\n        /* \"#utility.yul\":3121:3126   */\n      dup2\n        /* \"#utility.yul\":3110:3126   */\n      swap1\n      pop\n        /* \"#utility.yul\":3055:3132   */\n      swap2\n      swap1\n      pop\n      jump\t// out\n        /* \"#utility.yul\":3138:3260   */\n    tag_567:\n        /* \"#utility.yul\":3211:3235   */\n      tag_637\n        /* \"#utility.yul\":3229:3234   */\n      dup2\n        /* \"#utility.yul\":3211:3235   */\n      tag_566\n      jump\t// in\n    tag_637:\n        /* \"#utility.yul\":3204:3209   */\n      dup2\n        /* \"#utility.yul\":3201:3236   */\n      eq\n        /* \"#utility.yul\":3191:3254   */\n      tag_638\n      jumpi\n        /* \"#utility.yul\":3250:3251   */\n      0x00\n        /* \"#utility.yul\":3247:3248   */\n      dup1\n        /* \"#utility.yul\":3240:3252   */\n      revert\n        /* \"#utility.yul\":3191:3254   */\n    tag_638:\n        /* \"#utility.yul\":3138:3260   */\n      pop\n      jump\t// out\n        /* \"#utility.yul\":3266:3405   */\n    tag_568:\n        /* \"#utility.yul\":3312:3317   */\n      0x00\n        /* \"#utility.yul\":3350:3356   */\n      dup2\n        /* \"#utility.yul\":3337:3357   */\n      calldataload\n        /* \"#utility.yul\":3328:3357   */\n      swap1\n      pop\n        /* \"#utility.yul\":3366:3399   */\n      tag_640\n        /* \"#utility.yul\":3393:3398   */\n      dup2\n        /* \"#utility.yul\":3366:3399   */\n      tag_567\n      jump\t// in\n    tag_640:\n        /* \"#utility.yul\":3266:3405   */\n      swap3\n      swap2\n      pop\n      pop\n      jump\t// out\n        /* \"#utility.yul\":3411:4210   */\n    tag_42:\n        /* \"#utility.yul\":3498:3504   */\n      0x00\n        /* \"#utility.yul\":3506:3512   */\n      dup1\n        /* \"#utility.yul\":3514:3520   */\n      0x00\n        /* \"#utility.yul\":3563:3565   */\n      0x60\n        /* \"#utility.yul\":3551:3560   */\n      dup5\n        /* \"#utility.yul\":3542:3549   */\n      dup7\n        /* \"#utility.yul\":3538:3561   */\n      sub\n        /* \"#utility.yul\":3534:3566   */\n      slt\n        /* \"#utility.yul\":3531:3650   */\n      iszero\n      tag_642\n      jumpi\n        /* \"#utility.yul\":3569:3648   */\n      tag_643\n      tag_550\n      jump\t// in\n    tag_643:\n        /* \"#utility.yul\":3531:3650   */\n    tag_642:\n        /* \"#utility.yul\":3689:3690   */\n      0x00\n        /* \"#utility.yul\":3714:3767   */\n      tag_644\n        /* \"#utility.yul\":3759:3766   */\n      dup7\n        /* \"#utility.yul\":3750:3756   */\n      dup3\n        /* \"#utility.yul\":3739:3748   */\n      dup8\n        /* \"#utility.yul\":3735:3757   */\n      add\n        /* \"#utility.yul\":3714:3767   */\n      tag_555\n      jump\t// in\n    tag_644:\n        /* \"#utility.yul\":3704:3767   */\n      swap4\n      pop\n        /* \"#utility.yul\":3660:3777   */\n      pop\n        /* \"#utility.yul\":3844:3846   */\n      0x20\n        /* \"#utility.yul\":3833:3842   */\n      dup5\n        /* \"#utility.yul\":3829:3847   */\n      add\n        /* \"#utility.yul\":3816:3848   */\n      calldataload\n        /* \"#utility.yul\":3875:3893   */\n      0xffffffffffffffff\n        /* \"#utility.yul\":3867:3873   */\n      dup2\n        /* \"#utility.yul\":3864:3894   */\n      gt\n        /* \"#utility.yul\":3861:3978   */\n      iszero\n      tag_645\n      jumpi\n        /* \"#utility.yul\":3897:3976   */\n      tag_646\n      tag_551\n      jump\t// in\n    tag_646:\n        /* \"#utility.yul\":3861:3978   */\n    tag_645:\n        /* \"#utility.yul\":4002:4065   */\n      tag_647\n        /* \"#utility.yul\":4057:4064   */\n      dup7\n        /* \"#utility.yul\":4048:4054   */\n      dup3\n        /* \"#utility.yul\":4037:4046   */\n      dup8\n        /* \"#utility.yul\":4033:4055   */\n      add\n        /* \"#utility.yul\":4002:4065   */\n      tag_565\n      jump\t// in\n    tag_647:\n        /* \"#utility.yul\":3992:4065   */\n      swap3\n      pop\n        /* \"#utility.yul\":3787:4075   */\n      pop\n        /* \"#utility.yul\":4114:4116   */\n      0x40\n        /* \"#utility.yul\":4140:4193   */\n      tag_648\n        /* \"#utility.yul\":4185:4192   */\n      dup7\n        /* \"#utility.yul\":4176:4182   */\n      dup3\n        /* \"#utility.yul\":4165:4174   */\n      dup8\n        /* \"#utility.yul\":4161:4183   */\n      add\n        /* \"#utility.yul\":4140:4193   */\n      tag_568\n      jump\t// in\n    tag_648:\n        /* \"#utility.yul\":4130:4193   */\n      swap2\n      pop\n        /* \"#utility.yul\":4085:4203   */\n      pop\n        /* \"#utility.yul\":3411:4210   */\n      swap3\n      pop\n      swap3\n      pop\n      swap3\n      jump\t// out\n        /* \"#utility.yul\":4216:4306   */\n    tag_569:\n        /* \"#utility.yul\":4250:4257   */\n      0x00\n        /* \"#utility.yul\":4293:4298   */\n      dup2\n        /* \"#utility.yul\":4286:4299   */\n      iszero\n        /* \"#utility.yul\":4279:4300   */\n      iszero\n        /* \"#utility.yul\":4268:4300   */\n      swap1\n      pop\n        /* \"#utility.yul\":4216:4306   */\n      swap2\n      swap1\n      pop\n      jump\t// out\n        /* \"#utility.yul\":4312:4421   */\n    tag_570:\n        /* \"#utility.yul\":4393:4414   */\n      tag_651\n        /* \"#utility.yul\":4408:4413   */\n      dup2\n        /* \"#utility.yul\":4393:4414   */\n      tag_569\n      jump\t// in\n    tag_651:\n        /* \"#utility.yul\":4388:4391   */\n      dup3\n        /* \"#utility.yul\":4381:4415   */\n      mstore\n        /* \"#utility.yul\":4312:4421   */\n      pop\n      pop\n      jump\t// out\n        /* \"#utility.yul\":4427:4637   */\n    tag_45:\n        /* \"#utility.yul\":4514:4518   */\n      0x00\n        /* \"#utility.yul\":4552:4554   */\n      0x20\n        /* \"#utility.yul\":4541:4550   */\n      dup3\n        /* \"#utility.yul\":4537:4555   */\n      add\n        /* \"#utility.yul\":4529:4555   */\n      swap1\n      pop\n        /* \"#utility.yul\":4565:4630   */\n      tag_653\n        /* \"#utility.yul\":4627:4628   */\n      0x00\n        /* \"#utility.yul\":4616:4625   */\n      dup4\n        /* \"#utility.yul\":4612:4629   */\n      add\n        /* \"#utility.yul\":4603:4609   */\n      dup5\n        /* \"#utility.yul\":4565:4630   */\n      tag_570\n      jump\t// in\n    tag_653:\n        /* \"#utility.yul\":4427:4637   */\n      swap3\n      swap2\n      pop\n      pop\n      jump\t// out\n        /* \"#utility.yul\":4643:4761   */\n    tag_571:\n        /* \"#utility.yul\":4730:4754   */\n      tag_655\n        /* \"#utility.yul\":4748:4753   */\n      dup2\n        /* \"#utility.yul\":4730:4754   */\n      tag_566\n      jump\t// in\n    tag_655:\n        /* \"#utility.yul\":4725:4728   */\n      dup3\n        /* \"#utility.yul\":4718:4755   */\n      mstore\n        /* \"#utility.yul\":4643:4761   */\n      pop\n      pop\n      jump\t// out\n        /* \"#utility.yul\":4767:4989   */\n    tag_49:\n        /* \"#utility.yul\":4860:4864   */\n      0x00\n        /* \"#utility.yul\":4898:4900   */\n      0x20\n        /* \"#utility.yul\":4887:4896   */\n      dup3\n        /* \"#utility.yul\":4883:4901   */\n      add\n        /* \"#utility.yul\":4875:4901   */\n      swap1\n      pop\n        /* \"#utility.yul\":4911:4982   */\n      tag_657\n        /* \"#utility.yul\":4979:4980   */\n      0x00\n        /* \"#utility.yul\":4968:4977   */\n      dup4\n        /* \"#utility.yul\":4964:4981   */\n      add\n        /* \"#utility.yul\":4955:4961   */\n      dup5\n        /* \"#utility.yul\":4911:4982   */\n      tag_571\n      jump\t// in\n    tag_657:\n        /* \"#utility.yul\":4767:4989   */\n      swap3\n      swap2\n      pop\n      pop\n      jump\t// out\n        /* \"#utility.yul\":4995:5324   */\n    tag_52:\n        /* \"#utility.yul\":5054:5060   */\n      0x00\n        /* \"#utility.yul\":5103:5105   */\n      0x20\n        /* \"#utility.yul\":5091:5100   */\n      dup3\n        /* \"#utility.yul\":5082:5089   */\n      dup5\n        /* \"#utility.yul\":5078:5101   */\n      sub\n        /* \"#utility.yul\":5074:5106   */\n      slt\n        /* \"#utility.yul\":5071:5190   */\n      iszero\n      tag_659\n      jumpi\n        /* \"#utility.yul\":5109:5188   */\n      tag_660\n      tag_550\n      jump\t// in\n    tag_660:\n        /* \"#utility.yul\":5071:5190   */\n    tag_659:\n        /* \"#utility.yul\":5229:5230   */\n      0x00\n        /* \"#utility.yul\":5254:5307   */\n      tag_661\n        /* \"#utility.yul\":5299:5306   */\n      dup5\n        /* \"#utility.yul\":5290:5296   */\n      dup3\n        /* \"#utility.yul\":5279:5288   */\n      dup6\n        /* \"#utility.yul\":5275:5297   */\n      add\n        /* \"#utility.yul\":5254:5307   */\n      tag_568\n      jump\t// in\n    tag_661:\n        /* \"#utility.yul\":5244:5307   */\n      swap2\n      pop\n        /* \"#utility.yul\":5200:5317   */\n      pop\n        /* \"#utility.yul\":4995:5324   */\n      swap3\n      swap2\n      pop\n      pop\n      jump\t// out\n        /* \"#utility.yul\":5330:5448   */\n    tag_572:\n        /* \"#utility.yul\":5417:5441   */\n      tag_663\n        /* \"#utility.yul\":5435:5440   */\n      dup2\n        /* \"#utility.yul\":5417:5441   */\n      tag_553\n      jump\t// in\n    tag_663:\n        /* \"#utility.yul\":5412:5415   */\n      dup3\n        /* \"#utility.yul\":5405:5442   */\n      mstore\n        /* \"#utility.yul\":5330:5448   */\n      pop\n      pop\n      jump\t// out\n        /* \"#utility.yul\":5454:5553   */\n    tag_573:\n        /* \"#utility.yul\":5506:5512   */\n      0x00\n        /* \"#utility.yul\":5540:5545   */\n      dup2\n        /* \"#utility.yul\":5534:5546   */\n      mload\n        /* \"#utility.yul\":5524:5546   */\n      swap1\n      pop\n        /* \"#utility.yul\":5454:5553   */\n      swap2\n      swap1\n      pop\n      jump\t// out\n        /* \"#utility.yul\":5559:5728   */\n    tag_574:\n        /* \"#utility.yul\":5643:5654   */\n      0x00\n        /* \"#utility.yul\":5677:5683   */\n      dup3\n        /* \"#utility.yul\":5672:5675   */\n      dup3\n        /* \"#utility.yul\":5665:5684   */\n      mstore\n        /* \"#utility.yul\":5717:5721   */\n      0x20\n        /* \"#utility.yul\":5712:5715   */\n      dup3\n        /* \"#utility.yul\":5708:5722   */\n      add\n        /* \"#utility.yul\":5693:5722   */\n      swap1\n      pop\n        /* \"#utility.yul\":5559:5728   */\n      swap3\n      swap2\n      pop\n      pop\n      jump\t// out\n        /* \"#utility.yul\":5734:6041   */\n    tag_575:\n        /* \"#utility.yul\":5802:5803   */\n      0x00\n        /* \"#utility.yul\":5812:5925   */\n    tag_667:\n        /* \"#utility.yul\":5826:5832   */\n      dup4\n        /* \"#utility.yul\":5823:5824   */\n      dup2\n        /* \"#utility.yul\":5820:5833   */\n      lt\n        /* \"#utility.yul\":5812:5925   */\n      iszero\n      tag_669\n      jumpi\n        /* \"#utility.yul\":5911:5912   */\n      dup1\n        /* \"#utility.yul\":5906:5909   */\n      dup3\n        /* \"#utility.yul\":5902:5913   */\n      add\n        /* \"#utility.yul\":5896:5914   */\n      mload\n        /* \"#utility.yul\":5892:5893   */\n      dup2\n        /* \"#utility.yul\":5887:5890   */\n      dup5\n        /* \"#utility.yul\":5883:5894   */\n      add\n        /* \"#utility.yul\":5876:5915   */\n      mstore\n        /* \"#utility.yul\":5848:5850   */\n      0x20\n        /* \"#utility.yul\":5845:5846   */\n      dup2\n        /* \"#utility.yul\":5841:5851   */\n      add\n        /* \"#utility.yul\":5836:5851   */\n      swap1\n      pop\n        /* \"#utility.yul\":5812:5925   */\n      jump(tag_667)\n    tag_669:\n        /* \"#utility.yul\":5943:5949   */\n      dup4\n        /* \"#utility.yul\":5940:5941   */\n      dup2\n        /* \"#utility.yul\":5937:5950   */\n      gt\n        /* \"#utility.yul\":5934:6035   */\n      iszero\n      tag_670\n      jumpi\n        /* \"#utility.yul\":6023:6024   */\n      0x00\n        /* \"#utility.yul\":6014:6020   */\n      dup5\n        /* \"#utility.yul\":6009:6012   */\n      dup5\n        /* \"#utility.yul\":6005:6021   */\n      add\n        /* \"#utility.yul\":5998:6025   */\n      mstore\n        /* \"#utility.yul\":5934:6035   */\n    tag_670:\n        /* \"#utility.yul\":5783:6041   */\n      pop\n        /* \"#utility.yul\":5734:6041   */\n      pop\n      pop\n      pop\n      jump\t// out\n        /* \"#utility.yul\":6047:6411   */\n    tag_576:\n        /* \"#utility.yul\":6135:6138   */\n      0x00\n        /* \"#utility.yul\":6163:6202   */\n      tag_672\n        /* \"#utility.yul\":6196:6201   */\n      dup3\n        /* \"#utility.yul\":6163:6202   */\n      tag_573\n      jump\t// in\n    tag_672:\n        /* \"#utility.yul\":6218:6289   */\n      tag_673\n        /* \"#utility.yul\":6282:6288   */\n      dup2\n        /* \"#utility.yul\":6277:6280   */\n      dup6\n        /* \"#utility.yul\":6218:6289   */\n      tag_574\n      jump\t// in\n    tag_673:\n        /* \"#utility.yul\":6211:6289   */\n      swap4\n      pop\n        /* \"#utility.yul\":6298:6350   */\n      tag_674\n        /* \"#utility.yul\":6343:6349   */\n      dup2\n        /* \"#utility.yul\":6338:6341   */\n      dup6\n        /* \"#utility.yul\":6331:6335   */\n      0x20\n        /* \"#utility.yul\":6324:6329   */\n      dup7\n        /* \"#utility.yul\":6320:6336   */\n      add\n        /* \"#utility.yul\":6298:6350   */\n      tag_575\n      jump\t// in\n    tag_674:\n        /* \"#utility.yul\":6375:6404   */\n      tag_675\n        /* \"#utility.yul\":6397:6403   */\n      dup2\n        /* \"#utility.yul\":6375:6404   */\n      tag_558\n      jump\t// in\n    tag_675:\n        /* \"#utility.yul\":6370:6373   */\n      dup5\n        /* \"#utility.yul\":6366:6405   */\n      add\n        /* \"#utility.yul\":6359:6405   */\n      swap2\n      pop\n        /* \"#utility.yul\":6139:6411   */\n      pop\n        /* \"#utility.yul\":6047:6411   */\n      swap3\n      swap2\n      pop\n      pop\n      jump\t// out\n        /* \"#utility.yul\":6417:7243   */\n    tag_55:\n        /* \"#utility.yul\":6654:6658   */\n      0x00\n        /* \"#utility.yul\":6692:6695   */\n      0x80\n        /* \"#utility.yul\":6681:6690   */\n      dup3\n        /* \"#utility.yul\":6677:6696   */\n      add\n        /* \"#utility.yul\":6669:6696   */\n      swap1\n      pop\n        /* \"#utility.yul\":6706:6777   */\n      tag_677\n        /* \"#utility.yul\":6774:6775   */\n      0x00\n        /* \"#utility.yul\":6763:6772   */\n      dup4\n        /* \"#utility.yul\":6759:6776   */\n      add\n        /* \"#utility.yul\":6750:6756   */\n      dup8\n        /* \"#utility.yul\":6706:6777   */\n      tag_572\n      jump\t// in\n    tag_677:\n        /* \"#utility.yul\":6824:6833   */\n      dup2\n        /* \"#utility.yul\":6818:6822   */\n      dup2\n        /* \"#utility.yul\":6814:6834   */\n      sub\n        /* \"#utility.yul\":6809:6811   */\n      0x20\n        /* \"#utility.yul\":6798:6807   */\n      dup4\n        /* \"#utility.yul\":6794:6812   */\n      add\n        /* \"#utility.yul\":6787:6835   */\n      mstore\n        /* \"#utility.yul\":6852:6930   */\n      tag_678\n        /* \"#utility.yul\":6925:6929   */\n      dup2\n        /* \"#utility.yul\":6916:6922   */\n      dup7\n        /* \"#utility.yul\":6852:6930   */\n      tag_576\n      jump\t// in\n    tag_678:\n        /* \"#utility.yul\":6844:6930   */\n      swap1\n      pop\n        /* \"#utility.yul\":6977:6986   */\n      dup2\n        /* \"#utility.yul\":6971:6975   */\n      dup2\n        /* \"#utility.yul\":6967:6987   */\n      sub\n        /* \"#utility.yul\":6962:6964   */\n      0x40\n        /* \"#utility.yul\":6951:6960   */\n      dup4\n        /* \"#utility.yul\":6947:6965   */\n      add\n        /* \"#utility.yul\":6940:6988   */\n      mstore\n        /* \"#utility.yul\":7005:7083   */\n      tag_679\n        /* \"#utility.yul\":7078:7082   */\n      dup2\n        /* \"#utility.yul\":7069:7075   */\n      dup6\n        /* \"#utility.yul\":7005:7083   */\n      tag_576\n      jump\t// in\n    tag_679:\n        /* \"#utility.yul\":6997:7083   */\n      swap1\n      pop\n        /* \"#utility.yul\":7130:7139   */\n      dup2\n        /* \"#utility.yul\":7124:7128   */\n      dup2\n        /* \"#utility.yul\":7120:7140   */\n      sub\n        /* \"#utility.yul\":7115:7117   */\n      0x60\n        /* \"#utility.yul\":7104:7113   */\n      dup4\n        /* \"#utility.yul\":7100:7118   */\n      add\n        /* \"#utility.yul\":7093:7141   */\n      mstore\n        /* \"#utility.yul\":7158:7236   */\n      tag_680\n        /* \"#utility.yul\":7231:7235   */\n      dup2\n        /* \"#utility.yul\":7222:7228   */\n      dup5\n        /* \"#utility.yul\":7158:7236   */\n      tag_576\n      jump\t// in\n    tag_680:\n        /* \"#utility.yul\":7150:7236   */\n      swap1\n      pop\n        /* \"#utility.yul\":6417:7243   */\n      swap6\n      swap5\n      pop\n      pop\n      pop\n      pop\n      pop\n      jump\t// out\n        /* \"#utility.yul\":7249:7335   */\n    tag_577:\n        /* \"#utility.yul\":7284:7291   */\n      0x00\n        /* \"#utility.yul\":7324:7328   */\n      0xff\n        /* \"#utility.yul\":7317:7322   */\n      dup3\n        /* \"#utility.yul\":7313:7329   */\n      and\n        /* \"#utility.yul\":7302:7329   */\n      swap1\n      pop\n        /* \"#utility.yul\":7249:7335   */\n      swap2\n      swap1\n      pop\n      jump\t// out\n        /* \"#utility.yul\":7341:7459   */\n    tag_578:\n        /* \"#utility.yul\":7412:7434   */\n      tag_683\n        /* \"#utility.yul\":7428:7433   */\n      dup2\n        /* \"#utility.yul\":7412:7434   */\n      tag_577\n      jump\t// in\n    tag_683:\n        /* \"#utility.yul\":7405:7410   */\n      dup2\n        /* \"#utility.yul\":7402:7435   */\n      eq\n        /* \"#utility.yul\":7392:7453   */\n      tag_684\n      jumpi\n        /* \"#utility.yul\":7449:7450   */\n      0x00\n        /* \"#utility.yul\":7446:7447   */\n      dup1\n        /* \"#utility.yul\":7439:7451   */\n      revert\n        /* \"#utility.yul\":7392:7453   */\n    tag_684:\n        /* \"#utility.yul\":7341:7459   */\n      pop\n      jump\t// out\n        /* \"#utility.yul\":7465:7600   */\n    tag_579:\n        /* \"#utility.yul\":7509:7514   */\n      0x00\n        /* \"#utility.yul\":7547:7553   */\n      dup2\n        /* \"#utility.yul\":7534:7554   */\n      calldataload\n        /* \"#utility.yul\":7525:7554   */\n      swap1\n      pop\n        /* \"#utility.yul\":7563:7594   */\n      tag_686\n        /* \"#utility.yul\":7588:7593   */\n      dup2\n        /* \"#utility.yul\":7563:7594   */\n      tag_578\n      jump\t// in\n    tag_686:\n        /* \"#utility.yul\":7465:7600   */\n      swap3\n      swap2\n      pop\n      pop\n      jump\t// out\n        /* \"#utility.yul\":7606:8076   */\n    tag_58:\n        /* \"#utility.yul\":7672:7678   */\n      0x00\n        /* \"#utility.yul\":7680:7686   */\n      dup1\n        /* \"#utility.yul\":7729:7731   */\n      0x40\n        /* \"#utility.yul\":7717:7726   */\n      dup4\n        /* \"#utility.yul\":7708:7715   */\n      dup6\n        /* \"#utility.yul\":7704:7727   */\n      sub\n        /* \"#utility.yul\":7700:7732   */\n      slt\n        /* \"#utility.yul\":7697:7816   */\n      iszero\n      tag_688\n      jumpi\n        /* \"#utility.yul\":7735:7814   */\n      tag_689\n      tag_550\n      jump\t// in\n    tag_689:\n        /* \"#utility.yul\":7697:7816   */\n    tag_688:\n        /* \"#utility.yul\":7855:7856   */\n      0x00\n        /* \"#utility.yul\":7880:7931   */\n      tag_690\n        /* \"#utility.yul\":7923:7930   */\n      dup6\n        /* \"#utility.yul\":7914:7920   */\n      dup3\n        /* \"#utility.yul\":7903:7912   */\n      dup7\n        /* \"#utility.yul\":7899:7921   */\n      add\n        /* \"#utility.yul\":7880:7931   */\n      tag_579\n      jump\t// in\n    tag_690:\n        /* \"#utility.yul\":7870:7931   */\n      swap3\n      pop\n        /* \"#utility.yul\":7826:7941   */\n      pop\n        /* \"#utility.yul\":7980:7982   */\n      0x20\n        /* \"#utility.yul\":8006:8059   */\n      tag_691\n        /* \"#utility.yul\":8051:8058   */\n      dup6\n        /* \"#utility.yul\":8042:8048   */\n      dup3\n        /* \"#utility.yul\":8031:8040   */\n      dup7\n        /* \"#utility.yul\":8027:8049   */\n      add\n        /* \"#utility.yul\":8006:8059   */\n      tag_568\n      jump\t// in\n    tag_691:\n        /* \"#utility.yul\":7996:8059   */\n      swap2\n      pop\n        /* \"#utility.yul\":7951:8069   */\n      pop\n        /* \"#utility.yul\":7606:8076   */\n      swap3\n      pop\n      swap3\n      swap1\n      pop\n      jump\t// out\n        /* \"#utility.yul\":8082:8877   */\n    tag_62:\n        /* \"#utility.yul\":8167:8173   */\n      0x00\n        /* \"#utility.yul\":8175:8181   */\n      dup1\n        /* \"#utility.yul\":8183:8189   */\n      0x00\n        /* \"#utility.yul\":8232:8234   */\n      0x60\n        /* \"#utility.yul\":8220:8229   */\n      dup5\n        /* \"#utility.yul\":8211:8218   */\n      dup7\n        /* \"#utility.yul\":8207:8230   */\n      sub\n        /* \"#utility.yul\":8203:8235   */\n      slt\n        /* \"#utility.yul\":8200:8319   */\n      iszero\n      tag_693\n      jumpi\n        /* \"#utility.yul\":8238:8317   */\n      tag_694\n      tag_550\n      jump\t// in\n    tag_694:\n        /* \"#utility.yul\":8200:8319   */\n    tag_693:\n        /* \"#utility.yul\":8358:8359   */\n      0x00\n        /* \"#utility.yul\":8383:8434   */\n      tag_695\n        /* \"#utility.yul\":8426:8433   */\n      dup7\n        /* \"#utility.yul\":8417:8423   */\n      dup3\n        /* \"#utility.yul\":8406:8415   */\n      dup8\n        /* \"#utility.yul\":8402:8424   */\n      add\n        /* \"#utility.yul\":8383:8434   */\n      tag_579\n      jump\t// in\n    tag_695:\n        /* \"#utility.yul\":8373:8434   */\n      swap4\n      pop\n        /* \"#utility.yul\":8329:8444   */\n      pop\n        /* \"#utility.yul\":8511:8513   */\n      0x20\n        /* \"#utility.yul\":8500:8509   */\n      dup5\n        /* \"#utility.yul\":8496:8514   */\n      add\n        /* \"#utility.yul\":8483:8515   */\n      calldataload\n        /* \"#utility.yul\":8542:8560   */\n      0xffffffffffffffff\n        /* \"#utility.yul\":8534:8540   */\n      dup2\n        /* \"#utility.yul\":8531:8561   */\n      gt\n        /* \"#utility.yul\":8528:8645   */\n      iszero\n      tag_696\n      jumpi\n        /* \"#utility.yul\":8564:8643   */\n      tag_697\n      tag_551\n      jump\t// in\n    tag_697:\n        /* \"#utility.yul\":8528:8645   */\n    tag_696:\n        /* \"#utility.yul\":8669:8732   */\n      tag_698\n        /* \"#utility.yul\":8724:8731   */\n      dup7\n        /* \"#utility.yul\":8715:8721   */\n      dup3\n        /* \"#utility.yul\":8704:8713   */\n      dup8\n        /* \"#utility.yul\":8700:8722   */\n      add\n        /* \"#utility.yul\":8669:8732   */\n      tag_565\n      jump\t// in\n    tag_698:\n        /* \"#utility.yul\":8659:8732   */\n      swap3\n      pop\n        /* \"#utility.yul\":8454:8742   */\n      pop\n        /* \"#utility.yul\":8781:8783   */\n      0x40\n        /* \"#utility.yul\":8807:8860   */\n      tag_699\n        /* \"#utility.yul\":8852:8859   */\n      dup7\n        /* \"#utility.yul\":8843:8849   */\n      dup3\n        /* \"#utility.yul\":8832:8841   */\n      dup8\n        /* \"#utility.yul\":8828:8850   */\n      add\n        /* \"#utility.yul\":8807:8860   */\n      tag_568\n      jump\t// in\n    tag_699:\n        /* \"#utility.yul\":8797:8860   */\n      swap2\n      pop\n        /* \"#utility.yul\":8752:8870   */\n      pop\n        /* \"#utility.yul\":8082:8877   */\n      swap3\n      pop\n      swap3\n      pop\n      swap3\n      jump\t// out\n        /* \"#utility.yul\":8883:8995   */\n    tag_580:\n        /* \"#utility.yul\":8966:8988   */\n      tag_701\n        /* \"#utility.yul\":8982:8987   */\n      dup2\n        /* \"#utility.yul\":8966:8988   */\n      tag_577\n      jump\t// in\n    tag_701:\n        /* \"#utility.yul\":8961:8964   */\n      dup3\n        /* \"#utility.yul\":8954:8989   */\n      mstore\n        /* \"#utility.yul\":8883:8995   */\n      pop\n      pop\n      jump\t// out\n        /* \"#utility.yul\":9001:9518   */\n    tag_71:\n        /* \"#utility.yul\":9162:9166   */\n      0x00\n        /* \"#utility.yul\":9200:9202   */\n      0x60\n        /* \"#utility.yul\":9189:9198   */\n      dup3\n        /* \"#utility.yul\":9185:9203   */\n      add\n        /* \"#utility.yul\":9177:9203   */\n      swap1\n      pop\n        /* \"#utility.yul\":9213:9280   */\n      tag_703\n        /* \"#utility.yul\":9277:9278   */\n      0x00\n        /* \"#utility.yul\":9266:9275   */\n      dup4\n        /* \"#utility.yul\":9262:9279   */\n      add\n        /* \"#utility.yul\":9253:9259   */\n      dup7\n        /* \"#utility.yul\":9213:9280   */\n      tag_580\n      jump\t// in\n    tag_703:\n        /* \"#utility.yul\":9290:9358   */\n      tag_704\n        /* \"#utility.yul\":9354:9356   */\n      0x20\n        /* \"#utility.yul\":9343:9352   */\n      dup4\n        /* \"#utility.yul\":9339:9357   */\n      add\n        /* \"#utility.yul\":9330:9336   */\n      dup6\n        /* \"#utility.yul\":9290:9358   */\n      tag_580\n      jump\t// in\n    tag_704:\n        /* \"#utility.yul\":9405:9414   */\n      dup2\n        /* \"#utility.yul\":9399:9403   */\n      dup2\n        /* \"#utility.yul\":9395:9415   */\n      sub\n        /* \"#utility.yul\":9390:9392   */\n      0x40\n        /* \"#utility.yul\":9379:9388   */\n      dup4\n        /* \"#utility.yul\":9375:9393   */\n      add\n        /* \"#utility.yul\":9368:9416   */\n      mstore\n        /* \"#utility.yul\":9433:9511   */\n      tag_705\n        /* \"#utility.yul\":9506:9510   */\n      dup2\n        /* \"#utility.yul\":9497:9503   */\n      dup5\n        /* \"#utility.yul\":9433:9511   */\n      tag_576\n      jump\t// in\n    tag_705:\n        /* \"#utility.yul\":9425:9511   */\n      swap1\n      pop\n        /* \"#utility.yul\":9001:9518   */\n      swap5\n      swap4\n      pop\n      pop\n      pop\n      pop\n      jump\t// out\n        /* \"#utility.yul\":9524:10503   */\n    tag_74:\n        /* \"#utility.yul\":9621:9627   */\n      0x00\n        /* \"#utility.yul\":9629:9635   */\n      dup1\n        /* \"#utility.yul\":9637:9643   */\n      0x00\n        /* \"#utility.yul\":9686:9688   */\n      0x60\n        /* \"#utility.yul\":9674:9683   */\n      dup5\n        /* \"#utility.yul\":9665:9672   */\n      dup7\n        /* \"#utility.yul\":9661:9684   */\n      sub\n        /* \"#utility.yul\":9657:9689   */\n      slt\n        /* \"#utility.yul\":9654:9773   */\n      iszero\n      tag_707\n      jumpi\n        /* \"#utility.yul\":9692:9771   */\n      tag_708\n      tag_550\n      jump\t// in\n    tag_708:\n        /* \"#utility.yul\":9654:9773   */\n    tag_707:\n        /* \"#utility.yul\":9840:9841   */\n      0x00\n        /* \"#utility.yul\":9829:9838   */\n      dup5\n        /* \"#utility.yul\":9825:9842   */\n      add\n        /* \"#utility.yul\":9812:9843   */\n      calldataload\n        /* \"#utility.yul\":9870:9888   */\n      0xffffffffffffffff\n        /* \"#utility.yul\":9862:9868   */\n      dup2\n        /* \"#utility.yul\":9859:9889   */\n      gt\n        /* \"#utility.yul\":9856:9973   */\n      iszero\n      tag_709\n      jumpi\n        /* \"#utility.yul\":9892:9971   */\n      tag_710\n      tag_551\n      jump\t// in\n    tag_710:\n        /* \"#utility.yul\":9856:9973   */\n    tag_709:\n        /* \"#utility.yul\":9997:10060   */\n      tag_711\n        /* \"#utility.yul\":10052:10059   */\n      dup7\n        /* \"#utility.yul\":10043:10049   */\n      dup3\n        /* \"#utility.yul\":10032:10041   */\n      dup8\n        /* \"#utility.yul\":10028:10050   */\n      add\n        /* \"#utility.yul\":9997:10060   */\n      tag_565\n      jump\t// in\n    tag_711:\n        /* \"#utility.yul\":9987:10060   */\n      swap4\n      pop\n        /* \"#utility.yul\":9783:10070   */\n      pop\n        /* \"#utility.yul\":10137:10139   */\n      0x20\n        /* \"#utility.yul\":10126:10135   */\n      dup5\n        /* \"#utility.yul\":10122:10140   */\n      add\n        /* \"#utility.yul\":10109:10141   */\n      calldataload\n        /* \"#utility.yul\":10168:10186   */\n      0xffffffffffffffff\n        /* \"#utility.yul\":10160:10166   */\n      dup2\n        /* \"#utility.yul\":10157:10187   */\n      gt\n        /* \"#utility.yul\":10154:10271   */\n      iszero\n      tag_712\n      jumpi\n        /* \"#utility.yul\":10190:10269   */\n      tag_713\n      tag_551\n      jump\t// in\n    tag_713:\n        /* \"#utility.yul\":10154:10271   */\n    tag_712:\n        /* \"#utility.yul\":10295:10358   */\n      tag_714\n        /* \"#utility.yul\":10350:10357   */\n      dup7\n        /* \"#utility.yul\":10341:10347   */\n      dup3\n        /* \"#utility.yul\":10330:10339   */\n      dup8\n        /* \"#utility.yul\":10326:10348   */\n      add\n        /* \"#utility.yul\":10295:10358   */\n      tag_565\n      jump\t// in\n    tag_714:\n        /* \"#utility.yul\":10285:10358   */\n      swap3\n      pop\n        /* \"#utility.yul\":10080:10368   */\n      pop\n        /* \"#utility.yul\":10407:10409   */\n      0x40\n        /* \"#utility.yul\":10433:10486   */\n      tag_715\n        /* \"#utility.yul\":10478:10485   */\n      dup7\n        /* \"#utility.yul\":10469:10475   */\n      dup3\n        /* \"#utility.yul\":10458:10467   */\n      dup8\n        /* \"#utility.yul\":10454:10476   */\n      add\n        /* \"#utility.yul\":10433:10486   */\n      tag_568\n      jump\t// in\n    tag_715:\n        /* \"#utility.yul\":10423:10486   */\n      swap2\n      pop\n        /* \"#utility.yul\":10378:10496   */\n      pop\n        /* \"#utility.yul\":9524:10503   */\n      swap3\n      pop\n      swap3\n      pop\n      swap3\n      jump\t// out\n        /* \"#utility.yul\":10509:10975   */\n    tag_78:\n        /* \"#utility.yul\":10573:10579   */\n      0x00\n        /* \"#utility.yul\":10581:10587   */\n      dup1\n        /* \"#utility.yul\":10630:10632   */\n      0x40\n        /* \"#utility.yul\":10618:10627   */\n      dup4\n        /* \"#utility.yul\":10609:10616   */\n      dup6\n        /* \"#utility.yul\":10605:10628   */\n      sub\n        /* \"#utility.yul\":10601:10633   */\n      slt\n        /* \"#utility.yul\":10598:10717   */\n      iszero\n      tag_717\n      jumpi\n        /* \"#utility.yul\":10636:10715   */\n      tag_718\n      tag_550\n      jump\t// in\n    tag_718:\n        /* \"#utility.yul\":10598:10717   */\n    tag_717:\n        /* \"#utility.yul\":10756:10757   */\n      0x00\n        /* \"#utility.yul\":10781:10832   */\n      tag_719\n        /* \"#utility.yul\":10824:10831   */\n      dup6\n        /* \"#utility.yul\":10815:10821   */\n      dup3\n        /* \"#utility.yul\":10804:10813   */\n      dup7\n        /* \"#utility.yul\":10800:10822   */\n      add\n        /* \"#utility.yul\":10781:10832   */\n      tag_579\n      jump\t// in\n    tag_719:\n        /* \"#utility.yul\":10771:10832   */\n      swap3\n      pop\n        /* \"#utility.yul\":10727:10842   */\n      pop\n        /* \"#utility.yul\":10881:10883   */\n      0x20\n        /* \"#utility.yul\":10907:10958   */\n      tag_720\n        /* \"#utility.yul\":10950:10957   */\n      dup6\n        /* \"#utility.yul\":10941:10947   */\n      dup3\n        /* \"#utility.yul\":10930:10939   */\n      dup7\n        /* \"#utility.yul\":10926:10948   */\n      add\n        /* \"#utility.yul\":10907:10958   */\n      tag_579\n      jump\t// in\n    tag_720:\n        /* \"#utility.yul\":10897:10958   */\n      swap2\n      pop\n        /* \"#utility.yul\":10852:10968   */\n      pop\n        /* \"#utility.yul\":10509:10975   */\n      swap3\n      pop\n      swap3\n      swap1\n      pop\n      jump\t// out\n        /* \"#utility.yul\":10981:11502   */\n    tag_81:\n        /* \"#utility.yul\":11142:11146   */\n      0x00\n        /* \"#utility.yul\":11180:11183   */\n      0x80\n        /* \"#utility.yul\":11169:11178   */\n      dup3\n        /* \"#utility.yul\":11165:11184   */\n      add\n        /* \"#utility.yul\":11157:11184   */\n      swap1\n      pop\n        /* \"#utility.yul\":11194:11261   */\n      tag_722\n        /* \"#utility.yul\":11258:11259   */\n      0x00\n        /* \"#utility.yul\":11247:11256   */\n      dup4\n        /* \"#utility.yul\":11243:11260   */\n      add\n        /* \"#utility.yul\":11234:11240   */\n      dup8\n        /* \"#utility.yul\":11194:11261   */\n      tag_580\n      jump\t// in\n    tag_722:\n        /* \"#utility.yul\":11271:11343   */\n      tag_723\n        /* \"#utility.yul\":11339:11341   */\n      0x20\n        /* \"#utility.yul\":11328:11337   */\n      dup4\n        /* \"#utility.yul\":11324:11342   */\n      add\n        /* \"#utility.yul\":11315:11321   */\n      dup7\n        /* \"#utility.yul\":11271:11343   */\n      tag_571\n      jump\t// in\n    tag_723:\n        /* \"#utility.yul\":11353:11419   */\n      tag_724\n        /* \"#utility.yul\":11415:11417   */\n      0x40\n        /* \"#utility.yul\":11404:11413   */\n      dup4\n        /* \"#utility.yul\":11400:11418   */\n      add\n        /* \"#utility.yul\":11391:11397   */\n      dup6\n        /* \"#utility.yul\":11353:11419   */\n      tag_570\n      jump\t// in\n    tag_724:\n        /* \"#utility.yul\":11429:11495   */\n      tag_725\n        /* \"#utility.yul\":11491:11493   */\n      0x60\n        /* \"#utility.yul\":11480:11489   */\n      dup4\n        /* \"#utility.yul\":11476:11494   */\n      add\n        /* \"#utility.yul\":11467:11473   */\n      dup5\n        /* \"#utility.yul\":11429:11495   */\n      tag_570\n      jump\t// in\n    tag_725:\n        /* \"#utility.yul\":10981:11502   */\n      swap6\n      swap5\n      pop\n      pop\n      pop\n      pop\n      pop\n      jump\t// out\n        /* \"#utility.yul\":11508:12119   */\n    tag_84:\n        /* \"#utility.yul\":11581:11587   */\n      0x00\n        /* \"#utility.yul\":11589:11595   */\n      dup1\n        /* \"#utility.yul\":11597:11603   */\n      0x00\n        /* \"#utility.yul\":11646:11648   */\n      0x60\n        /* \"#utility.yul\":11634:11643   */\n      dup5\n        /* \"#utility.yul\":11625:11632   */\n      dup7\n        /* \"#utility.yul\":11621:11644   */\n      sub\n        /* \"#utility.yul\":11617:11649   */\n      slt\n        /* \"#utility.yul\":11614:11733   */\n      iszero\n      tag_727\n      jumpi\n        /* \"#utility.yul\":11652:11731   */\n      tag_728\n      tag_550\n      jump\t// in\n    tag_728:\n        /* \"#utility.yul\":11614:11733   */\n    tag_727:\n        /* \"#utility.yul\":11772:11773   */\n      0x00\n        /* \"#utility.yul\":11797:11848   */\n      tag_729\n        /* \"#utility.yul\":11840:11847   */\n      dup7\n        /* \"#utility.yul\":11831:11837   */\n      dup3\n        /* \"#utility.yul\":11820:11829   */\n      dup8\n        /* \"#utility.yul\":11816:11838   */\n      add\n        /* \"#utility.yul\":11797:11848   */\n      tag_579\n      jump\t// in\n    tag_729:\n        /* \"#utility.yul\":11787:11848   */\n      swap4\n      pop\n        /* \"#utility.yul\":11743:11858   */\n      pop\n        /* \"#utility.yul\":11897:11899   */\n      0x20\n        /* \"#utility.yul\":11923:11974   */\n      tag_730\n        /* \"#utility.yul\":11966:11973   */\n      dup7\n        /* \"#utility.yul\":11957:11963   */\n      dup3\n        /* \"#utility.yul\":11946:11955   */\n      dup8\n        /* \"#utility.yul\":11942:11964   */\n      add\n        /* \"#utility.yul\":11923:11974   */\n      tag_579\n      jump\t// in\n    tag_730:\n        /* \"#utility.yul\":11913:11974   */\n      swap3\n      pop\n        /* \"#utility.yul\":11868:11984   */\n      pop\n        /* \"#utility.yul\":12023:12025   */\n      0x40\n        /* \"#utility.yul\":12049:12102   */\n      tag_731\n        /* \"#utility.yul\":12094:12101   */\n      dup7\n        /* \"#utility.yul\":12085:12091   */\n      dup3\n        /* \"#utility.yul\":12074:12083   */\n      dup8\n        /* \"#utility.yul\":12070:12092   */\n      add\n        /* \"#utility.yul\":12049:12102   */\n      tag_568\n      jump\t// in\n    tag_731:\n        /* \"#utility.yul\":12039:12102   */\n      swap2\n      pop\n        /* \"#utility.yul\":11994:12112   */\n      pop\n        /* \"#utility.yul\":11508:12119   */\n      swap3\n      pop\n      swap3\n      pop\n      swap3\n      jump\t// out\n        /* \"#utility.yul\":12125:12241   */\n    tag_581:\n        /* \"#utility.yul\":12195:12216   */\n      tag_733\n        /* \"#utility.yul\":12210:12215   */\n      dup2\n        /* \"#utility.yul\":12195:12216   */\n      tag_569\n      jump\t// in\n    tag_733:\n        /* \"#utility.yul\":12188:12193   */\n      dup2\n        /* \"#utility.yul\":12185:12217   */\n      eq\n        /* \"#utility.yul\":12175:12235   */\n      tag_734\n      jumpi\n        /* \"#utility.yul\":12231:12232   */\n      0x00\n        /* \"#utility.yul\":12228:12229   */\n      dup1\n        /* \"#utility.yul\":12221:12233   */\n      revert\n        /* \"#utility.yul\":12175:12235   */\n    tag_734:\n        /* \"#utility.yul\":12125:12241   */\n      pop\n      jump\t// out\n        /* \"#utility.yul\":12247:12380   */\n    tag_582:\n        /* \"#utility.yul\":12290:12295   */\n      0x00\n        /* \"#utility.yul\":12328:12334   */\n      dup2\n        /* \"#utility.yul\":12315:12335   */\n      calldataload\n        /* \"#utility.yul\":12306:12335   */\n      swap1\n      pop\n        /* \"#utility.yul\":12344:12374   */\n      tag_736\n        /* \"#utility.yul\":12368:12373   */\n      dup2\n        /* \"#utility.yul\":12344:12374   */\n      tag_581\n      jump\t// in\n    tag_736:\n        /* \"#utility.yul\":12247:12380   */\n      swap3\n      swap2\n      pop\n      pop\n      jump\t// out\n        /* \"#utility.yul\":12386:12995   */\n    tag_88:\n        /* \"#utility.yul\":12458:12464   */\n      0x00\n        /* \"#utility.yul\":12466:12472   */\n      dup1\n        /* \"#utility.yul\":12474:12480   */\n      0x00\n        /* \"#utility.yul\":12523:12525   */\n      0x60\n        /* \"#utility.yul\":12511:12520   */\n      dup5\n        /* \"#utility.yul\":12502:12509   */\n      dup7\n        /* \"#utility.yul\":12498:12521   */\n      sub\n        /* \"#utility.yul\":12494:12526   */\n      slt\n        /* \"#utility.yul\":12491:12610   */\n      iszero\n      tag_738\n      jumpi\n        /* \"#utility.yul\":12529:12608   */\n      tag_739\n      tag_550\n      jump\t// in\n    tag_739:\n        /* \"#utility.yul\":12491:12610   */\n    tag_738:\n        /* \"#utility.yul\":12649:12650   */\n      0x00\n        /* \"#utility.yul\":12674:12725   */\n      tag_740\n        /* \"#utility.yul\":12717:12724   */\n      dup7\n        /* \"#utility.yul\":12708:12714   */\n      dup3\n        /* \"#utility.yul\":12697:12706   */\n      dup8\n        /* \"#utility.yul\":12693:12715   */\n      add\n        /* \"#utility.yul\":12674:12725   */\n      tag_579\n      jump\t// in\n    tag_740:\n        /* \"#utility.yul\":12664:12725   */\n      swap4\n      pop\n        /* \"#utility.yul\":12620:12735   */\n      pop\n        /* \"#utility.yul\":12774:12776   */\n      0x20\n        /* \"#utility.yul\":12800:12850   */\n      tag_741\n        /* \"#utility.yul\":12842:12849   */\n      dup7\n        /* \"#utility.yul\":12833:12839   */\n      dup3\n        /* \"#utility.yul\":12822:12831   */\n      dup8\n        /* \"#utility.yul\":12818:12840   */\n      add\n        /* \"#utility.yul\":12800:12850   */\n      tag_582\n      jump\t// in\n    tag_741:\n        /* \"#utility.yul\":12790:12850   */\n      swap3\n      pop\n        /* \"#utility.yul\":12745:12860   */\n      pop\n        /* \"#utility.yul\":12899:12901   */\n      0x40\n        /* \"#utility.yul\":12925:12978   */\n      tag_742\n        /* \"#utility.yul\":12970:12977   */\n      dup7\n        /* \"#utility.yul\":12961:12967   */\n      dup3\n        /* \"#utility.yul\":12950:12959   */\n      dup8\n        /* \"#utility.yul\":12946:12968   */\n      add\n        /* \"#utility.yul\":12925:12978   */\n      tag_568\n      jump\t// in\n    tag_742:\n        /* \"#utility.yul\":12915:12978   */\n      swap2\n      pop\n        /* \"#utility.yul\":12870:12988   */\n      pop\n        /* \"#utility.yul\":12386:12995   */\n      swap3\n      pop\n      swap3\n      pop\n      swap3\n      jump\t// out\n        /* \"#utility.yul\":13001:13835   */\n    tag_92:\n        /* \"#utility.yul\":13089:13095   */\n      0x00\n        /* \"#utility.yul\":13097:13103   */\n      dup1\n        /* \"#utility.yul\":13146:13148   */\n      0x40\n        /* \"#utility.yul\":13134:13143   */\n      dup4\n        /* \"#utility.yul\":13125:13132   */\n      dup6\n        /* \"#utility.yul\":13121:13144   */\n      sub\n        /* \"#utility.yul\":13117:13149   */\n      slt\n        /* \"#utility.yul\":13114:13233   */\n      iszero\n      tag_744\n      jumpi\n        /* \"#utility.yul\":13152:13231   */\n      tag_745\n      tag_550\n      jump\t// in\n    tag_745:\n        /* \"#utility.yul\":13114:13233   */\n    tag_744:\n        /* \"#utility.yul\":13300:13301   */\n      0x00\n        /* \"#utility.yul\":13289:13298   */\n      dup4\n        /* \"#utility.yul\":13285:13302   */\n      add\n        /* \"#utility.yul\":13272:13303   */\n      calldataload\n        /* \"#utility.yul\":13330:13348   */\n      0xffffffffffffffff\n        /* \"#utility.yul\":13322:13328   */\n      dup2\n        /* \"#utility.yul\":13319:13349   */\n      gt\n        /* \"#utility.yul\":13316:13433   */\n      iszero\n      tag_746\n      jumpi\n        /* \"#utility.yul\":13352:13431   */\n      tag_747\n      tag_551\n      jump\t// in\n    tag_747:\n        /* \"#utility.yul\":13316:13433   */\n    tag_746:\n        /* \"#utility.yul\":13457:13520   */\n      tag_748\n        /* \"#utility.yul\":13512:13519   */\n      dup6\n        /* \"#utility.yul\":13503:13509   */\n      dup3\n        /* \"#utility.yul\":13492:13501   */\n      dup7\n        /* \"#utility.yul\":13488:13510   */\n      add\n        /* \"#utility.yul\":13457:13520   */\n      tag_565\n      jump\t// in\n    tag_748:\n        /* \"#utility.yul\":13447:13520   */\n      swap3\n      pop\n        /* \"#utility.yul\":13243:13530   */\n      pop\n        /* \"#utility.yul\":13597:13599   */\n      0x20\n        /* \"#utility.yul\":13586:13595   */\n      dup4\n        /* \"#utility.yul\":13582:13600   */\n      add\n        /* \"#utility.yul\":13569:13601   */\n      calldataload\n        /* \"#utility.yul\":13628:13646   */\n      0xffffffffffffffff\n        /* \"#utility.yul\":13620:13626   */\n      dup2\n        /* \"#utility.yul\":13617:13647   */\n      gt\n        /* \"#utility.yul\":13614:13731   */\n      iszero\n      tag_749\n      jumpi\n        /* \"#utility.yul\":13650:13729   */\n      tag_750\n      tag_551\n      jump\t// in\n    tag_750:\n        /* \"#utility.yul\":13614:13731   */\n    tag_749:\n        /* \"#utility.yul\":13755:13818   */\n      tag_751\n        /* \"#utility.yul\":13810:13817   */\n      dup6\n        /* \"#utility.yul\":13801:13807   */\n      dup3\n        /* \"#utility.yul\":13790:13799   */\n      dup7\n        /* \"#utility.yul\":13786:13808   */\n      add\n        /* \"#utility.yul\":13755:13818   */\n      tag_565\n      jump\t// in\n    tag_751:\n        /* \"#utility.yul\":13745:13818   */\n      swap2\n      pop\n        /* \"#utility.yul\":13540:13828   */\n      pop\n        /* \"#utility.yul\":13001:13835   */\n      swap3\n      pop\n      swap3\n      swap1\n      pop\n      jump\t// out\n        /* \"#utility.yul\":13841:15292   */\n    tag_101:\n        /* \"#utility.yul\":13966:13972   */\n      0x00\n        /* \"#utility.yul\":13974:13980   */\n      dup1\n        /* \"#utility.yul\":13982:13988   */\n      0x00\n        /* \"#utility.yul\":13990:13996   */\n      dup1\n        /* \"#utility.yul\":13998:14004   */\n      0x00\n        /* \"#utility.yul\":14047:14050   */\n      0xa0\n        /* \"#utility.yul\":14035:14044   */\n      dup7\n        /* \"#utility.yul\":14026:14033   */\n      dup9\n        /* \"#utility.yul\":14022:14045   */\n      sub\n        /* \"#utility.yul\":14018:14051   */\n      slt\n        /* \"#utility.yul\":14015:14135   */\n      iszero\n      tag_753\n      jumpi\n        /* \"#utility.yul\":14054:14133   */\n      tag_754\n      tag_550\n      jump\t// in\n    tag_754:\n        /* \"#utility.yul\":14015:14135   */\n    tag_753:\n        /* \"#utility.yul\":14174:14175   */\n      0x00\n        /* \"#utility.yul\":14199:14252   */\n      tag_755\n        /* \"#utility.yul\":14244:14251   */\n      dup9\n        /* \"#utility.yul\":14235:14241   */\n      dup3\n        /* \"#utility.yul\":14224:14233   */\n      dup10\n        /* \"#utility.yul\":14220:14242   */\n      add\n        /* \"#utility.yul\":14199:14252   */\n      tag_555\n      jump\t// in\n    tag_755:\n        /* \"#utility.yul\":14189:14252   */\n      swap6\n      pop\n        /* \"#utility.yul\":14145:14262   */\n      pop\n        /* \"#utility.yul\":14329:14331   */\n      0x20\n        /* \"#utility.yul\":14318:14327   */\n      dup7\n        /* \"#utility.yul\":14314:14332   */\n      add\n        /* \"#utility.yul\":14301:14333   */\n      calldataload\n        /* \"#utility.yul\":14360:14378   */\n      0xffffffffffffffff\n        /* \"#utility.yul\":14352:14358   */\n      dup2\n        /* \"#utility.yul\":14349:14379   */\n      gt\n        /* \"#utility.yul\":14346:14463   */\n      iszero\n      tag_756\n      jumpi\n        /* \"#utility.yul\":14382:14461   */\n      tag_757\n      tag_551\n      jump\t// in\n    tag_757:\n        /* \"#utility.yul\":14346:14463   */\n    tag_756:\n        /* \"#utility.yul\":14487:14550   */\n      tag_758\n        /* \"#utility.yul\":14542:14549   */\n      dup9\n        /* \"#utility.yul\":14533:14539   */\n      dup3\n        /* \"#utility.yul\":14522:14531   */\n      dup10\n        /* \"#utility.yul\":14518:14540   */\n      add\n        /* \"#utility.yul\":14487:14550   */\n      tag_565\n      jump\t// in\n    tag_758:\n        /* \"#utility.yul\":14477:14550   */\n      swap5\n      pop\n        /* \"#utility.yul\":14272:14560   */\n      pop\n        /* \"#utility.yul\":14627:14629   */\n      0x40\n        /* \"#utility.yul\":14616:14625   */\n      dup7\n        /* \"#utility.yul\":14612:14630   */\n      add\n        /* \"#utility.yul\":14599:14631   */\n      calldataload\n        /* \"#utility.yul\":14658:14676   */\n      0xffffffffffffffff\n        /* \"#utility.yul\":14650:14656   */\n      dup2\n        /* \"#utility.yul\":14647:14677   */\n      gt\n        /* \"#utility.yul\":14644:14761   */\n      iszero\n      tag_759\n      jumpi\n        /* \"#utility.yul\":14680:14759   */\n      tag_760\n      tag_551\n      jump\t// in\n    tag_760:\n        /* \"#utility.yul\":14644:14761   */\n    tag_759:\n        /* \"#utility.yul\":14785:14848   */\n      tag_761\n        /* \"#utility.yul\":14840:14847   */\n      dup9\n        /* \"#utility.yul\":14831:14837   */\n      dup3\n        /* \"#utility.yul\":14820:14829   */\n      dup10\n        /* \"#utility.yul\":14816:14838   */\n      add\n        /* \"#utility.yul\":14785:14848   */\n      tag_565\n      jump\t// in\n    tag_761:\n        /* \"#utility.yul\":14775:14848   */\n      swap4\n      pop\n        /* \"#utility.yul\":14570:14858   */\n      pop\n        /* \"#utility.yul\":14925:14927   */\n      0x60\n        /* \"#utility.yul\":14914:14923   */\n      dup7\n        /* \"#utility.yul\":14910:14928   */\n      add\n        /* \"#utility.yul\":14897:14929   */\n      calldataload\n        /* \"#utility.yul\":14956:14974   */\n      0xffffffffffffffff\n        /* \"#utility.yul\":14948:14954   */\n      dup2\n        /* \"#utility.yul\":14945:14975   */\n      gt\n        /* \"#utility.yul\":14942:15059   */\n      iszero\n      tag_762\n      jumpi\n        /* \"#utility.yul\":14978:15057   */\n      tag_763\n      tag_551\n      jump\t// in\n    tag_763:\n        /* \"#utility.yul\":14942:15059   */\n    tag_762:\n        /* \"#utility.yul\":15083:15146   */\n      tag_764\n        /* \"#utility.yul\":15138:15145   */\n      dup9\n        /* \"#utility.yul\":15129:15135   */\n      dup3\n        /* \"#utility.yul\":15118:15127   */\n      dup10\n        /* \"#utility.yul\":15114:15136   */\n      add\n        /* \"#utility.yul\":15083:15146   */\n      tag_565\n      jump\t// in\n    tag_764:\n        /* \"#utility.yul\":15073:15146   */\n      swap3\n      pop\n        /* \"#utility.yul\":14868:15156   */\n      pop\n        /* \"#utility.yul\":15195:15198   */\n      0x80\n        /* \"#utility.yul\":15222:15275   */\n      tag_765\n        /* \"#utility.yul\":15267:15274   */\n      dup9\n        /* \"#utility.yul\":15258:15264   */\n      dup3\n        /* \"#utility.yul\":15247:15256   */\n      dup10\n        /* \"#utility.yul\":15243:15265   */\n      add\n        /* \"#utility.yul\":15222:15275   */\n      tag_568\n      jump\t// in\n    tag_765:\n        /* \"#utility.yul\":15212:15275   */\n      swap2\n      pop\n        /* \"#utility.yul\":15166:15285   */\n      pop\n        /* \"#utility.yul\":13841:15292   */\n      swap3\n      swap6\n      pop\n      swap3\n      swap6\n      swap1\n      swap4\n      pop\n      jump\t// out\n        /* \"#utility.yul\":15298:15827   */\n    tag_110:\n        /* \"#utility.yul\":15463:15467   */\n      0x00\n        /* \"#utility.yul\":15501:15504   */\n      0x80\n        /* \"#utility.yul\":15490:15499   */\n      dup3\n        /* \"#utility.yul\":15486:15505   */\n      add\n        /* \"#utility.yul\":15478:15505   */\n      swap1\n      pop\n        /* \"#utility.yul\":15515:15582   */\n      tag_767\n        /* \"#utility.yul\":15579:15580   */\n      0x00\n        /* \"#utility.yul\":15568:15577   */\n      dup4\n        /* \"#utility.yul\":15564:15581   */\n      add\n        /* \"#utility.yul\":15555:15561   */\n      dup8\n        /* \"#utility.yul\":15515:15582   */\n      tag_580\n      jump\t// in\n    tag_767:\n        /* \"#utility.yul\":15592:15660   */\n      tag_768\n        /* \"#utility.yul\":15656:15658   */\n      0x20\n        /* \"#utility.yul\":15645:15654   */\n      dup4\n        /* \"#utility.yul\":15641:15659   */\n      add\n        /* \"#utility.yul\":15632:15638   */\n      dup7\n        /* \"#utility.yul\":15592:15660   */\n      tag_580\n      jump\t// in\n    tag_768:\n        /* \"#utility.yul\":15670:15738   */\n      tag_769\n        /* \"#utility.yul\":15734:15736   */\n      0x40\n        /* \"#utility.yul\":15723:15732   */\n      dup4\n        /* \"#utility.yul\":15719:15737   */\n      add\n        /* \"#utility.yul\":15710:15716   */\n      dup6\n        /* \"#utility.yul\":15670:15738   */\n      tag_580\n      jump\t// in\n    tag_769:\n        /* \"#utility.yul\":15748:15820   */\n      tag_770\n        /* \"#utility.yul\":15816:15818   */\n      0x60\n        /* \"#utility.yul\":15805:15814   */\n      dup4\n        /* \"#utility.yul\":15801:15819   */\n      add\n        /* \"#utility.yul\":15792:15798   */\n      dup5\n        /* \"#utility.yul\":15748:15820   */\n      tag_571\n      jump\t// in\n    tag_770:\n        /* \"#utility.yul\":15298:15827   */\n      swap6\n      swap5\n      pop\n      pop\n      pop\n      pop\n      pop\n      jump\t// out\n        /* \"#utility.yul\":15833:16632   */\n    tag_113:\n        /* \"#utility.yul\":15920:15926   */\n      0x00\n        /* \"#utility.yul\":15928:15934   */\n      dup1\n        /* \"#utility.yul\":15936:15942   */\n      0x00\n        /* \"#utility.yul\":15985:15987   */\n      0x60\n        /* \"#utility.yul\":15973:15982   */\n      dup5\n        /* \"#utility.yul\":15964:15971   */\n      dup7\n        /* \"#utility.yul\":15960:15983   */\n      sub\n        /* \"#utility.yul\":15956:15988   */\n      slt\n        /* \"#utility.yul\":15953:16072   */\n      iszero\n      tag_772\n      jumpi\n        /* \"#utility.yul\":15991:16070   */\n      tag_773\n      tag_550\n      jump\t// in\n    tag_773:\n        /* \"#utility.yul\":15953:16072   */\n    tag_772:\n        /* \"#utility.yul\":16111:16112   */\n      0x00\n        /* \"#utility.yul\":16136:16189   */\n      tag_774\n        /* \"#utility.yul\":16181:16188   */\n      dup7\n        /* \"#utility.yul\":16172:16178   */\n      dup3\n        /* \"#utility.yul\":16161:16170   */\n      dup8\n        /* \"#utility.yul\":16157:16179   */\n      add\n        /* \"#utility.yul\":16136:16189   */\n      tag_568\n      jump\t// in\n    tag_774:\n        /* \"#utility.yul\":16126:16189   */\n      swap4\n      pop\n        /* \"#utility.yul\":16082:16199   */\n      pop\n        /* \"#utility.yul\":16266:16268   */\n      0x20\n        /* \"#utility.yul\":16255:16264   */\n      dup5\n        /* \"#utility.yul\":16251:16269   */\n      add\n        /* \"#utility.yul\":16238:16270   */\n      calldataload\n        /* \"#utility.yul\":16297:16315   */\n      0xffffffffffffffff\n        /* \"#utility.yul\":16289:16295   */\n      dup2\n        /* \"#utility.yul\":16286:16316   */\n      gt\n        /* \"#utility.yul\":16283:16400   */\n      iszero\n      tag_775\n      jumpi\n        /* \"#utility.yul\":16319:16398   */\n      tag_776\n      tag_551\n      jump\t// in\n    tag_776:\n        /* \"#utility.yul\":16283:16400   */\n    tag_775:\n        /* \"#utility.yul\":16424:16487   */\n      tag_777\n        /* \"#utility.yul\":16479:16486   */\n      dup7\n        /* \"#utility.yul\":16470:16476   */\n      dup3\n        /* \"#utility.yul\":16459:16468   */\n      dup8\n        /* \"#utility.yul\":16455:16477   */\n      add\n        /* \"#utility.yul\":16424:16487   */\n      tag_565\n      jump\t// in\n    tag_777:\n        /* \"#utility.yul\":16414:16487   */\n      swap3\n      pop\n        /* \"#utility.yul\":16209:16497   */\n      pop\n        /* \"#utility.yul\":16536:16538   */\n      0x40\n        /* \"#utility.yul\":16562:16615   */\n      tag_778\n        /* \"#utility.yul\":16607:16614   */\n      dup7\n        /* \"#utility.yul\":16598:16604   */\n      dup3\n        /* \"#utility.yul\":16587:16596   */\n      dup8\n        /* \"#utility.yul\":16583:16605   */\n      add\n        /* \"#utility.yul\":16562:16615   */\n      tag_568\n      jump\t// in\n    tag_778:\n        /* \"#utility.yul\":16552:16615   */\n      swap2\n      pop\n        /* \"#utility.yul\":16507:16625   */\n      pop\n        /* \"#utility.yul\":15833:16632   */\n      swap3\n      pop\n      swap3\n      pop\n      swap3\n      jump\t// out\n        /* \"#utility.yul\":16638:16963   */\n    tag_117:\n        /* \"#utility.yul\":16695:16701   */\n      0x00\n        /* \"#utility.yul\":16744:16746   */\n      0x20\n        /* \"#utility.yul\":16732:16741   */\n      dup3\n        /* \"#utility.yul\":16723:16730   */\n      dup5\n        /* \"#utility.yul\":16719:16742   */\n      sub\n        /* \"#utility.yul\":16715:16747   */\n      slt\n        /* \"#utility.yul\":16712:16831   */\n      iszero\n      tag_780\n      jumpi\n        /* \"#utility.yul\":16750:16829   */\n      tag_781\n      tag_550\n      jump\t// in\n    tag_781:\n        /* \"#utility.yul\":16712:16831   */\n    tag_780:\n        /* \"#utility.yul\":16870:16871   */\n      0x00\n        /* \"#utility.yul\":16895:16946   */\n      tag_782\n        /* \"#utility.yul\":16938:16945   */\n      dup5\n        /* \"#utility.yul\":16929:16935   */\n      dup3\n        /* \"#utility.yul\":16918:16927   */\n      dup6\n        /* \"#utility.yul\":16914:16936   */\n      add\n        /* \"#utility.yul\":16895:16946   */\n      tag_579\n      jump\t// in\n    tag_782:\n        /* \"#utility.yul\":16885:16946   */\n      swap2\n      pop\n        /* \"#utility.yul\":16841:16956   */\n      pop\n        /* \"#utility.yul\":16638:16963   */\n      swap3\n      swap2\n      pop\n      pop\n      jump\t// out\n        /* \"#utility.yul\":16969:18052   */\n    tag_126:\n        /* \"#utility.yul\":17070:17076   */\n      0x00\n        /* \"#utility.yul\":17078:17084   */\n      dup1\n        /* \"#utility.yul\":17086:17092   */\n      0x00\n        /* \"#utility.yul\":17094:17100   */\n      dup1\n        /* \"#utility.yul\":17102:17108   */\n      0x00\n        /* \"#utility.yul\":17151:17154   */\n      0xa0\n        /* \"#utility.yul\":17139:17148   */\n      dup7\n        /* \"#utility.yul\":17130:17137   */\n      dup9\n        /* \"#utility.yul\":17126:17149   */\n      sub\n        /* \"#utility.yul\":17122:17155   */\n      slt\n        /* \"#utility.yul\":17119:17239   */\n      iszero\n      tag_784\n      jumpi\n        /* \"#utility.yul\":17158:17237   */\n      tag_785\n      tag_550\n      jump\t// in\n    tag_785:\n        /* \"#utility.yul\":17119:17239   */\n    tag_784:\n        /* \"#utility.yul\":17278:17279   */\n      0x00\n        /* \"#utility.yul\":17303:17356   */\n      tag_786\n        /* \"#utility.yul\":17348:17355   */\n      dup9\n        /* \"#utility.yul\":17339:17345   */\n      dup3\n        /* \"#utility.yul\":17328:17337   */\n      dup10\n        /* \"#utility.yul\":17324:17346   */\n      add\n        /* \"#utility.yul\":17303:17356   */\n      tag_555\n      jump\t// in\n    tag_786:\n        /* \"#utility.yul\":17293:17356   */\n      swap6\n      pop\n        /* \"#utility.yul\":17249:17366   */\n      pop\n        /* \"#utility.yul\":17433:17435   */\n      0x20\n        /* \"#utility.yul\":17422:17431   */\n      dup7\n        /* \"#utility.yul\":17418:17436   */\n      add\n        /* \"#utility.yul\":17405:17437   */\n      calldataload\n        /* \"#utility.yul\":17464:17482   */\n      0xffffffffffffffff\n        /* \"#utility.yul\":17456:17462   */\n      dup2\n        /* \"#utility.yul\":17453:17483   */\n      gt\n        /* \"#utility.yul\":17450:17567   */\n      iszero\n      tag_787\n      jumpi\n        /* \"#utility.yul\":17486:17565   */\n      tag_788\n      tag_551\n      jump\t// in\n    tag_788:\n        /* \"#utility.yul\":17450:17567   */\n    tag_787:\n        /* \"#utility.yul\":17591:17654   */\n      tag_789\n        /* \"#utility.yul\":17646:17653   */\n      dup9\n        /* \"#utility.yul\":17637:17643   */\n      dup3\n        /* \"#utility.yul\":17626:17635   */\n      dup10\n        /* \"#utility.yul\":17622:17644   */\n      add\n        /* \"#utility.yul\":17591:17654   */\n      tag_565\n      jump\t// in\n    tag_789:\n        /* \"#utility.yul\":17581:17654   */\n      swap5\n      pop\n        /* \"#utility.yul\":17376:17664   */\n      pop\n        /* \"#utility.yul\":17703:17705   */\n      0x40\n        /* \"#utility.yul\":17729:17780   */\n      tag_790\n        /* \"#utility.yul\":17772:17779   */\n      dup9\n        /* \"#utility.yul\":17763:17769   */\n      dup3\n        /* \"#utility.yul\":17752:17761   */\n      dup10\n        /* \"#utility.yul\":17748:17770   */\n      add\n        /* \"#utility.yul\":17729:17780   */\n      tag_579\n      jump\t// in\n    tag_790:\n        /* \"#utility.yul\":17719:17780   */\n      swap4\n      pop\n        /* \"#utility.yul\":17674:17790   */\n      pop\n        /* \"#utility.yul\":17829:17831   */\n      0x60\n        /* \"#utility.yul\":17855:17906   */\n      tag_791\n        /* \"#utility.yul\":17898:17905   */\n      dup9\n        /* \"#utility.yul\":17889:17895   */\n      dup3\n        /* \"#utility.yul\":17878:17887   */\n      dup10\n        /* \"#utility.yul\":17874:17896   */\n      add\n        /* \"#utility.yul\":17855:17906   */\n      tag_579\n      jump\t// in\n    tag_791:\n        /* \"#utility.yul\":17845:17906   */\n      swap3\n      pop\n        /* \"#utility.yul\":17800:17916   */\n      pop\n        /* \"#utility.yul\":17955:17958   */\n      0x80\n        /* \"#utility.yul\":17982:18035   */\n      tag_792\n        /* \"#utility.yul\":18027:18034   */\n      dup9\n        /* \"#utility.yul\":18018:18024   */\n      dup3\n        /* \"#utility.yul\":18007:18016   */\n      dup10\n        /* \"#utility.yul\":18003:18025   */\n      add\n        /* \"#utility.yul\":17982:18035   */\n      tag_568\n      jump\t// in\n    tag_792:\n        /* \"#utility.yul\":17972:18035   */\n      swap2\n      pop\n        /* \"#utility.yul\":17926:18045   */\n      pop\n        /* \"#utility.yul\":16969:18052   */\n      swap3\n      swap6\n      pop\n      swap3\n      swap6\n      swap1\n      swap4\n      pop\n      jump\t// out\n        /* \"#utility.yul\":18058:18476   */\n    tag_136:\n        /* \"#utility.yul\":18195:18199   */\n      0x00\n        /* \"#utility.yul\":18233:18235   */\n      0x60\n        /* \"#utility.yul\":18222:18231   */\n      dup3\n        /* \"#utility.yul\":18218:18236   */\n      add\n        /* \"#utility.yul\":18210:18236   */\n      swap1\n      pop\n        /* \"#utility.yul\":18246:18313   */\n      tag_794\n        /* \"#utility.yul\":18310:18311   */\n      0x00\n        /* \"#utility.yul\":18299:18308   */\n      dup4\n        /* \"#utility.yul\":18295:18312   */\n      add\n        /* \"#utility.yul\":18286:18292   */\n      dup7\n        /* \"#utility.yul\":18246:18313   */\n      tag_580\n      jump\t// in\n    tag_794:\n        /* \"#utility.yul\":18323:18391   */\n      tag_795\n        /* \"#utility.yul\":18387:18389   */\n      0x20\n        /* \"#utility.yul\":18376:18385   */\n      dup4\n        /* \"#utility.yul\":18372:18390   */\n      add\n        /* \"#utility.yul\":18363:18369   */\n      dup6\n        /* \"#utility.yul\":18323:18391   */\n      tag_580\n      jump\t// in\n    tag_795:\n        /* \"#utility.yul\":18401:18469   */\n      tag_796\n        /* \"#utility.yul\":18465:18467   */\n      0x40\n        /* \"#utility.yul\":18454:18463   */\n      dup4\n        /* \"#utility.yul\":18450:18468   */\n      add\n        /* \"#utility.yul\":18441:18447   */\n      dup5\n        /* \"#utility.yul\":18401:18469   */\n      tag_580\n      jump\t// in\n    tag_796:\n        /* \"#utility.yul\":18058:18476   */\n      swap5\n      swap4\n      pop\n      pop\n      pop\n      pop\n      jump\t// out\n        /* \"#utility.yul\":18482:19098   */\n    tag_147:\n        /* \"#utility.yul\":18667:18671   */\n      0x00\n        /* \"#utility.yul\":18705:18707   */\n      0x60\n        /* \"#utility.yul\":18694:18703   */\n      dup3\n        /* \"#utility.yul\":18690:18708   */\n      add\n        /* \"#utility.yul\":18682:18708   */\n      swap1\n      pop\n        /* \"#utility.yul\":18718:18785   */\n      tag_798\n        /* \"#utility.yul\":18782:18783   */\n      0x00\n        /* \"#utility.yul\":18771:18780   */\n      dup4\n        /* \"#utility.yul\":18767:18784   */\n      add\n        /* \"#utility.yul\":18758:18764   */\n      dup7\n        /* \"#utility.yul\":18718:18785   */\n      tag_580\n      jump\t// in\n    tag_798:\n        /* \"#utility.yul\":18832:18841   */\n      dup2\n        /* \"#utility.yul\":18826:18830   */\n      dup2\n        /* \"#utility.yul\":18822:18842   */\n      sub\n        /* \"#utility.yul\":18817:18819   */\n      0x20\n        /* \"#utility.yul\":18806:18815   */\n      dup4\n        /* \"#utility.yul\":18802:18820   */\n      add\n        /* \"#utility.yul\":18795:18843   */\n      mstore\n        /* \"#utility.yul\":18860:18938   */\n      tag_799\n        /* \"#utility.yul\":18933:18937   */\n      dup2\n        /* \"#utility.yul\":18924:18930   */\n      dup6\n        /* \"#utility.yul\":18860:18938   */\n      tag_576\n      jump\t// in\n    tag_799:\n        /* \"#utility.yul\":18852:18938   */\n      swap1\n      pop\n        /* \"#utility.yul\":18985:18994   */\n      dup2\n        /* \"#utility.yul\":18979:18983   */\n      dup2\n        /* \"#utility.yul\":18975:18995   */\n      sub\n        /* \"#utility.yul\":18970:18972   */\n      0x40\n        /* \"#utility.yul\":18959:18968   */\n      dup4\n        /* \"#utility.yul\":18955:18973   */\n      add\n        /* \"#utility.yul\":18948:18996   */\n      mstore\n        /* \"#utility.yul\":19013:19091   */\n      tag_800\n        /* \"#utility.yul\":19086:19090   */\n      dup2\n        /* \"#utility.yul\":19077:19083   */\n      dup5\n        /* \"#utility.yul\":19013:19091   */\n      tag_576\n      jump\t// in\n    tag_800:\n        /* \"#utility.yul\":19005:19091   */\n      swap1\n      pop\n        /* \"#utility.yul\":18482:19098   */\n      swap5\n      swap4\n      pop\n      pop\n      pop\n      pop\n      jump\t// out\n        /* \"#utility.yul\":19104:20229   */\n    tag_150:\n        /* \"#utility.yul\":19210:19216   */\n      0x00\n        /* \"#utility.yul\":19218:19224   */\n      dup1\n        /* \"#utility.yul\":19226:19232   */\n      0x00\n        /* \"#utility.yul\":19234:19240   */\n      dup1\n        /* \"#utility.yul\":19283:19286   */\n      0x80\n        /* \"#utility.yul\":19271:19280   */\n      dup6\n        /* \"#utility.yul\":19262:19269   */\n      dup8\n        /* \"#utility.yul\":19258:19281   */\n      sub\n        /* \"#utility.yul\":19254:19287   */\n      slt\n        /* \"#utility.yul\":19251:19371   */\n      iszero\n      tag_802\n      jumpi\n        /* \"#utility.yul\":19290:19369   */\n      tag_803\n      tag_550\n      jump\t// in\n    tag_803:\n        /* \"#utility.yul\":19251:19371   */\n    tag_802:\n        /* \"#utility.yul\":19410:19411   */\n      0x00\n        /* \"#utility.yul\":19435:19488   */\n      tag_804\n        /* \"#utility.yul\":19480:19487   */\n      dup8\n        /* \"#utility.yul\":19471:19477   */\n      dup3\n        /* \"#utility.yul\":19460:19469   */\n      dup9\n        /* \"#utility.yul\":19456:19478   */\n      add\n        /* \"#utility.yul\":19435:19488   */\n      tag_568\n      jump\t// in\n    tag_804:\n        /* \"#utility.yul\":19425:19488   */\n      swap5\n      pop\n        /* \"#utility.yul\":19381:19498   */\n      pop\n        /* \"#utility.yul\":19565:19567   */\n      0x20\n        /* \"#utility.yul\":19554:19563   */\n      dup6\n        /* \"#utility.yul\":19550:19568   */\n      add\n        /* \"#utility.yul\":19537:19569   */\n      calldataload\n        /* \"#utility.yul\":19596:19614   */\n      0xffffffffffffffff\n        /* \"#utility.yul\":19588:19594   */\n      dup2\n        /* \"#utility.yul\":19585:19615   */\n      gt\n        /* \"#utility.yul\":19582:19699   */\n      iszero\n      tag_805\n      jumpi\n        /* \"#utility.yul\":19618:19697   */\n      tag_806\n      tag_551\n      jump\t// in\n    tag_806:\n        /* \"#utility.yul\":19582:19699   */\n    tag_805:\n        /* \"#utility.yul\":19723:19786   */\n      tag_807\n        /* \"#utility.yul\":19778:19785   */\n      dup8\n        /* \"#utility.yul\":19769:19775   */\n      dup3\n        /* \"#utility.yul\":19758:19767   */\n      dup9\n        /* \"#utility.yul\":19754:19776   */\n      add\n        /* \"#utility.yul\":19723:19786   */\n      tag_565\n      jump\t// in\n    tag_807:\n        /* \"#utility.yul\":19713:19786   */\n      swap4\n      pop\n        /* \"#utility.yul\":19508:19796   */\n      pop\n        /* \"#utility.yul\":19863:19865   */\n      0x40\n        /* \"#utility.yul\":19852:19861   */\n      dup6\n        /* \"#utility.yul\":19848:19866   */\n      add\n        /* \"#utility.yul\":19835:19867   */\n      calldataload\n        /* \"#utility.yul\":19894:19912   */\n      0xffffffffffffffff\n        /* \"#utility.yul\":19886:19892   */\n      dup2\n        /* \"#utility.yul\":19883:19913   */\n      gt\n        /* \"#utility.yul\":19880:19997   */\n      iszero\n      tag_808\n      jumpi\n        /* \"#utility.yul\":19916:19995   */\n      tag_809\n      tag_551\n      jump\t// in\n    tag_809:\n        /* \"#utility.yul\":19880:19997   */\n    tag_808:\n        /* \"#utility.yul\":20021:20084   */\n      tag_810\n        /* \"#utility.yul\":20076:20083   */\n      dup8\n        /* \"#utility.yul\":20067:20073   */\n      dup3\n        /* \"#utility.yul\":20056:20065   */\n      dup9\n        /* \"#utility.yul\":20052:20074   */\n      add\n        /* \"#utility.yul\":20021:20084   */\n      tag_565\n      jump\t// in\n    tag_810:\n        /* \"#utility.yul\":20011:20084   */\n      swap3\n      pop\n        /* \"#utility.yul\":19806:20094   */\n      pop\n        /* \"#utility.yul\":20133:20135   */\n      0x60\n        /* \"#utility.yul\":20159:20212   */\n      tag_811\n        /* \"#utility.yul\":20204:20211   */\n      dup8\n        /* \"#utility.yul\":20195:20201   */\n      dup3\n        /* \"#utility.yul\":20184:20193   */\n      dup9\n        /* \"#utility.yul\":20180:20202   */\n      add\n        /* \"#utility.yul\":20159:20212   */\n      tag_568\n      jump\t// in\n    tag_811:\n        /* \"#utility.yul\":20149:20212   */\n      swap2\n      pop\n        /* \"#utility.yul\":20104:20222   */\n      pop\n        /* \"#utility.yul\":19104:20229   */\n      swap3\n      swap6\n      swap2\n      swap5\n      pop\n      swap3\n      pop\n      jump\t// out\n        /* \"#utility.yul\":20235:20744   */\n    tag_154:\n        /* \"#utility.yul\":20304:20310   */\n      0x00\n        /* \"#utility.yul\":20353:20355   */\n      0x20\n        /* \"#utility.yul\":20341:20350   */\n      dup3\n        /* \"#utility.yul\":20332:20339   */\n      dup5\n        /* \"#utility.yul\":20328:20351   */\n      sub\n        /* \"#utility.yul\":20324:20356   */\n      slt\n        /* \"#utility.yul\":20321:20440   */\n      iszero\n      tag_813\n      jumpi\n        /* \"#utility.yul\":20359:20438   */\n      tag_814\n      tag_550\n      jump\t// in\n    tag_814:\n        /* \"#utility.yul\":20321:20440   */\n    tag_813:\n        /* \"#utility.yul\":20507:20508   */\n      0x00\n        /* \"#utility.yul\":20496:20505   */\n      dup3\n        /* \"#utility.yul\":20492:20509   */\n      add\n        /* \"#utility.yul\":20479:20510   */\n      calldataload\n        /* \"#utility.yul\":20537:20555   */\n      0xffffffffffffffff\n        /* \"#utility.yul\":20529:20535   */\n      dup2\n        /* \"#utility.yul\":20526:20556   */\n      gt\n        /* \"#utility.yul\":20523:20640   */\n      iszero\n      tag_815\n      jumpi\n        /* \"#utility.yul\":20559:20638   */\n      tag_816\n      tag_551\n      jump\t// in\n    tag_816:\n        /* \"#utility.yul\":20523:20640   */\n    tag_815:\n        /* \"#utility.yul\":20664:20727   */\n      tag_817\n        /* \"#utility.yul\":20719:20726   */\n      dup5\n        /* \"#utility.yul\":20710:20716   */\n      dup3\n        /* \"#utility.yul\":20699:20708   */\n      dup6\n        /* \"#utility.yul\":20695:20717   */\n      add\n        /* \"#utility.yul\":20664:20727   */\n      tag_565\n      jump\t// in\n    tag_817:\n        /* \"#utility.yul\":20654:20727   */\n      swap2\n      pop\n        /* \"#utility.yul\":20450:20737   */\n      pop\n        /* \"#utility.yul\":20235:20744   */\n      swap3\n      swap2\n      pop\n      pop\n      jump\t// out\n        /* \"#utility.yul\":20750:20930   */\n    tag_583:\n        /* \"#utility.yul\":20798:20875   */\n      0x4e487b7100000000000000000000000000000000000000000000000000000000\n        /* \"#utility.yul\":20795:20796   */\n      0x00\n        /* \"#utility.yul\":20788:20876   */\n      mstore\n        /* \"#utility.yul\":20895:20899   */\n      0x11\n        /* \"#utility.yul\":20892:20893   */\n      0x04\n        /* \"#utility.yul\":20885:20900   */\n      mstore\n        /* \"#utility.yul\":20919:20923   */\n      0x24\n        /* \"#utility.yul\":20916:20917   */\n      0x00\n        /* \"#utility.yul\":20909:20924   */\n      revert\n        /* \"#utility.yul\":20936:21241   */\n    tag_170:\n        /* \"#utility.yul\":20976:20979   */\n      0x00\n        /* \"#utility.yul\":20995:21015   */\n      tag_820\n        /* \"#utility.yul\":21013:21014   */\n      dup3\n        /* \"#utility.yul\":20995:21015   */\n      tag_566\n      jump\t// in\n    tag_820:\n        /* \"#utility.yul\":20990:21015   */\n      swap2\n      pop\n        /* \"#utility.yul\":21029:21049   */\n      tag_821\n        /* \"#utility.yul\":21047:21048   */\n      dup4\n        /* \"#utility.yul\":21029:21049   */\n      tag_566\n      jump\t// in\n    tag_821:\n        /* \"#utility.yul\":21024:21049   */\n      swap3\n      pop\n        /* \"#utility.yul\":21183:21184   */\n      dup3\n        /* \"#utility.yul\":21115:21181   */\n      0xffffffffffffffffffffffffffffffffffffffffffffffffffffffffffffffff\n        /* \"#utility.yul\":21111:21185   */\n      sub\n        /* \"#utility.yul\":21108:21109   */\n      dup3\n        /* \"#utility.yul\":21105:21186   */\n      gt\n        /* \"#utility.yul\":21102:21209   */\n      iszero\n      tag_822\n      jumpi\n        /* \"#utility.yul\":21189:21207   */\n      tag_823\n      tag_583\n      jump\t// in\n    tag_823:\n        /* \"#utility.yul\":21102:21209   */\n    tag_822:\n        /* \"#utility.yul\":21233:21234   */\n      dup3\n        /* \"#utility.yul\":21230:21231   */\n      dup3\n        /* \"#utility.yul\":21226:21235   */\n      add\n        /* \"#utility.yul\":21219:21235   */\n      swap1\n      pop\n        /* \"#utility.yul\":20936:21241   */\n      swap3\n      swap2\n      pop\n      pop\n      jump\t// out\n        /* \"#utility.yul\":21247:21427   */\n    tag_176:\n        /* \"#utility.yul\":21295:21372   */\n      0x4e487b7100000000000000000000000000000000000000000000000000000000\n        /* \"#utility.yul\":21292:21293   */\n      0x00\n        /* \"#utility.yul\":21285:21373   */\n      mstore\n        /* \"#utility.yul\":21392:21396   */\n      0x32\n        /* \"#utility.yul\":21389:21390   */\n      0x04\n        /* \"#utility.yul\":21382:21397   */\n      mstore\n        /* \"#utility.yul\":21416:21420   */\n      0x24\n        /* \"#utility.yul\":21413:21414   */\n      0x00\n        /* \"#utility.yul\":21406:21421   */\n      revert\n        /* \"#utility.yul\":21433:21613   */\n    tag_584:\n        /* \"#utility.yul\":21481:21558   */\n      0x4e487b7100000000000000000000000000000000000000000000000000000000\n        /* \"#utility.yul\":21478:21479   */\n      0x00\n        /* \"#utility.yul\":21471:21559   */\n      mstore\n        /* \"#utility.yul\":21578:21582   */\n      0x22\n        /* \"#utility.yul\":21575:21576   */\n      0x04\n        /* \"#utility.yul\":21568:21583   */\n      mstore\n        /* \"#utility.yul\":21602:21606   */\n      0x24\n        /* \"#utility.yul\":21599:21600   */\n      0x00\n        /* \"#utility.yul\":21592:21607   */\n      revert\n        /* \"#utility.yul\":21619:21939   */\n    tag_179:\n        /* \"#utility.yul\":21663:21669   */\n      0x00\n        /* \"#utility.yul\":21700:21701   */\n      0x02\n        /* \"#utility.yul\":21694:21698   */\n      dup3\n        /* \"#utility.yul\":21690:21702   */\n      div\n        /* \"#utility.yul\":21680:21702   */\n      swap1\n      pop\n        /* \"#utility.yul\":21747:21748   */\n      0x01\n        /* \"#utility.yul\":21741:21745   */\n      dup3\n        /* \"#utility.yul\":21737:21749   */\n      and\n        /* \"#utility.yul\":21768:21786   */\n      dup1\n        /* \"#utility.yul\":21758:21839   */\n      tag_827\n      jumpi\n        /* \"#utility.yul\":21824:21828   */\n      0x7f\n        /* \"#utility.yul\":21816:21822   */\n      dup3\n        /* \"#utility.yul\":21812:21829   */\n      and\n        /* \"#utility.yul\":21802:21829   */\n      swap2\n      pop\n        /* \"#utility.yul\":21758:21839   */\n    tag_827:\n        /* \"#utility.yul\":21886:21888   */\n      0x20\n        /* \"#utility.yul\":21878:21884   */\n      dup3\n        /* \"#utility.yul\":21875:21889   */\n      lt\n        /* \"#utility.yul\":21855:21873   */\n      dup2\n        /* \"#utility.yul\":21852:21890   */\n      eq\n        /* \"#utility.yul\":21849:21933   */\n      iszero\n      tag_828\n      jumpi\n        /* \"#utility.yul\":21905:21923   */\n      tag_829\n      tag_584\n      jump\t// in\n    tag_829:\n        /* \"#utility.yul\":21849:21933   */\n    tag_828:\n        /* \"#utility.yul\":21670:21939   */\n      pop\n        /* \"#utility.yul\":21619:21939   */\n      swap2\n      swap1\n      pop\n      jump\t// out\n        /* \"#utility.yul\":21945:22116   */\n    tag_239:\n        /* \"#utility.yul\":21984:21987   */\n      0x00\n        /* \"#utility.yul\":22007:22031   */\n      tag_831\n        /* \"#utility.yul\":22025:22030   */\n      dup3\n        /* \"#utility.yul\":22007:22031   */\n      tag_566\n      jump\t// in\n    tag_831:\n        /* \"#utility.yul\":21998:22031   */\n      swap2\n      pop\n        /* \"#utility.yul\":22053:22057   */\n      0x00\n        /* \"#utility.yul\":22046:22051   */\n      dup3\n        /* \"#utility.yul\":22043:22058   */\n      eq\n        /* \"#utility.yul\":22040:22081   */\n      iszero\n      tag_832\n      jumpi\n        /* \"#utility.yul\":22061:22079   */\n      tag_833\n      tag_583\n      jump\t// in\n    tag_833:\n        /* \"#utility.yul\":22040:22081   */\n    tag_832:\n        /* \"#utility.yul\":22108:22109   */\n      0x01\n        /* \"#utility.yul\":22101:22106   */\n      dup3\n        /* \"#utility.yul\":22097:22110   */\n      sub\n        /* \"#utility.yul\":22090:22110   */\n      swap1\n      pop\n        /* \"#utility.yul\":21945:22116   */\n      swap2\n      swap1\n      pop\n      jump\t// out\n        /* \"#utility.yul\":22122:22442   */\n    tag_241:\n        /* \"#utility.yul\":22237:22241   */\n      0x00\n        /* \"#utility.yul\":22275:22277   */\n      0x40\n        /* \"#utility.yul\":22264:22273   */\n      dup3\n        /* \"#utility.yul\":22260:22278   */\n      add\n        /* \"#utility.yul\":22252:22278   */\n      swap1\n      pop\n        /* \"#utility.yul\":22288:22353   */\n      tag_835\n        /* \"#utility.yul\":22350:22351   */\n      0x00\n        /* \"#utility.yul\":22339:22348   */\n      dup4\n        /* \"#utility.yul\":22335:22352   */\n      add\n        /* \"#utility.yul\":22326:22332   */\n      dup6\n        /* \"#utility.yul\":22288:22353   */\n      tag_570\n      jump\t// in\n    tag_835:\n        /* \"#utility.yul\":22363:22435   */\n      tag_836\n        /* \"#utility.yul\":22431:22433   */\n      0x20\n        /* \"#utility.yul\":22420:22429   */\n      dup4\n        /* \"#utility.yul\":22416:22434   */\n      add\n        /* \"#utility.yul\":22407:22413   */\n      dup5\n        /* \"#utility.yul\":22363:22435   */\n      tag_571\n      jump\t// in\n    tag_836:\n        /* \"#utility.yul\":22122:22442   */\n      swap4\n      swap3\n      pop\n      pop\n      pop\n      jump\t// out\n        /* \"#utility.yul\":22448:22639   */\n    tag_331:\n        /* \"#utility.yul\":22488:22492   */\n      0x00\n        /* \"#utility.yul\":22508:22528   */\n      tag_838\n        /* \"#utility.yul\":22526:22527   */\n      dup3\n        /* \"#utility.yul\":22508:22528   */\n      tag_566\n      jump\t// in\n    tag_838:\n        /* \"#utility.yul\":22503:22528   */\n      swap2\n      pop\n        /* \"#utility.yul\":22542:22562   */\n      tag_839\n        /* \"#utility.yul\":22560:22561   */\n      dup4\n        /* \"#utility.yul\":22542:22562   */\n      tag_566\n      jump\t// in\n    tag_839:\n        /* \"#utility.yul\":22537:22562   */\n      swap3\n      pop\n        /* \"#utility.yul\":22581:22582   */\n      dup3\n        /* \"#utility.yul\":22578:22579   */\n      dup3\n        /* \"#utility.yul\":22575:22583   */\n      lt\n        /* \"#utility.yul\":22572:22606   */\n      iszero\n      tag_840\n      jumpi\n        /* \"#utility.yul\":22586:22604   */\n      tag_841\n      tag_583\n      jump\t// in\n    tag_841:\n        /* \"#utility.yul\":22572:22606   */\n    tag_840:\n        /* \"#utility.yul\":22631:22632   */\n      dup3\n        /* \"#utility.yul\":22628:22629   */\n      dup3\n        /* \"#utility.yul\":22624:22633   */\n      sub\n        /* \"#utility.yul\":22616:22633   */\n      swap1\n      pop\n        /* \"#utility.yul\":22448:22639   */\n      swap3\n      swap2\n      pop\n      pop\n      jump\t// out\n        /* \"#utility.yul\":22645:22825   */\n    tag_356:\n        /* \"#utility.yul\":22693:22770   */\n      0x4e487b7100000000000000000000000000000000000000000000000000000000\n        /* \"#utility.yul\":22690:22691   */\n      0x00\n        /* \"#utility.yul\":22683:22771   */\n      mstore\n        /* \"#utility.yul\":22790:22794   */\n      0x31\n        /* \"#utility.yul\":22787:22788   */\n      0x04\n        /* \"#utility.yul\":22780:22795   */\n      mstore\n        /* \"#utility.yul\":22814:22818   */\n      0x24\n        /* \"#utility.yul\":22811:22812   */\n      0x00\n        /* \"#utility.yul\":22804:22819   */\n      revert\n        /* \"#utility.yul\":22831:22979   */\n    tag_585:\n        /* \"#utility.yul\":22933:22944   */\n      0x00\n        /* \"#utility.yul\":22970:22973   */\n      dup2\n        /* \"#utility.yul\":22955:22973   */\n      swap1\n      pop\n        /* \"#utility.yul\":22831:22979   */\n      swap3\n      swap2\n      pop\n      pop\n      jump\t// out\n        /* \"#utility.yul\":22985:23362   */\n    tag_586:\n        /* \"#utility.yul\":23091:23094   */\n      0x00\n        /* \"#utility.yul\":23119:23158   */\n      tag_845\n        /* \"#utility.yul\":23152:23157   */\n      dup3\n        /* \"#utility.yul\":23119:23158   */\n      tag_573\n      jump\t// in\n    tag_845:\n        /* \"#utility.yul\":23174:23263   */\n      tag_846\n        /* \"#utility.yul\":23256:23262   */\n      dup2\n        /* \"#utility.yul\":23251:23254   */\n      dup6\n        /* \"#utility.yul\":23174:23263   */\n      tag_585\n      jump\t// in\n    tag_846:\n        /* \"#utility.yul\":23167:23263   */\n      swap4\n      pop\n        /* \"#utility.yul\":23272:23324   */\n      tag_847\n        /* \"#utility.yul\":23317:23323   */\n      dup2\n        /* \"#utility.yul\":23312:23315   */\n      dup6\n        /* \"#utility.yul\":23305:23309   */\n      0x20\n        /* \"#utility.yul\":23298:23303   */\n      dup7\n        /* \"#utility.yul\":23294:23310   */\n      add\n        /* \"#utility.yul\":23272:23324   */\n      tag_575\n      jump\t// in\n    tag_847:\n        /* \"#utility.yul\":23349:23355   */\n      dup1\n        /* \"#utility.yul\":23344:23347   */\n      dup5\n        /* \"#utility.yul\":23340:23356   */\n      add\n        /* \"#utility.yul\":23333:23356   */\n      swap2\n      pop\n        /* \"#utility.yul\":23095:23362   */\n      pop\n        /* \"#utility.yul\":22985:23362   */\n      swap3\n      swap2\n      pop\n      pop\n      jump\t// out\n        /* \"#utility.yul\":23368:23643   */\n    tag_364:\n        /* \"#utility.yul\":23500:23503   */\n      0x00\n        /* \"#utility.yul\":23522:23617   */\n      tag_849\n        /* \"#utility.yul\":23613:23616   */\n      dup3\n        /* \"#utility.yul\":23604:23610   */\n      dup5\n        /* \"#utility.yul\":23522:23617   */\n      tag_586\n      jump\t// in\n    tag_849:\n        /* \"#utility.yul\":23515:23617   */\n      swap2\n      pop\n        /* \"#utility.yul\":23634:23637   */\n      dup2\n        /* \"#utility.yul\":23627:23637   */\n      swap1\n      pop\n        /* \"#utility.yul\":23368:23643   */\n      swap3\n      swap2\n      pop\n      pop\n      jump\t// out\n        /* \"#utility.yul\":23649:23882   */\n    tag_375:\n        /* \"#utility.yul\":23688:23691   */\n      0x00\n        /* \"#utility.yul\":23711:23735   */\n      tag_851\n        /* \"#utility.yul\":23729:23734   */\n      dup3\n        /* \"#utility.yul\":23711:23735   */\n      tag_566\n      jump\t// in\n    tag_851:\n        /* \"#utility.yul\":23702:23735   */\n      swap2\n      pop\n        /* \"#utility.yul\":23757:23823   */\n      0xffffffffffffffffffffffffffffffffffffffffffffffffffffffffffffffff\n        /* \"#utility.yul\":23750:23755   */\n      dup3\n        /* \"#utility.yul\":23747:23824   */\n      eq\n        /* \"#utility.yul\":23744:23847   */\n      iszero\n      tag_852\n      jumpi\n        /* \"#utility.yul\":23827:23845   */\n      tag_853\n      tag_583\n      jump\t// in\n    tag_853:\n        /* \"#utility.yul\":23744:23847   */\n    tag_852:\n        /* \"#utility.yul\":23874:23875   */\n      0x01\n        /* \"#utility.yul\":23867:23872   */\n      dup3\n        /* \"#utility.yul\":23863:23876   */\n      add\n        /* \"#utility.yul\":23856:23876   */\n      swap1\n      pop\n        /* \"#utility.yul\":23649:23882   */\n      swap2\n      swap1\n      pop\n      jump\t// out\n        /* \"#utility.yul\":23888:24212   */\n    tag_377:\n        /* \"#utility.yul\":24005:24009   */\n      0x00\n        /* \"#utility.yul\":24043:24045   */\n      0x40\n        /* \"#utility.yul\":24032:24041   */\n      dup3\n        /* \"#utility.yul\":24028:24046   */\n      add\n        /* \"#utility.yul\":24020:24046   */\n      swap1\n      pop\n        /* \"#utility.yul\":24056:24123   */\n      tag_855\n        /* \"#utility.yul\":24120:24121   */\n      0x00\n        /* \"#utility.yul\":24109:24118   */\n      dup4\n        /* \"#utility.yul\":24105:24122   */\n      add\n        /* \"#utility.yul\":24096:24102   */\n      dup6\n        /* \"#utility.yul\":24056:24123   */\n      tag_580\n      jump\t// in\n    tag_855:\n        /* \"#utility.yul\":24133:24205   */\n      tag_856\n        /* \"#utility.yul\":24201:24203   */\n      0x20\n        /* \"#utility.yul\":24190:24199   */\n      dup4\n        /* \"#utility.yul\":24186:24204   */\n      add\n        /* \"#utility.yul\":24177:24183   */\n      dup5\n        /* \"#utility.yul\":24133:24205   */\n      tag_571\n      jump\t// in\n    tag_856:\n        /* \"#utility.yul\":23888:24212   */\n      swap4\n      swap3\n      pop\n      pop\n      pop\n      jump\t// out\n        /* \"#utility.yul\":24218:24550   */\n    tag_381:\n        /* \"#utility.yul\":24339:24343   */\n      0x00\n        /* \"#utility.yul\":24377:24379   */\n      0x40\n        /* \"#utility.yul\":24366:24375   */\n      dup3\n        /* \"#utility.yul\":24362:24380   */\n      add\n        /* \"#utility.yul\":24354:24380   */\n      swap1\n      pop\n        /* \"#utility.yul\":24390:24461   */\n      tag_858\n        /* \"#utility.yul\":24458:24459   */\n      0x00\n        /* \"#utility.yul\":24447:24456   */\n      dup4\n        /* \"#utility.yul\":24443:24460   */\n      add\n        /* \"#utility.yul\":24434:24440   */\n      dup6\n        /* \"#utility.yul\":24390:24461   */\n      tag_571\n      jump\t// in\n    tag_858:\n        /* \"#utility.yul\":24471:24543   */\n      tag_859\n        /* \"#utility.yul\":24539:24541   */\n      0x20\n        /* \"#utility.yul\":24528:24537   */\n      dup4\n        /* \"#utility.yul\":24524:24542   */\n      add\n        /* \"#utility.yul\":24515:24521   */\n      dup5\n        /* \"#utility.yul\":24471:24543   */\n      tag_571\n      jump\t// in\n    tag_859:\n        /* \"#utility.yul\":24218:24550   */\n      swap4\n      swap3\n      pop\n      pop\n      pop\n      jump\t// out\n        /* \"#utility.yul\":24556:24641   */\n    tag_587:\n        /* \"#utility.yul\":24601:24608   */\n      0x00\n        /* \"#utility.yul\":24630:24635   */\n      dup2\n        /* \"#utility.yul\":24619:24635   */\n      swap1\n      pop\n        /* \"#utility.yul\":24556:24641   */\n      swap2\n      swap1\n      pop\n      jump\t// out\n        /* \"#utility.yul\":24647:24707   */\n    tag_588:\n        /* \"#utility.yul\":24675:24678   */\n      0x00\n        /* \"#utility.yul\":24696:24701   */\n      dup2\n        /* \"#utility.yul\":24689:24701   */\n      swap1\n      pop\n        /* \"#utility.yul\":24647:24707   */\n      swap2\n      swap1\n      pop\n      jump\t// out\n        /* \"#utility.yul\":24713:24871   */\n    tag_589:\n        /* \"#utility.yul\":24771:24780   */\n      0x00\n        /* \"#utility.yul\":24804:24865   */\n      tag_863\n        /* \"#utility.yul\":24822:24864   */\n      tag_864\n        /* \"#utility.yul\":24831:24863   */\n      tag_865\n        /* \"#utility.yul\":24857:24862   */\n      dup5\n        /* \"#utility.yul\":24831:24863   */\n      tag_587\n      jump\t// in\n    tag_865:\n        /* \"#utility.yul\":24822:24864   */\n      tag_588\n      jump\t// in\n    tag_864:\n        /* \"#utility.yul\":24804:24865   */\n      tag_566\n      jump\t// in\n    tag_863:\n        /* \"#utility.yul\":24791:24865   */\n      swap1\n      pop\n        /* \"#utility.yul\":24713:24871   */\n      swap2\n      swap1\n      pop\n      jump\t// out\n        /* \"#utility.yul\":24877:25024   */\n    tag_590:\n        /* \"#utility.yul\":24972:25017   */\n      tag_867\n        /* \"#utility.yul\":25011:25016   */\n      dup2\n        /* \"#utility.yul\":24972:25017   */\n      tag_589\n      jump\t// in\n    tag_867:\n        /* \"#utility.yul\":24967:24970   */\n      dup3\n        /* \"#utility.yul\":24960:25018   */\n      mstore\n        /* \"#utility.yul\":24877:25024   */\n      pop\n      pop\n      jump\t// out\n        /* \"#utility.yul\":25030:25378   */\n    tag_428:\n        /* \"#utility.yul\":25159:25163   */\n      0x00\n        /* \"#utility.yul\":25197:25199   */\n      0x40\n        /* \"#utility.yul\":25186:25195   */\n      dup3\n        /* \"#utility.yul\":25182:25200   */\n      add\n        /* \"#utility.yul\":25174:25200   */\n      swap1\n      pop\n        /* \"#utility.yul\":25210:25289   */\n      tag_869\n        /* \"#utility.yul\":25286:25287   */\n      0x00\n        /* \"#utility.yul\":25275:25284   */\n      dup4\n        /* \"#utility.yul\":25271:25288   */\n      add\n        /* \"#utility.yul\":25262:25268   */\n      dup6\n        /* \"#utility.yul\":25210:25289   */\n      tag_590\n      jump\t// in\n    tag_869:\n        /* \"#utility.yul\":25299:25371   */\n      tag_870\n        /* \"#utility.yul\":25367:25369   */\n      0x20\n        /* \"#utility.yul\":25356:25365   */\n      dup4\n        /* \"#utility.yul\":25352:25370   */\n      add\n        /* \"#utility.yul\":25343:25349   */\n      dup5\n        /* \"#utility.yul\":25299:25371   */\n      tag_571\n      jump\t// in\n    tag_870:\n        /* \"#utility.yul\":25030:25378   */\n      swap4\n      swap3\n      pop\n      pop\n      pop\n      jump\t// out\n        /* \"#utility.yul\":25384:25469   */\n    tag_591:\n        /* \"#utility.yul\":25429:25436   */\n      0x00\n        /* \"#utility.yul\":25458:25463   */\n      dup2\n        /* \"#utility.yul\":25447:25463   */\n      swap1\n      pop\n        /* \"#utility.yul\":25384:25469   */\n      swap2\n      swap1\n      pop\n      jump\t// out\n        /* \"#utility.yul\":25475:25633   */\n    tag_592:\n        /* \"#utility.yul\":25533:25542   */\n      0x00\n        /* \"#utility.yul\":25566:25627   */\n      tag_873\n        /* \"#utility.yul\":25584:25626   */\n      tag_874\n        /* \"#utility.yul\":25593:25625   */\n      tag_875\n        /* \"#utility.yul\":25619:25624   */\n      dup5\n        /* \"#utility.yul\":25593:25625   */\n      tag_591\n      jump\t// in\n    tag_875:\n        /* \"#utility.yul\":25584:25626   */\n      tag_588\n      jump\t// in\n    tag_874:\n        /* \"#utility.yul\":25566:25627   */\n      tag_566\n      jump\t// in\n    tag_873:\n        /* \"#utility.yul\":25553:25627   */\n      swap1\n      pop\n        /* \"#utility.yul\":25475:25633   */\n      swap2\n      swap1\n      pop\n      jump\t// out\n        /* \"#utility.yul\":25639:25786   */\n    tag_593:\n        /* \"#utility.yul\":25734:25779   */\n      tag_877\n        /* \"#utility.yul\":25773:25778   */\n      dup2\n        /* \"#utility.yul\":25734:25779   */\n      tag_592\n      jump\t// in\n    tag_877:\n        /* \"#utility.yul\":25729:25732   */\n      dup3\n        /* \"#utility.yul\":25722:25780   */\n      mstore\n        /* \"#utility.yul\":25639:25786   */\n      pop\n      pop\n      jump\t// out\n        /* \"#utility.yul\":25792:26140   */\n    tag_438:\n        /* \"#utility.yul\":25921:25925   */\n      0x00\n        /* \"#utility.yul\":25959:25961   */\n      0x40\n        /* \"#utility.yul\":25948:25957   */\n      dup3\n        /* \"#utility.yul\":25944:25962   */\n      add\n        /* \"#utility.yul\":25936:25962   */\n      swap1\n      pop\n        /* \"#utility.yul\":25972:26051   */\n      tag_879\n        /* \"#utility.yul\":26048:26049   */\n      0x00\n        /* \"#utility.yul\":26037:26046   */\n      dup4\n        /* \"#utility.yul\":26033:26050   */\n      add\n        /* \"#utility.yul\":26024:26030   */\n      dup6\n        /* \"#utility.yul\":25972:26051   */\n      tag_593\n      jump\t// in\n    tag_879:\n        /* \"#utility.yul\":26061:26133   */\n      tag_880\n        /* \"#utility.yul\":26129:26131   */\n      0x20\n        /* \"#utility.yul\":26118:26127   */\n      dup4\n        /* \"#utility.yul\":26114:26132   */\n      add\n        /* \"#utility.yul\":26105:26111   */\n      dup5\n        /* \"#utility.yul\":26061:26133   */\n      tag_571\n      jump\t// in\n    tag_880:\n        /* \"#utility.yul\":25792:26140   */\n      swap4\n      swap3\n      pop\n      pop\n      pop\n      jump\t// out\n        /* \"#utility.yul\":26146:26231   */\n    tag_594:\n        /* \"#utility.yul\":26191:26198   */\n      0x00\n        /* \"#utility.yul\":26220:26225   */\n      dup2\n        /* \"#utility.yul\":26209:26225   */\n      swap1\n      pop\n        /* \"#utility.yul\":26146:26231   */\n      swap2\n      swap1\n      pop\n      jump\t// out\n        /* \"#utility.yul\":26237:26395   */\n    tag_595:\n        /* \"#utility.yul\":26295:26304   */\n      0x00\n        /* \"#utility.yul\":26328:26389   */\n      tag_883\n        /* \"#utility.yul\":26346:26388   */\n      tag_884\n        /* \"#utility.yul\":26355:26387   */\n      tag_885\n        /* \"#utility.yul\":26381:26386   */\n      dup5\n        /* \"#utility.yul\":26355:26387   */\n      tag_594\n      jump\t// in\n    tag_885:\n        /* \"#utility.yul\":26346:26388   */\n      tag_588\n      jump\t// in\n    tag_884:\n        /* \"#utility.yul\":26328:26389   */\n      tag_566\n      jump\t// in\n    tag_883:\n        /* \"#utility.yul\":26315:26389   */\n      swap1\n      pop\n        /* \"#utility.yul\":26237:26395   */\n      swap2\n      swap1\n      pop\n      jump\t// out\n        /* \"#utility.yul\":26401:26548   */\n    tag_596:\n        /* \"#utility.yul\":26496:26541   */\n      tag_887\n        /* \"#utility.yul\":26535:26540   */\n      dup2\n        /* \"#utility.yul\":26496:26541   */\n      tag_595\n      jump\t// in\n    tag_887:\n        /* \"#utility.yul\":26491:26494   */\n      dup3\n        /* \"#utility.yul\":26484:26542   */\n      mstore\n        /* \"#utility.yul\":26401:26548   */\n      pop\n      pop\n      jump\t// out\n        /* \"#utility.yul\":26554:26902   */\n    tag_455:\n        /* \"#utility.yul\":26683:26687   */\n      0x00\n        /* \"#utility.yul\":26721:26723   */\n      0x40\n        /* \"#utility.yul\":26710:26719   */\n      dup3\n        /* \"#utility.yul\":26706:26724   */\n      add\n        /* \"#utility.yul\":26698:26724   */\n      swap1\n      pop\n        /* \"#utility.yul\":26734:26813   */\n      tag_889\n        /* \"#utility.yul\":26810:26811   */\n      0x00\n        /* \"#utility.yul\":26799:26808   */\n      dup4\n        /* \"#utility.yul\":26795:26812   */\n      add\n        /* \"#utility.yul\":26786:26792   */\n      dup6\n        /* \"#utility.yul\":26734:26813   */\n      tag_596\n      jump\t// in\n    tag_889:\n        /* \"#utility.yul\":26823:26895   */\n      tag_890\n        /* \"#utility.yul\":26891:26893   */\n      0x20\n        /* \"#utility.yul\":26880:26889   */\n      dup4\n        /* \"#utility.yul\":26876:26894   */\n      add\n        /* \"#utility.yul\":26867:26873   */\n      dup5\n        /* \"#utility.yul\":26823:26895   */\n      tag_571\n      jump\t// in\n    tag_890:\n        /* \"#utility.yul\":26554:26902   */\n      swap4\n      swap3\n      pop\n      pop\n      pop\n      jump\t// out\n\n    auxdata: 0xa2646970667358221220db768a4ee96478756cef10ec43f3e0909d3f454e95155caf20f1787f9e5c330d64736f6c634300080c0033\n}\n","bytecode":{"linkReferences":{},"object":"6080604052600c67ffffffffffffffff81111562000022576200002162000619565b5b6040519080825280601f01601f191660200182016040528015620000555781602001600182028036833780820191505090505b50600090805190602001906200006d92919062000447565b5060006002553480156200008057600080fd5b506040518060200160405280600081525060009080519060200190620000a8929190620004d8565b5060036040518060600160405280600060ff168152602001600060ff1681526020016040518060400160405280600581526020017f506c61696e000000000000000000000000000000000000000000000000000000815250815250908060018154018082558091505060019003906000526020600020906002020160009091909190915060008201518160000160006101000a81548160ff021916908360ff16021790555060208201518160000160016101000a81548160ff021916908360ff16021790555060408201518160010190805190602001906200018c92919062000569565b50505060036040518060600160405280600160ff168152602001600160ff1681526020016040518060400160405280600681526020017f4e6f726d616c0000000000000000000000000000000000000000000000000000815250815250908060018154018082558091505060019003906000526020600020906002020160009091909190915060008201518160000160006101000a81548160ff021916908360ff16021790555060208201518160000160016101000a81548160ff021916908360ff16021790555060408201518160010190805190602001906200027292919062000569565b50505060036040518060600160405280600260ff168152602001600260ff1681526020016040518060400160405280600781526020017f5761726e696e6700000000000000000000000000000000000000000000000000815250815250908060018154018082558091505060019003906000526020600020906002020160009091909190915060008201518160000160006101000a81548160ff021916908360ff16021790555060208201518160000160016101000a81548160ff021916908360ff16021790555060408201518160010190805190602001906200035892919062000569565b50505060036040518060600160405280600360ff168152602001600360ff1681526020016040518060400160405280600681526020017f52656a6563740000000000000000000000000000000000000000000000000000815250815250908060018154018082558091505060019003906000526020600020906002020160009091909190915060008201518160000160006101000a81548160ff021916908360ff16021790555060208201518160000160016101000a81548160ff021916908360ff16021790555060408201518160010190805190602001906200043e92919062000569565b505050620006ad565b828054620004559062000677565b90600052602060002090601f016020900481019282620004795760008555620004c5565b82601f106200049457805160ff1916838001178555620004c5565b82800160010185558215620004c5579182015b82811115620004c4578251825591602001919060010190620004a7565b5b509050620004d49190620005fa565b5090565b828054620004e69062000677565b90600052602060002090601f0160209004810192826200050a576000855562000556565b82601f106200052557805160ff191683800117855562000556565b8280016001018555821562000556579182015b828111156200055557825182559160200191906001019062000538565b5b509050620005659190620005fa565b5090565b828054620005779062000677565b90600052602060002090601f0160209004810192826200059b5760008555620005e7565b82601f10620005b657805160ff1916838001178555620005e7565b82800160010185558215620005e7579182015b82811115620005e6578251825591602001919060010190620005c9565b5b509050620005f69190620005fa565b5090565b5b8082111562000615576000816000905550600101620005fb565b5090565b7f4e487b7100000000000000000000000000000000000000000000000000000000600052604160045260246000fd5b7f4e487b7100000000000000000000000000000000000000000000000000000000600052602260045260246000fd5b600060028204905060018216806200069057607f821691505b60208210811415620006a757620006a662000648565b5b50919050565b613a1880620006bd6000396000f3fe608060405234801561001057600080fd5b50600436106101da5760003560e01c8063a185aa3211610104578063c88806eb116100a2578063e4db2ceb11610071578063e4db2ceb146105c3578063f38f959b146105f3578063f586c69514610623578063f5d75ff914610641576101da565b8063c88806eb14610539578063c982a2bb14610557578063cf9253ef14610575578063d938b594146105a7576101da565b8063a65a2e19116100de578063a65a2e191461048b578063bc08bfac146104bb578063c1260e66146104d7578063c4f4862514610507576101da565b8063a185aa321461040a578063a2be951c1461043d578063a43d20ed14610459576101da565b806350e3f3d41161017c57806387c5d5cc1161014b57806387c5d5cc1461036f5780639cdb785d1461039f5780639f91a7f8146103d2578063a1691374146103ee576101da565b806350e3f3d4146102e857806355df0ac4146103045780636521d40814610337578063736f782614610353576101da565b806325608ee0116101b857806325608ee014610260578063269c969b1461027c5780633ee92a081461029857806340bf1328146102b6576101da565b80630db638f5146101df5780630e4df87f1461020f57806310ff8e311461022d575b600080fd5b6101f960048036038101906101f49190612ccc565b610671565b6040516102069190612d56565b60405180910390f35b6102176108b4565b6040516102249190612d80565b60405180910390f35b61024760048036038101906102429190612d9b565b6108c1565b6040516102579493929190612e5f565b60405180910390f35b61027a60048036038101906102759190612ef2565b610ab9565b005b61029660048036038101906102919190612f32565b610cdb565b005b6102a0610dac565b6040516102ad9190612d80565b60405180910390f35b6102d060048036038101906102cb9190612d9b565b610db6565b6040516102df93929190612fb0565b60405180910390f35b61030260048036038101906102fd9190612fee565b610e92565b005b61031e60048036038101906103199190613079565b610fc8565b60405161032e94939291906130b9565b60405180910390f35b610351600480360381019061034c91906130fe565b6111df565b005b61036d6004803603810190610368919061317d565b6112c3565b005b610389600480360381019061038491906131d0565b6116bc565b6040516103969190612d56565b60405180910390f35b6103b960048036038101906103b49190612ef2565b611731565b6040516103c994939291906130b9565b60405180910390f35b6103ec60048036038101906103e79190613248565b6117a5565b005b61040860048036038101906104039190612f32565b611904565b005b610424600480360381019061041f9190612d9b565b611a40565b6040516104349493929190613317565b60405180910390f35b6104576004803603810190610452919061335c565b611ae3565b005b610473600480360381019061046e91906133cb565b611b59565b60405161048293929190612fb0565b60405180910390f35b6104a560048036038101906104a091906133cb565b611c56565b6040516104b29190612d80565b60405180910390f35b6104d560048036038101906104d091906133f8565b611d54565b005b6104f160048036038101906104ec91906133cb565b61234f565b6040516104fe9190612d56565b60405180910390f35b610521600480360381019061051c9190612d9b565b612363565b6040516105309392919061348f565b60405180910390f35b6105416123c0565b60405161054e9190612d80565b60405180910390f35b61055f6123cd565b60405161056c9190612d80565b60405180910390f35b61058f600480360381019061058a91906133cb565b6123d3565b60405161059e939291906134c6565b60405180910390f35b6105c160048036038101906105bc919061350b565b61263b565b005b6105dd60048036038101906105d891906135aa565b612811565b6040516105ea9190612d56565b60405180910390f35b61060d600480360381019061060891906133cb565b6128ae565b60405161061a9190612d80565b60405180910390f35b61062b6128d1565b6040516106389190612d80565b60405180910390f35b61065b600480360381019061065691906133cb565b6128de565b6040516106689190612d80565b60405180910390f35b60006001805490506001836106869190613622565b111561069557600090506108ad565b6001151561075f60405180602001604052806000815250600185815481106106c0576106bf613678565b5b906000526020600020906004020160010180546106dc906136d6565b80601f0160208091040260200160405190810160405280929190818152602001828054610708906136d6565b80156107555780601f1061072a57610100808354040283529160200191610755565b820191906000526020600020905b81548152906001019060200180831161073857829003601f168201915b50505050506116bc565b1515141561077057600090506108ad565b8373ffffffffffffffffffffffffffffffffffffffff166001838154811061079b5761079a613678565b5b906000526020600020906004020160000160009054906101000a900473ffffffffffffffffffffffffffffffffffffffff1673ffffffffffffffffffffffffffffffffffffffff161480156108aa5750600115156108a6846001858154811061080757610806613678565b5b90600052602060002090600402016001018054610823906136d6565b80601f016020809104026020016040519081016040528092919081815260200182805461084f906136d6565b801561089c5780601f106108715761010080835404028352916020019161089c565b820191906000526020600020905b81548152906001019060200180831161087f57829003601f168201915b50505050506116bc565b1515145b90505b9392505050565b6000600180549050905090565b600181815481106108d157600080fd5b90600052602060002090600402016000915090508060000160009054906101000a900473ffffffffffffffffffffffffffffffffffffffff169080600101805461091a906136d6565b80601f0160208091040260200160405190810160405280929190818152602001828054610946906136d6565b80156109935780601f1061096857610100808354040283529160200191610993565b820191906000526020600020905b81548152906001019060200180831161097657829003601f168201915b5050505050908060020180546109a8906136d6565b80601f01602080910402602001604051908101604052809291908181526020018280546109d4906136d6565b8015610a215780601f106109f657610100808354040283529160200191610a21565b820191906000526020600020905b815481529060010190602001808311610a0457829003601f168201915b505050505090806003018054610a36906136d6565b80601f0160208091040260200160405190810160405280929190818152602001828054610a62906136d6565b8015610aaf5780601f10610a8457610100808354040283529160200191610aaf565b820191906000526020600020905b815481529060010190602001808311610a9257829003601f168201915b5050505050905084565b6001805490508260ff16108015610b9c575060001515610b986040518060200160405280600081525060018560ff1681548110610af957610af8613678565b5b90600052602060002090600402016001018054610b15906136d6565b80601f0160208091040260200160405190810160405280929190818152602001828054610b41906136d6565b8015610b8e5780601f10610b6357610100808354040283529160200191610b8e565b820191906000526020600020905b815481529060010190602001808311610b7157829003601f168201915b50505050506116bc565b1515145b15610c9c5760018260ff1681548110610bb857610bb7613678565b5b9060005260206000209060040201600080820160006101000a81549073ffffffffffffffffffffffffffffffffffffffff0219169055600182016000610bfe91906128f6565b600282016000610c0e91906128f6565b600382016000610c1e91906128f6565b5050600560008360ff1660ff1681526020019081526020016000206000610c459190612936565b60026000815480929190610c5890613708565b91905055507f9e74b914dfbe01b3835827ee9b9b6077b095593c9ef667d3a5d5b539744bb51a600182604051610c8f929190613732565b60405180910390a1610cd7565b7f9e74b914dfbe01b3835827ee9b9b6077b095593c9ef667d3a5d5b539744bb51a600082604051610cce929190613732565b60405180910390a15b5050565b60011515610ce88461234f565b15151415610d6c578160038460ff1681548110610d0857610d07613678565b5b90600052602060002090600202016001019080519060200190610d2c92919061295a565b507f134a3cbc6e64b71b428c47a91271192190fa59489a4c978e0ebbc8f8e4cf86c6600182604051610d5f929190613732565b60405180910390a1610da7565b7f134a3cbc6e64b71b428c47a91271192190fa59489a4c978e0ebbc8f8e4cf86c6600082604051610d9e929190613732565b60405180910390a15b505050565b6000600254905090565b60038181548110610dc657600080fd5b90600052602060002090600202016000915090508060000160009054906101000a900460ff16908060000160019054906101000a900460ff1690806001018054610e0f906136d6565b80601f0160208091040260200160405190810160405280929190818152602001828054610e3b906136d6565b8015610e885780601f10610e5d57610100808354040283529160200191610e88565b820191906000526020600020905b815481529060010190602001808311610e6b57829003601f168201915b5050505050905083565b60011515610f2a8460008054610ea7906136d6565b80601f0160208091040260200160405190810160405280929190818152602001828054610ed3906136d6565b8015610f205780601f10610ef557610100808354040283529160200191610f20565b820191906000526020600020905b815481529060010190602001808311610f0357829003601f168201915b50505050506116bc565b15151415610f88578160009080519060200190610f489291906129e0565b507f99abd86fb20173e73124cf0bb2a122d4b49456bcb2e8ab4aefb53846b96da3c3600182604051610f7b929190613732565b60405180910390a1610fc3565b7f99abd86fb20173e73124cf0bb2a122d4b49456bcb2e8ab4aefb53846b96da3c3600082604051610fba929190613732565b60405180910390a15b505050565b6000806000806000151561109b6040518060200160405280600081525060018960ff1681548110610ffc57610ffb613678565b5b90600052602060002090600402016001018054611018906136d6565b80601f0160208091040260200160405190810160405280929190818152602001828054611044906136d6565b80156110915780601f1061106657610100808354040283529160200191611091565b820191906000526020600020905b81548152906001019060200180831161107457829003601f168201915b50505050506116bc565b1515146110a757600080fd5b600560008760ff1660ff1681526020019081526020016000208560ff16815481106110d5576110d4613678565b5b906000526020600020906003020160000160009054906101000a900460ff16600560008860ff1660ff1681526020019081526020016000208660ff168154811061112257611121613678565b5b906000526020600020906003020160010154600560008960ff1660ff1681526020019081526020016000208760ff168154811061116257611161613678565b5b906000526020600020906003020160020160009054906101000a900460ff16600560008a60ff1660ff1681526020019081526020016000208860ff16815481106111af576111ae613678565b5b906000526020600020906003020160020160019054906101000a900460ff16935093509350935092959194509250565b600115156111ec8461234f565b15151480156111fe575060048260ff16105b15611283578160038460ff168154811061121b5761121a613678565b5b906000526020600020906002020160000160006101000a81548160ff021916908360ff1602179055507fceaa5427acfcb4a33f02d32aef23b9adda338dd9f161e14bb7a745001acb1cb1600182604051611276929190613732565b60405180910390a16112be565b7fceaa5427acfcb4a33f02d32aef23b9adda338dd9f161e14bb7a745001acb1cb16000826040516112b5929190613732565b60405180910390a15b505050565b8260ff1660068054905011801561138c5750600115156005600060068660ff16815481106112f4576112f3613678565b5b9060005260206000200160000160009054906101000a900460ff1660ff1660ff16815260200190815260200160002060068560ff168154811061133a57611339613678565b5b9060005260206000200160000160029054906101000a900460ff1660ff168154811061136957611368613678565b5b906000526020600020906003020160020160009054906101000a900460ff161515145b1561167c57816005600060068660ff16815481106113ad576113ac613678565b5b9060005260206000200160000160009054906101000a900460ff1660ff1660ff16815260200190815260200160002060068560ff16815481106113f3576113f2613678565b5b9060005260206000200160000160029054906101000a900460ff1660ff168154811061142257611421613678565b5b906000526020600020906003020160020160016101000a81548160ff021916908315150217905550600160068054905061145c919061375b565b8360ff16146115da5760066001600680549050611479919061375b565b8154811061148a57611489613678565b5b9060005260206000200160000160009054906101000a900460ff1660068460ff16815481106114bc576114bb613678565b5b9060005260206000200160000160006101000a81548160ff021916908360ff160217905550600660016006805490506114f5919061375b565b8154811061150657611505613678565b5b9060005260206000200160000160019054906101000a900460ff1660068460ff168154811061153857611537613678565b5b9060005260206000200160000160016101000a81548160ff021916908360ff16021790555060066001600680549050611571919061375b565b8154811061158257611581613678565b5b9060005260206000200160000160029054906101000a900460ff1660068460ff16815481106115b4576115b3613678565b5b9060005260206000200160000160026101000a81548160ff021916908360ff1602179055505b60068054806115ec576115eb61378f565b5b60019003818190600052602060002001600080820160006101000a81549060ff02191690556000820160016101000a81549060ff02191690556000820160026101000a81549060ff0219169055505090557f109180452712718656f65e5d308a9296a67dea5e1e812c0891e892b205051bef60018260405161166f929190613732565b60405180910390a16116b7565b7f109180452712718656f65e5d308a9296a67dea5e1e812c0891e892b205051bef6000826040516116ae929190613732565b60405180910390a15b505050565b600081518351141561172657816040516020016116d991906137fa565b604051602081830303815290604052805190602001208360405160200161170091906137fa565b604051602081830303815290604052805190602001201415611725576001905061172b565b5b600090505b92915050565b6005602052816000526040600020818154811061174d57600080fd5b9060005260206000209060030201600091509150508060000160009054906101000a900460ff16908060010154908060020160009054906101000a900460ff16908060020160019054906101000a900460ff16905084565b600160405180608001604052808773ffffffffffffffffffffffffffffffffffffffff16815260200186815260200185815260200184815250908060018154018082558091505060019003906000526020600020906004020160009091909190915060008201518160000160006101000a81548173ffffffffffffffffffffffffffffffffffffffff021916908373ffffffffffffffffffffffffffffffffffffffff160217905550602082015181600101908051906020019061186a92919061295a565b50604082015181600201908051906020019061188792919061295a565b5060608201518160030190805190602001906118a492919061295a565b505050600260008154809291906118ba90613811565b91905055507fca97dfb5b0a71f7378f93b82cd2c6c17612f65145213249a9542cbd987398476600180549050826040516118f592919061385a565b60405180910390a15050505050565b60038360ff16111561194b577f85b7a24bbfda547a4de90907032cd427a7580334841f5ac3772c90d7eb81ff9b600082604051611942929190613883565b60405180910390a15b600360405180606001604052808560ff16815260200160038054905060ff16815260200184815250908060018154018082558091505060019003906000526020600020906002020160009091909190915060008201518160000160006101000a81548160ff021916908360ff16021790555060208201518160000160016101000a81548160ff021916908360ff16021790555060408201518160010190805190602001906119fa92919061295a565b5050507f85b7a24bbfda547a4de90907032cd427a7580334841f5ac3772c90d7eb81ff9b60038054905082604051611a33929190613883565b60405180910390a1505050565b60008060008060068581548110611a5a57611a59613678565b5b9060005260206000200160000160009054906101000a900460ff1660068681548110611a8957611a88613678565b5b9060005260206000200160000160019054906101000a900460ff1660068781548110611ab857611ab7613678565b5b9060005260206000200160000160029054906101000a900460ff168793509350935093509193509193565b8160018481548110611af857611af7613678565b5b90600052602060002090600402016002019080519060200190611b1c92919061295a565b507fca72659fa153f272690b4d7725db784120beac96771e0b1e62b66d678b2f3f9f81604051611b4c9190612d80565b60405180910390a1505050565b600080606060038460ff1681548110611b7557611b74613678565b5b906000526020600020906002020160000160009054906101000a900460ff168460038660ff1681548110611bac57611bab613678565b5b9060005260206000209060020201600101808054611bc9906136d6565b80601f0160208091040260200160405190810160405280929190818152602001828054611bf5906136d6565b8015611c425780601f10611c1757610100808354040283529160200191611c42565b820191906000526020600020905b815481529060010190602001808311611c2557829003601f168201915b505050505090509250925092509193909250565b6000801515611d246040518060200160405280600081525060018560ff1681548110611c8557611c84613678565b5b90600052602060002090600402016001018054611ca1906136d6565b80601f0160208091040260200160405190810160405280929190818152602001828054611ccd906136d6565b8015611d1a5780601f10611cef57610100808354040283529160200191611d1a565b820191906000526020600020905b815481529060010190602001808311611cfd57829003601f168201915b50505050506116bc565b151514611d3057600080fd5b600560008360ff1660ff168152602001908152602001600020805490509050919050565b60001515611d6686868660ff16610671565b15151415611da9577f187d45cdcffadef7c066a1f9cc05d58c3ec1a3887390655dba7d64bb61c5a66b600282604051611da09291906138f1565b60405180910390a15b60001515611db68361234f565b15151415611df9577f187d45cdcffadef7c066a1f9cc05d58c3ec1a3887390655dba7d64bb61c5a66b600282604051611df09291906138f1565b60405180910390a15b600460008360ff1660ff1681526020019081526020016000206000815480929190611e2390613811565b9190505550600060038360ff1681548110611e4157611e40613678565b5b906000526020600020906002020160000160009054906101000a900460ff1660ff161415611ea8577f187d45cdcffadef7c066a1f9cc05d58c3ec1a3887390655dba7d64bb61c5a66b600082604051611e9b929190613955565b60405180910390a1612348565b600160038360ff1681548110611ec157611ec0613678565b5b906000526020600020906002020160000160009054906101000a900460ff1660ff16141561200157600560008460ff1660ff16815260200190815260200160002060405180608001604052808460ff16815260200142815260200160001515815260200160001515815250908060018154018082558091505060019003906000526020600020906003020160009091909190915060008201518160000160006101000a81548160ff021916908360ff1602179055506020820151816001015560408201518160020160006101000a81548160ff02191690831515021790555060608201518160020160016101000a81548160ff02191690831515021790555050507f187d45cdcffadef7c066a1f9cc05d58c3ec1a3887390655dba7d64bb61c5a66b600082604051611ff4929190613955565b60405180910390a1612347565b600260038360ff168154811061201a57612019613678565b5b906000526020600020906002020160000160009054906101000a900460ff1660ff16141561223257600560008460ff1660ff16815260200190815260200160002060405180608001604052808460ff16815260200142815260200160011515815260200160001515815250908060018154018082558091505060019003906000526020600020906003020160009091909190915060008201518160000160006101000a81548160ff021916908360ff1602179055506020820151816001015560408201518160020160006101000a81548160ff02191690831515021790555060608201518160020160016101000a81548160ff0219169083151502179055505050600660405180606001604052808560ff1681526020018460ff1681526020016001600560008860ff1660ff16815260200190815260200160002080549050612163919061375b565b60ff168152509080600181540180825580915050600190039060005260206000200160009091909190915060008201518160000160006101000a81548160ff021916908360ff16021790555060208201518160000160016101000a81548160ff021916908360ff16021790555060408201518160000160026101000a81548160ff021916908360ff16021790555050507f187d45cdcffadef7c066a1f9cc05d58c3ec1a3887390655dba7d64bb61c5a66b6001826040516122259291906139b9565b60405180910390a1612346565b600560008460ff1660ff16815260200190815260200160002060405180608001604052808460ff16815260200142815260200160001515815260200160011515815250908060018154018082558091505060019003906000526020600020906003020160009091909190915060008201518160000160006101000a81548160ff021916908360ff1602179055506020820151816001015560408201518160020160006101000a81548160ff02191690831515021790555060608201518160020160016101000a81548160ff02191690831515021790555050507f187d45cdcffadef7c066a1f9cc05d58c3ec1a3887390655dba7d64bb61c5a66b60028260405161233d9291906138f1565b60405180910390a15b5b5b5050505050565b60006003805490508260ff16109050919050565b6006818154811061237357600080fd5b906000526020600020016000915090508060000160009054906101000a900460ff16908060000160019054906101000a900460ff16908060000160029054906101000a900460ff16905083565b6000600380549050905090565b60025481565b60006060806001805490508460ff16106123ec57600080fd5b600015156124b96040518060200160405280600081525060018760ff168154811061241a57612419613678565b5b90600052602060002090600402016001018054612436906136d6565b80601f0160208091040260200160405190810160405280929190818152602001828054612462906136d6565b80156124af5780601f10612484576101008083540402835291602001916124af565b820191906000526020600020905b81548152906001019060200180831161249257829003601f168201915b50505050506116bc565b1515146124c557600080fd5b8360018560ff16815481106124dd576124dc613678565b5b906000526020600020906004020160020160018660ff168154811061250557612504613678565b5b9060005260206000209060040201600301818054612522906136d6565b80601f016020809104026020016040519081016040528092919081815260200182805461254e906136d6565b801561259b5780601f106125705761010080835404028352916020019161259b565b820191906000526020600020905b81548152906001019060200180831161257e57829003601f168201915b505050505091508080546125ae906136d6565b80601f01602080910402602001604051908101604052809291908181526020018280546125da906136d6565b80156126275780601f106125fc57610100808354040283529160200191612627565b820191906000526020600020905b81548152906001019060200180831161260a57829003601f168201915b505050505090509250925092509193909250565b60018054905084108015612718575060001515612714604051806020016040528060008152506001878154811061267557612674613678565b5b90600052602060002090600402016001018054612691906136d6565b80601f01602080910402602001604051908101604052809291908181526020018280546126bd906136d6565b801561270a5780601f106126df5761010080835404028352916020019161270a565b820191906000526020600020905b8154815290600101906020018083116126ed57829003601f168201915b50505050506116bc565b1515145b156127d057826001858154811061273257612731613678565b5b9060005260206000209060040201600201908051906020019061275692919061295a565b50816001858154811061276c5761276b613678565b5b9060005260206000209060040201600301908051906020019061279092919061295a565b507fb011b0f97a46bdb71fb1d82dae0a2b0f9655400eed969769dc22e512e8f16bd26001826040516127c3929190613732565b60405180910390a161280b565b7fb011b0f97a46bdb71fb1d82dae0a2b0f9655400eed969769dc22e512e8f16bd2600082604051612802929190613732565b60405180910390a15b50505050565b60006128a78260008054612824906136d6565b80601f0160208091040260200160405190810160405280929190818152602001828054612850906136d6565b801561289d5780601f106128725761010080835404028352916020019161289d565b820191906000526020600020905b81548152906001019060200180831161288057829003601f168201915b50505050506116bc565b9050919050565b6000600460008360ff1660ff168152602001908152602001600020549050919050565b6000600680549050905090565b60046020528060005260406000206000915090505481565b508054612902906136d6565b6000825580601f106129145750612933565b601f0160209004906000526020600020908101906129329190612a66565b5b50565b50805460008255600302906000526020600020908101906129579190612a83565b50565b828054612966906136d6565b90600052602060002090601f01602090048101928261298857600085556129cf565b82601f106129a157805160ff19168380011785556129cf565b828001600101855582156129cf579182015b828111156129ce5782518255916020019190600101906129b3565b5b5090506129dc9190612a66565b5090565b8280546129ec906136d6565b90600052602060002090601f016020900481019282612a0e5760008555612a55565b82601f10612a2757805160ff1916838001178555612a55565b82800160010185558215612a55579182015b82811115612a54578251825591602001919060010190612a39565b5b509050612a629190612a66565b5090565b5b80821115612a7f576000816000905550600101612a67565b5090565b5b80821115612ada57600080820160006101000a81549060ff021916905560018201600090556002820160006101000a81549060ff02191690556002820160016101000a81549060ff021916905550600301612a84565b5090565b6000604051905090565b600080fd5b600080fd5b600073ffffffffffffffffffffffffffffffffffffffff82169050919050565b6000612b1d82612af2565b9050919050565b612b2d81612b12565b8114612b3857600080fd5b50565b600081359050612b4a81612b24565b92915050565b600080fd5b600080fd5b6000601f19601f8301169050919050565b7f4e487b7100000000000000000000000000000000000000000000000000000000600052604160045260246000fd5b612ba382612b5a565b810181811067ffffffffffffffff82111715612bc257612bc1612b6b565b5b80604052505050565b6000612bd5612ade565b9050612be18282612b9a565b919050565b600067ffffffffffffffff821115612c0157612c00612b6b565b5b612c0a82612b5a565b9050602081019050919050565b82818337600083830152505050565b6000612c39612c3484612be6565b612bcb565b905082815260208101848484011115612c5557612c54612b55565b5b612c60848285612c17565b509392505050565b600082601f830112612c7d57612c7c612b50565b5b8135612c8d848260208601612c26565b91505092915050565b6000819050919050565b612ca981612c96565b8114612cb457600080fd5b50565b600081359050612cc681612ca0565b92915050565b600080600060608486031215612ce557612ce4612ae8565b5b6000612cf386828701612b3b565b935050602084013567ffffffffffffffff811115612d1457612d13612aed565b5b612d2086828701612c68565b9250506040612d3186828701612cb7565b9150509250925092565b60008115159050919050565b612d5081612d3b565b82525050565b6000602082019050612d6b6000830184612d47565b92915050565b612d7a81612c96565b82525050565b6000602082019050612d956000830184612d71565b92915050565b600060208284031215612db157612db0612ae8565b5b6000612dbf84828501612cb7565b91505092915050565b612dd181612b12565b82525050565b600081519050919050565b600082825260208201905092915050565b60005b83811015612e11578082015181840152602081019050612df6565b83811115612e20576000848401525b50505050565b6000612e3182612dd7565b612e3b8185612de2565b9350612e4b818560208601612df3565b612e5481612b5a565b840191505092915050565b6000608082019050612e746000830187612dc8565b8181036020830152612e868186612e26565b90508181036040830152612e9a8185612e26565b90508181036060830152612eae8184612e26565b905095945050505050565b600060ff82169050919050565b612ecf81612eb9565b8114612eda57600080fd5b50565b600081359050612eec81612ec6565b92915050565b60008060408385031215612f0957612f08612ae8565b5b6000612f1785828601612edd565b9250506020612f2885828601612cb7565b9150509250929050565b600080600060608486031215612f4b57612f4a612ae8565b5b6000612f5986828701612edd565b935050602084013567ffffffffffffffff811115612f7a57612f79612aed565b5b612f8686828701612c68565b9250506040612f9786828701612cb7565b9150509250925092565b612faa81612eb9565b82525050565b6000606082019050612fc56000830186612fa1565b612fd26020830185612fa1565b8181036040830152612fe48184612e26565b9050949350505050565b60008060006060848603121561300757613006612ae8565b5b600084013567ffffffffffffffff81111561302557613024612aed565b5b61303186828701612c68565b935050602084013567ffffffffffffffff81111561305257613051612aed565b5b61305e86828701612c68565b925050604061306f86828701612cb7565b9150509250925092565b600080604083850312156130905761308f612ae8565b5b600061309e85828601612edd565b92505060206130af85828601612edd565b9150509250929050565b60006080820190506130ce6000830187612fa1565b6130db6020830186612d71565b6130e86040830185612d47565b6130f56060830184612d47565b95945050505050565b60008060006060848603121561311757613116612ae8565b5b600061312586828701612edd565b935050602061313686828701612edd565b925050604061314786828701612cb7565b9150509250925092565b61315a81612d3b565b811461316557600080fd5b50565b60008135905061317781613151565b92915050565b60008060006060848603121561319657613195612ae8565b5b60006131a486828701612edd565b93505060206131b586828701613168565b92505060406131c686828701612cb7565b9150509250925092565b600080604083850312156131e7576131e6612ae8565b5b600083013567ffffffffffffffff81111561320557613204612aed565b5b61321185828601612c68565b925050602083013567ffffffffffffffff81111561323257613231612aed565b5b61323e85828601612c68565b9150509250929050565b600080600080600060a0868803121561326457613263612ae8565b5b600061327288828901612b3b565b955050602086013567ffffffffffffffff81111561329357613292612aed565b5b61329f88828901612c68565b945050604086013567ffffffffffffffff8111156132c0576132bf612aed565b5b6132cc88828901612c68565b935050606086013567ffffffffffffffff8111156132ed576132ec612aed565b5b6132f988828901612c68565b925050608061330a88828901612cb7565b9150509295509295909350565b600060808201905061332c6000830187612fa1565b6133396020830186612fa1565b6133466040830185612fa1565b6133536060830184612d71565b95945050505050565b60008060006060848603121561337557613374612ae8565b5b600061338386828701612cb7565b935050602084013567ffffffffffffffff8111156133a4576133a3612aed565b5b6133b086828701612c68565b92505060406133c186828701612cb7565b9150509250925092565b6000602082840312156133e1576133e0612ae8565b5b60006133ef84828501612edd565b91505092915050565b600080600080600060a0868803121561341457613413612ae8565b5b600061342288828901612b3b565b955050602086013567ffffffffffffffff81111561344357613442612aed565b5b61344f88828901612c68565b945050604061346088828901612edd565b935050606061347188828901612edd565b925050608061348288828901612cb7565b9150509295509295909350565b60006060820190506134a46000830186612fa1565b6134b16020830185612fa1565b6134be6040830184612fa1565b949350505050565b60006060820190506134db6000830186612fa1565b81810360208301526134ed8185612e26565b905081810360408301526135018184612e26565b9050949350505050565b6000806000806080858703121561352557613524612ae8565b5b600061353387828801612cb7565b945050602085013567ffffffffffffffff81111561355457613553612aed565b5b61356087828801612c68565b935050604085013567ffffffffffffffff81111561358157613580612aed565b5b61358d87828801612c68565b925050606061359e87828801612cb7565b91505092959194509250565b6000602082840312156135c0576135bf612ae8565b5b600082013567ffffffffffffffff8111156135de576135dd612aed565b5b6135ea84828501612c68565b91505092915050565b7f4e487b7100000000000000000000000000000000000000000000000000000000600052601160045260246000fd5b600061362d82612c96565b915061363883612c96565b9250827fffffffffffffffffffffffffffffffffffffffffffffffffffffffffffffffff0382111561366d5761366c6135f3565b5b828201905092915050565b7f4e487b7100000000000000000000000000000000000000000000000000000000600052603260045260246000fd5b7f4e487b7100000000000000000000000000000000000000000000000000000000600052602260045260246000fd5b600060028204905060018216806136ee57607f821691505b60208210811415613702576137016136a7565b5b50919050565b600061371382612c96565b91506000821415613727576137266135f3565b5b600182039050919050565b60006040820190506137476000830185612d47565b6137546020830184612d71565b9392505050565b600061376682612c96565b915061377183612c96565b925082821015613784576137836135f3565b5b828203905092915050565b7f4e487b7100000000000000000000000000000000000000000000000000000000600052603160045260246000fd5b600081905092915050565b60006137d482612dd7565b6137de81856137be565b93506137ee818560208601612df3565b80840191505092915050565b600061380682846137c9565b915081905092915050565b600061381c82612c96565b91507fffffffffffffffffffffffffffffffffffffffffffffffffffffffffffffffff82141561384f5761384e6135f3565b5b600182019050919050565b600060408201905061386f6000830185612fa1565b61387c6020830184612d71565b9392505050565b60006040820190506138986000830185612d71565b6138a56020830184612d71565b9392505050565b6000819050919050565b6000819050919050565b60006138db6138d66138d1846138ac565b6138b6565b612c96565b9050919050565b6138eb816138c0565b82525050565b600060408201905061390660008301856138e2565b6139136020830184612d71565b9392505050565b6000819050919050565b600061393f61393a6139358461391a565b6138b6565b612c96565b9050919050565b61394f81613924565b82525050565b600060408201905061396a6000830185613946565b6139776020830184612d71565b9392505050565b6000819050919050565b60006139a361399e6139998461397e565b6138b6565b612c96565b9050919050565b6139b381613988565b82525050565b60006040820190506139ce60008301856139aa565b6139db6020830184612d71565b939250505056fea2646970667358221220db768a4ee96478756cef10ec43f3e0909d3f454e95155caf20f1787f9e5c330d64736f6c634300080c0033","opcodes":"PUSH1 0x80 PUSH1 0x40 MSTORE PUSH1 0xC PUSH8 0xFFFFFFFFFFFFFFFF DUP2 GT ISZERO PUSH3 0x22 JUMPI PUSH3 0x21 PUSH3 0x619 JUMP JUMPDEST JUMPDEST PUSH1 0x40 MLOAD SWAP1 DUP1 DUP3 MSTORE DUP1 PUSH1 0x1F ADD PUSH1 0x1F NOT AND PUSH1 0x20 ADD DUP3 ADD PUSH1 0x40 MSTORE DUP1 ISZERO PUSH3 0x55 JUMPI DUP2 PUSH1 0x20 ADD PUSH1 0x1 DUP3 MUL DUP1 CALLDATASIZE DUP4 CALLDATACOPY DUP1 DUP3 ADD SWAP2 POP POP SWAP1 POP JUMPDEST POP PUSH1 0x0 SWAP1 DUP1 MLOAD SWAP1 PUSH1 0x20 ADD SWAP1 PUSH3 0x6D SWAP3 SWAP2 SWAP1 PUSH3 0x447 JUMP JUMPDEST POP PUSH1 0x0 PUSH1 0x2 SSTORE CALLVALUE DUP1 ISZERO PUSH3 0x80 JUMPI PUSH1 0x0 DUP1 REVERT JUMPDEST POP PUSH1 0x40 MLOAD DUP1 PUSH1 0x20 ADD PUSH1 0x40 MSTORE DUP1 PUSH1 0x0 DUP2 MSTORE POP PUSH1 0x0 SWAP1 DUP1 MLOAD SWAP1 PUSH1 0x20 ADD SWAP1 PUSH3 0xA8 SWAP3 SWAP2 SWAP1 PUSH3 0x4D8 JUMP JUMPDEST POP PUSH1 0x3 PUSH1 0x40 MLOAD DUP1 PUSH1 0x60 ADD PUSH1 0x40 MSTORE DUP1 PUSH1 0x0 PUSH1 0xFF AND DUP2 MSTORE PUSH1 0x20 ADD PUSH1 0x0 PUSH1 0xFF AND DUP2 MSTORE PUSH1 0x20 ADD PUSH1 0x40 MLOAD DUP1 PUSH1 0x40 ADD PUSH1 0x40 MSTORE DUP1 PUSH1 0x5 DUP2 MSTORE PUSH1 0x20 ADD PUSH32 0x506C61696E000000000000000000000000000000000000000000000000000000 DUP2 MSTORE POP DUP2 MSTORE POP SWAP1 DUP1 PUSH1 0x1 DUP2 SLOAD ADD DUP1 DUP3 SSTORE DUP1 SWAP2 POP POP PUSH1 0x1 SWAP1 SUB SWAP1 PUSH1 0x0 MSTORE PUSH1 0x20 PUSH1 0x0 KECCAK256 SWAP1 PUSH1 0x2 MUL ADD PUSH1 0x0 SWAP1 SWAP2 SWAP1 SWAP2 SWAP1 SWAP2 POP PUSH1 0x0 DUP3 ADD MLOAD DUP2 PUSH1 0x0 ADD PUSH1 0x0 PUSH2 0x100 EXP DUP2 SLOAD DUP2 PUSH1 0xFF MUL NOT AND SWAP1 DUP4 PUSH1 0xFF AND MUL OR SWAP1 SSTORE POP PUSH1 0x20 DUP3 ADD MLOAD DUP2 PUSH1 0x0 ADD PUSH1 0x1 PUSH2 0x100 EXP DUP2 SLOAD DUP2 PUSH1 0xFF MUL NOT AND SWAP1 DUP4 PUSH1 0xFF AND MUL OR SWAP1 SSTORE POP PUSH1 0x40 DUP3 ADD MLOAD DUP2 PUSH1 0x1 ADD SWAP1 DUP1 MLOAD SWAP1 PUSH1 0x20 ADD SWAP1 PUSH3 0x18C SWAP3 SWAP2 SWAP1 PUSH3 0x569 JUMP JUMPDEST POP POP POP PUSH1 0x3 PUSH1 0x40 MLOAD DUP1 PUSH1 0x60 ADD PUSH1 0x40 MSTORE DUP1 PUSH1 0x1 PUSH1 0xFF AND DUP2 MSTORE PUSH1 0x20 ADD PUSH1 0x1 PUSH1 0xFF AND DUP2 MSTORE PUSH1 0x20 ADD PUSH1 0x40 MLOAD DUP1 PUSH1 0x40 ADD PUSH1 0x40 MSTORE DUP1 PUSH1 0x6 DUP2 MSTORE PUSH1 0x20 ADD PUSH32 0x4E6F726D616C0000000000000000000000000000000000000000000000000000 DUP2 MSTORE POP DUP2 MSTORE POP SWAP1 DUP1 PUSH1 0x1 DUP2 SLOAD ADD DUP1 DUP3 SSTORE DUP1 SWAP2 POP POP PUSH1 0x1 SWAP1 SUB SWAP1 PUSH1 0x0 MSTORE PUSH1 0x20 PUSH1 0x0 KECCAK256 SWAP1 PUSH1 0x2 MUL ADD PUSH1 0x0 SWAP1 SWAP2 SWAP1 SWAP2 SWAP1 SWAP2 POP PUSH1 0x0 DUP3 ADD MLOAD DUP2 PUSH1 0x0 ADD PUSH1 0x0 PUSH2 0x100 EXP DUP2 SLOAD DUP2 PUSH1 0xFF MUL NOT AND SWAP1 DUP4 PUSH1 0xFF AND MUL OR SWAP1 SSTORE POP PUSH1 0x20 DUP3 ADD MLOAD DUP2 PUSH1 0x0 ADD PUSH1 0x1 PUSH2 0x100 EXP DUP2 SLOAD DUP2 PUSH1 0xFF MUL NOT AND SWAP1 DUP4 PUSH1 0xFF AND MUL OR SWAP1 SSTORE POP PUSH1 0x40 DUP3 ADD MLOAD DUP2 PUSH1 0x1 ADD SWAP1 DUP1 MLOAD SWAP1 PUSH1 0x20 ADD SWAP1 PUSH3 0x272 SWAP3 SWAP2 SWAP1 PUSH3 0x569 JUMP JUMPDEST POP POP POP PUSH1 0x3 PUSH1 0x40 MLOAD DUP1 PUSH1 0x60 ADD PUSH1 0x40 MSTORE DUP1 PUSH1 0x2 PUSH1 0xFF AND DUP2 MSTORE PUSH1 0x20 ADD PUSH1 0x2 PUSH1 0xFF AND DUP2 MSTORE PUSH1 0x20 ADD PUSH1 0x40 MLOAD DUP1 PUSH1 0x40 ADD PUSH1 0x40 MSTORE DUP1 PUSH1 0x7 DUP2 MSTORE PUSH1 0x20 ADD PUSH32 0x5761726E696E6700000000000000000000000000000000000000000000000000 DUP2 MSTORE POP DUP2 MSTORE POP SWAP1 DUP1 PUSH1 0x1 DUP2 SLOAD ADD DUP1 DUP3 SSTORE DUP1 SWAP2 POP POP PUSH1 0x1 SWAP1 SUB SWAP1 PUSH1 0x0 MSTORE PUSH1 0x20 PUSH1 0x0 KECCAK256 SWAP1 PUSH1 0x2 MUL ADD PUSH1 0x0 SWAP1 SWAP2 SWAP1 SWAP2 SWAP1 SWAP2 POP PUSH1 0x0 DUP3 ADD MLOAD DUP2 PUSH1 0x0 ADD PUSH1 0x0 PUSH2 0x100 EXP DUP2 SLOAD DUP2 PUSH1 0xFF MUL NOT AND SWAP1 DUP4 PUSH1 0xFF AND MUL OR SWAP1 SSTORE POP PUSH1 0x20 DUP3 ADD MLOAD DUP2 PUSH1 0x0 ADD PUSH1 0x1 PUSH2 0x100 EXP DUP2 SLOAD DUP2 PUSH1 0xFF MUL NOT AND SWAP1 DUP4 PUSH1 0xFF AND MUL OR SWAP1 SSTORE POP PUSH1 0x40 DUP3 ADD MLOAD DUP2 PUSH1 0x1 ADD SWAP1 DUP1 MLOAD SWAP1 PUSH1 0x20 ADD SWAP1 PUSH3 0x358 SWAP3 SWAP2 SWAP1 PUSH3 0x569 JUMP JUMPDEST POP POP POP PUSH1 0x3 PUSH1 0x40 MLOAD DUP1 PUSH1 0x60 ADD PUSH1 0x40 MSTORE DUP1 PUSH1 0x3 PUSH1 0xFF AND DUP2 MSTORE PUSH1 0x20 ADD PUSH1 0x3 PUSH1 0xFF AND DUP2 MSTORE PUSH1 0x20 ADD PUSH1 0x40 MLOAD DUP1 PUSH1 0x40 ADD PUSH1 0x40 MSTORE DUP1 PUSH1 0x6 DUP2 MSTORE PUSH1 0x20 ADD PUSH32 0x52656A6563740000000000000000000000000000000000000000000000000000 DUP2 MSTORE POP DUP2 MSTORE POP SWAP1 DUP1 PUSH1 0x1 DUP2 SLOAD ADD DUP1 DUP3 SSTORE DUP1 SWAP2 POP POP PUSH1 0x1 SWAP1 SUB SWAP1 PUSH1 0x0 MSTORE PUSH1 0x20 PUSH1 0x0 KECCAK256 SWAP1 PUSH1 0x2 MUL ADD PUSH1 0x0 SWAP1 SWAP2 SWAP1 SWAP2 SWAP1 SWAP2 POP PUSH1 0x0 DUP3 ADD MLOAD DUP2 PUSH1 0x0 ADD PUSH1 0x0 PUSH2 0x100 EXP DUP2 SLOAD DUP2 PUSH1 0xFF MUL NOT AND SWAP1 DUP4 PUSH1 0xFF AND MUL OR SWAP1 SSTORE POP PUSH1 0x20 DUP3 ADD MLOAD DUP2 PUSH1 0x0 ADD PUSH1 0x1 PUSH2 0x100 EXP DUP2 SLOAD DUP2 PUSH1 0xFF MUL NOT AND SWAP1 DUP4 PUSH1 0xFF AND MUL OR SWAP1 SSTORE POP PUSH1 0x40 DUP3 ADD MLOAD DUP2 PUSH1 0x1 ADD SWAP1 DUP1 MLOAD SWAP1 PUSH1 0x20 ADD SWAP1 PUSH3 0x43E SWAP3 SWAP2 SWAP1 PUSH3 0x569 JUMP JUMPDEST POP POP POP PUSH3 0x6AD JUMP JUMPDEST DUP3 DUP1 SLOAD PUSH3 0x455 SWAP1 PUSH3 0x677 JUMP JUMPDEST SWAP1 PUSH1 0x0 MSTORE PUSH1 0x20 PUSH1 0x0 KECCAK256 SWAP1 PUSH1 0x1F ADD PUSH1 0x20 SWAP1 DIV DUP2 ADD SWAP3 DUP3 PUSH3 0x479 JUMPI PUSH1 0x0 DUP6 SSTORE PUSH3 0x4C5 JUMP JUMPDEST DUP3 PUSH1 0x1F LT PUSH3 0x494 JUMPI DUP1 MLOAD PUSH1 0xFF NOT AND DUP4 DUP1 ADD OR DUP6 SSTORE PUSH3 0x4C5 JUMP JUMPDEST DUP3 DUP1 ADD PUSH1 0x1 ADD DUP6 SSTORE DUP3 ISZERO PUSH3 0x4C5 JUMPI SWAP2 DUP3 ADD JUMPDEST DUP3 DUP2 GT ISZERO PUSH3 0x4C4 JUMPI DUP3 MLOAD DUP3 SSTORE SWAP2 PUSH1 0x20 ADD SWAP2 SWAP1 PUSH1 0x1 ADD SWAP1 PUSH3 0x4A7 JUMP JUMPDEST JUMPDEST POP SWAP1 POP PUSH3 0x4D4 SWAP2 SWAP1 PUSH3 0x5FA JUMP JUMPDEST POP SWAP1 JUMP JUMPDEST DUP3 DUP1 SLOAD PUSH3 0x4E6 SWAP1 PUSH3 0x677 JUMP JUMPDEST SWAP1 PUSH1 0x0 MSTORE PUSH1 0x20 PUSH1 0x0 KECCAK256 SWAP1 PUSH1 0x1F ADD PUSH1 0x20 SWAP1 DIV DUP2 ADD SWAP3 DUP3 PUSH3 0x50A JUMPI PUSH1 0x0 DUP6 SSTORE PUSH3 0x556 JUMP JUMPDEST DUP3 PUSH1 0x1F LT PUSH3 0x525 JUMPI DUP1 MLOAD PUSH1 0xFF NOT AND DUP4 DUP1 ADD OR DUP6 SSTORE PUSH3 0x556 JUMP JUMPDEST DUP3 DUP1 ADD PUSH1 0x1 ADD DUP6 SSTORE DUP3 ISZERO PUSH3 0x556 JUMPI SWAP2 DUP3 ADD JUMPDEST DUP3 DUP2 GT ISZERO PUSH3 0x555 JUMPI DUP3 MLOAD DUP3 SSTORE SWAP2 PUSH1 0x20 ADD SWAP2 SWAP1 PUSH1 0x1 ADD SWAP1 PUSH3 0x538 JUMP JUMPDEST JUMPDEST POP SWAP1 POP PUSH3 0x565 SWAP2 SWAP1 PUSH3 0x5FA JUMP JUMPDEST POP SWAP1 JUMP JUMPDEST DUP3 DUP1 SLOAD PUSH3 0x577 SWAP1 PUSH3 0x677 JUMP JUMPDEST SWAP1 PUSH1 0x0 MSTORE PUSH1 0x20 PUSH1 0x0 KECCAK256 SWAP1 PUSH1 0x1F ADD PUSH1 0x20 SWAP1 DIV DUP2 ADD SWAP3 DUP3 PUSH3 0x59B JUMPI PUSH1 0x0 DUP6 SSTORE PUSH3 0x5E7 JUMP JUMPDEST DUP3 PUSH1 0x1F LT PUSH3 0x5B6 JUMPI DUP1 MLOAD PUSH1 0xFF NOT AND DUP4 DUP1 ADD OR DUP6 SSTORE PUSH3 0x5E7 JUMP JUMPDEST DUP3 DUP1 ADD PUSH1 0x1 ADD DUP6 SSTORE DUP3 ISZERO PUSH3 0x5E7 JUMPI SWAP2 DUP3 ADD JUMPDEST DUP3 DUP2 GT ISZERO PUSH3 0x5E6 JUMPI DUP3 MLOAD DUP3 SSTORE SWAP2 PUSH1 0x20 ADD SWAP2 SWAP1 PUSH1 0x1 ADD SWAP1 PUSH3 0x5C9 JUMP JUMPDEST JUMPDEST POP SWAP1 POP PUSH3 0x5F6 SWAP2 SWAP1 PUSH3 0x5FA JUMP JUMPDEST POP SWAP1 JUMP JUMPDEST JUMPDEST DUP1 DUP3 GT ISZERO PUSH3 0x615 JUMPI PUSH1 0x0 DUP2 PUSH1 0x0 SWAP1 SSTORE POP PUSH1 0x1 ADD PUSH3 0x5FB JUMP JUMPDEST POP SWAP1 JUMP JUMPDEST PUSH32 0x4E487B7100000000000000000000000000000000000000000000000000000000 PUSH1 0x0 MSTORE PUSH1 0x41 PUSH1 0x4 MSTORE PUSH1 0x24 PUSH1 0x0 REVERT JUMPDEST PUSH32 0x4E487B7100000000000000000000000000000000000000000000000000000000 PUSH1 0x0 MSTORE PUSH1 0x22 PUSH1 0x4 MSTORE PUSH1 0x24 PUSH1 0x0 REVERT JUMPDEST PUSH1 0x0 PUSH1 0x2 DUP3 DIV SWAP1 POP PUSH1 0x1 DUP3 AND DUP1 PUSH3 0x690 JUMPI PUSH1 0x7F DUP3 AND SWAP2 POP JUMPDEST PUSH1 0x20 DUP3 LT DUP2 EQ ISZERO PUSH3 0x6A7 JUMPI PUSH3 0x6A6 PUSH3 0x648 JUMP JUMPDEST JUMPDEST POP SWAP2 SWAP1 POP JUMP JUMPDEST PUSH2 0x3A18 DUP1 PUSH3 0x6BD PUSH1 0x0 CODECOPY PUSH1 0x0 RETURN INVALID PUSH1 0x80 PUSH1 0x40 MSTORE CALLVALUE DUP1 ISZERO PUSH2 0x10 JUMPI PUSH1 0x0 DUP1 REVERT JUMPDEST POP PUSH1 0x4 CALLDATASIZE LT PUSH2 0x1DA JUMPI PUSH1 0x0 CALLDATALOAD PUSH1 0xE0 SHR DUP1 PUSH4 0xA185AA32 GT PUSH2 0x104 JUMPI DUP1 PUSH4 0xC88806EB GT PUSH2 0xA2 JUMPI DUP1 PUSH4 0xE4DB2CEB GT PUSH2 0x71 JUMPI DUP1 PUSH4 0xE4DB2CEB EQ PUSH2 0x5C3 JUMPI DUP1 PUSH4 0xF38F959B EQ PUSH2 0x5F3 JUMPI DUP1 PUSH4 0xF586C695 EQ PUSH2 0x623 JUMPI DUP1 PUSH4 0xF5D75FF9 EQ PUSH2 0x641 JUMPI PUSH2 0x1DA JUMP JUMPDEST DUP1 PUSH4 0xC88806EB EQ PUSH2 0x539 JUMPI DUP1 PUSH4 0xC982A2BB EQ PUSH2 0x557 JUMPI DUP1 PUSH4 0xCF9253EF EQ PUSH2 0x575 JUMPI DUP1 PUSH4 0xD938B594 EQ PUSH2 0x5A7 JUMPI PUSH2 0x1DA JUMP JUMPDEST DUP1 PUSH4 0xA65A2E19 GT PUSH2 0xDE JUMPI DUP1 PUSH4 0xA65A2E19 EQ PUSH2 0x48B JUMPI DUP1 PUSH4 0xBC08BFAC EQ PUSH2 0x4BB JUMPI DUP1 PUSH4 0xC1260E66 EQ PUSH2 0x4D7 JUMPI DUP1 PUSH4 0xC4F48625 EQ PUSH2 0x507 JUMPI PUSH2 0x1DA JUMP JUMPDEST DUP1 PUSH4 0xA185AA32 EQ PUSH2 0x40A JUMPI DUP1 PUSH4 0xA2BE951C EQ PUSH2 0x43D JUMPI DUP1 PUSH4 0xA43D20ED EQ PUSH2 0x459 JUMPI PUSH2 0x1DA JUMP JUMPDEST DUP1 PUSH4 0x50E3F3D4 GT PUSH2 0x17C JUMPI DUP1 PUSH4 0x87C5D5CC GT PUSH2 0x14B JUMPI DUP1 PUSH4 0x87C5D5CC EQ PUSH2 0x36F JUMPI DUP1 PUSH4 0x9CDB785D EQ PUSH2 0x39F JUMPI DUP1 PUSH4 0x9F91A7F8 EQ PUSH2 0x3D2 JUMPI DUP1 PUSH4 0xA1691374 EQ PUSH2 0x3EE JUMPI PUSH2 0x1DA JUMP JUMPDEST DUP1 PUSH4 0x50E3F3D4 EQ PUSH2 0x2E8 JUMPI DUP1 PUSH4 0x55DF0AC4 EQ PUSH2 0x304 JUMPI DUP1 PUSH4 0x6521D408 EQ PUSH2 0x337 JUMPI DUP1 PUSH4 0x736F7826 EQ PUSH2 0x353 JUMPI PUSH2 0x1DA JUMP JUMPDEST DUP1 PUSH4 0x25608EE0 GT PUSH2 0x1B8 JUMPI DUP1 PUSH4 0x25608EE0 EQ PUSH2 0x260 JUMPI DUP1 PUSH4 0x269C969B EQ PUSH2 0x27C JUMPI DUP1 PUSH4 0x3EE92A08 EQ PUSH2 0x298 JUMPI DUP1 PUSH4 0x40BF1328 EQ PUSH2 0x2B6 JUMPI PUSH2 0x1DA JUMP JUMPDEST DUP1 PUSH4 0xDB638F5 EQ PUSH2 0x1DF JUMPI DUP1 PUSH4 0xE4DF87F EQ PUSH2 0x20F JUMPI DUP1 PUSH4 0x10FF8E31 EQ PUSH2 0x22D JUMPI JUMPDEST PUSH1 0x0 DUP1 REVERT JUMPDEST PUSH2 0x1F9 PUSH1 0x4 DUP1 CALLDATASIZE SUB DUP2 ADD SWAP1 PUSH2 0x1F4 SWAP2 SWAP1 PUSH2 0x2CCC JUMP JUMPDEST PUSH2 0x671 JUMP JUMPDEST PUSH1 0x40 MLOAD PUSH2 0x206 SWAP2 SWAP1 PUSH2 0x2D56 JUMP JUMPDEST PUSH1 0x40 MLOAD DUP1 SWAP2 SUB SWAP1 RETURN JUMPDEST PUSH2 0x217 PUSH2 0x8B4 JUMP JUMPDEST PUSH1 0x40 MLOAD PUSH2 0x224 SWAP2 SWAP1 PUSH2 0x2D80 JUMP JUMPDEST PUSH1 0x40 MLOAD DUP1 SWAP2 SUB SWAP1 RETURN JUMPDEST PUSH2 0x247 PUSH1 0x4 DUP1 CALLDATASIZE SUB DUP2 ADD SWAP1 PUSH2 0x242 SWAP2 SWAP1 PUSH2 0x2D9B JUMP JUMPDEST PUSH2 0x8C1 JUMP JUMPDEST PUSH1 0x40 MLOAD PUSH2 0x257 SWAP5 SWAP4 SWAP3 SWAP2 SWAP1 PUSH2 0x2E5F JUMP JUMPDEST PUSH1 0x40 MLOAD DUP1 SWAP2 SUB SWAP1 RETURN JUMPDEST PUSH2 0x27A PUSH1 0x4 DUP1 CALLDATASIZE SUB DUP2 ADD SWAP1 PUSH2 0x275 SWAP2 SWAP1 PUSH2 0x2EF2 JUMP JUMPDEST PUSH2 0xAB9 JUMP JUMPDEST STOP JUMPDEST PUSH2 0x296 PUSH1 0x4 DUP1 CALLDATASIZE SUB DUP2 ADD SWAP1 PUSH2 0x291 SWAP2 SWAP1 PUSH2 0x2F32 JUMP JUMPDEST PUSH2 0xCDB JUMP JUMPDEST STOP JUMPDEST PUSH2 0x2A0 PUSH2 0xDAC JUMP JUMPDEST PUSH1 0x40 MLOAD PUSH2 0x2AD SWAP2 SWAP1 PUSH2 0x2D80 JUMP JUMPDEST PUSH1 0x40 MLOAD DUP1 SWAP2 SUB SWAP1 RETURN JUMPDEST PUSH2 0x2D0 PUSH1 0x4 DUP1 CALLDATASIZE SUB DUP2 ADD SWAP1 PUSH2 0x2CB SWAP2 SWAP1 PUSH2 0x2D9B JUMP JUMPDEST PUSH2 0xDB6 JUMP JUMPDEST PUSH1 0x40 MLOAD PUSH2 0x2DF SWAP4 SWAP3 SWAP2 SWAP1 PUSH2 0x2FB0 JUMP JUMPDEST PUSH1 0x40 MLOAD DUP1 SWAP2 SUB SWAP1 RETURN JUMPDEST PUSH2 0x302 PUSH1 0x4 DUP1 CALLDATASIZE SUB DUP2 ADD SWAP1 PUSH2 0x2FD SWAP2 SWAP1 PUSH2 0x2FEE JUMP JUMPDEST PUSH2 0xE92 JUMP JUMPDEST STOP JUMPDEST PUSH2 0x31E PUSH1 0x4 DUP1 CALLDATASIZE SUB DUP2 ADD SWAP1 PUSH2 0x319 SWAP2 SWAP1 PUSH2 0x3079 JUMP JUMPDEST PUSH2 0xFC8 JUMP JUMPDEST PUSH1 0x40 MLOAD PUSH2 0x32E SWAP5 SWAP4 SWAP3 SWAP2 SWAP1 PUSH2 0x30B9 JUMP JUMPDEST PUSH1 0x40 MLOAD DUP1 SWAP2 SUB SWAP1 RETURN JUMPDEST PUSH2 0x351 PUSH1 0x4 DUP1 CALLDATASIZE SUB DUP2 ADD SWAP1 PUSH2 0x34C SWAP2 SWAP1 PUSH2 0x30FE JUMP JUMPDEST PUSH2 0x11DF JUMP JUMPDEST STOP JUMPDEST PUSH2 0x36D PUSH1 0x4 DUP1 CALLDATASIZE SUB DUP2 ADD SWAP1 PUSH2 0x368 SWAP2 SWAP1 PUSH2 0x317D JUMP JUMPDEST PUSH2 0x12C3 JUMP JUMPDEST STOP JUMPDEST PUSH2 0x389 PUSH1 0x4 DUP1 CALLDATASIZE SUB DUP2 ADD SWAP1 PUSH2 0x384 SWAP2 SWAP1 PUSH2 0x31D0 JUMP JUMPDEST PUSH2 0x16BC JUMP JUMPDEST PUSH1 0x40 MLOAD PUSH2 0x396 SWAP2 SWAP1 PUSH2 0x2D56 JUMP JUMPDEST PUSH1 0x40 MLOAD DUP1 SWAP2 SUB SWAP1 RETURN JUMPDEST PUSH2 0x3B9 PUSH1 0x4 DUP1 CALLDATASIZE SUB DUP2 ADD SWAP1 PUSH2 0x3B4 SWAP2 SWAP1 PUSH2 0x2EF2 JUMP JUMPDEST PUSH2 0x1731 JUMP JUMPDEST PUSH1 0x40 MLOAD PUSH2 0x3C9 SWAP5 SWAP4 SWAP3 SWAP2 SWAP1 PUSH2 0x30B9 JUMP JUMPDEST PUSH1 0x40 MLOAD DUP1 SWAP2 SUB SWAP1 RETURN JUMPDEST PUSH2 0x3EC PUSH1 0x4 DUP1 CALLDATASIZE SUB DUP2 ADD SWAP1 PUSH2 0x3E7 SWAP2 SWAP1 PUSH2 0x3248 JUMP JUMPDEST PUSH2 0x17A5 JUMP JUMPDEST STOP JUMPDEST PUSH2 0x408 PUSH1 0x4 DUP1 CALLDATASIZE SUB DUP2 ADD SWAP1 PUSH2 0x403 SWAP2 SWAP1 PUSH2 0x2F32 JUMP JUMPDEST PUSH2 0x1904 JUMP JUMPDEST STOP JUMPDEST PUSH2 0x424 PUSH1 0x4 DUP1 CALLDATASIZE SUB DUP2 ADD SWAP1 PUSH2 0x41F SWAP2 SWAP1 PUSH2 0x2D9B JUMP JUMPDEST PUSH2 0x1A40 JUMP JUMPDEST PUSH1 0x40 MLOAD PUSH2 0x434 SWAP5 SWAP4 SWAP3 SWAP2 SWAP1 PUSH2 0x3317 JUMP JUMPDEST PUSH1 0x40 MLOAD DUP1 SWAP2 SUB SWAP1 RETURN JUMPDEST PUSH2 0x457 PUSH1 0x4 DUP1 CALLDATASIZE SUB DUP2 ADD SWAP1 PUSH2 0x452 SWAP2 SWAP1 PUSH2 0x335C JUMP JUMPDEST PUSH2 0x1AE3 JUMP JUMPDEST STOP JUMPDEST PUSH2 0x473 PUSH1 0x4 DUP1 CALLDATASIZE SUB DUP2 ADD SWAP1 PUSH2 0x46E SWAP2 SWAP1 PUSH2 0x33CB JUMP JUMPDEST PUSH2 0x1B59 JUMP JUMPDEST PUSH1 0x40 MLOAD PUSH2 0x482 SWAP4 SWAP3 SWAP2 SWAP1 PUSH2 0x2FB0 JUMP JUMPDEST PUSH1 0x40 MLOAD DUP1 SWAP2 SUB SWAP1 RETURN JUMPDEST PUSH2 0x4A5 PUSH1 0x4 DUP1 CALLDATASIZE SUB DUP2 ADD SWAP1 PUSH2 0x4A0 SWAP2 SWAP1 PUSH2 0x33CB JUMP JUMPDEST PUSH2 0x1C56 JUMP JUMPDEST PUSH1 0x40 MLOAD PUSH2 0x4B2 SWAP2 SWAP1 PUSH2 0x2D80 JUMP JUMPDEST PUSH1 0x40 MLOAD DUP1 SWAP2 SUB SWAP1 RETURN JUMPDEST PUSH2 0x4D5 PUSH1 0x4 DUP1 CALLDATASIZE SUB DUP2 ADD SWAP1 PUSH2 0x4D0 SWAP2 SWAP1 PUSH2 0x33F8 JUMP JUMPDEST PUSH2 0x1D54 JUMP JUMPDEST STOP JUMPDEST PUSH2 0x4F1 PUSH1 0x4 DUP1 CALLDATASIZE SUB DUP2 ADD SWAP1 PUSH2 0x4EC SWAP2 SWAP1 PUSH2 0x33CB JUMP JUMPDEST PUSH2 0x234F JUMP JUMPDEST PUSH1 0x40 MLOAD PUSH2 0x4FE SWAP2 SWAP1 PUSH2 0x2D56 JUMP JUMPDEST PUSH1 0x40 MLOAD DUP1 SWAP2 SUB SWAP1 RETURN JUMPDEST PUSH2 0x521 PUSH1 0x4 DUP1 CALLDATASIZE SUB DUP2 ADD SWAP1 PUSH2 0x51C SWAP2 SWAP1 PUSH2 0x2D9B JUMP JUMPDEST PUSH2 0x2363 JUMP JUMPDEST PUSH1 0x40 MLOAD PUSH2 0x530 SWAP4 SWAP3 SWAP2 SWAP1 PUSH2 0x348F JUMP JUMPDEST PUSH1 0x40 MLOAD DUP1 SWAP2 SUB SWAP1 RETURN JUMPDEST PUSH2 0x541 PUSH2 0x23C0 JUMP JUMPDEST PUSH1 0x40 MLOAD PUSH2 0x54E SWAP2 SWAP1 PUSH2 0x2D80 JUMP JUMPDEST PUSH1 0x40 MLOAD DUP1 SWAP2 SUB SWAP1 RETURN JUMPDEST PUSH2 0x55F PUSH2 0x23CD JUMP JUMPDEST PUSH1 0x40 MLOAD PUSH2 0x56C SWAP2 SWAP1 PUSH2 0x2D80 JUMP JUMPDEST PUSH1 0x40 MLOAD DUP1 SWAP2 SUB SWAP1 RETURN JUMPDEST PUSH2 0x58F PUSH1 0x4 DUP1 CALLDATASIZE SUB DUP2 ADD SWAP1 PUSH2 0x58A SWAP2 SWAP1 PUSH2 0x33CB JUMP JUMPDEST PUSH2 0x23D3 JUMP JUMPDEST PUSH1 0x40 MLOAD PUSH2 0x59E SWAP4 SWAP3 SWAP2 SWAP1 PUSH2 0x34C6 JUMP JUMPDEST PUSH1 0x40 MLOAD DUP1 SWAP2 SUB SWAP1 RETURN JUMPDEST PUSH2 0x5C1 PUSH1 0x4 DUP1 CALLDATASIZE SUB DUP2 ADD SWAP1 PUSH2 0x5BC SWAP2 SWAP1 PUSH2 0x350B JUMP JUMPDEST PUSH2 0x263B JUMP JUMPDEST STOP JUMPDEST PUSH2 0x5DD PUSH1 0x4 DUP1 CALLDATASIZE SUB DUP2 ADD SWAP1 PUSH2 0x5D8 SWAP2 SWAP1 PUSH2 0x35AA JUMP JUMPDEST PUSH2 0x2811 JUMP JUMPDEST PUSH1 0x40 MLOAD PUSH2 0x5EA SWAP2 SWAP1 PUSH2 0x2D56 JUMP JUMPDEST PUSH1 0x40 MLOAD DUP1 SWAP2 SUB SWAP1 RETURN JUMPDEST PUSH2 0x60D PUSH1 0x4 DUP1 CALLDATASIZE SUB DUP2 ADD SWAP1 PUSH2 0x608 SWAP2 SWAP1 PUSH2 0x33CB JUMP JUMPDEST PUSH2 0x28AE JUMP JUMPDEST PUSH1 0x40 MLOAD PUSH2 0x61A SWAP2 SWAP1 PUSH2 0x2D80 JUMP JUMPDEST PUSH1 0x40 MLOAD DUP1 SWAP2 SUB SWAP1 RETURN JUMPDEST PUSH2 0x62B PUSH2 0x28D1 JUMP JUMPDEST PUSH1 0x40 MLOAD PUSH2 0x638 SWAP2 SWAP1 PUSH2 0x2D80 JUMP JUMPDEST PUSH1 0x40 MLOAD DUP1 SWAP2 SUB SWAP1 RETURN JUMPDEST PUSH2 0x65B PUSH1 0x4 DUP1 CALLDATASIZE SUB DUP2 ADD SWAP1 PUSH2 0x656 SWAP2 SWAP1 PUSH2 0x33CB JUMP JUMPDEST PUSH2 0x28DE JUMP JUMPDEST PUSH1 0x40 MLOAD PUSH2 0x668 SWAP2 SWAP1 PUSH2 0x2D80 JUMP JUMPDEST PUSH1 0x40 MLOAD DUP1 SWAP2 SUB SWAP1 RETURN JUMPDEST PUSH1 0x0 PUSH1 0x1 DUP1 SLOAD SWAP1 POP PUSH1 0x1 DUP4 PUSH2 0x686 SWAP2 SWAP1 PUSH2 0x3622 JUMP JUMPDEST GT ISZERO PUSH2 0x695 JUMPI PUSH1 0x0 SWAP1 POP PUSH2 0x8AD JUMP JUMPDEST PUSH1 0x1 ISZERO ISZERO PUSH2 0x75F PUSH1 0x40 MLOAD DUP1 PUSH1 0x20 ADD PUSH1 0x40 MSTORE DUP1 PUSH1 0x0 DUP2 MSTORE POP PUSH1 0x1 DUP6 DUP2 SLOAD DUP2 LT PUSH2 0x6C0 JUMPI PUSH2 0x6BF PUSH2 0x3678 JUMP JUMPDEST JUMPDEST SWAP1 PUSH1 0x0 MSTORE PUSH1 0x20 PUSH1 0x0 KECCAK256 SWAP1 PUSH1 0x4 MUL ADD PUSH1 0x1 ADD DUP1 SLOAD PUSH2 0x6DC SWAP1 PUSH2 0x36D6 JUMP JUMPDEST DUP1 PUSH1 0x1F ADD PUSH1 0x20 DUP1 SWAP2 DIV MUL PUSH1 0x20 ADD PUSH1 0x40 MLOAD SWAP1 DUP2 ADD PUSH1 0x40 MSTORE DUP1 SWAP3 SWAP2 SWAP1 DUP2 DUP2 MSTORE PUSH1 0x20 ADD DUP3 DUP1 SLOAD PUSH2 0x708 SWAP1 PUSH2 0x36D6 JUMP JUMPDEST DUP1 ISZERO PUSH2 0x755 JUMPI DUP1 PUSH1 0x1F LT PUSH2 0x72A JUMPI PUSH2 0x100 DUP1 DUP4 SLOAD DIV MUL DUP4 MSTORE SWAP2 PUSH1 0x20 ADD SWAP2 PUSH2 0x755 JUMP JUMPDEST DUP3 ADD SWAP2 SWAP1 PUSH1 0x0 MSTORE PUSH1 0x20 PUSH1 0x0 KECCAK256 SWAP1 JUMPDEST DUP2 SLOAD DUP2 MSTORE SWAP1 PUSH1 0x1 ADD SWAP1 PUSH1 0x20 ADD DUP1 DUP4 GT PUSH2 0x738 JUMPI DUP3 SWAP1 SUB PUSH1 0x1F AND DUP3 ADD SWAP2 JUMPDEST POP POP POP POP POP PUSH2 0x16BC JUMP JUMPDEST ISZERO ISZERO EQ ISZERO PUSH2 0x770 JUMPI PUSH1 0x0 SWAP1 POP PUSH2 0x8AD JUMP JUMPDEST DUP4 PUSH20 0xFFFFFFFFFFFFFFFFFFFFFFFFFFFFFFFFFFFFFFFF AND PUSH1 0x1 DUP4 DUP2 SLOAD DUP2 LT PUSH2 0x79B JUMPI PUSH2 0x79A PUSH2 0x3678 JUMP JUMPDEST JUMPDEST SWAP1 PUSH1 0x0 MSTORE PUSH1 0x20 PUSH1 0x0 KECCAK256 SWAP1 PUSH1 0x4 MUL ADD PUSH1 0x0 ADD PUSH1 0x0 SWAP1 SLOAD SWAP1 PUSH2 0x100 EXP SWAP1 DIV PUSH20 0xFFFFFFFFFFFFFFFFFFFFFFFFFFFFFFFFFFFFFFFF AND PUSH20 0xFFFFFFFFFFFFFFFFFFFFFFFFFFFFFFFFFFFFFFFF AND EQ DUP1 ISZERO PUSH2 0x8AA JUMPI POP PUSH1 0x1 ISZERO ISZERO PUSH2 0x8A6 DUP5 PUSH1 0x1 DUP6 DUP2 SLOAD DUP2 LT PUSH2 0x807 JUMPI PUSH2 0x806 PUSH2 0x3678 JUMP JUMPDEST JUMPDEST SWAP1 PUSH1 0x0 MSTORE PUSH1 0x20 PUSH1 0x0 KECCAK256 SWAP1 PUSH1 0x4 MUL ADD PUSH1 0x1 ADD DUP1 SLOAD PUSH2 0x823 SWAP1 PUSH2 0x36D6 JUMP JUMPDEST DUP1 PUSH1 0x1F ADD PUSH1 0x20 DUP1 SWAP2 DIV MUL PUSH1 0x20 ADD PUSH1 0x40 MLOAD SWAP1 DUP2 ADD PUSH1 0x40 MSTORE DUP1 SWAP3 SWAP2 SWAP1 DUP2 DUP2 MSTORE PUSH1 0x20 ADD DUP3 DUP1 SLOAD PUSH2 0x84F SWAP1 PUSH2 0x36D6 JUMP JUMPDEST DUP1 ISZERO PUSH2 0x89C JUMPI DUP1 PUSH1 0x1F LT PUSH2 0x871 JUMPI PUSH2 0x100 DUP1 DUP4 SLOAD DIV MUL DUP4 MSTORE SWAP2 PUSH1 0x20 ADD SWAP2 PUSH2 0x89C JUMP JUMPDEST DUP3 ADD SWAP2 SWAP1 PUSH1 0x0 MSTORE PUSH1 0x20 PUSH1 0x0 KECCAK256 SWAP1 JUMPDEST DUP2 SLOAD DUP2 MSTORE SWAP1 PUSH1 0x1 ADD SWAP1 PUSH1 0x20 ADD DUP1 DUP4 GT PUSH2 0x87F JUMPI DUP3 SWAP1 SUB PUSH1 0x1F AND DUP3 ADD SWAP2 JUMPDEST POP POP POP POP POP PUSH2 0x16BC JUMP JUMPDEST ISZERO ISZERO EQ JUMPDEST SWAP1 POP JUMPDEST SWAP4 SWAP3 POP POP POP JUMP JUMPDEST PUSH1 0x0 PUSH1 0x1 DUP1 SLOAD SWAP1 POP SWAP1 POP SWAP1 JUMP JUMPDEST PUSH1 0x1 DUP2 DUP2 SLOAD DUP2 LT PUSH2 0x8D1 JUMPI PUSH1 0x0 DUP1 REVERT JUMPDEST SWAP1 PUSH1 0x0 MSTORE PUSH1 0x20 PUSH1 0x0 KECCAK256 SWAP1 PUSH1 0x4 MUL ADD PUSH1 0x0 SWAP2 POP SWAP1 POP DUP1 PUSH1 0x0 ADD PUSH1 0x0 SWAP1 SLOAD SWAP1 PUSH2 0x100 EXP SWAP1 DIV PUSH20 0xFFFFFFFFFFFFFFFFFFFFFFFFFFFFFFFFFFFFFFFF AND SWAP1 DUP1 PUSH1 0x1 ADD DUP1 SLOAD PUSH2 0x91A SWAP1 PUSH2 0x36D6 JUMP JUMPDEST DUP1 PUSH1 0x1F ADD PUSH1 0x20 DUP1 SWAP2 DIV MUL PUSH1 0x20 ADD PUSH1 0x40 MLOAD SWAP1 DUP2 ADD PUSH1 0x40 MSTORE DUP1 SWAP3 SWAP2 SWAP1 DUP2 DUP2 MSTORE PUSH1 0x20 ADD DUP3 DUP1 SLOAD PUSH2 0x946 SWAP1 PUSH2 0x36D6 JUMP JUMPDEST DUP1 ISZERO PUSH2 0x993 JUMPI DUP1 PUSH1 0x1F LT PUSH2 0x968 JUMPI PUSH2 0x100 DUP1 DUP4 SLOAD DIV MUL DUP4 MSTORE SWAP2 PUSH1 0x20 ADD SWAP2 PUSH2 0x993 JUMP JUMPDEST DUP3 ADD SWAP2 SWAP1 PUSH1 0x0 MSTORE PUSH1 0x20 PUSH1 0x0 KECCAK256 SWAP1 JUMPDEST DUP2 SLOAD DUP2 MSTORE SWAP1 PUSH1 0x1 ADD SWAP1 PUSH1 0x20 ADD DUP1 DUP4 GT PUSH2 0x976 JUMPI DUP3 SWAP1 SUB PUSH1 0x1F AND DUP3 ADD SWAP2 JUMPDEST POP POP POP POP POP SWAP1 DUP1 PUSH1 0x2 ADD DUP1 SLOAD PUSH2 0x9A8 SWAP1 PUSH2 0x36D6 JUMP JUMPDEST DUP1 PUSH1 0x1F ADD PUSH1 0x20 DUP1 SWAP2 DIV MUL PUSH1 0x20 ADD PUSH1 0x40 MLOAD SWAP1 DUP2 ADD PUSH1 0x40 MSTORE DUP1 SWAP3 SWAP2 SWAP1 DUP2 DUP2 MSTORE PUSH1 0x20 ADD DUP3 DUP1 SLOAD PUSH2 0x9D4 SWAP1 PUSH2 0x36D6 JUMP JUMPDEST DUP1 ISZERO PUSH2 0xA21 JUMPI DUP1 PUSH1 0x1F LT PUSH2 0x9F6 JUMPI PUSH2 0x100 DUP1 DUP4 SLOAD DIV MUL DUP4 MSTORE SWAP2 PUSH1 0x20 ADD SWAP2 PUSH2 0xA21 JUMP JUMPDEST DUP3 ADD SWAP2 SWAP1 PUSH1 0x0 MSTORE PUSH1 0x20 PUSH1 0x0 KECCAK256 SWAP1 JUMPDEST DUP2 SLOAD DUP2 MSTORE SWAP1 PUSH1 0x1 ADD SWAP1 PUSH1 0x20 ADD DUP1 DUP4 GT PUSH2 0xA04 JUMPI DUP3 SWAP1 SUB PUSH1 0x1F AND DUP3 ADD SWAP2 JUMPDEST POP POP POP POP POP SWAP1 DUP1 PUSH1 0x3 ADD DUP1 SLOAD PUSH2 0xA36 SWAP1 PUSH2 0x36D6 JUMP JUMPDEST DUP1 PUSH1 0x1F ADD PUSH1 0x20 DUP1 SWAP2 DIV MUL PUSH1 0x20 ADD PUSH1 0x40 MLOAD SWAP1 DUP2 ADD PUSH1 0x40 MSTORE DUP1 SWAP3 SWAP2 SWAP1 DUP2 DUP2 MSTORE PUSH1 0x20 ADD DUP3 DUP1 SLOAD PUSH2 0xA62 SWAP1 PUSH2 0x36D6 JUMP JUMPDEST DUP1 ISZERO PUSH2 0xAAF JUMPI DUP1 PUSH1 0x1F LT PUSH2 0xA84 JUMPI PUSH2 0x100 DUP1 DUP4 SLOAD DIV MUL DUP4 MSTORE SWAP2 PUSH1 0x20 ADD SWAP2 PUSH2 0xAAF JUMP JUMPDEST DUP3 ADD SWAP2 SWAP1 PUSH1 0x0 MSTORE PUSH1 0x20 PUSH1 0x0 KECCAK256 SWAP1 JUMPDEST DUP2 SLOAD DUP2 MSTORE SWAP1 PUSH1 0x1 ADD SWAP1 PUSH1 0x20 ADD DUP1 DUP4 GT PUSH2 0xA92 JUMPI DUP3 SWAP1 SUB PUSH1 0x1F AND DUP3 ADD SWAP2 JUMPDEST POP POP POP POP POP SWAP1 POP DUP5 JUMP JUMPDEST PUSH1 0x1 DUP1 SLOAD SWAP1 POP DUP3 PUSH1 0xFF AND LT DUP1 ISZERO PUSH2 0xB9C JUMPI POP PUSH1 0x0 ISZERO ISZERO PUSH2 0xB98 PUSH1 0x40 MLOAD DUP1 PUSH1 0x20 ADD PUSH1 0x40 MSTORE DUP1 PUSH1 0x0 DUP2 MSTORE POP PUSH1 0x1 DUP6 PUSH1 0xFF AND DUP2 SLOAD DUP2 LT PUSH2 0xAF9 JUMPI PUSH2 0xAF8 PUSH2 0x3678 JUMP JUMPDEST JUMPDEST SWAP1 PUSH1 0x0 MSTORE PUSH1 0x20 PUSH1 0x0 KECCAK256 SWAP1 PUSH1 0x4 MUL ADD PUSH1 0x1 ADD DUP1 SLOAD PUSH2 0xB15 SWAP1 PUSH2 0x36D6 JUMP JUMPDEST DUP1 PUSH1 0x1F ADD PUSH1 0x20 DUP1 SWAP2 DIV MUL PUSH1 0x20 ADD PUSH1 0x40 MLOAD SWAP1 DUP2 ADD PUSH1 0x40 MSTORE DUP1 SWAP3 SWAP2 SWAP1 DUP2 DUP2 MSTORE PUSH1 0x20 ADD DUP3 DUP1 SLOAD PUSH2 0xB41 SWAP1 PUSH2 0x36D6 JUMP JUMPDEST DUP1 ISZERO PUSH2 0xB8E JUMPI DUP1 PUSH1 0x1F LT PUSH2 0xB63 JUMPI PUSH2 0x100 DUP1 DUP4 SLOAD DIV MUL DUP4 MSTORE SWAP2 PUSH1 0x20 ADD SWAP2 PUSH2 0xB8E JUMP JUMPDEST DUP3 ADD SWAP2 SWAP1 PUSH1 0x0 MSTORE PUSH1 0x20 PUSH1 0x0 KECCAK256 SWAP1 JUMPDEST DUP2 SLOAD DUP2 MSTORE SWAP1 PUSH1 0x1 ADD SWAP1 PUSH1 0x20 ADD DUP1 DUP4 GT PUSH2 0xB71 JUMPI DUP3 SWAP1 SUB PUSH1 0x1F AND DUP3 ADD SWAP2 JUMPDEST POP POP POP POP POP PUSH2 0x16BC JUMP JUMPDEST ISZERO ISZERO EQ JUMPDEST ISZERO PUSH2 0xC9C JUMPI PUSH1 0x1 DUP3 PUSH1 0xFF AND DUP2 SLOAD DUP2 LT PUSH2 0xBB8 JUMPI PUSH2 0xBB7 PUSH2 0x3678 JUMP JUMPDEST JUMPDEST SWAP1 PUSH1 0x0 MSTORE PUSH1 0x20 PUSH1 0x0 KECCAK256 SWAP1 PUSH1 0x4 MUL ADD PUSH1 0x0 DUP1 DUP3 ADD PUSH1 0x0 PUSH2 0x100 EXP DUP2 SLOAD SWAP1 PUSH20 0xFFFFFFFFFFFFFFFFFFFFFFFFFFFFFFFFFFFFFFFF MUL NOT AND SWAP1 SSTORE PUSH1 0x1 DUP3 ADD PUSH1 0x0 PUSH2 0xBFE SWAP2 SWAP1 PUSH2 0x28F6 JUMP JUMPDEST PUSH1 0x2 DUP3 ADD PUSH1 0x0 PUSH2 0xC0E SWAP2 SWAP1 PUSH2 0x28F6 JUMP JUMPDEST PUSH1 0x3 DUP3 ADD PUSH1 0x0 PUSH2 0xC1E SWAP2 SWAP1 PUSH2 0x28F6 JUMP JUMPDEST POP POP PUSH1 0x5 PUSH1 0x0 DUP4 PUSH1 0xFF AND PUSH1 0xFF AND DUP2 MSTORE PUSH1 0x20 ADD SWAP1 DUP2 MSTORE PUSH1 0x20 ADD PUSH1 0x0 KECCAK256 PUSH1 0x0 PUSH2 0xC45 SWAP2 SWAP1 PUSH2 0x2936 JUMP JUMPDEST PUSH1 0x2 PUSH1 0x0 DUP2 SLOAD DUP1 SWAP3 SWAP2 SWAP1 PUSH2 0xC58 SWAP1 PUSH2 0x3708 JUMP JUMPDEST SWAP2 SWAP1 POP SSTORE POP PUSH32 0x9E74B914DFBE01B3835827EE9B9B6077B095593C9EF667D3A5D5B539744BB51A PUSH1 0x1 DUP3 PUSH1 0x40 MLOAD PUSH2 0xC8F SWAP3 SWAP2 SWAP1 PUSH2 0x3732 JUMP JUMPDEST PUSH1 0x40 MLOAD DUP1 SWAP2 SUB SWAP1 LOG1 PUSH2 0xCD7 JUMP JUMPDEST PUSH32 0x9E74B914DFBE01B3835827EE9B9B6077B095593C9EF667D3A5D5B539744BB51A PUSH1 0x0 DUP3 PUSH1 0x40 MLOAD PUSH2 0xCCE SWAP3 SWAP2 SWAP1 PUSH2 0x3732 JUMP JUMPDEST PUSH1 0x40 MLOAD DUP1 SWAP2 SUB SWAP1 LOG1 JUMPDEST POP POP JUMP JUMPDEST PUSH1 0x1 ISZERO ISZERO PUSH2 0xCE8 DUP5 PUSH2 0x234F JUMP JUMPDEST ISZERO ISZERO EQ ISZERO PUSH2 0xD6C JUMPI DUP2 PUSH1 0x3 DUP5 PUSH1 0xFF AND DUP2 SLOAD DUP2 LT PUSH2 0xD08 JUMPI PUSH2 0xD07 PUSH2 0x3678 JUMP JUMPDEST JUMPDEST SWAP1 PUSH1 0x0 MSTORE PUSH1 0x20 PUSH1 0x0 KECCAK256 SWAP1 PUSH1 0x2 MUL ADD PUSH1 0x1 ADD SWAP1 DUP1 MLOAD SWAP1 PUSH1 0x20 ADD SWAP1 PUSH2 0xD2C SWAP3 SWAP2 SWAP1 PUSH2 0x295A JUMP JUMPDEST POP PUSH32 0x134A3CBC6E64B71B428C47A91271192190FA59489A4C978E0EBBC8F8E4CF86C6 PUSH1 0x1 DUP3 PUSH1 0x40 MLOAD PUSH2 0xD5F SWAP3 SWAP2 SWAP1 PUSH2 0x3732 JUMP JUMPDEST PUSH1 0x40 MLOAD DUP1 SWAP2 SUB SWAP1 LOG1 PUSH2 0xDA7 JUMP JUMPDEST PUSH32 0x134A3CBC6E64B71B428C47A91271192190FA59489A4C978E0EBBC8F8E4CF86C6 PUSH1 0x0 DUP3 PUSH1 0x40 MLOAD PUSH2 0xD9E SWAP3 SWAP2 SWAP1 PUSH2 0x3732 JUMP JUMPDEST PUSH1 0x40 MLOAD DUP1 SWAP2 SUB SWAP1 LOG1 JUMPDEST POP POP POP JUMP JUMPDEST PUSH1 0x0 PUSH1 0x2 SLOAD SWAP1 POP SWAP1 JUMP JUMPDEST PUSH1 0x3 DUP2 DUP2 SLOAD DUP2 LT PUSH2 0xDC6 JUMPI PUSH1 0x0 DUP1 REVERT JUMPDEST SWAP1 PUSH1 0x0 MSTORE PUSH1 0x20 PUSH1 0x0 KECCAK256 SWAP1 PUSH1 0x2 MUL ADD PUSH1 0x0 SWAP2 POP SWAP1 POP DUP1 PUSH1 0x0 ADD PUSH1 0x0 SWAP1 SLOAD SWAP1 PUSH2 0x100 EXP SWAP1 DIV PUSH1 0xFF AND SWAP1 DUP1 PUSH1 0x0 ADD PUSH1 0x1 SWAP1 SLOAD SWAP1 PUSH2 0x100 EXP SWAP1 DIV PUSH1 0xFF AND SWAP1 DUP1 PUSH1 0x1 ADD DUP1 SLOAD PUSH2 0xE0F SWAP1 PUSH2 0x36D6 JUMP JUMPDEST DUP1 PUSH1 0x1F ADD PUSH1 0x20 DUP1 SWAP2 DIV MUL PUSH1 0x20 ADD PUSH1 0x40 MLOAD SWAP1 DUP2 ADD PUSH1 0x40 MSTORE DUP1 SWAP3 SWAP2 SWAP1 DUP2 DUP2 MSTORE PUSH1 0x20 ADD DUP3 DUP1 SLOAD PUSH2 0xE3B SWAP1 PUSH2 0x36D6 JUMP JUMPDEST DUP1 ISZERO PUSH2 0xE88 JUMPI DUP1 PUSH1 0x1F LT PUSH2 0xE5D JUMPI PUSH2 0x100 DUP1 DUP4 SLOAD DIV MUL DUP4 MSTORE SWAP2 PUSH1 0x20 ADD SWAP2 PUSH2 0xE88 JUMP JUMPDEST DUP3 ADD SWAP2 SWAP1 PUSH1 0x0 MSTORE PUSH1 0x20 PUSH1 0x0 KECCAK256 SWAP1 JUMPDEST DUP2 SLOAD DUP2 MSTORE SWAP1 PUSH1 0x1 ADD SWAP1 PUSH1 0x20 ADD DUP1 DUP4 GT PUSH2 0xE6B JUMPI DUP3 SWAP1 SUB PUSH1 0x1F AND DUP3 ADD SWAP2 JUMPDEST POP POP POP POP POP SWAP1 POP DUP4 JUMP JUMPDEST PUSH1 0x1 ISZERO ISZERO PUSH2 0xF2A DUP5 PUSH1 0x0 DUP1 SLOAD PUSH2 0xEA7 SWAP1 PUSH2 0x36D6 JUMP JUMPDEST DUP1 PUSH1 0x1F ADD PUSH1 0x20 DUP1 SWAP2 DIV MUL PUSH1 0x20 ADD PUSH1 0x40 MLOAD SWAP1 DUP2 ADD PUSH1 0x40 MSTORE DUP1 SWAP3 SWAP2 SWAP1 DUP2 DUP2 MSTORE PUSH1 0x20 ADD DUP3 DUP1 SLOAD PUSH2 0xED3 SWAP1 PUSH2 0x36D6 JUMP JUMPDEST DUP1 ISZERO PUSH2 0xF20 JUMPI DUP1 PUSH1 0x1F LT PUSH2 0xEF5 JUMPI PUSH2 0x100 DUP1 DUP4 SLOAD DIV MUL DUP4 MSTORE SWAP2 PUSH1 0x20 ADD SWAP2 PUSH2 0xF20 JUMP JUMPDEST DUP3 ADD SWAP2 SWAP1 PUSH1 0x0 MSTORE PUSH1 0x20 PUSH1 0x0 KECCAK256 SWAP1 JUMPDEST DUP2 SLOAD DUP2 MSTORE SWAP1 PUSH1 0x1 ADD SWAP1 PUSH1 0x20 ADD DUP1 DUP4 GT PUSH2 0xF03 JUMPI DUP3 SWAP1 SUB PUSH1 0x1F AND DUP3 ADD SWAP2 JUMPDEST POP POP POP POP POP PUSH2 0x16BC JUMP JUMPDEST ISZERO ISZERO EQ ISZERO PUSH2 0xF88 JUMPI DUP2 PUSH1 0x0 SWAP1 DUP1 MLOAD SWAP1 PUSH1 0x20 ADD SWAP1 PUSH2 0xF48 SWAP3 SWAP2 SWAP1 PUSH2 0x29E0 JUMP JUMPDEST POP PUSH32 0x99ABD86FB20173E73124CF0BB2A122D4B49456BCB2E8AB4AEFB53846B96DA3C3 PUSH1 0x1 DUP3 PUSH1 0x40 MLOAD PUSH2 0xF7B SWAP3 SWAP2 SWAP1 PUSH2 0x3732 JUMP JUMPDEST PUSH1 0x40 MLOAD DUP1 SWAP2 SUB SWAP1 LOG1 PUSH2 0xFC3 JUMP JUMPDEST PUSH32 0x99ABD86FB20173E73124CF0BB2A122D4B49456BCB2E8AB4AEFB53846B96DA3C3 PUSH1 0x0 DUP3 PUSH1 0x40 MLOAD PUSH2 0xFBA SWAP3 SWAP2 SWAP1 PUSH2 0x3732 JUMP JUMPDEST PUSH1 0x40 MLOAD DUP1 SWAP2 SUB SWAP1 LOG1 JUMPDEST POP POP POP JUMP JUMPDEST PUSH1 0x0 DUP1 PUSH1 0x0 DUP1 PUSH1 0x0 ISZERO ISZERO PUSH2 0x109B PUSH1 0x40 MLOAD DUP1 PUSH1 0x20 ADD PUSH1 0x40 MSTORE DUP1 PUSH1 0x0 DUP2 MSTORE POP PUSH1 0x1 DUP10 PUSH1 0xFF AND DUP2 SLOAD DUP2 LT PUSH2 0xFFC JUMPI PUSH2 0xFFB PUSH2 0x3678 JUMP JUMPDEST JUMPDEST SWAP1 PUSH1 0x0 MSTORE PUSH1 0x20 PUSH1 0x0 KECCAK256 SWAP1 PUSH1 0x4 MUL ADD PUSH1 0x1 ADD DUP1 SLOAD PUSH2 0x1018 SWAP1 PUSH2 0x36D6 JUMP JUMPDEST DUP1 PUSH1 0x1F ADD PUSH1 0x20 DUP1 SWAP2 DIV MUL PUSH1 0x20 ADD PUSH1 0x40 MLOAD SWAP1 DUP2 ADD PUSH1 0x40 MSTORE DUP1 SWAP3 SWAP2 SWAP1 DUP2 DUP2 MSTORE PUSH1 0x20 ADD DUP3 DUP1 SLOAD PUSH2 0x1044 SWAP1 PUSH2 0x36D6 JUMP JUMPDEST DUP1 ISZERO PUSH2 0x1091 JUMPI DUP1 PUSH1 0x1F LT PUSH2 0x1066 JUMPI PUSH2 0x100 DUP1 DUP4 SLOAD DIV MUL DUP4 MSTORE SWAP2 PUSH1 0x20 ADD SWAP2 PUSH2 0x1091 JUMP JUMPDEST DUP3 ADD SWAP2 SWAP1 PUSH1 0x0 MSTORE PUSH1 0x20 PUSH1 0x0 KECCAK256 SWAP1 JUMPDEST DUP2 SLOAD DUP2 MSTORE SWAP1 PUSH1 0x1 ADD SWAP1 PUSH1 0x20 ADD DUP1 DUP4 GT PUSH2 0x1074 JUMPI DUP3 SWAP1 SUB PUSH1 0x1F AND DUP3 ADD SWAP2 JUMPDEST POP POP POP POP POP PUSH2 0x16BC JUMP JUMPDEST ISZERO ISZERO EQ PUSH2 0x10A7 JUMPI PUSH1 0x0 DUP1 REVERT JUMPDEST PUSH1 0x5 PUSH1 0x0 DUP8 PUSH1 0xFF AND PUSH1 0xFF AND DUP2 MSTORE PUSH1 0x20 ADD SWAP1 DUP2 MSTORE PUSH1 0x20 ADD PUSH1 0x0 KECCAK256 DUP6 PUSH1 0xFF AND DUP2 SLOAD DUP2 LT PUSH2 0x10D5 JUMPI PUSH2 0x10D4 PUSH2 0x3678 JUMP JUMPDEST JUMPDEST SWAP1 PUSH1 0x0 MSTORE PUSH1 0x20 PUSH1 0x0 KECCAK256 SWAP1 PUSH1 0x3 MUL ADD PUSH1 0x0 ADD PUSH1 0x0 SWAP1 SLOAD SWAP1 PUSH2 0x100 EXP SWAP1 DIV PUSH1 0xFF AND PUSH1 0x5 PUSH1 0x0 DUP9 PUSH1 0xFF AND PUSH1 0xFF AND DUP2 MSTORE PUSH1 0x20 ADD SWAP1 DUP2 MSTORE PUSH1 0x20 ADD PUSH1 0x0 KECCAK256 DUP7 PUSH1 0xFF AND DUP2 SLOAD DUP2 LT PUSH2 0x1122 JUMPI PUSH2 0x1121 PUSH2 0x3678 JUMP JUMPDEST JUMPDEST SWAP1 PUSH1 0x0 MSTORE PUSH1 0x20 PUSH1 0x0 KECCAK256 SWAP1 PUSH1 0x3 MUL ADD PUSH1 0x1 ADD SLOAD PUSH1 0x5 PUSH1 0x0 DUP10 PUSH1 0xFF AND PUSH1 0xFF AND DUP2 MSTORE PUSH1 0x20 ADD SWAP1 DUP2 MSTORE PUSH1 0x20 ADD PUSH1 0x0 KECCAK256 DUP8 PUSH1 0xFF AND DUP2 SLOAD DUP2 LT PUSH2 0x1162 JUMPI PUSH2 0x1161 PUSH2 0x3678 JUMP JUMPDEST JUMPDEST SWAP1 PUSH1 0x0 MSTORE PUSH1 0x20 PUSH1 0x0 KECCAK256 SWAP1 PUSH1 0x3 MUL ADD PUSH1 0x2 ADD PUSH1 0x0 SWAP1 SLOAD SWAP1 PUSH2 0x100 EXP SWAP1 DIV PUSH1 0xFF AND PUSH1 0x5 PUSH1 0x0 DUP11 PUSH1 0xFF AND PUSH1 0xFF AND DUP2 MSTORE PUSH1 0x20 ADD SWAP1 DUP2 MSTORE PUSH1 0x20 ADD PUSH1 0x0 KECCAK256 DUP9 PUSH1 0xFF AND DUP2 SLOAD DUP2 LT PUSH2 0x11AF JUMPI PUSH2 0x11AE PUSH2 0x3678 JUMP JUMPDEST JUMPDEST SWAP1 PUSH1 0x0 MSTORE PUSH1 0x20 PUSH1 0x0 KECCAK256 SWAP1 PUSH1 0x3 MUL ADD PUSH1 0x2 ADD PUSH1 0x1 SWAP1 SLOAD SWAP1 PUSH2 0x100 EXP SWAP1 DIV PUSH1 0xFF AND SWAP4 POP SWAP4 POP SWAP4 POP SWAP4 POP SWAP3 SWAP6 SWAP2 SWAP5 POP SWAP3 POP JUMP JUMPDEST PUSH1 0x1 ISZERO ISZERO PUSH2 0x11EC DUP5 PUSH2 0x234F JUMP JUMPDEST ISZERO ISZERO EQ DUP1 ISZERO PUSH2 0x11FE JUMPI POP PUSH1 0x4 DUP3 PUSH1 0xFF AND LT JUMPDEST ISZERO PUSH2 0x1283 JUMPI DUP2 PUSH1 0x3 DUP5 PUSH1 0xFF AND DUP2 SLOAD DUP2 LT PUSH2 0x121B JUMPI PUSH2 0x121A PUSH2 0x3678 JUMP JUMPDEST JUMPDEST SWAP1 PUSH1 0x0 MSTORE PUSH1 0x20 PUSH1 0x0 KECCAK256 SWAP1 PUSH1 0x2 MUL ADD PUSH1 0x0 ADD PUSH1 0x0 PUSH2 0x100 EXP DUP2 SLOAD DUP2 PUSH1 0xFF MUL NOT AND SWAP1 DUP4 PUSH1 0xFF AND MUL OR SWAP1 SSTORE POP PUSH32 0xCEAA5427ACFCB4A33F02D32AEF23B9ADDA338DD9F161E14BB7A745001ACB1CB1 PUSH1 0x1 DUP3 PUSH1 0x40 MLOAD PUSH2 0x1276 SWAP3 SWAP2 SWAP1 PUSH2 0x3732 JUMP JUMPDEST PUSH1 0x40 MLOAD DUP1 SWAP2 SUB SWAP1 LOG1 PUSH2 0x12BE JUMP JUMPDEST PUSH32 0xCEAA5427ACFCB4A33F02D32AEF23B9ADDA338DD9F161E14BB7A745001ACB1CB1 PUSH1 0x0 DUP3 PUSH1 0x40 MLOAD PUSH2 0x12B5 SWAP3 SWAP2 SWAP1 PUSH2 0x3732 JUMP JUMPDEST PUSH1 0x40 MLOAD DUP1 SWAP2 SUB SWAP1 LOG1 JUMPDEST POP POP POP JUMP JUMPDEST DUP3 PUSH1 0xFF AND PUSH1 0x6 DUP1 SLOAD SWAP1 POP GT DUP1 ISZERO PUSH2 0x138C JUMPI POP PUSH1 0x1 ISZERO ISZERO PUSH1 0x5 PUSH1 0x0 PUSH1 0x6 DUP7 PUSH1 0xFF AND DUP2 SLOAD DUP2 LT PUSH2 0x12F4 JUMPI PUSH2 0x12F3 PUSH2 0x3678 JUMP JUMPDEST JUMPDEST SWAP1 PUSH1 0x0 MSTORE PUSH1 0x20 PUSH1 0x0 KECCAK256 ADD PUSH1 0x0 ADD PUSH1 0x0 SWAP1 SLOAD SWAP1 PUSH2 0x100 EXP SWAP1 DIV PUSH1 0xFF AND PUSH1 0xFF AND PUSH1 0xFF AND DUP2 MSTORE PUSH1 0x20 ADD SWAP1 DUP2 MSTORE PUSH1 0x20 ADD PUSH1 0x0 KECCAK256 PUSH1 0x6 DUP6 PUSH1 0xFF AND DUP2 SLOAD DUP2 LT PUSH2 0x133A JUMPI PUSH2 0x1339 PUSH2 0x3678 JUMP JUMPDEST JUMPDEST SWAP1 PUSH1 0x0 MSTORE PUSH1 0x20 PUSH1 0x0 KECCAK256 ADD PUSH1 0x0 ADD PUSH1 0x2 SWAP1 SLOAD SWAP1 PUSH2 0x100 EXP SWAP1 DIV PUSH1 0xFF AND PUSH1 0xFF AND DUP2 SLOAD DUP2 LT PUSH2 0x1369 JUMPI PUSH2 0x1368 PUSH2 0x3678 JUMP JUMPDEST JUMPDEST SWAP1 PUSH1 0x0 MSTORE PUSH1 0x20 PUSH1 0x0 KECCAK256 SWAP1 PUSH1 0x3 MUL ADD PUSH1 0x2 ADD PUSH1 0x0 SWAP1 SLOAD SWAP1 PUSH2 0x100 EXP SWAP1 DIV PUSH1 0xFF AND ISZERO ISZERO EQ JUMPDEST ISZERO PUSH2 0x167C JUMPI DUP2 PUSH1 0x5 PUSH1 0x0 PUSH1 0x6 DUP7 PUSH1 0xFF AND DUP2 SLOAD DUP2 LT PUSH2 0x13AD JUMPI PUSH2 0x13AC PUSH2 0x3678 JUMP JUMPDEST JUMPDEST SWAP1 PUSH1 0x0 MSTORE PUSH1 0x20 PUSH1 0x0 KECCAK256 ADD PUSH1 0x0 ADD PUSH1 0x0 SWAP1 SLOAD SWAP1 PUSH2 0x100 EXP SWAP1 DIV PUSH1 0xFF AND PUSH1 0xFF AND PUSH1 0xFF AND DUP2 MSTORE PUSH1 0x20 ADD SWAP1 DUP2 MSTORE PUSH1 0x20 ADD PUSH1 0x0 KECCAK256 PUSH1 0x6 DUP6 PUSH1 0xFF AND DUP2 SLOAD DUP2 LT PUSH2 0x13F3 JUMPI PUSH2 0x13F2 PUSH2 0x3678 JUMP JUMPDEST JUMPDEST SWAP1 PUSH1 0x0 MSTORE PUSH1 0x20 PUSH1 0x0 KECCAK256 ADD PUSH1 0x0 ADD PUSH1 0x2 SWAP1 SLOAD SWAP1 PUSH2 0x100 EXP SWAP1 DIV PUSH1 0xFF AND PUSH1 0xFF AND DUP2 SLOAD DUP2 LT PUSH2 0x1422 JUMPI PUSH2 0x1421 PUSH2 0x3678 JUMP JUMPDEST JUMPDEST SWAP1 PUSH1 0x0 MSTORE PUSH1 0x20 PUSH1 0x0 KECCAK256 SWAP1 PUSH1 0x3 MUL ADD PUSH1 0x2 ADD PUSH1 0x1 PUSH2 0x100 EXP DUP2 SLOAD DUP2 PUSH1 0xFF MUL NOT AND SWAP1 DUP4 ISZERO ISZERO MUL OR SWAP1 SSTORE POP PUSH1 0x1 PUSH1 0x6 DUP1 SLOAD SWAP1 POP PUSH2 0x145C SWAP2 SWAP1 PUSH2 0x375B JUMP JUMPDEST DUP4 PUSH1 0xFF AND EQ PUSH2 0x15DA JUMPI PUSH1 0x6 PUSH1 0x1 PUSH1 0x6 DUP1 SLOAD SWAP1 POP PUSH2 0x1479 SWAP2 SWAP1 PUSH2 0x375B JUMP JUMPDEST DUP2 SLOAD DUP2 LT PUSH2 0x148A JUMPI PUSH2 0x1489 PUSH2 0x3678 JUMP JUMPDEST JUMPDEST SWAP1 PUSH1 0x0 MSTORE PUSH1 0x20 PUSH1 0x0 KECCAK256 ADD PUSH1 0x0 ADD PUSH1 0x0 SWAP1 SLOAD SWAP1 PUSH2 0x100 EXP SWAP1 DIV PUSH1 0xFF AND PUSH1 0x6 DUP5 PUSH1 0xFF AND DUP2 SLOAD DUP2 LT PUSH2 0x14BC JUMPI PUSH2 0x14BB PUSH2 0x3678 JUMP JUMPDEST JUMPDEST SWAP1 PUSH1 0x0 MSTORE PUSH1 0x20 PUSH1 0x0 KECCAK256 ADD PUSH1 0x0 ADD PUSH1 0x0 PUSH2 0x100 EXP DUP2 SLOAD DUP2 PUSH1 0xFF MUL NOT AND SWAP1 DUP4 PUSH1 0xFF AND MUL OR SWAP1 SSTORE POP PUSH1 0x6 PUSH1 0x1 PUSH1 0x6 DUP1 SLOAD SWAP1 POP PUSH2 0x14F5 SWAP2 SWAP1 PUSH2 0x375B JUMP JUMPDEST DUP2 SLOAD DUP2 LT PUSH2 0x1506 JUMPI PUSH2 0x1505 PUSH2 0x3678 JUMP JUMPDEST JUMPDEST SWAP1 PUSH1 0x0 MSTORE PUSH1 0x20 PUSH1 0x0 KECCAK256 ADD PUSH1 0x0 ADD PUSH1 0x1 SWAP1 SLOAD SWAP1 PUSH2 0x100 EXP SWAP1 DIV PUSH1 0xFF AND PUSH1 0x6 DUP5 PUSH1 0xFF AND DUP2 SLOAD DUP2 LT PUSH2 0x1538 JUMPI PUSH2 0x1537 PUSH2 0x3678 JUMP JUMPDEST JUMPDEST SWAP1 PUSH1 0x0 MSTORE PUSH1 0x20 PUSH1 0x0 KECCAK256 ADD PUSH1 0x0 ADD PUSH1 0x1 PUSH2 0x100 EXP DUP2 SLOAD DUP2 PUSH1 0xFF MUL NOT AND SWAP1 DUP4 PUSH1 0xFF AND MUL OR SWAP1 SSTORE POP PUSH1 0x6 PUSH1 0x1 PUSH1 0x6 DUP1 SLOAD SWAP1 POP PUSH2 0x1571 SWAP2 SWAP1 PUSH2 0x375B JUMP JUMPDEST DUP2 SLOAD DUP2 LT PUSH2 0x1582 JUMPI PUSH2 0x1581 PUSH2 0x3678 JUMP JUMPDEST JUMPDEST SWAP1 PUSH1 0x0 MSTORE PUSH1 0x20 PUSH1 0x0 KECCAK256 ADD PUSH1 0x0 ADD PUSH1 0x2 SWAP1 SLOAD SWAP1 PUSH2 0x100 EXP SWAP1 DIV PUSH1 0xFF AND PUSH1 0x6 DUP5 PUSH1 0xFF AND DUP2 SLOAD DUP2 LT PUSH2 0x15B4 JUMPI PUSH2 0x15B3 PUSH2 0x3678 JUMP JUMPDEST JUMPDEST SWAP1 PUSH1 0x0 MSTORE PUSH1 0x20 PUSH1 0x0 KECCAK256 ADD PUSH1 0x0 ADD PUSH1 0x2 PUSH2 0x100 EXP DUP2 SLOAD DUP2 PUSH1 0xFF MUL NOT AND SWAP1 DUP4 PUSH1 0xFF AND MUL OR SWAP1 SSTORE POP JUMPDEST PUSH1 0x6 DUP1 SLOAD DUP1 PUSH2 0x15EC JUMPI PUSH2 0x15EB PUSH2 0x378F JUMP JUMPDEST JUMPDEST PUSH1 0x1 SWAP1 SUB DUP2 DUP2 SWAP1 PUSH1 0x0 MSTORE PUSH1 0x20 PUSH1 0x0 KECCAK256 ADD PUSH1 0x0 DUP1 DUP3 ADD PUSH1 0x0 PUSH2 0x100 EXP DUP2 SLOAD SWAP1 PUSH1 0xFF MUL NOT AND SWAP1 SSTORE PUSH1 0x0 DUP3 ADD PUSH1 0x1 PUSH2 0x100 EXP DUP2 SLOAD SWAP1 PUSH1 0xFF MUL NOT AND SWAP1 SSTORE PUSH1 0x0 DUP3 ADD PUSH1 0x2 PUSH2 0x100 EXP DUP2 SLOAD SWAP1 PUSH1 0xFF MUL NOT AND SWAP1 SSTORE POP POP SWAP1 SSTORE PUSH32 0x109180452712718656F65E5D308A9296A67DEA5E1E812C0891E892B205051BEF PUSH1 0x1 DUP3 PUSH1 0x40 MLOAD PUSH2 0x166F SWAP3 SWAP2 SWAP1 PUSH2 0x3732 JUMP JUMPDEST PUSH1 0x40 MLOAD DUP1 SWAP2 SUB SWAP1 LOG1 PUSH2 0x16B7 JUMP JUMPDEST PUSH32 0x109180452712718656F65E5D308A9296A67DEA5E1E812C0891E892B205051BEF PUSH1 0x0 DUP3 PUSH1 0x40 MLOAD PUSH2 0x16AE SWAP3 SWAP2 SWAP1 PUSH2 0x3732 JUMP JUMPDEST PUSH1 0x40 MLOAD DUP1 SWAP2 SUB SWAP1 LOG1 JUMPDEST POP POP POP JUMP JUMPDEST PUSH1 0x0 DUP2 MLOAD DUP4 MLOAD EQ ISZERO PUSH2 0x1726 JUMPI DUP2 PUSH1 0x40 MLOAD PUSH1 0x20 ADD PUSH2 0x16D9 SWAP2 SWAP1 PUSH2 0x37FA JUMP JUMPDEST PUSH1 0x40 MLOAD PUSH1 0x20 DUP2 DUP4 SUB SUB DUP2 MSTORE SWAP1 PUSH1 0x40 MSTORE DUP1 MLOAD SWAP1 PUSH1 0x20 ADD KECCAK256 DUP4 PUSH1 0x40 MLOAD PUSH1 0x20 ADD PUSH2 0x1700 SWAP2 SWAP1 PUSH2 0x37FA JUMP JUMPDEST PUSH1 0x40 MLOAD PUSH1 0x20 DUP2 DUP4 SUB SUB DUP2 MSTORE SWAP1 PUSH1 0x40 MSTORE DUP1 MLOAD SWAP1 PUSH1 0x20 ADD KECCAK256 EQ ISZERO PUSH2 0x1725 JUMPI PUSH1 0x1 SWAP1 POP PUSH2 0x172B JUMP JUMPDEST JUMPDEST PUSH1 0x0 SWAP1 POP JUMPDEST SWAP3 SWAP2 POP POP JUMP JUMPDEST PUSH1 0x5 PUSH1 0x20 MSTORE DUP2 PUSH1 0x0 MSTORE PUSH1 0x40 PUSH1 0x0 KECCAK256 DUP2 DUP2 SLOAD DUP2 LT PUSH2 0x174D JUMPI PUSH1 0x0 DUP1 REVERT JUMPDEST SWAP1 PUSH1 0x0 MSTORE PUSH1 0x20 PUSH1 0x0 KECCAK256 SWAP1 PUSH1 0x3 MUL ADD PUSH1 0x0 SWAP2 POP SWAP2 POP POP DUP1 PUSH1 0x0 ADD PUSH1 0x0 SWAP1 SLOAD SWAP1 PUSH2 0x100 EXP SWAP1 DIV PUSH1 0xFF AND SWAP1 DUP1 PUSH1 0x1 ADD SLOAD SWAP1 DUP1 PUSH1 0x2 ADD PUSH1 0x0 SWAP1 SLOAD SWAP1 PUSH2 0x100 EXP SWAP1 DIV PUSH1 0xFF AND SWAP1 DUP1 PUSH1 0x2 ADD PUSH1 0x1 SWAP1 SLOAD SWAP1 PUSH2 0x100 EXP SWAP1 DIV PUSH1 0xFF AND SWAP1 POP DUP5 JUMP JUMPDEST PUSH1 0x1 PUSH1 0x40 MLOAD DUP1 PUSH1 0x80 ADD PUSH1 0x40 MSTORE DUP1 DUP8 PUSH20 0xFFFFFFFFFFFFFFFFFFFFFFFFFFFFFFFFFFFFFFFF AND DUP2 MSTORE PUSH1 0x20 ADD DUP7 DUP2 MSTORE PUSH1 0x20 ADD DUP6 DUP2 MSTORE PUSH1 0x20 ADD DUP5 DUP2 MSTORE POP SWAP1 DUP1 PUSH1 0x1 DUP2 SLOAD ADD DUP1 DUP3 SSTORE DUP1 SWAP2 POP POP PUSH1 0x1 SWAP1 SUB SWAP1 PUSH1 0x0 MSTORE PUSH1 0x20 PUSH1 0x0 KECCAK256 SWAP1 PUSH1 0x4 MUL ADD PUSH1 0x0 SWAP1 SWAP2 SWAP1 SWAP2 SWAP1 SWAP2 POP PUSH1 0x0 DUP3 ADD MLOAD DUP2 PUSH1 0x0 ADD PUSH1 0x0 PUSH2 0x100 EXP DUP2 SLOAD DUP2 PUSH20 0xFFFFFFFFFFFFFFFFFFFFFFFFFFFFFFFFFFFFFFFF MUL NOT AND SWAP1 DUP4 PUSH20 0xFFFFFFFFFFFFFFFFFFFFFFFFFFFFFFFFFFFFFFFF AND MUL OR SWAP1 SSTORE POP PUSH1 0x20 DUP3 ADD MLOAD DUP2 PUSH1 0x1 ADD SWAP1 DUP1 MLOAD SWAP1 PUSH1 0x20 ADD SWAP1 PUSH2 0x186A SWAP3 SWAP2 SWAP1 PUSH2 0x295A JUMP JUMPDEST POP PUSH1 0x40 DUP3 ADD MLOAD DUP2 PUSH1 0x2 ADD SWAP1 DUP1 MLOAD SWAP1 PUSH1 0x20 ADD SWAP1 PUSH2 0x1887 SWAP3 SWAP2 SWAP1 PUSH2 0x295A JUMP JUMPDEST POP PUSH1 0x60 DUP3 ADD MLOAD DUP2 PUSH1 0x3 ADD SWAP1 DUP1 MLOAD SWAP1 PUSH1 0x20 ADD SWAP1 PUSH2 0x18A4 SWAP3 SWAP2 SWAP1 PUSH2 0x295A JUMP JUMPDEST POP POP POP PUSH1 0x2 PUSH1 0x0 DUP2 SLOAD DUP1 SWAP3 SWAP2 SWAP1 PUSH2 0x18BA SWAP1 PUSH2 0x3811 JUMP JUMPDEST SWAP2 SWAP1 POP SSTORE POP PUSH32 0xCA97DFB5B0A71F7378F93B82CD2C6C17612F65145213249A9542CBD987398476 PUSH1 0x1 DUP1 SLOAD SWAP1 POP DUP3 PUSH1 0x40 MLOAD PUSH2 0x18F5 SWAP3 SWAP2 SWAP1 PUSH2 0x385A JUMP JUMPDEST PUSH1 0x40 MLOAD DUP1 SWAP2 SUB SWAP1 LOG1 POP POP POP POP POP JUMP JUMPDEST PUSH1 0x3 DUP4 PUSH1 0xFF AND GT ISZERO PUSH2 0x194B JUMPI PUSH32 0x85B7A24BBFDA547A4DE90907032CD427A7580334841F5AC3772C90D7EB81FF9B PUSH1 0x0 DUP3 PUSH1 0x40 MLOAD PUSH2 0x1942 SWAP3 SWAP2 SWAP1 PUSH2 0x3883 JUMP JUMPDEST PUSH1 0x40 MLOAD DUP1 SWAP2 SUB SWAP1 LOG1 JUMPDEST PUSH1 0x3 PUSH1 0x40 MLOAD DUP1 PUSH1 0x60 ADD PUSH1 0x40 MSTORE DUP1 DUP6 PUSH1 0xFF AND DUP2 MSTORE PUSH1 0x20 ADD PUSH1 0x3 DUP1 SLOAD SWAP1 POP PUSH1 0xFF AND DUP2 MSTORE PUSH1 0x20 ADD DUP5 DUP2 MSTORE POP SWAP1 DUP1 PUSH1 0x1 DUP2 SLOAD ADD DUP1 DUP3 SSTORE DUP1 SWAP2 POP POP PUSH1 0x1 SWAP1 SUB SWAP1 PUSH1 0x0 MSTORE PUSH1 0x20 PUSH1 0x0 KECCAK256 SWAP1 PUSH1 0x2 MUL ADD PUSH1 0x0 SWAP1 SWAP2 SWAP1 SWAP2 SWAP1 SWAP2 POP PUSH1 0x0 DUP3 ADD MLOAD DUP2 PUSH1 0x0 ADD PUSH1 0x0 PUSH2 0x100 EXP DUP2 SLOAD DUP2 PUSH1 0xFF MUL NOT AND SWAP1 DUP4 PUSH1 0xFF AND MUL OR SWAP1 SSTORE POP PUSH1 0x20 DUP3 ADD MLOAD DUP2 PUSH1 0x0 ADD PUSH1 0x1 PUSH2 0x100 EXP DUP2 SLOAD DUP2 PUSH1 0xFF MUL NOT AND SWAP1 DUP4 PUSH1 0xFF AND MUL OR SWAP1 SSTORE POP PUSH1 0x40 DUP3 ADD MLOAD DUP2 PUSH1 0x1 ADD SWAP1 DUP1 MLOAD SWAP1 PUSH1 0x20 ADD SWAP1 PUSH2 0x19FA SWAP3 SWAP2 SWAP1 PUSH2 0x295A JUMP JUMPDEST POP POP POP PUSH32 0x85B7A24BBFDA547A4DE90907032CD427A7580334841F5AC3772C90D7EB81FF9B PUSH1 0x3 DUP1 SLOAD SWAP1 POP DUP3 PUSH1 0x40 MLOAD PUSH2 0x1A33 SWAP3 SWAP2 SWAP1 PUSH2 0x3883 JUMP JUMPDEST PUSH1 0x40 MLOAD DUP1 SWAP2 SUB SWAP1 LOG1 POP POP POP JUMP JUMPDEST PUSH1 0x0 DUP1 PUSH1 0x0 DUP1 PUSH1 0x6 DUP6 DUP2 SLOAD DUP2 LT PUSH2 0x1A5A JUMPI PUSH2 0x1A59 PUSH2 0x3678 JUMP JUMPDEST JUMPDEST SWAP1 PUSH1 0x0 MSTORE PUSH1 0x20 PUSH1 0x0 KECCAK256 ADD PUSH1 0x0 ADD PUSH1 0x0 SWAP1 SLOAD SWAP1 PUSH2 0x100 EXP SWAP1 DIV PUSH1 0xFF AND PUSH1 0x6 DUP7 DUP2 SLOAD DUP2 LT PUSH2 0x1A89 JUMPI PUSH2 0x1A88 PUSH2 0x3678 JUMP JUMPDEST JUMPDEST SWAP1 PUSH1 0x0 MSTORE PUSH1 0x20 PUSH1 0x0 KECCAK256 ADD PUSH1 0x0 ADD PUSH1 0x1 SWAP1 SLOAD SWAP1 PUSH2 0x100 EXP SWAP1 DIV PUSH1 0xFF AND PUSH1 0x6 DUP8 DUP2 SLOAD DUP2 LT PUSH2 0x1AB8 JUMPI PUSH2 0x1AB7 PUSH2 0x3678 JUMP JUMPDEST JUMPDEST SWAP1 PUSH1 0x0 MSTORE PUSH1 0x20 PUSH1 0x0 KECCAK256 ADD PUSH1 0x0 ADD PUSH1 0x2 SWAP1 SLOAD SWAP1 PUSH2 0x100 EXP SWAP1 DIV PUSH1 0xFF AND DUP8 SWAP4 POP SWAP4 POP SWAP4 POP SWAP4 POP SWAP2 SWAP4 POP SWAP2 SWAP4 JUMP JUMPDEST DUP2 PUSH1 0x1 DUP5 DUP2 SLOAD DUP2 LT PUSH2 0x1AF8 JUMPI PUSH2 0x1AF7 PUSH2 0x3678 JUMP JUMPDEST JUMPDEST SWAP1 PUSH1 0x0 MSTORE PUSH1 0x20 PUSH1 0x0 KECCAK256 SWAP1 PUSH1 0x4 MUL ADD PUSH1 0x2 ADD SWAP1 DUP1 MLOAD SWAP1 PUSH1 0x20 ADD SWAP1 PUSH2 0x1B1C SWAP3 SWAP2 SWAP1 PUSH2 0x295A JUMP JUMPDEST POP PUSH32 0xCA72659FA153F272690B4D7725DB784120BEAC96771E0B1E62B66D678B2F3F9F DUP2 PUSH1 0x40 MLOAD PUSH2 0x1B4C SWAP2 SWAP1 PUSH2 0x2D80 JUMP JUMPDEST PUSH1 0x40 MLOAD DUP1 SWAP2 SUB SWAP1 LOG1 POP POP POP JUMP JUMPDEST PUSH1 0x0 DUP1 PUSH1 0x60 PUSH1 0x3 DUP5 PUSH1 0xFF AND DUP2 SLOAD DUP2 LT PUSH2 0x1B75 JUMPI PUSH2 0x1B74 PUSH2 0x3678 JUMP JUMPDEST JUMPDEST SWAP1 PUSH1 0x0 MSTORE PUSH1 0x20 PUSH1 0x0 KECCAK256 SWAP1 PUSH1 0x2 MUL ADD PUSH1 0x0 ADD PUSH1 0x0 SWAP1 SLOAD SWAP1 PUSH2 0x100 EXP SWAP1 DIV PUSH1 0xFF AND DUP5 PUSH1 0x3 DUP7 PUSH1 0xFF AND DUP2 SLOAD DUP2 LT PUSH2 0x1BAC JUMPI PUSH2 0x1BAB PUSH2 0x3678 JUMP JUMPDEST JUMPDEST SWAP1 PUSH1 0x0 MSTORE PUSH1 0x20 PUSH1 0x0 KECCAK256 SWAP1 PUSH1 0x2 MUL ADD PUSH1 0x1 ADD DUP1 DUP1 SLOAD PUSH2 0x1BC9 SWAP1 PUSH2 0x36D6 JUMP JUMPDEST DUP1 PUSH1 0x1F ADD PUSH1 0x20 DUP1 SWAP2 DIV MUL PUSH1 0x20 ADD PUSH1 0x40 MLOAD SWAP1 DUP2 ADD PUSH1 0x40 MSTORE DUP1 SWAP3 SWAP2 SWAP1 DUP2 DUP2 MSTORE PUSH1 0x20 ADD DUP3 DUP1 SLOAD PUSH2 0x1BF5 SWAP1 PUSH2 0x36D6 JUMP JUMPDEST DUP1 ISZERO PUSH2 0x1C42 JUMPI DUP1 PUSH1 0x1F LT PUSH2 0x1C17 JUMPI PUSH2 0x100 DUP1 DUP4 SLOAD DIV MUL DUP4 MSTORE SWAP2 PUSH1 0x20 ADD SWAP2 PUSH2 0x1C42 JUMP JUMPDEST DUP3 ADD SWAP2 SWAP1 PUSH1 0x0 MSTORE PUSH1 0x20 PUSH1 0x0 KECCAK256 SWAP1 JUMPDEST DUP2 SLOAD DUP2 MSTORE SWAP1 PUSH1 0x1 ADD SWAP1 PUSH1 0x20 ADD DUP1 DUP4 GT PUSH2 0x1C25 JUMPI DUP3 SWAP1 SUB PUSH1 0x1F AND DUP3 ADD SWAP2 JUMPDEST POP POP POP POP POP SWAP1 POP SWAP3 POP SWAP3 POP SWAP3 POP SWAP2 SWAP4 SWAP1 SWAP3 POP JUMP JUMPDEST PUSH1 0x0 DUP1 ISZERO ISZERO PUSH2 0x1D24 PUSH1 0x40 MLOAD DUP1 PUSH1 0x20 ADD PUSH1 0x40 MSTORE DUP1 PUSH1 0x0 DUP2 MSTORE POP PUSH1 0x1 DUP6 PUSH1 0xFF AND DUP2 SLOAD DUP2 LT PUSH2 0x1C85 JUMPI PUSH2 0x1C84 PUSH2 0x3678 JUMP JUMPDEST JUMPDEST SWAP1 PUSH1 0x0 MSTORE PUSH1 0x20 PUSH1 0x0 KECCAK256 SWAP1 PUSH1 0x4 MUL ADD PUSH1 0x1 ADD DUP1 SLOAD PUSH2 0x1CA1 SWAP1 PUSH2 0x36D6 JUMP JUMPDEST DUP1 PUSH1 0x1F ADD PUSH1 0x20 DUP1 SWAP2 DIV MUL PUSH1 0x20 ADD PUSH1 0x40 MLOAD SWAP1 DUP2 ADD PUSH1 0x40 MSTORE DUP1 SWAP3 SWAP2 SWAP1 DUP2 DUP2 MSTORE PUSH1 0x20 ADD DUP3 DUP1 SLOAD PUSH2 0x1CCD SWAP1 PUSH2 0x36D6 JUMP JUMPDEST DUP1 ISZERO PUSH2 0x1D1A JUMPI DUP1 PUSH1 0x1F LT PUSH2 0x1CEF JUMPI PUSH2 0x100 DUP1 DUP4 SLOAD DIV MUL DUP4 MSTORE SWAP2 PUSH1 0x20 ADD SWAP2 PUSH2 0x1D1A JUMP JUMPDEST DUP3 ADD SWAP2 SWAP1 PUSH1 0x0 MSTORE PUSH1 0x20 PUSH1 0x0 KECCAK256 SWAP1 JUMPDEST DUP2 SLOAD DUP2 MSTORE SWAP1 PUSH1 0x1 ADD SWAP1 PUSH1 0x20 ADD DUP1 DUP4 GT PUSH2 0x1CFD JUMPI DUP3 SWAP1 SUB PUSH1 0x1F AND DUP3 ADD SWAP2 JUMPDEST POP POP POP POP POP PUSH2 0x16BC JUMP JUMPDEST ISZERO ISZERO EQ PUSH2 0x1D30 JUMPI PUSH1 0x0 DUP1 REVERT JUMPDEST PUSH1 0x5 PUSH1 0x0 DUP4 PUSH1 0xFF AND PUSH1 0xFF AND DUP2 MSTORE PUSH1 0x20 ADD SWAP1 DUP2 MSTORE PUSH1 0x20 ADD PUSH1 0x0 KECCAK256 DUP1 SLOAD SWAP1 POP SWAP1 POP SWAP2 SWAP1 POP JUMP JUMPDEST PUSH1 0x0 ISZERO ISZERO PUSH2 0x1D66 DUP7 DUP7 DUP7 PUSH1 0xFF AND PUSH2 0x671 JUMP JUMPDEST ISZERO ISZERO EQ ISZERO PUSH2 0x1DA9 JUMPI PUSH32 0x187D45CDCFFADEF7C066A1F9CC05D58C3EC1A3887390655DBA7D64BB61C5A66B PUSH1 0x2 DUP3 PUSH1 0x40 MLOAD PUSH2 0x1DA0 SWAP3 SWAP2 SWAP1 PUSH2 0x38F1 JUMP JUMPDEST PUSH1 0x40 MLOAD DUP1 SWAP2 SUB SWAP1 LOG1 JUMPDEST PUSH1 0x0 ISZERO ISZERO PUSH2 0x1DB6 DUP4 PUSH2 0x234F JUMP JUMPDEST ISZERO ISZERO EQ ISZERO PUSH2 0x1DF9 JUMPI PUSH32 0x187D45CDCFFADEF7C066A1F9CC05D58C3EC1A3887390655DBA7D64BB61C5A66B PUSH1 0x2 DUP3 PUSH1 0x40 MLOAD PUSH2 0x1DF0 SWAP3 SWAP2 SWAP1 PUSH2 0x38F1 JUMP JUMPDEST PUSH1 0x40 MLOAD DUP1 SWAP2 SUB SWAP1 LOG1 JUMPDEST PUSH1 0x4 PUSH1 0x0 DUP4 PUSH1 0xFF AND PUSH1 0xFF AND DUP2 MSTORE PUSH1 0x20 ADD SWAP1 DUP2 MSTORE PUSH1 0x20 ADD PUSH1 0x0 KECCAK256 PUSH1 0x0 DUP2 SLOAD DUP1 SWAP3 SWAP2 SWAP1 PUSH2 0x1E23 SWAP1 PUSH2 0x3811 JUMP JUMPDEST SWAP2 SWAP1 POP SSTORE POP PUSH1 0x0 PUSH1 0x3 DUP4 PUSH1 0xFF AND DUP2 SLOAD DUP2 LT PUSH2 0x1E41 JUMPI PUSH2 0x1E40 PUSH2 0x3678 JUMP JUMPDEST JUMPDEST SWAP1 PUSH1 0x0 MSTORE PUSH1 0x20 PUSH1 0x0 KECCAK256 SWAP1 PUSH1 0x2 MUL ADD PUSH1 0x0 ADD PUSH1 0x0 SWAP1 SLOAD SWAP1 PUSH2 0x100 EXP SWAP1 DIV PUSH1 0xFF AND PUSH1 0xFF AND EQ ISZERO PUSH2 0x1EA8 JUMPI PUSH32 0x187D45CDCFFADEF7C066A1F9CC05D58C3EC1A3887390655DBA7D64BB61C5A66B PUSH1 0x0 DUP3 PUSH1 0x40 MLOAD PUSH2 0x1E9B SWAP3 SWAP2 SWAP1 PUSH2 0x3955 JUMP JUMPDEST PUSH1 0x40 MLOAD DUP1 SWAP2 SUB SWAP1 LOG1 PUSH2 0x2348 JUMP JUMPDEST PUSH1 0x1 PUSH1 0x3 DUP4 PUSH1 0xFF AND DUP2 SLOAD DUP2 LT PUSH2 0x1EC1 JUMPI PUSH2 0x1EC0 PUSH2 0x3678 JUMP JUMPDEST JUMPDEST SWAP1 PUSH1 0x0 MSTORE PUSH1 0x20 PUSH1 0x0 KECCAK256 SWAP1 PUSH1 0x2 MUL ADD PUSH1 0x0 ADD PUSH1 0x0 SWAP1 SLOAD SWAP1 PUSH2 0x100 EXP SWAP1 DIV PUSH1 0xFF AND PUSH1 0xFF AND EQ ISZERO PUSH2 0x2001 JUMPI PUSH1 0x5 PUSH1 0x0 DUP5 PUSH1 0xFF AND PUSH1 0xFF AND DUP2 MSTORE PUSH1 0x20 ADD SWAP1 DUP2 MSTORE PUSH1 0x20 ADD PUSH1 0x0 KECCAK256 PUSH1 0x40 MLOAD DUP1 PUSH1 0x80 ADD PUSH1 0x40 MSTORE DUP1 DUP5 PUSH1 0xFF AND DUP2 MSTORE PUSH1 0x20 ADD TIMESTAMP DUP2 MSTORE PUSH1 0x20 ADD PUSH1 0x0 ISZERO ISZERO DUP2 MSTORE PUSH1 0x20 ADD PUSH1 0x0 ISZERO ISZERO DUP2 MSTORE POP SWAP1 DUP1 PUSH1 0x1 DUP2 SLOAD ADD DUP1 DUP3 SSTORE DUP1 SWAP2 POP POP PUSH1 0x1 SWAP1 SUB SWAP1 PUSH1 0x0 MSTORE PUSH1 0x20 PUSH1 0x0 KECCAK256 SWAP1 PUSH1 0x3 MUL ADD PUSH1 0x0 SWAP1 SWAP2 SWAP1 SWAP2 SWAP1 SWAP2 POP PUSH1 0x0 DUP3 ADD MLOAD DUP2 PUSH1 0x0 ADD PUSH1 0x0 PUSH2 0x100 EXP DUP2 SLOAD DUP2 PUSH1 0xFF MUL NOT AND SWAP1 DUP4 PUSH1 0xFF AND MUL OR SWAP1 SSTORE POP PUSH1 0x20 DUP3 ADD MLOAD DUP2 PUSH1 0x1 ADD SSTORE PUSH1 0x40 DUP3 ADD MLOAD DUP2 PUSH1 0x2 ADD PUSH1 0x0 PUSH2 0x100 EXP DUP2 SLOAD DUP2 PUSH1 0xFF MUL NOT AND SWAP1 DUP4 ISZERO ISZERO MUL OR SWAP1 SSTORE POP PUSH1 0x60 DUP3 ADD MLOAD DUP2 PUSH1 0x2 ADD PUSH1 0x1 PUSH2 0x100 EXP DUP2 SLOAD DUP2 PUSH1 0xFF MUL NOT AND SWAP1 DUP4 ISZERO ISZERO MUL OR SWAP1 SSTORE POP POP POP PUSH32 0x187D45CDCFFADEF7C066A1F9CC05D58C3EC1A3887390655DBA7D64BB61C5A66B PUSH1 0x0 DUP3 PUSH1 0x40 MLOAD PUSH2 0x1FF4 SWAP3 SWAP2 SWAP1 PUSH2 0x3955 JUMP JUMPDEST PUSH1 0x40 MLOAD DUP1 SWAP2 SUB SWAP1 LOG1 PUSH2 0x2347 JUMP JUMPDEST PUSH1 0x2 PUSH1 0x3 DUP4 PUSH1 0xFF AND DUP2 SLOAD DUP2 LT PUSH2 0x201A JUMPI PUSH2 0x2019 PUSH2 0x3678 JUMP JUMPDEST JUMPDEST SWAP1 PUSH1 0x0 MSTORE PUSH1 0x20 PUSH1 0x0 KECCAK256 SWAP1 PUSH1 0x2 MUL ADD PUSH1 0x0 ADD PUSH1 0x0 SWAP1 SLOAD SWAP1 PUSH2 0x100 EXP SWAP1 DIV PUSH1 0xFF AND PUSH1 0xFF AND EQ ISZERO PUSH2 0x2232 JUMPI PUSH1 0x5 PUSH1 0x0 DUP5 PUSH1 0xFF AND PUSH1 0xFF AND DUP2 MSTORE PUSH1 0x20 ADD SWAP1 DUP2 MSTORE PUSH1 0x20 ADD PUSH1 0x0 KECCAK256 PUSH1 0x40 MLOAD DUP1 PUSH1 0x80 ADD PUSH1 0x40 MSTORE DUP1 DUP5 PUSH1 0xFF AND DUP2 MSTORE PUSH1 0x20 ADD TIMESTAMP DUP2 MSTORE PUSH1 0x20 ADD PUSH1 0x1 ISZERO ISZERO DUP2 MSTORE PUSH1 0x20 ADD PUSH1 0x0 ISZERO ISZERO DUP2 MSTORE POP SWAP1 DUP1 PUSH1 0x1 DUP2 SLOAD ADD DUP1 DUP3 SSTORE DUP1 SWAP2 POP POP PUSH1 0x1 SWAP1 SUB SWAP1 PUSH1 0x0 MSTORE PUSH1 0x20 PUSH1 0x0 KECCAK256 SWAP1 PUSH1 0x3 MUL ADD PUSH1 0x0 SWAP1 SWAP2 SWAP1 SWAP2 SWAP1 SWAP2 POP PUSH1 0x0 DUP3 ADD MLOAD DUP2 PUSH1 0x0 ADD PUSH1 0x0 PUSH2 0x100 EXP DUP2 SLOAD DUP2 PUSH1 0xFF MUL NOT AND SWAP1 DUP4 PUSH1 0xFF AND MUL OR SWAP1 SSTORE POP PUSH1 0x20 DUP3 ADD MLOAD DUP2 PUSH1 0x1 ADD SSTORE PUSH1 0x40 DUP3 ADD MLOAD DUP2 PUSH1 0x2 ADD PUSH1 0x0 PUSH2 0x100 EXP DUP2 SLOAD DUP2 PUSH1 0xFF MUL NOT AND SWAP1 DUP4 ISZERO ISZERO MUL OR SWAP1 SSTORE POP PUSH1 0x60 DUP3 ADD MLOAD DUP2 PUSH1 0x2 ADD PUSH1 0x1 PUSH2 0x100 EXP DUP2 SLOAD DUP2 PUSH1 0xFF MUL NOT AND SWAP1 DUP4 ISZERO ISZERO MUL OR SWAP1 SSTORE POP POP POP PUSH1 0x6 PUSH1 0x40 MLOAD DUP1 PUSH1 0x60 ADD PUSH1 0x40 MSTORE DUP1 DUP6 PUSH1 0xFF AND DUP2 MSTORE PUSH1 0x20 ADD DUP5 PUSH1 0xFF AND DUP2 MSTORE PUSH1 0x20 ADD PUSH1 0x1 PUSH1 0x5 PUSH1 0x0 DUP9 PUSH1 0xFF AND PUSH1 0xFF AND DUP2 MSTORE PUSH1 0x20 ADD SWAP1 DUP2 MSTORE PUSH1 0x20 ADD PUSH1 0x0 KECCAK256 DUP1 SLOAD SWAP1 POP PUSH2 0x2163 SWAP2 SWAP1 PUSH2 0x375B JUMP JUMPDEST PUSH1 0xFF AND DUP2 MSTORE POP SWAP1 DUP1 PUSH1 0x1 DUP2 SLOAD ADD DUP1 DUP3 SSTORE DUP1 SWAP2 POP POP PUSH1 0x1 SWAP1 SUB SWAP1 PUSH1 0x0 MSTORE PUSH1 0x20 PUSH1 0x0 KECCAK256 ADD PUSH1 0x0 SWAP1 SWAP2 SWAP1 SWAP2 SWAP1 SWAP2 POP PUSH1 0x0 DUP3 ADD MLOAD DUP2 PUSH1 0x0 ADD PUSH1 0x0 PUSH2 0x100 EXP DUP2 SLOAD DUP2 PUSH1 0xFF MUL NOT AND SWAP1 DUP4 PUSH1 0xFF AND MUL OR SWAP1 SSTORE POP PUSH1 0x20 DUP3 ADD MLOAD DUP2 PUSH1 0x0 ADD PUSH1 0x1 PUSH2 0x100 EXP DUP2 SLOAD DUP2 PUSH1 0xFF MUL NOT AND SWAP1 DUP4 PUSH1 0xFF AND MUL OR SWAP1 SSTORE POP PUSH1 0x40 DUP3 ADD MLOAD DUP2 PUSH1 0x0 ADD PUSH1 0x2 PUSH2 0x100 EXP DUP2 SLOAD DUP2 PUSH1 0xFF MUL NOT AND SWAP1 DUP4 PUSH1 0xFF AND MUL OR SWAP1 SSTORE POP POP POP PUSH32 0x187D45CDCFFADEF7C066A1F9CC05D58C3EC1A3887390655DBA7D64BB61C5A66B PUSH1 0x1 DUP3 PUSH1 0x40 MLOAD PUSH2 0x2225 SWAP3 SWAP2 SWAP1 PUSH2 0x39B9 JUMP JUMPDEST PUSH1 0x40 MLOAD DUP1 SWAP2 SUB SWAP1 LOG1 PUSH2 0x2346 JUMP JUMPDEST PUSH1 0x5 PUSH1 0x0 DUP5 PUSH1 0xFF AND PUSH1 0xFF AND DUP2 MSTORE PUSH1 0x20 ADD SWAP1 DUP2 MSTORE PUSH1 0x20 ADD PUSH1 0x0 KECCAK256 PUSH1 0x40 MLOAD DUP1 PUSH1 0x80 ADD PUSH1 0x40 MSTORE DUP1 DUP5 PUSH1 0xFF AND DUP2 MSTORE PUSH1 0x20 ADD TIMESTAMP DUP2 MSTORE PUSH1 0x20 ADD PUSH1 0x0 ISZERO ISZERO DUP2 MSTORE PUSH1 0x20 ADD PUSH1 0x1 ISZERO ISZERO DUP2 MSTORE POP SWAP1 DUP1 PUSH1 0x1 DUP2 SLOAD ADD DUP1 DUP3 SSTORE DUP1 SWAP2 POP POP PUSH1 0x1 SWAP1 SUB SWAP1 PUSH1 0x0 MSTORE PUSH1 0x20 PUSH1 0x0 KECCAK256 SWAP1 PUSH1 0x3 MUL ADD PUSH1 0x0 SWAP1 SWAP2 SWAP1 SWAP2 SWAP1 SWAP2 POP PUSH1 0x0 DUP3 ADD MLOAD DUP2 PUSH1 0x0 ADD PUSH1 0x0 PUSH2 0x100 EXP DUP2 SLOAD DUP2 PUSH1 0xFF MUL NOT AND SWAP1 DUP4 PUSH1 0xFF AND MUL OR SWAP1 SSTORE POP PUSH1 0x20 DUP3 ADD MLOAD DUP2 PUSH1 0x1 ADD SSTORE PUSH1 0x40 DUP3 ADD MLOAD DUP2 PUSH1 0x2 ADD PUSH1 0x0 PUSH2 0x100 EXP DUP2 SLOAD DUP2 PUSH1 0xFF MUL NOT AND SWAP1 DUP4 ISZERO ISZERO MUL OR SWAP1 SSTORE POP PUSH1 0x60 DUP3 ADD MLOAD DUP2 PUSH1 0x2 ADD PUSH1 0x1 PUSH2 0x100 EXP DUP2 SLOAD DUP2 PUSH1 0xFF MUL NOT AND SWAP1 DUP4 ISZERO ISZERO MUL OR SWAP1 SSTORE POP POP POP PUSH32 0x187D45CDCFFADEF7C066A1F9CC05D58C3EC1A3887390655DBA7D64BB61C5A66B PUSH1 0x2 DUP3 PUSH1 0x40 MLOAD PUSH2 0x233D SWAP3 SWAP2 SWAP1 PUSH2 0x38F1 JUMP JUMPDEST PUSH1 0x40 MLOAD DUP1 SWAP2 SUB SWAP1 LOG1 JUMPDEST JUMPDEST JUMPDEST POP POP POP POP POP JUMP JUMPDEST PUSH1 0x0 PUSH1 0x3 DUP1 SLOAD SWAP1 POP DUP3 PUSH1 0xFF AND LT SWAP1 POP SWAP2 SWAP1 POP JUMP JUMPDEST PUSH1 0x6 DUP2 DUP2 SLOAD DUP2 LT PUSH2 0x2373 JUMPI PUSH1 0x0 DUP1 REVERT JUMPDEST SWAP1 PUSH1 0x0 MSTORE PUSH1 0x20 PUSH1 0x0 KECCAK256 ADD PUSH1 0x0 SWAP2 POP SWAP1 POP DUP1 PUSH1 0x0 ADD PUSH1 0x0 SWAP1 SLOAD SWAP1 PUSH2 0x100 EXP SWAP1 DIV PUSH1 0xFF AND SWAP1 DUP1 PUSH1 0x0 ADD PUSH1 0x1 SWAP1 SLOAD SWAP1 PUSH2 0x100 EXP SWAP1 DIV PUSH1 0xFF AND SWAP1 DUP1 PUSH1 0x0 ADD PUSH1 0x2 SWAP1 SLOAD SWAP1 PUSH2 0x100 EXP SWAP1 DIV PUSH1 0xFF AND SWAP1 POP DUP4 JUMP JUMPDEST PUSH1 0x0 PUSH1 0x3 DUP1 SLOAD SWAP1 POP SWAP1 POP SWAP1 JUMP JUMPDEST PUSH1 0x2 SLOAD DUP2 JUMP JUMPDEST PUSH1 0x0 PUSH1 0x60 DUP1 PUSH1 0x1 DUP1 SLOAD SWAP1 POP DUP5 PUSH1 0xFF AND LT PUSH2 0x23EC JUMPI PUSH1 0x0 DUP1 REVERT JUMPDEST PUSH1 0x0 ISZERO ISZERO PUSH2 0x24B9 PUSH1 0x40 MLOAD DUP1 PUSH1 0x20 ADD PUSH1 0x40 MSTORE DUP1 PUSH1 0x0 DUP2 MSTORE POP PUSH1 0x1 DUP8 PUSH1 0xFF AND DUP2 SLOAD DUP2 LT PUSH2 0x241A JUMPI PUSH2 0x2419 PUSH2 0x3678 JUMP JUMPDEST JUMPDEST SWAP1 PUSH1 0x0 MSTORE PUSH1 0x20 PUSH1 0x0 KECCAK256 SWAP1 PUSH1 0x4 MUL ADD PUSH1 0x1 ADD DUP1 SLOAD PUSH2 0x2436 SWAP1 PUSH2 0x36D6 JUMP JUMPDEST DUP1 PUSH1 0x1F ADD PUSH1 0x20 DUP1 SWAP2 DIV MUL PUSH1 0x20 ADD PUSH1 0x40 MLOAD SWAP1 DUP2 ADD PUSH1 0x40 MSTORE DUP1 SWAP3 SWAP2 SWAP1 DUP2 DUP2 MSTORE PUSH1 0x20 ADD DUP3 DUP1 SLOAD PUSH2 0x2462 SWAP1 PUSH2 0x36D6 JUMP JUMPDEST DUP1 ISZERO PUSH2 0x24AF JUMPI DUP1 PUSH1 0x1F LT PUSH2 0x2484 JUMPI PUSH2 0x100 DUP1 DUP4 SLOAD DIV MUL DUP4 MSTORE SWAP2 PUSH1 0x20 ADD SWAP2 PUSH2 0x24AF JUMP JUMPDEST DUP3 ADD SWAP2 SWAP1 PUSH1 0x0 MSTORE PUSH1 0x20 PUSH1 0x0 KECCAK256 SWAP1 JUMPDEST DUP2 SLOAD DUP2 MSTORE SWAP1 PUSH1 0x1 ADD SWAP1 PUSH1 0x20 ADD DUP1 DUP4 GT PUSH2 0x2492 JUMPI DUP3 SWAP1 SUB PUSH1 0x1F AND DUP3 ADD SWAP2 JUMPDEST POP POP POP POP POP PUSH2 0x16BC JUMP JUMPDEST ISZERO ISZERO EQ PUSH2 0x24C5 JUMPI PUSH1 0x0 DUP1 REVERT JUMPDEST DUP4 PUSH1 0x1 DUP6 PUSH1 0xFF AND DUP2 SLOAD DUP2 LT PUSH2 0x24DD JUMPI PUSH2 0x24DC PUSH2 0x3678 JUMP JUMPDEST JUMPDEST SWAP1 PUSH1 0x0 MSTORE PUSH1 0x20 PUSH1 0x0 KECCAK256 SWAP1 PUSH1 0x4 MUL ADD PUSH1 0x2 ADD PUSH1 0x1 DUP7 PUSH1 0xFF AND DUP2 SLOAD DUP2 LT PUSH2 0x2505 JUMPI PUSH2 0x2504 PUSH2 0x3678 JUMP JUMPDEST JUMPDEST SWAP1 PUSH1 0x0 MSTORE PUSH1 0x20 PUSH1 0x0 KECCAK256 SWAP1 PUSH1 0x4 MUL ADD PUSH1 0x3 ADD DUP2 DUP1 SLOAD PUSH2 0x2522 SWAP1 PUSH2 0x36D6 JUMP JUMPDEST DUP1 PUSH1 0x1F ADD PUSH1 0x20 DUP1 SWAP2 DIV MUL PUSH1 0x20 ADD PUSH1 0x40 MLOAD SWAP1 DUP2 ADD PUSH1 0x40 MSTORE DUP1 SWAP3 SWAP2 SWAP1 DUP2 DUP2 MSTORE PUSH1 0x20 ADD DUP3 DUP1 SLOAD PUSH2 0x254E SWAP1 PUSH2 0x36D6 JUMP JUMPDEST DUP1 ISZERO PUSH2 0x259B JUMPI DUP1 PUSH1 0x1F LT PUSH2 0x2570 JUMPI PUSH2 0x100 DUP1 DUP4 SLOAD DIV MUL DUP4 MSTORE SWAP2 PUSH1 0x20 ADD SWAP2 PUSH2 0x259B JUMP JUMPDEST DUP3 ADD SWAP2 SWAP1 PUSH1 0x0 MSTORE PUSH1 0x20 PUSH1 0x0 KECCAK256 SWAP1 JUMPDEST DUP2 SLOAD DUP2 MSTORE SWAP1 PUSH1 0x1 ADD SWAP1 PUSH1 0x20 ADD DUP1 DUP4 GT PUSH2 0x257E JUMPI DUP3 SWAP1 SUB PUSH1 0x1F AND DUP3 ADD SWAP2 JUMPDEST POP POP POP POP POP SWAP2 POP DUP1 DUP1 SLOAD PUSH2 0x25AE SWAP1 PUSH2 0x36D6 JUMP JUMPDEST DUP1 PUSH1 0x1F ADD PUSH1 0x20 DUP1 SWAP2 DIV MUL PUSH1 0x20 ADD PUSH1 0x40 MLOAD SWAP1 DUP2 ADD PUSH1 0x40 MSTORE DUP1 SWAP3 SWAP2 SWAP1 DUP2 DUP2 MSTORE PUSH1 0x20 ADD DUP3 DUP1 SLOAD PUSH2 0x25DA SWAP1 PUSH2 0x36D6 JUMP JUMPDEST DUP1 ISZERO PUSH2 0x2627 JUMPI DUP1 PUSH1 0x1F LT PUSH2 0x25FC JUMPI PUSH2 0x100 DUP1 DUP4 SLOAD DIV MUL DUP4 MSTORE SWAP2 PUSH1 0x20 ADD SWAP2 PUSH2 0x2627 JUMP JUMPDEST DUP3 ADD SWAP2 SWAP1 PUSH1 0x0 MSTORE PUSH1 0x20 PUSH1 0x0 KECCAK256 SWAP1 JUMPDEST DUP2 SLOAD DUP2 MSTORE SWAP1 PUSH1 0x1 ADD SWAP1 PUSH1 0x20 ADD DUP1 DUP4 GT PUSH2 0x260A JUMPI DUP3 SWAP1 SUB PUSH1 0x1F AND DUP3 ADD SWAP2 JUMPDEST POP POP POP POP POP SWAP1 POP SWAP3 POP SWAP3 POP SWAP3 POP SWAP2 SWAP4 SWAP1 SWAP3 POP JUMP JUMPDEST PUSH1 0x1 DUP1 SLOAD SWAP1 POP DUP5 LT DUP1 ISZERO PUSH2 0x2718 JUMPI POP PUSH1 0x0 ISZERO ISZERO PUSH2 0x2714 PUSH1 0x40 MLOAD DUP1 PUSH1 0x20 ADD PUSH1 0x40 MSTORE DUP1 PUSH1 0x0 DUP2 MSTORE POP PUSH1 0x1 DUP8 DUP2 SLOAD DUP2 LT PUSH2 0x2675 JUMPI PUSH2 0x2674 PUSH2 0x3678 JUMP JUMPDEST JUMPDEST SWAP1 PUSH1 0x0 MSTORE PUSH1 0x20 PUSH1 0x0 KECCAK256 SWAP1 PUSH1 0x4 MUL ADD PUSH1 0x1 ADD DUP1 SLOAD PUSH2 0x2691 SWAP1 PUSH2 0x36D6 JUMP JUMPDEST DUP1 PUSH1 0x1F ADD PUSH1 0x20 DUP1 SWAP2 DIV MUL PUSH1 0x20 ADD PUSH1 0x40 MLOAD SWAP1 DUP2 ADD PUSH1 0x40 MSTORE DUP1 SWAP3 SWAP2 SWAP1 DUP2 DUP2 MSTORE PUSH1 0x20 ADD DUP3 DUP1 SLOAD PUSH2 0x26BD SWAP1 PUSH2 0x36D6 JUMP JUMPDEST DUP1 ISZERO PUSH2 0x270A JUMPI DUP1 PUSH1 0x1F LT PUSH2 0x26DF JUMPI PUSH2 0x100 DUP1 DUP4 SLOAD DIV MUL DUP4 MSTORE SWAP2 PUSH1 0x20 ADD SWAP2 PUSH2 0x270A JUMP JUMPDEST DUP3 ADD SWAP2 SWAP1 PUSH1 0x0 MSTORE PUSH1 0x20 PUSH1 0x0 KECCAK256 SWAP1 JUMPDEST DUP2 SLOAD DUP2 MSTORE SWAP1 PUSH1 0x1 ADD SWAP1 PUSH1 0x20 ADD DUP1 DUP4 GT PUSH2 0x26ED JUMPI DUP3 SWAP1 SUB PUSH1 0x1F AND DUP3 ADD SWAP2 JUMPDEST POP POP POP POP POP PUSH2 0x16BC JUMP JUMPDEST ISZERO ISZERO EQ JUMPDEST ISZERO PUSH2 0x27D0 JUMPI DUP3 PUSH1 0x1 DUP6 DUP2 SLOAD DUP2 LT PUSH2 0x2732 JUMPI PUSH2 0x2731 PUSH2 0x3678 JUMP JUMPDEST JUMPDEST SWAP1 PUSH1 0x0 MSTORE PUSH1 0x20 PUSH1 0x0 KECCAK256 SWAP1 PUSH1 0x4 MUL ADD PUSH1 0x2 ADD SWAP1 DUP1 MLOAD SWAP1 PUSH1 0x20 ADD SWAP1 PUSH2 0x2756 SWAP3 SWAP2 SWAP1 PUSH2 0x295A JUMP JUMPDEST POP DUP2 PUSH1 0x1 DUP6 DUP2 SLOAD DUP2 LT PUSH2 0x276C JUMPI PUSH2 0x276B PUSH2 0x3678 JUMP JUMPDEST JUMPDEST SWAP1 PUSH1 0x0 MSTORE PUSH1 0x20 PUSH1 0x0 KECCAK256 SWAP1 PUSH1 0x4 MUL ADD PUSH1 0x3 ADD SWAP1 DUP1 MLOAD SWAP1 PUSH1 0x20 ADD SWAP1 PUSH2 0x2790 SWAP3 SWAP2 SWAP1 PUSH2 0x295A JUMP JUMPDEST POP PUSH32 0xB011B0F97A46BDB71FB1D82DAE0A2B0F9655400EED969769DC22E512E8F16BD2 PUSH1 0x1 DUP3 PUSH1 0x40 MLOAD PUSH2 0x27C3 SWAP3 SWAP2 SWAP1 PUSH2 0x3732 JUMP JUMPDEST PUSH1 0x40 MLOAD DUP1 SWAP2 SUB SWAP1 LOG1 PUSH2 0x280B JUMP JUMPDEST PUSH32 0xB011B0F97A46BDB71FB1D82DAE0A2B0F9655400EED969769DC22E512E8F16BD2 PUSH1 0x0 DUP3 PUSH1 0x40 MLOAD PUSH2 0x2802 SWAP3 SWAP2 SWAP1 PUSH2 0x3732 JUMP JUMPDEST PUSH1 0x40 MLOAD DUP1 SWAP2 SUB SWAP1 LOG1 JUMPDEST POP POP POP POP JUMP JUMPDEST PUSH1 0x0 PUSH2 0x28A7 DUP3 PUSH1 0x0 DUP1 SLOAD PUSH2 0x2824 SWAP1 PUSH2 0x36D6 JUMP JUMPDEST DUP1 PUSH1 0x1F ADD PUSH1 0x20 DUP1 SWAP2 DIV MUL PUSH1 0x20 ADD PUSH1 0x40 MLOAD SWAP1 DUP2 ADD PUSH1 0x40 MSTORE DUP1 SWAP3 SWAP2 SWAP1 DUP2 DUP2 MSTORE PUSH1 0x20 ADD DUP3 DUP1 SLOAD PUSH2 0x2850 SWAP1 PUSH2 0x36D6 JUMP JUMPDEST DUP1 ISZERO PUSH2 0x289D JUMPI DUP1 PUSH1 0x1F LT PUSH2 0x2872 JUMPI PUSH2 0x100 DUP1 DUP4 SLOAD DIV MUL DUP4 MSTORE SWAP2 PUSH1 0x20 ADD SWAP2 PUSH2 0x289D JUMP JUMPDEST DUP3 ADD SWAP2 SWAP1 PUSH1 0x0 MSTORE PUSH1 0x20 PUSH1 0x0 KECCAK256 SWAP1 JUMPDEST DUP2 SLOAD DUP2 MSTORE SWAP1 PUSH1 0x1 ADD SWAP1 PUSH1 0x20 ADD DUP1 DUP4 GT PUSH2 0x2880 JUMPI DUP3 SWAP1 SUB PUSH1 0x1F AND DUP3 ADD SWAP2 JUMPDEST POP POP POP POP POP PUSH2 0x16BC JUMP JUMPDEST SWAP1 POP SWAP2 SWAP1 POP JUMP JUMPDEST PUSH1 0x0 PUSH1 0x4 PUSH1 0x0 DUP4 PUSH1 0xFF AND PUSH1 0xFF AND DUP2 MSTORE PUSH1 0x20 ADD SWAP1 DUP2 MSTORE PUSH1 0x20 ADD PUSH1 0x0 KECCAK256 SLOAD SWAP1 POP SWAP2 SWAP1 POP JUMP JUMPDEST PUSH1 0x0 PUSH1 0x6 DUP1 SLOAD SWAP1 POP SWAP1 POP SWAP1 JUMP JUMPDEST PUSH1 0x4 PUSH1 0x20 MSTORE DUP1 PUSH1 0x0 MSTORE PUSH1 0x40 PUSH1 0x0 KECCAK256 PUSH1 0x0 SWAP2 POP SWAP1 POP SLOAD DUP2 JUMP JUMPDEST POP DUP1 SLOAD PUSH2 0x2902 SWAP1 PUSH2 0x36D6 JUMP JUMPDEST PUSH1 0x0 DUP3 SSTORE DUP1 PUSH1 0x1F LT PUSH2 0x2914 JUMPI POP PUSH2 0x2933 JUMP JUMPDEST PUSH1 0x1F ADD PUSH1 0x20 SWAP1 DIV SWAP1 PUSH1 0x0 MSTORE PUSH1 0x20 PUSH1 0x0 KECCAK256 SWAP1 DUP2 ADD SWAP1 PUSH2 0x2932 SWAP2 SWAP1 PUSH2 0x2A66 JUMP JUMPDEST JUMPDEST POP JUMP JUMPDEST POP DUP1 SLOAD PUSH1 0x0 DUP3 SSTORE PUSH1 0x3 MUL SWAP1 PUSH1 0x0 MSTORE PUSH1 0x20 PUSH1 0x0 KECCAK256 SWAP1 DUP2 ADD SWAP1 PUSH2 0x2957 SWAP2 SWAP1 PUSH2 0x2A83 JUMP JUMPDEST POP JUMP JUMPDEST DUP3 DUP1 SLOAD PUSH2 0x2966 SWAP1 PUSH2 0x36D6 JUMP JUMPDEST SWAP1 PUSH1 0x0 MSTORE PUSH1 0x20 PUSH1 0x0 KECCAK256 SWAP1 PUSH1 0x1F ADD PUSH1 0x20 SWAP1 DIV DUP2 ADD SWAP3 DUP3 PUSH2 0x2988 JUMPI PUSH1 0x0 DUP6 SSTORE PUSH2 0x29CF JUMP JUMPDEST DUP3 PUSH1 0x1F LT PUSH2 0x29A1 JUMPI DUP1 MLOAD PUSH1 0xFF NOT AND DUP4 DUP1 ADD OR DUP6 SSTORE PUSH2 0x29CF JUMP JUMPDEST DUP3 DUP1 ADD PUSH1 0x1 ADD DUP6 SSTORE DUP3 ISZERO PUSH2 0x29CF JUMPI SWAP2 DUP3 ADD JUMPDEST DUP3 DUP2 GT ISZERO PUSH2 0x29CE JUMPI DUP3 MLOAD DUP3 SSTORE SWAP2 PUSH1 0x20 ADD SWAP2 SWAP1 PUSH1 0x1 ADD SWAP1 PUSH2 0x29B3 JUMP JUMPDEST JUMPDEST POP SWAP1 POP PUSH2 0x29DC SWAP2 SWAP1 PUSH2 0x2A66 JUMP JUMPDEST POP SWAP1 JUMP JUMPDEST DUP3 DUP1 SLOAD PUSH2 0x29EC SWAP1 PUSH2 0x36D6 JUMP JUMPDEST SWAP1 PUSH1 0x0 MSTORE PUSH1 0x20 PUSH1 0x0 KECCAK256 SWAP1 PUSH1 0x1F ADD PUSH1 0x20 SWAP1 DIV DUP2 ADD SWAP3 DUP3 PUSH2 0x2A0E JUMPI PUSH1 0x0 DUP6 SSTORE PUSH2 0x2A55 JUMP JUMPDEST DUP3 PUSH1 0x1F LT PUSH2 0x2A27 JUMPI DUP1 MLOAD PUSH1 0xFF NOT AND DUP4 DUP1 ADD OR DUP6 SSTORE PUSH2 0x2A55 JUMP JUMPDEST DUP3 DUP1 ADD PUSH1 0x1 ADD DUP6 SSTORE DUP3 ISZERO PUSH2 0x2A55 JUMPI SWAP2 DUP3 ADD JUMPDEST DUP3 DUP2 GT ISZERO PUSH2 0x2A54 JUMPI DUP3 MLOAD DUP3 SSTORE SWAP2 PUSH1 0x20 ADD SWAP2 SWAP1 PUSH1 0x1 ADD SWAP1 PUSH2 0x2A39 JUMP JUMPDEST JUMPDEST POP SWAP1 POP PUSH2 0x2A62 SWAP2 SWAP1 PUSH2 0x2A66 JUMP JUMPDEST POP SWAP1 JUMP JUMPDEST JUMPDEST DUP1 DUP3 GT ISZERO PUSH2 0x2A7F JUMPI PUSH1 0x0 DUP2 PUSH1 0x0 SWAP1 SSTORE POP PUSH1 0x1 ADD PUSH2 0x2A67 JUMP JUMPDEST POP SWAP1 JUMP JUMPDEST JUMPDEST DUP1 DUP3 GT ISZERO PUSH2 0x2ADA JUMPI PUSH1 0x0 DUP1 DUP3 ADD PUSH1 0x0 PUSH2 0x100 EXP DUP2 SLOAD SWAP1 PUSH1 0xFF MUL NOT AND SWAP1 SSTORE PUSH1 0x1 DUP3 ADD PUSH1 0x0 SWAP1 SSTORE PUSH1 0x2 DUP3 ADD PUSH1 0x0 PUSH2 0x100 EXP DUP2 SLOAD SWAP1 PUSH1 0xFF MUL NOT AND SWAP1 SSTORE PUSH1 0x2 DUP3 ADD PUSH1 0x1 PUSH2 0x100 EXP DUP2 SLOAD SWAP1 PUSH1 0xFF MUL NOT AND SWAP1 SSTORE POP PUSH1 0x3 ADD PUSH2 0x2A84 JUMP JUMPDEST POP SWAP1 JUMP JUMPDEST PUSH1 0x0 PUSH1 0x40 MLOAD SWAP1 POP SWAP1 JUMP JUMPDEST PUSH1 0x0 DUP1 REVERT JUMPDEST PUSH1 0x0 DUP1 REVERT JUMPDEST PUSH1 0x0 PUSH20 0xFFFFFFFFFFFFFFFFFFFFFFFFFFFFFFFFFFFFFFFF DUP3 AND SWAP1 POP SWAP2 SWAP1 POP JUMP JUMPDEST PUSH1 0x0 PUSH2 0x2B1D DUP3 PUSH2 0x2AF2 JUMP JUMPDEST SWAP1 POP SWAP2 SWAP1 POP JUMP JUMPDEST PUSH2 0x2B2D DUP2 PUSH2 0x2B12 JUMP JUMPDEST DUP2 EQ PUSH2 0x2B38 JUMPI PUSH1 0x0 DUP1 REVERT JUMPDEST POP JUMP JUMPDEST PUSH1 0x0 DUP2 CALLDATALOAD SWAP1 POP PUSH2 0x2B4A DUP2 PUSH2 0x2B24 JUMP JUMPDEST SWAP3 SWAP2 POP POP JUMP JUMPDEST PUSH1 0x0 DUP1 REVERT JUMPDEST PUSH1 0x0 DUP1 REVERT JUMPDEST PUSH1 0x0 PUSH1 0x1F NOT PUSH1 0x1F DUP4 ADD AND SWAP1 POP SWAP2 SWAP1 POP JUMP JUMPDEST PUSH32 0x4E487B7100000000000000000000000000000000000000000000000000000000 PUSH1 0x0 MSTORE PUSH1 0x41 PUSH1 0x4 MSTORE PUSH1 0x24 PUSH1 0x0 REVERT JUMPDEST PUSH2 0x2BA3 DUP3 PUSH2 0x2B5A JUMP JUMPDEST DUP2 ADD DUP2 DUP2 LT PUSH8 0xFFFFFFFFFFFFFFFF DUP3 GT OR ISZERO PUSH2 0x2BC2 JUMPI PUSH2 0x2BC1 PUSH2 0x2B6B JUMP JUMPDEST JUMPDEST DUP1 PUSH1 0x40 MSTORE POP POP POP JUMP JUMPDEST PUSH1 0x0 PUSH2 0x2BD5 PUSH2 0x2ADE JUMP JUMPDEST SWAP1 POP PUSH2 0x2BE1 DUP3 DUP3 PUSH2 0x2B9A JUMP JUMPDEST SWAP2 SWAP1 POP JUMP JUMPDEST PUSH1 0x0 PUSH8 0xFFFFFFFFFFFFFFFF DUP3 GT ISZERO PUSH2 0x2C01 JUMPI PUSH2 0x2C00 PUSH2 0x2B6B JUMP JUMPDEST JUMPDEST PUSH2 0x2C0A DUP3 PUSH2 0x2B5A JUMP JUMPDEST SWAP1 POP PUSH1 0x20 DUP2 ADD SWAP1 POP SWAP2 SWAP1 POP JUMP JUMPDEST DUP3 DUP2 DUP4 CALLDATACOPY PUSH1 0x0 DUP4 DUP4 ADD MSTORE POP POP POP JUMP JUMPDEST PUSH1 0x0 PUSH2 0x2C39 PUSH2 0x2C34 DUP5 PUSH2 0x2BE6 JUMP JUMPDEST PUSH2 0x2BCB JUMP JUMPDEST SWAP1 POP DUP3 DUP2 MSTORE PUSH1 0x20 DUP2 ADD DUP5 DUP5 DUP5 ADD GT ISZERO PUSH2 0x2C55 JUMPI PUSH2 0x2C54 PUSH2 0x2B55 JUMP JUMPDEST JUMPDEST PUSH2 0x2C60 DUP5 DUP3 DUP6 PUSH2 0x2C17 JUMP JUMPDEST POP SWAP4 SWAP3 POP POP POP JUMP JUMPDEST PUSH1 0x0 DUP3 PUSH1 0x1F DUP4 ADD SLT PUSH2 0x2C7D JUMPI PUSH2 0x2C7C PUSH2 0x2B50 JUMP JUMPDEST JUMPDEST DUP2 CALLDATALOAD PUSH2 0x2C8D DUP5 DUP3 PUSH1 0x20 DUP7 ADD PUSH2 0x2C26 JUMP JUMPDEST SWAP2 POP POP SWAP3 SWAP2 POP POP JUMP JUMPDEST PUSH1 0x0 DUP2 SWAP1 POP SWAP2 SWAP1 POP JUMP JUMPDEST PUSH2 0x2CA9 DUP2 PUSH2 0x2C96 JUMP JUMPDEST DUP2 EQ PUSH2 0x2CB4 JUMPI PUSH1 0x0 DUP1 REVERT JUMPDEST POP JUMP JUMPDEST PUSH1 0x0 DUP2 CALLDATALOAD SWAP1 POP PUSH2 0x2CC6 DUP2 PUSH2 0x2CA0 JUMP JUMPDEST SWAP3 SWAP2 POP POP JUMP JUMPDEST PUSH1 0x0 DUP1 PUSH1 0x0 PUSH1 0x60 DUP5 DUP7 SUB SLT ISZERO PUSH2 0x2CE5 JUMPI PUSH2 0x2CE4 PUSH2 0x2AE8 JUMP JUMPDEST JUMPDEST PUSH1 0x0 PUSH2 0x2CF3 DUP7 DUP3 DUP8 ADD PUSH2 0x2B3B JUMP JUMPDEST SWAP4 POP POP PUSH1 0x20 DUP5 ADD CALLDATALOAD PUSH8 0xFFFFFFFFFFFFFFFF DUP2 GT ISZERO PUSH2 0x2D14 JUMPI PUSH2 0x2D13 PUSH2 0x2AED JUMP JUMPDEST JUMPDEST PUSH2 0x2D20 DUP7 DUP3 DUP8 ADD PUSH2 0x2C68 JUMP JUMPDEST SWAP3 POP POP PUSH1 0x40 PUSH2 0x2D31 DUP7 DUP3 DUP8 ADD PUSH2 0x2CB7 JUMP JUMPDEST SWAP2 POP POP SWAP3 POP SWAP3 POP SWAP3 JUMP JUMPDEST PUSH1 0x0 DUP2 ISZERO ISZERO SWAP1 POP SWAP2 SWAP1 POP JUMP JUMPDEST PUSH2 0x2D50 DUP2 PUSH2 0x2D3B JUMP JUMPDEST DUP3 MSTORE POP POP JUMP JUMPDEST PUSH1 0x0 PUSH1 0x20 DUP3 ADD SWAP1 POP PUSH2 0x2D6B PUSH1 0x0 DUP4 ADD DUP5 PUSH2 0x2D47 JUMP JUMPDEST SWAP3 SWAP2 POP POP JUMP JUMPDEST PUSH2 0x2D7A DUP2 PUSH2 0x2C96 JUMP JUMPDEST DUP3 MSTORE POP POP JUMP JUMPDEST PUSH1 0x0 PUSH1 0x20 DUP3 ADD SWAP1 POP PUSH2 0x2D95 PUSH1 0x0 DUP4 ADD DUP5 PUSH2 0x2D71 JUMP JUMPDEST SWAP3 SWAP2 POP POP JUMP JUMPDEST PUSH1 0x0 PUSH1 0x20 DUP3 DUP5 SUB SLT ISZERO PUSH2 0x2DB1 JUMPI PUSH2 0x2DB0 PUSH2 0x2AE8 JUMP JUMPDEST JUMPDEST PUSH1 0x0 PUSH2 0x2DBF DUP5 DUP3 DUP6 ADD PUSH2 0x2CB7 JUMP JUMPDEST SWAP2 POP POP SWAP3 SWAP2 POP POP JUMP JUMPDEST PUSH2 0x2DD1 DUP2 PUSH2 0x2B12 JUMP JUMPDEST DUP3 MSTORE POP POP JUMP JUMPDEST PUSH1 0x0 DUP2 MLOAD SWAP1 POP SWAP2 SWAP1 POP JUMP JUMPDEST PUSH1 0x0 DUP3 DUP3 MSTORE PUSH1 0x20 DUP3 ADD SWAP1 POP SWAP3 SWAP2 POP POP JUMP JUMPDEST PUSH1 0x0 JUMPDEST DUP4 DUP2 LT ISZERO PUSH2 0x2E11 JUMPI DUP1 DUP3 ADD MLOAD DUP2 DUP5 ADD MSTORE PUSH1 0x20 DUP2 ADD SWAP1 POP PUSH2 0x2DF6 JUMP JUMPDEST DUP4 DUP2 GT ISZERO PUSH2 0x2E20 JUMPI PUSH1 0x0 DUP5 DUP5 ADD MSTORE JUMPDEST POP POP POP POP JUMP JUMPDEST PUSH1 0x0 PUSH2 0x2E31 DUP3 PUSH2 0x2DD7 JUMP JUMPDEST PUSH2 0x2E3B DUP2 DUP6 PUSH2 0x2DE2 JUMP JUMPDEST SWAP4 POP PUSH2 0x2E4B DUP2 DUP6 PUSH1 0x20 DUP7 ADD PUSH2 0x2DF3 JUMP JUMPDEST PUSH2 0x2E54 DUP2 PUSH2 0x2B5A JUMP JUMPDEST DUP5 ADD SWAP2 POP POP SWAP3 SWAP2 POP POP JUMP JUMPDEST PUSH1 0x0 PUSH1 0x80 DUP3 ADD SWAP1 POP PUSH2 0x2E74 PUSH1 0x0 DUP4 ADD DUP8 PUSH2 0x2DC8 JUMP JUMPDEST DUP2 DUP2 SUB PUSH1 0x20 DUP4 ADD MSTORE PUSH2 0x2E86 DUP2 DUP7 PUSH2 0x2E26 JUMP JUMPDEST SWAP1 POP DUP2 DUP2 SUB PUSH1 0x40 DUP4 ADD MSTORE PUSH2 0x2E9A DUP2 DUP6 PUSH2 0x2E26 JUMP JUMPDEST SWAP1 POP DUP2 DUP2 SUB PUSH1 0x60 DUP4 ADD MSTORE PUSH2 0x2EAE DUP2 DUP5 PUSH2 0x2E26 JUMP JUMPDEST SWAP1 POP SWAP6 SWAP5 POP POP POP POP POP JUMP JUMPDEST PUSH1 0x0 PUSH1 0xFF DUP3 AND SWAP1 POP SWAP2 SWAP1 POP JUMP JUMPDEST PUSH2 0x2ECF DUP2 PUSH2 0x2EB9 JUMP JUMPDEST DUP2 EQ PUSH2 0x2EDA JUMPI PUSH1 0x0 DUP1 REVERT JUMPDEST POP JUMP JUMPDEST PUSH1 0x0 DUP2 CALLDATALOAD SWAP1 POP PUSH2 0x2EEC DUP2 PUSH2 0x2EC6 JUMP JUMPDEST SWAP3 SWAP2 POP POP JUMP JUMPDEST PUSH1 0x0 DUP1 PUSH1 0x40 DUP4 DUP6 SUB SLT ISZERO PUSH2 0x2F09 JUMPI PUSH2 0x2F08 PUSH2 0x2AE8 JUMP JUMPDEST JUMPDEST PUSH1 0x0 PUSH2 0x2F17 DUP6 DUP3 DUP7 ADD PUSH2 0x2EDD JUMP JUMPDEST SWAP3 POP POP PUSH1 0x20 PUSH2 0x2F28 DUP6 DUP3 DUP7 ADD PUSH2 0x2CB7 JUMP JUMPDEST SWAP2 POP POP SWAP3 POP SWAP3 SWAP1 POP JUMP JUMPDEST PUSH1 0x0 DUP1 PUSH1 0x0 PUSH1 0x60 DUP5 DUP7 SUB SLT ISZERO PUSH2 0x2F4B JUMPI PUSH2 0x2F4A PUSH2 0x2AE8 JUMP JUMPDEST JUMPDEST PUSH1 0x0 PUSH2 0x2F59 DUP7 DUP3 DUP8 ADD PUSH2 0x2EDD JUMP JUMPDEST SWAP4 POP POP PUSH1 0x20 DUP5 ADD CALLDATALOAD PUSH8 0xFFFFFFFFFFFFFFFF DUP2 GT ISZERO PUSH2 0x2F7A JUMPI PUSH2 0x2F79 PUSH2 0x2AED JUMP JUMPDEST JUMPDEST PUSH2 0x2F86 DUP7 DUP3 DUP8 ADD PUSH2 0x2C68 JUMP JUMPDEST SWAP3 POP POP PUSH1 0x40 PUSH2 0x2F97 DUP7 DUP3 DUP8 ADD PUSH2 0x2CB7 JUMP JUMPDEST SWAP2 POP POP SWAP3 POP SWAP3 POP SWAP3 JUMP JUMPDEST PUSH2 0x2FAA DUP2 PUSH2 0x2EB9 JUMP JUMPDEST DUP3 MSTORE POP POP JUMP JUMPDEST PUSH1 0x0 PUSH1 0x60 DUP3 ADD SWAP1 POP PUSH2 0x2FC5 PUSH1 0x0 DUP4 ADD DUP7 PUSH2 0x2FA1 JUMP JUMPDEST PUSH2 0x2FD2 PUSH1 0x20 DUP4 ADD DUP6 PUSH2 0x2FA1 JUMP JUMPDEST DUP2 DUP2 SUB PUSH1 0x40 DUP4 ADD MSTORE PUSH2 0x2FE4 DUP2 DUP5 PUSH2 0x2E26 JUMP JUMPDEST SWAP1 POP SWAP5 SWAP4 POP POP POP POP JUMP JUMPDEST PUSH1 0x0 DUP1 PUSH1 0x0 PUSH1 0x60 DUP5 DUP7 SUB SLT ISZERO PUSH2 0x3007 JUMPI PUSH2 0x3006 PUSH2 0x2AE8 JUMP JUMPDEST JUMPDEST PUSH1 0x0 DUP5 ADD CALLDATALOAD PUSH8 0xFFFFFFFFFFFFFFFF DUP2 GT ISZERO PUSH2 0x3025 JUMPI PUSH2 0x3024 PUSH2 0x2AED JUMP JUMPDEST JUMPDEST PUSH2 0x3031 DUP7 DUP3 DUP8 ADD PUSH2 0x2C68 JUMP JUMPDEST SWAP4 POP POP PUSH1 0x20 DUP5 ADD CALLDATALOAD PUSH8 0xFFFFFFFFFFFFFFFF DUP2 GT ISZERO PUSH2 0x3052 JUMPI PUSH2 0x3051 PUSH2 0x2AED JUMP JUMPDEST JUMPDEST PUSH2 0x305E DUP7 DUP3 DUP8 ADD PUSH2 0x2C68 JUMP JUMPDEST SWAP3 POP POP PUSH1 0x40 PUSH2 0x306F DUP7 DUP3 DUP8 ADD PUSH2 0x2CB7 JUMP JUMPDEST SWAP2 POP POP SWAP3 POP SWAP3 POP SWAP3 JUMP JUMPDEST PUSH1 0x0 DUP1 PUSH1 0x40 DUP4 DUP6 SUB SLT ISZERO PUSH2 0x3090 JUMPI PUSH2 0x308F PUSH2 0x2AE8 JUMP JUMPDEST JUMPDEST PUSH1 0x0 PUSH2 0x309E DUP6 DUP3 DUP7 ADD PUSH2 0x2EDD JUMP JUMPDEST SWAP3 POP POP PUSH1 0x20 PUSH2 0x30AF DUP6 DUP3 DUP7 ADD PUSH2 0x2EDD JUMP JUMPDEST SWAP2 POP POP SWAP3 POP SWAP3 SWAP1 POP JUMP JUMPDEST PUSH1 0x0 PUSH1 0x80 DUP3 ADD SWAP1 POP PUSH2 0x30CE PUSH1 0x0 DUP4 ADD DUP8 PUSH2 0x2FA1 JUMP JUMPDEST PUSH2 0x30DB PUSH1 0x20 DUP4 ADD DUP7 PUSH2 0x2D71 JUMP JUMPDEST PUSH2 0x30E8 PUSH1 0x40 DUP4 ADD DUP6 PUSH2 0x2D47 JUMP JUMPDEST PUSH2 0x30F5 PUSH1 0x60 DUP4 ADD DUP5 PUSH2 0x2D47 JUMP JUMPDEST SWAP6 SWAP5 POP POP POP POP POP JUMP JUMPDEST PUSH1 0x0 DUP1 PUSH1 0x0 PUSH1 0x60 DUP5 DUP7 SUB SLT ISZERO PUSH2 0x3117 JUMPI PUSH2 0x3116 PUSH2 0x2AE8 JUMP JUMPDEST JUMPDEST PUSH1 0x0 PUSH2 0x3125 DUP7 DUP3 DUP8 ADD PUSH2 0x2EDD JUMP JUMPDEST SWAP4 POP POP PUSH1 0x20 PUSH2 0x3136 DUP7 DUP3 DUP8 ADD PUSH2 0x2EDD JUMP JUMPDEST SWAP3 POP POP PUSH1 0x40 PUSH2 0x3147 DUP7 DUP3 DUP8 ADD PUSH2 0x2CB7 JUMP JUMPDEST SWAP2 POP POP SWAP3 POP SWAP3 POP SWAP3 JUMP JUMPDEST PUSH2 0x315A DUP2 PUSH2 0x2D3B JUMP JUMPDEST DUP2 EQ PUSH2 0x3165 JUMPI PUSH1 0x0 DUP1 REVERT JUMPDEST POP JUMP JUMPDEST PUSH1 0x0 DUP2 CALLDATALOAD SWAP1 POP PUSH2 0x3177 DUP2 PUSH2 0x3151 JUMP JUMPDEST SWAP3 SWAP2 POP POP JUMP JUMPDEST PUSH1 0x0 DUP1 PUSH1 0x0 PUSH1 0x60 DUP5 DUP7 SUB SLT ISZERO PUSH2 0x3196 JUMPI PUSH2 0x3195 PUSH2 0x2AE8 JUMP JUMPDEST JUMPDEST PUSH1 0x0 PUSH2 0x31A4 DUP7 DUP3 DUP8 ADD PUSH2 0x2EDD JUMP JUMPDEST SWAP4 POP POP PUSH1 0x20 PUSH2 0x31B5 DUP7 DUP3 DUP8 ADD PUSH2 0x3168 JUMP JUMPDEST SWAP3 POP POP PUSH1 0x40 PUSH2 0x31C6 DUP7 DUP3 DUP8 ADD PUSH2 0x2CB7 JUMP JUMPDEST SWAP2 POP POP SWAP3 POP SWAP3 POP SWAP3 JUMP JUMPDEST PUSH1 0x0 DUP1 PUSH1 0x40 DUP4 DUP6 SUB SLT ISZERO PUSH2 0x31E7 JUMPI PUSH2 0x31E6 PUSH2 0x2AE8 JUMP JUMPDEST JUMPDEST PUSH1 0x0 DUP4 ADD CALLDATALOAD PUSH8 0xFFFFFFFFFFFFFFFF DUP2 GT ISZERO PUSH2 0x3205 JUMPI PUSH2 0x3204 PUSH2 0x2AED JUMP JUMPDEST JUMPDEST PUSH2 0x3211 DUP6 DUP3 DUP7 ADD PUSH2 0x2C68 JUMP JUMPDEST SWAP3 POP POP PUSH1 0x20 DUP4 ADD CALLDATALOAD PUSH8 0xFFFFFFFFFFFFFFFF DUP2 GT ISZERO PUSH2 0x3232 JUMPI PUSH2 0x3231 PUSH2 0x2AED JUMP JUMPDEST JUMPDEST PUSH2 0x323E DUP6 DUP3 DUP7 ADD PUSH2 0x2C68 JUMP JUMPDEST SWAP2 POP POP SWAP3 POP SWAP3 SWAP1 POP JUMP JUMPDEST PUSH1 0x0 DUP1 PUSH1 0x0 DUP1 PUSH1 0x0 PUSH1 0xA0 DUP7 DUP9 SUB SLT ISZERO PUSH2 0x3264 JUMPI PUSH2 0x3263 PUSH2 0x2AE8 JUMP JUMPDEST JUMPDEST PUSH1 0x0 PUSH2 0x3272 DUP9 DUP3 DUP10 ADD PUSH2 0x2B3B JUMP JUMPDEST SWAP6 POP POP PUSH1 0x20 DUP7 ADD CALLDATALOAD PUSH8 0xFFFFFFFFFFFFFFFF DUP2 GT ISZERO PUSH2 0x3293 JUMPI PUSH2 0x3292 PUSH2 0x2AED JUMP JUMPDEST JUMPDEST PUSH2 0x329F DUP9 DUP3 DUP10 ADD PUSH2 0x2C68 JUMP JUMPDEST SWAP5 POP POP PUSH1 0x40 DUP7 ADD CALLDATALOAD PUSH8 0xFFFFFFFFFFFFFFFF DUP2 GT ISZERO PUSH2 0x32C0 JUMPI PUSH2 0x32BF PUSH2 0x2AED JUMP JUMPDEST JUMPDEST PUSH2 0x32CC DUP9 DUP3 DUP10 ADD PUSH2 0x2C68 JUMP JUMPDEST SWAP4 POP POP PUSH1 0x60 DUP7 ADD CALLDATALOAD PUSH8 0xFFFFFFFFFFFFFFFF DUP2 GT ISZERO PUSH2 0x32ED JUMPI PUSH2 0x32EC PUSH2 0x2AED JUMP JUMPDEST JUMPDEST PUSH2 0x32F9 DUP9 DUP3 DUP10 ADD PUSH2 0x2C68 JUMP JUMPDEST SWAP3 POP POP PUSH1 0x80 PUSH2 0x330A DUP9 DUP3 DUP10 ADD PUSH2 0x2CB7 JUMP JUMPDEST SWAP2 POP POP SWAP3 SWAP6 POP SWAP3 SWAP6 SWAP1 SWAP4 POP JUMP JUMPDEST PUSH1 0x0 PUSH1 0x80 DUP3 ADD SWAP1 POP PUSH2 0x332C PUSH1 0x0 DUP4 ADD DUP8 PUSH2 0x2FA1 JUMP JUMPDEST PUSH2 0x3339 PUSH1 0x20 DUP4 ADD DUP7 PUSH2 0x2FA1 JUMP JUMPDEST PUSH2 0x3346 PUSH1 0x40 DUP4 ADD DUP6 PUSH2 0x2FA1 JUMP JUMPDEST PUSH2 0x3353 PUSH1 0x60 DUP4 ADD DUP5 PUSH2 0x2D71 JUMP JUMPDEST SWAP6 SWAP5 POP POP POP POP POP JUMP JUMPDEST PUSH1 0x0 DUP1 PUSH1 0x0 PUSH1 0x60 DUP5 DUP7 SUB SLT ISZERO PUSH2 0x3375 JUMPI PUSH2 0x3374 PUSH2 0x2AE8 JUMP JUMPDEST JUMPDEST PUSH1 0x0 PUSH2 0x3383 DUP7 DUP3 DUP8 ADD PUSH2 0x2CB7 JUMP JUMPDEST SWAP4 POP POP PUSH1 0x20 DUP5 ADD CALLDATALOAD PUSH8 0xFFFFFFFFFFFFFFFF DUP2 GT ISZERO PUSH2 0x33A4 JUMPI PUSH2 0x33A3 PUSH2 0x2AED JUMP JUMPDEST JUMPDEST PUSH2 0x33B0 DUP7 DUP3 DUP8 ADD PUSH2 0x2C68 JUMP JUMPDEST SWAP3 POP POP PUSH1 0x40 PUSH2 0x33C1 DUP7 DUP3 DUP8 ADD PUSH2 0x2CB7 JUMP JUMPDEST SWAP2 POP POP SWAP3 POP SWAP3 POP SWAP3 JUMP JUMPDEST PUSH1 0x0 PUSH1 0x20 DUP3 DUP5 SUB SLT ISZERO PUSH2 0x33E1 JUMPI PUSH2 0x33E0 PUSH2 0x2AE8 JUMP JUMPDEST JUMPDEST PUSH1 0x0 PUSH2 0x33EF DUP5 DUP3 DUP6 ADD PUSH2 0x2EDD JUMP JUMPDEST SWAP2 POP POP SWAP3 SWAP2 POP POP JUMP JUMPDEST PUSH1 0x0 DUP1 PUSH1 0x0 DUP1 PUSH1 0x0 PUSH1 0xA0 DUP7 DUP9 SUB SLT ISZERO PUSH2 0x3414 JUMPI PUSH2 0x3413 PUSH2 0x2AE8 JUMP JUMPDEST JUMPDEST PUSH1 0x0 PUSH2 0x3422 DUP9 DUP3 DUP10 ADD PUSH2 0x2B3B JUMP JUMPDEST SWAP6 POP POP PUSH1 0x20 DUP7 ADD CALLDATALOAD PUSH8 0xFFFFFFFFFFFFFFFF DUP2 GT ISZERO PUSH2 0x3443 JUMPI PUSH2 0x3442 PUSH2 0x2AED JUMP JUMPDEST JUMPDEST PUSH2 0x344F DUP9 DUP3 DUP10 ADD PUSH2 0x2C68 JUMP JUMPDEST SWAP5 POP POP PUSH1 0x40 PUSH2 0x3460 DUP9 DUP3 DUP10 ADD PUSH2 0x2EDD JUMP JUMPDEST SWAP4 POP POP PUSH1 0x60 PUSH2 0x3471 DUP9 DUP3 DUP10 ADD PUSH2 0x2EDD JUMP JUMPDEST SWAP3 POP POP PUSH1 0x80 PUSH2 0x3482 DUP9 DUP3 DUP10 ADD PUSH2 0x2CB7 JUMP JUMPDEST SWAP2 POP POP SWAP3 SWAP6 POP SWAP3 SWAP6 SWAP1 SWAP4 POP JUMP JUMPDEST PUSH1 0x0 PUSH1 0x60 DUP3 ADD SWAP1 POP PUSH2 0x34A4 PUSH1 0x0 DUP4 ADD DUP7 PUSH2 0x2FA1 JUMP JUMPDEST PUSH2 0x34B1 PUSH1 0x20 DUP4 ADD DUP6 PUSH2 0x2FA1 JUMP JUMPDEST PUSH2 0x34BE PUSH1 0x40 DUP4 ADD DUP5 PUSH2 0x2FA1 JUMP JUMPDEST SWAP5 SWAP4 POP POP POP POP JUMP JUMPDEST PUSH1 0x0 PUSH1 0x60 DUP3 ADD SWAP1 POP PUSH2 0x34DB PUSH1 0x0 DUP4 ADD DUP7 PUSH2 0x2FA1 JUMP JUMPDEST DUP2 DUP2 SUB PUSH1 0x20 DUP4 ADD MSTORE PUSH2 0x34ED DUP2 DUP6 PUSH2 0x2E26 JUMP JUMPDEST SWAP1 POP DUP2 DUP2 SUB PUSH1 0x40 DUP4 ADD MSTORE PUSH2 0x3501 DUP2 DUP5 PUSH2 0x2E26 JUMP JUMPDEST SWAP1 POP SWAP5 SWAP4 POP POP POP POP JUMP JUMPDEST PUSH1 0x0 DUP1 PUSH1 0x0 DUP1 PUSH1 0x80 DUP6 DUP8 SUB SLT ISZERO PUSH2 0x3525 JUMPI PUSH2 0x3524 PUSH2 0x2AE8 JUMP JUMPDEST JUMPDEST PUSH1 0x0 PUSH2 0x3533 DUP8 DUP3 DUP9 ADD PUSH2 0x2CB7 JUMP JUMPDEST SWAP5 POP POP PUSH1 0x20 DUP6 ADD CALLDATALOAD PUSH8 0xFFFFFFFFFFFFFFFF DUP2 GT ISZERO PUSH2 0x3554 JUMPI PUSH2 0x3553 PUSH2 0x2AED JUMP JUMPDEST JUMPDEST PUSH2 0x3560 DUP8 DUP3 DUP9 ADD PUSH2 0x2C68 JUMP JUMPDEST SWAP4 POP POP PUSH1 0x40 DUP6 ADD CALLDATALOAD PUSH8 0xFFFFFFFFFFFFFFFF DUP2 GT ISZERO PUSH2 0x3581 JUMPI PUSH2 0x3580 PUSH2 0x2AED JUMP JUMPDEST JUMPDEST PUSH2 0x358D DUP8 DUP3 DUP9 ADD PUSH2 0x2C68 JUMP JUMPDEST SWAP3 POP POP PUSH1 0x60 PUSH2 0x359E DUP8 DUP3 DUP9 ADD PUSH2 0x2CB7 JUMP JUMPDEST SWAP2 POP POP SWAP3 SWAP6 SWAP2 SWAP5 POP SWAP3 POP JUMP JUMPDEST PUSH1 0x0 PUSH1 0x20 DUP3 DUP5 SUB SLT ISZERO PUSH2 0x35C0 JUMPI PUSH2 0x35BF PUSH2 0x2AE8 JUMP JUMPDEST JUMPDEST PUSH1 0x0 DUP3 ADD CALLDATALOAD PUSH8 0xFFFFFFFFFFFFFFFF DUP2 GT ISZERO PUSH2 0x35DE JUMPI PUSH2 0x35DD PUSH2 0x2AED JUMP JUMPDEST JUMPDEST PUSH2 0x35EA DUP5 DUP3 DUP6 ADD PUSH2 0x2C68 JUMP JUMPDEST SWAP2 POP POP SWAP3 SWAP2 POP POP JUMP JUMPDEST PUSH32 0x4E487B7100000000000000000000000000000000000000000000000000000000 PUSH1 0x0 MSTORE PUSH1 0x11 PUSH1 0x4 MSTORE PUSH1 0x24 PUSH1 0x0 REVERT JUMPDEST PUSH1 0x0 PUSH2 0x362D DUP3 PUSH2 0x2C96 JUMP JUMPDEST SWAP2 POP PUSH2 0x3638 DUP4 PUSH2 0x2C96 JUMP JUMPDEST SWAP3 POP DUP3 PUSH32 0xFFFFFFFFFFFFFFFFFFFFFFFFFFFFFFFFFFFFFFFFFFFFFFFFFFFFFFFFFFFFFFFF SUB DUP3 GT ISZERO PUSH2 0x366D JUMPI PUSH2 0x366C PUSH2 0x35F3 JUMP JUMPDEST JUMPDEST DUP3 DUP3 ADD SWAP1 POP SWAP3 SWAP2 POP POP JUMP JUMPDEST PUSH32 0x4E487B7100000000000000000000000000000000000000000000000000000000 PUSH1 0x0 MSTORE PUSH1 0x32 PUSH1 0x4 MSTORE PUSH1 0x24 PUSH1 0x0 REVERT JUMPDEST PUSH32 0x4E487B7100000000000000000000000000000000000000000000000000000000 PUSH1 0x0 MSTORE PUSH1 0x22 PUSH1 0x4 MSTORE PUSH1 0x24 PUSH1 0x0 REVERT JUMPDEST PUSH1 0x0 PUSH1 0x2 DUP3 DIV SWAP1 POP PUSH1 0x1 DUP3 AND DUP1 PUSH2 0x36EE JUMPI PUSH1 0x7F DUP3 AND SWAP2 POP JUMPDEST PUSH1 0x20 DUP3 LT DUP2 EQ ISZERO PUSH2 0x3702 JUMPI PUSH2 0x3701 PUSH2 0x36A7 JUMP JUMPDEST JUMPDEST POP SWAP2 SWAP1 POP JUMP JUMPDEST PUSH1 0x0 PUSH2 0x3713 DUP3 PUSH2 0x2C96 JUMP JUMPDEST SWAP2 POP PUSH1 0x0 DUP3 EQ ISZERO PUSH2 0x3727 JUMPI PUSH2 0x3726 PUSH2 0x35F3 JUMP JUMPDEST JUMPDEST PUSH1 0x1 DUP3 SUB SWAP1 POP SWAP2 SWAP1 POP JUMP JUMPDEST PUSH1 0x0 PUSH1 0x40 DUP3 ADD SWAP1 POP PUSH2 0x3747 PUSH1 0x0 DUP4 ADD DUP6 PUSH2 0x2D47 JUMP JUMPDEST PUSH2 0x3754 PUSH1 0x20 DUP4 ADD DUP5 PUSH2 0x2D71 JUMP JUMPDEST SWAP4 SWAP3 POP POP POP JUMP JUMPDEST PUSH1 0x0 PUSH2 0x3766 DUP3 PUSH2 0x2C96 JUMP JUMPDEST SWAP2 POP PUSH2 0x3771 DUP4 PUSH2 0x2C96 JUMP JUMPDEST SWAP3 POP DUP3 DUP3 LT ISZERO PUSH2 0x3784 JUMPI PUSH2 0x3783 PUSH2 0x35F3 JUMP JUMPDEST JUMPDEST DUP3 DUP3 SUB SWAP1 POP SWAP3 SWAP2 POP POP JUMP JUMPDEST PUSH32 0x4E487B7100000000000000000000000000000000000000000000000000000000 PUSH1 0x0 MSTORE PUSH1 0x31 PUSH1 0x4 MSTORE PUSH1 0x24 PUSH1 0x0 REVERT JUMPDEST PUSH1 0x0 DUP2 SWAP1 POP SWAP3 SWAP2 POP POP JUMP JUMPDEST PUSH1 0x0 PUSH2 0x37D4 DUP3 PUSH2 0x2DD7 JUMP JUMPDEST PUSH2 0x37DE DUP2 DUP6 PUSH2 0x37BE JUMP JUMPDEST SWAP4 POP PUSH2 0x37EE DUP2 DUP6 PUSH1 0x20 DUP7 ADD PUSH2 0x2DF3 JUMP JUMPDEST DUP1 DUP5 ADD SWAP2 POP POP SWAP3 SWAP2 POP POP JUMP JUMPDEST PUSH1 0x0 PUSH2 0x3806 DUP3 DUP5 PUSH2 0x37C9 JUMP JUMPDEST SWAP2 POP DUP2 SWAP1 POP SWAP3 SWAP2 POP POP JUMP JUMPDEST PUSH1 0x0 PUSH2 0x381C DUP3 PUSH2 0x2C96 JUMP JUMPDEST SWAP2 POP PUSH32 0xFFFFFFFFFFFFFFFFFFFFFFFFFFFFFFFFFFFFFFFFFFFFFFFFFFFFFFFFFFFFFFFF DUP3 EQ ISZERO PUSH2 0x384F JUMPI PUSH2 0x384E PUSH2 0x35F3 JUMP JUMPDEST JUMPDEST PUSH1 0x1 DUP3 ADD SWAP1 POP SWAP2 SWAP1 POP JUMP JUMPDEST PUSH1 0x0 PUSH1 0x40 DUP3 ADD SWAP1 POP PUSH2 0x386F PUSH1 0x0 DUP4 ADD DUP6 PUSH2 0x2FA1 JUMP JUMPDEST PUSH2 0x387C PUSH1 0x20 DUP4 ADD DUP5 PUSH2 0x2D71 JUMP JUMPDEST SWAP4 SWAP3 POP POP POP JUMP JUMPDEST PUSH1 0x0 PUSH1 0x40 DUP3 ADD SWAP1 POP PUSH2 0x3898 PUSH1 0x0 DUP4 ADD DUP6 PUSH2 0x2D71 JUMP JUMPDEST PUSH2 0x38A5 PUSH1 0x20 DUP4 ADD DUP5 PUSH2 0x2D71 JUMP JUMPDEST SWAP4 SWAP3 POP POP POP JUMP JUMPDEST PUSH1 0x0 DUP2 SWAP1 POP SWAP2 SWAP1 POP JUMP JUMPDEST PUSH1 0x0 DUP2 SWAP1 POP SWAP2 SWAP1 POP JUMP JUMPDEST PUSH1 0x0 PUSH2 0x38DB PUSH2 0x38D6 PUSH2 0x38D1 DUP5 PUSH2 0x38AC JUMP JUMPDEST PUSH2 0x38B6 JUMP JUMPDEST PUSH2 0x2C96 JUMP JUMPDEST SWAP1 POP SWAP2 SWAP1 POP JUMP JUMPDEST PUSH2 0x38EB DUP2 PUSH2 0x38C0 JUMP JUMPDEST DUP3 MSTORE POP POP JUMP JUMPDEST PUSH1 0x0 PUSH1 0x40 DUP3 ADD SWAP1 POP PUSH2 0x3906 PUSH1 0x0 DUP4 ADD DUP6 PUSH2 0x38E2 JUMP JUMPDEST PUSH2 0x3913 PUSH1 0x20 DUP4 ADD DUP5 PUSH2 0x2D71 JUMP JUMPDEST SWAP4 SWAP3 POP POP POP JUMP JUMPDEST PUSH1 0x0 DUP2 SWAP1 POP SWAP2 SWAP1 POP JUMP JUMPDEST PUSH1 0x0 PUSH2 0x393F PUSH2 0x393A PUSH2 0x3935 DUP5 PUSH2 0x391A JUMP JUMPDEST PUSH2 0x38B6 JUMP JUMPDEST PUSH2 0x2C96 JUMP JUMPDEST SWAP1 POP SWAP2 SWAP1 POP JUMP JUMPDEST PUSH2 0x394F DUP2 PUSH2 0x3924 JUMP JUMPDEST DUP3 MSTORE POP POP JUMP JUMPDEST PUSH1 0x0 PUSH1 0x40 DUP3 ADD SWAP1 POP PUSH2 0x396A PUSH1 0x0 DUP4 ADD DUP6 PUSH2 0x3946 JUMP JUMPDEST PUSH2 0x3977 PUSH1 0x20 DUP4 ADD DUP5 PUSH2 0x2D71 JUMP JUMPDEST SWAP4 SWAP3 POP POP POP JUMP JUMPDEST PUSH1 0x0 DUP2 SWAP1 POP SWAP2 SWAP1 POP JUMP JUMPDEST PUSH1 0x0 PUSH2 0x39A3 PUSH2 0x399E PUSH2 0x3999 DUP5 PUSH2 0x397E JUMP JUMPDEST PUSH2 0x38B6 JUMP JUMPDEST PUSH2 0x2C96 JUMP JUMPDEST SWAP1 POP SWAP2 SWAP1 POP JUMP JUMPDEST PUSH2 0x39B3 DUP2 PUSH2 0x3988 JUMP JUMPDEST DUP3 MSTORE POP POP JUMP JUMPDEST PUSH1 0x0 PUSH1 0x40 DUP3 ADD SWAP1 POP PUSH2 0x39CE PUSH1 0x0 DUP4 ADD DUP6 PUSH2 0x39AA JUMP JUMPDEST PUSH2 0x39DB PUSH1 0x20 DUP4 ADD DUP5 PUSH2 0x2D71 JUMP JUMPDEST SWAP4 SWAP3 POP POP POP JUMP INVALID LOG2 PUSH5 0x6970667358 0x22 SLT KECCAK256 0xDB PUSH23 0x8A4EE96478756CEF10EC43F3E0909D3F454E95155CAF20 CALL PUSH25 0x7F9E5C330D64736F6C634300080C0033000000000000000000 "},"gasEstimates":{"creation":{"codeDepositCost":"2974400","executionCost":"infinite","totalCost":"infinite"},"external":{"addDevice(address,string,string,string,uint256)":"infinite","addEventType(uint8,string,uint256)":"infinite","auth(string)":"infinite","authDevice(address,string,uint256)":"infinite","authEvent(uint8)":"2823","compareStr(string,string)":"infinite","devices(uint256)":"infinite","devicesNum()":"2496","eventsById(uint8,uint256)":"infinite","eventsClass(uint256)":"infinite","eventsClassCountById(uint8)":"2881","getDeviceInfo(uint8)":"infinite","getDeviceLength()":"2514","getDeviceNum()":"2527","getEvent(uint8,uint8)":"infinite","getEventLength(uint8)":"infinite","getEventsClassCount(uint8)":"2864","getEventsClassInfo(uint8)":"infinite","getEventsClassLength()":"2490","getToDoListInfo(uint256)":"infinite","getToDoListLength()":"2533","reduceDevice(uint8,uint256)":"infinite","setDeviceInfo(uint256,string,string,uint256)":"infinite","setDeviceName(uint256,string,uint256)":"infinite","setEvent(address,string,uint8,uint8,uint256)":"infinite","setEventTypeName(uint8,string,uint256)":"infinite","setEventTypePlan(uint8,uint8,uint256)":"infinite","setPassword(string,string,uint256)":"infinite","toDoList(uint256)":"infinite","toDoListDo(uint8,bool,uint256)":"infinite"}},"methodIdentifiers":{"addDevice(address,string,string,string,uint256)":"9f91a7f8","addEventType(uint8,string,uint256)":"a1691374","auth(string)":"e4db2ceb","authDevice(address,string,uint256)":"0db638f5","authEvent(uint8)":"c1260e66","compareStr(string,string)":"87c5d5cc","devices(uint256)":"10ff8e31","devicesNum()":"c982a2bb","eventsById(uint8,uint256)":"9cdb785d","eventsClass(uint256)":"40bf1328","eventsClassCountById(uint8)":"f5d75ff9","getDeviceInfo(uint8)":"cf9253ef","getDeviceLength()":"0e4df87f","getDeviceNum()":"3ee92a08","getEvent(uint8,uint8)":"55df0ac4","getEventLength(uint8)":"a65a2e19","getEventsClassCount(uint8)":"f38f959b","getEventsClassInfo(uint8)":"a43d20ed","getEventsClassLength()":"c88806eb","getToDoListInfo(uint256)":"a185aa32","getToDoListLength()":"f586c695","reduceDevice(uint8,uint256)":"25608ee0","setDeviceInfo(uint256,string,string,uint256)":"d938b594","setDeviceName(uint256,string,uint256)":"a2be951c","setEvent(address,string,uint8,uint8,uint256)":"bc08bfac","setEventTypeName(uint8,string,uint256)":"269c969b","setEventTypePlan(uint8,uint8,uint256)":"6521d408","setPassword(string,string,uint256)":"50e3f3d4","toDoList(uint256)":"c4f48625","toDoListDo(uint8,bool,uint256)":"736f7826"}},"storageLayout":{"storage":[{"astId":8,"contract":"Connect.sol:Connect","label":"password","offset":0,"slot":"0","type":"t_bytes_storage"},{"astId":82,"contract":"Connect.sol:Connect","label":"devices","offset":0,"slot":"1","type":"t_array(t_struct(Device)78_storage)dyn_storage"},{"astId":85,"contract":"Connect.sol:Connect","label":"devicesNum","offset":0,"slot":"2","type":"t_uint256"},{"astId":390,"contract":"Connect.sol:Connect","label":"eventsClass","offset":0,"slot":"3","type":"t_array(t_struct(EventsClass)386_storage)dyn_storage"},{"astId":564,"contract":"Connect.sol:Connect","label":"eventsClassCountById","offset":0,"slot":"4","type":"t_mapping(t_uint8,t_uint256)"},{"astId":591,"contract":"Connect.sol:Connect","label":"eventsById","offset":0,"slot":"5","type":"t_mapping(t_uint8,t_array(t_struct(Events)585_storage)dyn_storage)"},{"astId":602,"contract":"Connect.sol:Connect","label":"toDoList","offset":0,"slot":"6","type":"t_array(t_struct(ToDoList)598_storage)dyn_storage"}],"types":{"t_address":{"encoding":"inplace","label":"address","numberOfBytes":"20"},"t_array(t_struct(Device)78_storage)dyn_storage":{"base":"t_struct(Device)78_storage","encoding":"dynamic_array","label":"struct Connect.Device[]","numberOfBytes":"32"},"t_array(t_struct(Events)585_storage)dyn_storage":{"base":"t_struct(Events)585_storage","encoding":"dynamic_array","label":"struct Connect.Events[]","numberOfBytes":"32"},"t_array(t_struct(EventsClass)386_storage)dyn_storage":{"base":"t_struct(EventsClass)386_storage","encoding":"dynamic_array","label":"struct Connect.EventsClass[]","numberOfBytes":"32"},"t_array(t_struct(ToDoList)598_storage)dyn_storage":{"base":"t_struct(ToDoList)598_storage","encoding":"dynamic_array","label":"struct Connect.ToDoList[]","numberOfBytes":"32"},"t_bool":{"encoding":"inplace","label":"bool","numberOfBytes":"1"},"t_bytes_storage":{"encoding":"bytes","label":"bytes","numberOfBytes":"32"},"t_mapping(t_uint8,t_array(t_struct(Events)585_storage)dyn_storage)":{"encoding":"mapping","key":"t_uint8","label":"mapping(uint8 => struct Connect.Events[])","numberOfBytes":"32","value":"t_array(t_struct(Events)585_storage)dyn_storage"},"t_mapping(t_uint8,t_uint256)":{"encoding":"mapping","key":"t_uint8","label":"mapping(uint8 => uint256)","numberOfBytes":"32","value":"t_uint256"},"t_string_storage":{"encoding":"bytes","label":"string","numberOfBytes":"32"},"t_struct(Device)78_storage":{"encoding":"inplace","label":"struct Connect.Device","members":[{"astId":71,"contract":"Connect.sol:Connect","label":"account","offset":0,"slot":"0","type":"t_address"},{"astId":73,"contract":"Connect.sol:Connect","label":"password","offset":0,"slot":"1","type":"t_string_storage"},{"astId":75,"contract":"Connect.sol:Connect","label":"name","offset":0,"slot":"2","type":"t_string_storage"},{"astId":77,"contract":"Connect.sol:Connect","label":"detail","offset":0,"slot":"3","type":"t_string_storage"}],"numberOfBytes":"128"},"t_struct(Events)585_storage":{"encoding":"inplace","label":"struct Connect.Events","members":[{"astId":578,"contract":"Connect.sol:Connect","label":"id","offset":0,"slot":"0","type":"t_uint8"},{"astId":580,"contract":"Connect.sol:Connect","label":"time","offset":0,"slot":"1","type":"t_uint256"},{"astId":582,"contract":"Connect.sol:Connect","label":"state1","offset":0,"slot":"2","type":"t_bool"},{"astId":584,"contract":"Connect.sol:Connect","label":"state2","offset":1,"slot":"2","type":"t_bool"}],"numberOfBytes":"96"},"t_struct(EventsClass)386_storage":{"encoding":"inplace","label":"struct Connect.EventsClass","members":[{"astId":381,"contract":"Connect.sol:Connect","label":"class","offset":0,"slot":"0","type":"t_uint8"},{"astId":383,"contract":"Connect.sol:Connect","label":"id","offset":1,"slot":"0","type":"t_uint8"},{"astId":385,"contract":"Connect.sol:Connect","label":"name","offset":0,"slot":"1","type":"t_string_storage"}],"numberOfBytes":"64"},"t_struct(ToDoList)598_storage":{"encoding":"inplace","label":"struct Connect.ToDoList","members":[{"astId":593,"contract":"Connect.sol:Connect","label":"device","offset":0,"slot":"0","type":"t_uint8"},{"astId":595,"contract":"Connect.sol:Connect","label":"eventType","offset":1,"slot":"0","type":"t_uint8"},{"astId":597,"contract":"Connect.sol:Connect","label":"refer","offset":2,"slot":"0","type":"t_uint8"}],"numberOfBytes":"32"},"t_uint256":{"encoding":"inplace","label":"uint256","numberOfBytes":"32"},"t_uint8":{"encoding":"inplace","label":"uint8","numberOfBytes":"1"}}},"userdoc":{"kind":"user","methods":{"compareStr(string,string)":{"notice":"Tools"},"constructor":{"notice":" "}},"version":1}}